{
  "contractName": "SupplyChain",
  "abi": [
    {
      "anonymous": false,
      "inputs": [
        {
          "indexed": false,
          "internalType": "uint256",
          "name": "cropID",
          "type": "uint256"
        },
        {
          "indexed": false,
          "internalType": "string",
          "name": "cropName",
          "type": "string"
        },
        {
          "indexed": false,
          "internalType": "uint256",
          "name": "quantity",
          "type": "uint256"
        },
        {
          "indexed": false,
          "internalType": "uint256",
          "name": "cropPrice",
          "type": "uint256"
        },
        {
          "indexed": false,
          "internalType": "address",
          "name": "faddr",
          "type": "address"
        }
      ],
      "name": "cropCreated",
      "type": "event"
    },
    {
      "anonymous": false,
      "inputs": [
        {
          "indexed": false,
          "internalType": "uint256",
          "name": "distID",
          "type": "uint256"
        },
        {
          "indexed": false,
          "internalType": "string",
          "name": "distName",
          "type": "string"
        },
        {
          "indexed": false,
          "internalType": "string",
          "name": "distAddress",
          "type": "string"
        }
      ],
      "name": "distCreated",
      "type": "event"
    },
    {
      "anonymous": false,
      "inputs": [
        {
          "indexed": false,
          "internalType": "uint256",
          "name": "farmerID",
          "type": "uint256"
        },
        {
          "indexed": false,
          "internalType": "string",
          "name": "farmerName",
          "type": "string"
        },
        {
          "indexed": false,
          "internalType": "uint256",
          "name": "farmerContact",
          "type": "uint256"
        },
        {
          "indexed": false,
          "internalType": "string",
          "name": "farmerAddress",
          "type": "string"
        }
      ],
      "name": "farmerCreated",
      "type": "event"
    },
    {
      "anonymous": false,
      "inputs": [
        {
          "indexed": false,
          "internalType": "uint256",
          "name": "retailID",
          "type": "uint256"
        },
        {
          "indexed": false,
          "internalType": "string",
          "name": "retailName",
          "type": "string"
        },
        {
          "indexed": false,
          "internalType": "string",
          "name": "retailAddress",
          "type": "string"
        }
      ],
      "name": "retailCreated",
      "type": "event"
    },
    {
      "constant": true,
      "inputs": [
        {
          "internalType": "uint256",
          "name": "",
          "type": "uint256"
        }
      ],
      "name": "cropArr",
      "outputs": [
        {
          "internalType": "uint256",
          "name": "",
          "type": "uint256"
        }
      ],
      "payable": false,
      "stateMutability": "view",
      "type": "function"
    },
    {
      "constant": true,
      "inputs": [],
      "name": "cropCount",
      "outputs": [
        {
          "internalType": "uint256",
          "name": "",
          "type": "uint256"
        }
      ],
      "payable": false,
      "stateMutability": "view",
      "type": "function"
    },
    {
      "constant": true,
      "inputs": [],
      "name": "distCount",
      "outputs": [
        {
          "internalType": "uint256",
          "name": "",
          "type": "uint256"
        }
      ],
      "payable": false,
      "stateMutability": "view",
      "type": "function"
    },
    {
      "constant": true,
      "inputs": [],
      "name": "farmerCount",
      "outputs": [
        {
          "internalType": "uint256",
          "name": "",
          "type": "uint256"
        }
      ],
      "payable": false,
      "stateMutability": "view",
      "type": "function"
    },
    {
      "constant": true,
      "inputs": [
        {
          "internalType": "uint256",
          "name": "",
          "type": "uint256"
        }
      ],
      "name": "mcrop",
      "outputs": [
        {
          "internalType": "uint256",
          "name": "cropID",
          "type": "uint256"
        },
        {
          "internalType": "string",
          "name": "cropName",
          "type": "string"
        },
        {
          "internalType": "uint256",
          "name": "quantity",
          "type": "uint256"
        },
        {
          "internalType": "uint256",
          "name": "cropPrice",
          "type": "uint256"
        },
        {
          "internalType": "address",
          "name": "faddr",
          "type": "address"
        }
      ],
      "payable": false,
      "stateMutability": "view",
      "type": "function"
    },
    {
      "constant": true,
      "inputs": [
        {
          "internalType": "address",
          "name": "",
          "type": "address"
        }
      ],
      "name": "mdist",
      "outputs": [
        {
          "internalType": "uint256",
          "name": "distID",
          "type": "uint256"
        },
        {
          "internalType": "string",
          "name": "distName",
          "type": "string"
        },
        {
          "internalType": "uint256",
          "name": "distContact",
          "type": "uint256"
        },
        {
          "internalType": "string",
          "name": "distAddress",
          "type": "string"
        },
        {
          "internalType": "address",
          "name": "daddr",
          "type": "address"
        },
        {
          "internalType": "bool",
          "name": "isValue",
          "type": "bool"
        }
      ],
      "payable": false,
      "stateMutability": "view",
      "type": "function"
    },
    {
      "constant": true,
      "inputs": [
        {
          "internalType": "address",
          "name": "",
          "type": "address"
        }
      ],
      "name": "mfarmer",
      "outputs": [
        {
          "internalType": "uint256",
          "name": "farmerID",
          "type": "uint256"
        },
        {
          "internalType": "string",
          "name": "farmerName",
          "type": "string"
        },
        {
          "internalType": "uint256",
          "name": "farmerContact",
          "type": "uint256"
        },
        {
          "internalType": "string",
          "name": "farmerAddress",
          "type": "string"
        },
        {
          "internalType": "address",
          "name": "faddr",
          "type": "address"
        },
        {
          "internalType": "bool",
          "name": "isValue",
          "type": "bool"
        }
      ],
      "payable": false,
      "stateMutability": "view",
      "type": "function"
    },
    {
      "constant": true,
      "inputs": [
        {
          "internalType": "address",
          "name": "",
          "type": "address"
        }
      ],
      "name": "mretail",
      "outputs": [
        {
          "internalType": "uint256",
          "name": "retailID",
          "type": "uint256"
        },
        {
          "internalType": "string",
          "name": "retailName",
          "type": "string"
        },
        {
          "internalType": "uint256",
          "name": "retailContact",
          "type": "uint256"
        },
        {
          "internalType": "string",
          "name": "retailAddress",
          "type": "string"
        },
        {
          "internalType": "address",
          "name": "raddr",
          "type": "address"
        },
        {
          "internalType": "bool",
          "name": "isValue",
          "type": "bool"
        }
      ],
      "payable": false,
      "stateMutability": "view",
      "type": "function"
    },
    {
      "constant": true,
      "inputs": [],
      "name": "retailCount",
      "outputs": [
        {
          "internalType": "uint256",
          "name": "",
          "type": "uint256"
        }
      ],
      "payable": false,
      "stateMutability": "view",
      "type": "function"
    },
    {
      "constant": false,
      "inputs": [
        {
          "internalType": "uint256",
          "name": "_farmerID",
          "type": "uint256"
        },
        {
          "internalType": "string",
          "name": "_farmerName",
          "type": "string"
        },
        {
          "internalType": "uint256",
          "name": "_farmerContact",
          "type": "uint256"
        },
        {
          "internalType": "string",
          "name": "_farmerAddress",
          "type": "string"
        }
      ],
      "name": "newFarmer",
      "outputs": [],
      "payable": false,
      "stateMutability": "nonpayable",
      "type": "function"
    },
    {
      "constant": false,
      "inputs": [
        {
          "internalType": "uint256",
          "name": "_cropID",
          "type": "uint256"
        },
        {
          "internalType": "string",
          "name": "_cropName",
          "type": "string"
        },
        {
          "internalType": "uint256",
          "name": "_quantity",
          "type": "uint256"
        },
        {
          "internalType": "uint256",
          "name": "_cropPrice",
          "type": "uint256"
        }
      ],
      "name": "addCrop",
      "outputs": [],
      "payable": false,
      "stateMutability": "nonpayable",
      "type": "function"
    },
    {
      "constant": false,
      "inputs": [
        {
          "internalType": "uint256",
          "name": "_distID",
          "type": "uint256"
        },
        {
          "internalType": "string",
          "name": "_distName",
          "type": "string"
        },
        {
          "internalType": "string",
          "name": "_distAddress",
          "type": "string"
        }
      ],
      "name": "addDist",
      "outputs": [],
      "payable": false,
      "stateMutability": "nonpayable",
      "type": "function"
    },
    {
      "constant": false,
      "inputs": [
        {
          "internalType": "uint256",
          "name": "_retailID",
          "type": "uint256"
        },
        {
          "internalType": "string",
          "name": "_retailName",
          "type": "string"
        },
        {
          "internalType": "string",
          "name": "_retailAddress",
          "type": "string"
        }
      ],
      "name": "addRetail",
      "outputs": [],
      "payable": false,
      "stateMutability": "nonpayable",
      "type": "function"
    }
  ],
  "bytecode": "0x608060405234801561001057600080fd5b50611b87806100206000396000f3fe608060405234801561001057600080fd5b50600436106100cf5760003560e01c8063832a31c61161008c578063bd45b39711610066578063bd45b397146108c6578063dfd55a2c146108e4578063e259eb7014610902578063fa81086514610a5e576100cf565b8063832a31c6146106f1578063b5eaf48114610866578063b9dd8286146108a8576100cf565b80631c4860f4146100d457806330abaf001461024957806343f197ba146103225780634d3fdae9146104115780634f3afe831461042f5780635eeb088914610595575b600080fd5b610116600480360360208110156100ea57600080fd5b81019080803573ffffffffffffffffffffffffffffffffffffffff169060200190929190505050610bd3565b6040518087815260200180602001868152602001806020018573ffffffffffffffffffffffffffffffffffffffff1673ffffffffffffffffffffffffffffffffffffffff16815260200184151515158152602001838103835288818151815260200191508051906020019080838360005b838110156101a2578082015181840152602081019050610187565b50505050905090810190601f1680156101cf5780820380516001836020036101000a031916815260200191505b50838103825286818151815260200191508051906020019080838360005b838110156102085780820151818401526020810190506101ed565b50505050905090810190601f1680156102355780820380516001836020036101000a031916815260200191505b509850505050505050505060405180910390f35b6103206004803603608081101561025f57600080fd5b81019080803590602001909291908035906020019064010000000081111561028657600080fd5b82018360208201111561029857600080fd5b803590602001918460018302840111640100000000831117156102ba57600080fd5b91908080601f016020809104026020016040519081016040528093929190818152602001838380828437600081840152601f19601f8201169050808301925050505050505091929192908035906020019092919080359060200190929190505050610d6c565b005b61034e6004803603602081101561033857600080fd5b8101908080359060200190929190505050610f4f565b60405180868152602001806020018581526020018481526020018373ffffffffffffffffffffffffffffffffffffffff1673ffffffffffffffffffffffffffffffffffffffff168152602001828103825286818151815260200191508051906020019080838360005b838110156103d25780820151818401526020810190506103b7565b50505050905090810190601f1680156103ff5780820380516001836020036101000a031916815260200191505b50965050505050505060405180910390f35b61041961103d565b6040518082815260200191505060405180910390f35b6105936004803603608081101561044557600080fd5b81019080803590602001909291908035906020019064010000000081111561046c57600080fd5b82018360208201111561047e57600080fd5b803590602001918460018302840111640100000000831117156104a057600080fd5b91908080601f016020809104026020016040519081016040528093929190818152602001838380828437600081840152601f19601f820116905080830192505050505050509192919290803590602001909291908035906020019064010000000081111561050d57600080fd5b82018360208201111561051f57600080fd5b8035906020019184600183028401116401000000008311171561054157600080fd5b91908080601f016020809104026020016040519081016040528093929190818152602001838380828437600081840152601f19601f820116905080830192505050505050509192919290505050611043565b005b6106ef600480360360608110156105ab57600080fd5b8101908080359060200190929190803590602001906401000000008111156105d257600080fd5b8201836020820111156105e457600080fd5b8035906020019184600183028401116401000000008311171561060657600080fd5b91908080601f016020809104026020016040519081016040528093929190818152602001838380828437600081840152601f19601f8201169050808301925050505050505091929192908035906020019064010000000081111561066957600080fd5b82018360208201111561067b57600080fd5b8035906020019184600183028401116401000000008311171561069d57600080fd5b91908080601f016020809104026020016040519081016040528093929190818152602001838380828437600081840152601f19601f8201169050808301925050505050505091929192905050506112b8565b005b6107336004803603602081101561070757600080fd5b81019080803573ffffffffffffffffffffffffffffffffffffffff169060200190929190505050611500565b6040518087815260200180602001868152602001806020018573ffffffffffffffffffffffffffffffffffffffff1673ffffffffffffffffffffffffffffffffffffffff16815260200184151515158152602001838103835288818151815260200191508051906020019080838360005b838110156107bf5780820151818401526020810190506107a4565b50505050905090810190601f1680156107ec5780820380516001836020036101000a031916815260200191505b50838103825286818151815260200191508051906020019080838360005b8381101561082557808201518184015260208101905061080a565b50505050905090810190601f1680156108525780820380516001836020036101000a031916815260200191505b509850505050505050505060405180910390f35b6108926004803603602081101561087c57600080fd5b8101908080359060200190929190505050611699565b6040518082815260200191505060405180910390f35b6108b06116ba565b6040518082815260200191505060405180910390f35b6108ce6116c0565b6040518082815260200191505060405180910390f35b6108ec6116c6565b6040518082815260200191505060405180910390f35b610a5c6004803603606081101561091857600080fd5b81019080803590602001909291908035906020019064010000000081111561093f57600080fd5b82018360208201111561095157600080fd5b8035906020019184600183028401116401000000008311171561097357600080fd5b91908080601f016020809104026020016040519081016040528093929190818152602001838380828437600081840152601f19601f820116905080830192505050505050509192919290803590602001906401000000008111156109d657600080fd5b8201836020820111156109e857600080fd5b80359060200191846001830284011164010000000083111715610a0a57600080fd5b91908080601f016020809104026020016040519081016040528093929190818152602001838380828437600081840152601f19601f8201169050808301925050505050505091929192905050506116cc565b005b610aa060048036036020811015610a7457600080fd5b81019080803573ffffffffffffffffffffffffffffffffffffffff169060200190929190505050611914565b6040518087815260200180602001868152602001806020018573ffffffffffffffffffffffffffffffffffffffff1673ffffffffffffffffffffffffffffffffffffffff16815260200184151515158152602001838103835288818151815260200191508051906020019080838360005b83811015610b2c578082015181840152602081019050610b11565b50505050905090810190601f168015610b595780820380516001836020036101000a031916815260200191505b50838103825286818151815260200191508051906020019080838360005b83811015610b92578082015181840152602081019050610b77565b50505050905090810190601f168015610bbf5780820380516001836020036101000a031916815260200191505b509850505050505050505060405180910390f35b6000602052806000526040600020600091509050806000015490806001018054600181600116156101000203166002900480601f016020809104026020016040519081016040528092919081815260200182805460018160011615610100020316600290048015610c855780601f10610c5a57610100808354040283529160200191610c85565b820191906000526020600020905b815481529060010190602001808311610c6857829003601f168201915b505050505090806002015490806003018054600181600116156101000203166002900480601f016020809104026020016040519081016040528092919081815260200182805460018160011615610100020316600290048015610d295780601f10610cfe57610100808354040283529160200191610d29565b820191906000526020600020905b815481529060010190602001808311610d0c57829003601f168201915b5050505050908060040160009054906101000a900473ffffffffffffffffffffffffffffffffffffffff16908060040160149054906101000a900460ff16905086565b6000600160008681526020019081526020016000209050338160040160006101000a81548173ffffffffffffffffffffffffffffffffffffffff021916908373ffffffffffffffffffffffffffffffffffffffff16021790555084816000018190555083816001019080519060200190610de7929190611aad565b5082816002018190555081816003018190555060066000815480929190600101919050555060048590806001815401808255809150509060018203906000526020600020016000909192909190915055507f378c5f03b632c0811ba440398934fb1eafc2713c8186a0bc988db1302b2f9e0f81600001548585858560040160009054906101000a900473ffffffffffffffffffffffffffffffffffffffff1660405180868152602001806020018581526020018481526020018373ffffffffffffffffffffffffffffffffffffffff1673ffffffffffffffffffffffffffffffffffffffff168152602001828103825286818151815260200191508051906020019080838360005b83811015610f0a578082015181840152602081019050610eef565b50505050905090810190601f168015610f375780820380516001836020036101000a031916815260200191505b50965050505050505060405180910390a15050505050565b6001602052806000526040600020600091509050806000015490806001018054600181600116156101000203166002900480601f0160208091040260200160405190810160405280929190818152602001828054600181600116156101000203166002900480156110015780601f10610fd657610100808354040283529160200191611001565b820191906000526020600020905b815481529060010190602001808311610fe457829003601f168201915b5050505050908060020154908060030154908060040160009054906101000a900473ffffffffffffffffffffffffffffffffffffffff16905085565b60075481565b60008060003373ffffffffffffffffffffffffffffffffffffffff1673ffffffffffffffffffffffffffffffffffffffff16815260200190815260200160002090506000803373ffffffffffffffffffffffffffffffffffffffff1673ffffffffffffffffffffffffffffffffffffffff16815260200190815260200160002060040160149054906101000a900460ff16156110de57600080fd5b338160040160006101000a81548173ffffffffffffffffffffffffffffffffffffffff021916908373ffffffffffffffffffffffffffffffffffffffff16021790555084816000018190555083816001019080519060200190611142929190611aad565b508181600301908051906020019061115b929190611aad565b5082816002018190555060018160040160146101000a81548160ff0219169083151502179055506005600081548092919060010191905055507fb36cc4119d00d499f56607c93b70202fbd20ed3ddec3c66d8f91c3890dc4ff2e8160000154858585604051808581526020018060200184815260200180602001838103835286818151815260200191508051906020019080838360005b8381101561120d5780820151818401526020810190506111f2565b50505050905090810190601f16801561123a5780820380516001836020036101000a031916815260200191505b50838103825284818151815260200191508051906020019080838360005b83811015611273578082015181840152602081019050611258565b50505050905090810190601f1680156112a05780820380516001836020036101000a031916815260200191505b50965050505050505060405180910390a15050505050565b6000600360003373ffffffffffffffffffffffffffffffffffffffff1673ffffffffffffffffffffffffffffffffffffffff1681526020019081526020016000209050600360003373ffffffffffffffffffffffffffffffffffffffff1673ffffffffffffffffffffffffffffffffffffffff16815260200190815260200160002060040160149054906101000a900460ff161561135557600080fd5b338160040160006101000a81548173ffffffffffffffffffffffffffffffffffffffff021916908373ffffffffffffffffffffffffffffffffffffffff160217905550838160000181905550828160010190805190602001906113b9929190611aad565b50818160030190805190602001906113d2929190611aad565b506008600081548092919060010191905055507fbc6b63243e22bf0fe3d7d5c8071a02a37634c7252fd893f9c26d6a65e65d93e981600001548484604051808481526020018060200180602001838103835285818151815260200191508051906020019080838360005b8381101561145757808201518184015260208101905061143c565b50505050905090810190601f1680156114845780820380516001836020036101000a031916815260200191505b50838103825284818151815260200191508051906020019080838360005b838110156114bd5780820151818401526020810190506114a2565b50505050905090810190601f1680156114ea5780820380516001836020036101000a031916815260200191505b509550505050505060405180910390a150505050565b6002602052806000526040600020600091509050806000015490806001018054600181600116156101000203166002900480601f0160208091040260200160405190810160405280929190818152602001828054600181600116156101000203166002900480156115b25780601f10611587576101008083540402835291602001916115b2565b820191906000526020600020905b81548152906001019060200180831161159557829003601f168201915b505050505090806002015490806003018054600181600116156101000203166002900480601f0160208091040260200160405190810160405280929190818152602001828054600181600116156101000203166002900480156116565780601f1061162b57610100808354040283529160200191611656565b820191906000526020600020905b81548152906001019060200180831161163957829003601f168201915b5050505050908060040160009054906101000a900473ffffffffffffffffffffffffffffffffffffffff16908060040160149054906101000a900460ff16905086565b600481815481106116a657fe5b906000526020600020016000915090505481565b60085481565b60055481565b60065481565b6000600260003373ffffffffffffffffffffffffffffffffffffffff1673ffffffffffffffffffffffffffffffffffffffff1681526020019081526020016000209050600260003373ffffffffffffffffffffffffffffffffffffffff1673ffffffffffffffffffffffffffffffffffffffff16815260200190815260200160002060040160149054906101000a900460ff161561176957600080fd5b338160040160006101000a81548173ffffffffffffffffffffffffffffffffffffffff021916908373ffffffffffffffffffffffffffffffffffffffff160217905550838160000181905550828160010190805190602001906117cd929190611aad565b50818160030190805190602001906117e6929190611aad565b506007600081548092919060010191905055507fe3ca2d23fdc856850776a0a520daf6aa85c8f699fe33d43a9d25966db4610eb581600001548484604051808481526020018060200180602001838103835285818151815260200191508051906020019080838360005b8381101561186b578082015181840152602081019050611850565b50505050905090810190601f1680156118985780820380516001836020036101000a031916815260200191505b50838103825284818151815260200191508051906020019080838360005b838110156118d15780820151818401526020810190506118b6565b50505050905090810190601f1680156118fe5780820380516001836020036101000a031916815260200191505b509550505050505060405180910390a150505050565b6003602052806000526040600020600091509050806000015490806001018054600181600116156101000203166002900480601f0160208091040260200160405190810160405280929190818152602001828054600181600116156101000203166002900480156119c65780601f1061199b576101008083540402835291602001916119c6565b820191906000526020600020905b8154815290600101906020018083116119a957829003601f168201915b505050505090806002015490806003018054600181600116156101000203166002900480601f016020809104026020016040519081016040528092919081815260200182805460018160011615610100020316600290048015611a6a5780601f10611a3f57610100808354040283529160200191611a6a565b820191906000526020600020905b815481529060010190602001808311611a4d57829003601f168201915b5050505050908060040160009054906101000a900473ffffffffffffffffffffffffffffffffffffffff16908060040160149054906101000a900460ff16905086565b828054600181600116156101000203166002900490600052602060002090601f016020900481019282601f10611aee57805160ff1916838001178555611b1c565b82800160010185558215611b1c579182015b82811115611b1b578251825591602001919060010190611b00565b5b509050611b299190611b2d565b5090565b611b4f91905b80821115611b4b576000816000905550600101611b33565b5090565b9056fea265627a7a72315820e560362292de1da602c1bde262ee8cb147b6bd145a5d0f4c5acf10cd6e8c6e3a64736f6c63430005100032",
  "source": "pragma solidity ^0.5.16;\r\n\r\ncontract SupplyChain{\r\n    //model a farmer\r\n   struct Farmer {\r\n       uint farmerID;\r\n       string farmerName;\r\n       uint farmerContact;\r\n      string farmerAddress;\r\n       address faddr;\r\n       bool isValue;\r\n   }\r\n\r\n   //model crop\r\n    struct Crop{\r\n       uint cropID;\r\n       string cropName;\r\n       uint quantity;\r\n       uint cropPrice;\r\n        address faddr;      \r\n         //string fertilizer_name;\r\n       //string soil_name;\r\n   } \r\n\r\n   //model a distributor\r\n   struct Distributor{\r\n       uint distID;\r\n       string distName;\r\n       uint distContact;\r\n       string distAddress;\r\n       address daddr;\r\n       bool isValue;\r\n   }\r\n   \r\n   //model a retailer\r\n   struct Retailer{\r\n       uint retailID;\r\n       string retailName;\r\n       uint retailContact;\r\n       string  retailAddress;\r\n       address raddr;\r\n       bool isValue;\r\n   }\r\n   \r\n   mapping(address => Farmer) public mfarmer;\r\n   mapping(uint => Crop) public mcrop;\r\n   mapping(address => Distributor) public mdist;\r\n   mapping(address => Retailer) public mretail;\r\n\r\n   //count of crop\r\n   uint[] public cropArr;\r\n   uint public farmerCount;\r\n   uint public cropCount;\r\n   uint public distCount;\r\n   uint public retailCount;\r\n\r\n   // event for farmer\r\n   event farmerCreated (\r\n       uint farmerID,\r\n       string farmerName,\r\n       uint farmerContact,\r\n      string farmerAddress\r\n   );\r\n\r\n   // event for crop\r\n   event cropCreated (\r\n       uint cropID,\r\n       string cropName,\r\n       uint quantity,\r\n       uint cropPrice,\r\n       address faddr\r\n   );\r\n\r\n   //event for distributor \r\n   event distCreated (\r\n       uint distID,\r\n       string distName,\r\n       string distAddress\r\n   );\r\n   \r\n   //event for retailer\r\n   event retailCreated (\r\n       uint retailID,\r\n       string retailName,\r\n       string retailAddress\r\n   );\r\n\r\n    //add new farmer\r\n    function newFarmer(\r\n        uint _farmerID,\r\n        string memory _farmerName,\r\n        uint _farmerContact,\r\n        string memory _farmerAddress\r\n    ) public {\r\n        Farmer storage _newfarmer = mfarmer[msg.sender];\r\n\r\n        // Only allows new records to be created\r\n        require(!mfarmer[msg.sender].isValue);\r\n        _newfarmer.faddr = msg.sender;\r\n        _newfarmer.farmerID = _farmerID;\r\n        _newfarmer.farmerName = _farmerName;\r\n        _newfarmer.farmerAddress = _farmerAddress;\r\n        _newfarmer.farmerContact = _farmerContact;\r\n        _newfarmer.isValue = true;\r\n        farmerCount++;\r\n        emit farmerCreated(_newfarmer.farmerID, _farmerName, _farmerContact,_farmerAddress);\r\n    }\r\n\r\n    //add crop by old farmer\r\n     function addCrop(\r\n        uint _cropID,\r\n        string memory _cropName,\r\n        uint _quantity,\r\n        uint _cropPrice\r\n    ) public {\r\n        Crop storage _newcrop = mcrop[_cropID];\r\n        //Farmer storage _newfarmer = mfarmer[_farmerID];\r\n\r\n        _newcrop.faddr = msg.sender;\r\n        _newcrop.cropID = _cropID;\r\n        _newcrop.cropName = _cropName;\r\n        _newcrop.quantity = _quantity;\r\n        _newcrop.cropPrice = _cropPrice;\r\n        cropCount++;\r\n        cropArr.push(_cropID);\r\n        emit cropCreated(_newcrop.cropID, _cropName, _quantity, _cropPrice, _newcrop.faddr);\r\n    }\r\n\r\n    //add new distributor\r\n    function addDist(\r\n        uint _distID,\r\n        string memory _distName,\r\n        string memory _distAddress\r\n    ) public {\r\n        Distributor storage _newdist = mdist[msg.sender];\r\n\r\n        require(!mdist[msg.sender].isValue);\r\n        _newdist.daddr = msg.sender;\r\n        _newdist.distID = _distID;\r\n        _newdist.distName = _distName;\r\n        _newdist.distAddress = _distAddress;\r\n        distCount++;\r\n        emit distCreated(_newdist.distID, _distName, _distAddress);\r\n    }\r\n\r\n   \r\n    //add new retailer\r\n    function addRetail(\r\n        uint _retailID,\r\n        string memory _retailName,\r\n        string memory _retailAddress\r\n    ) public {\r\n        Retailer storage _newretail = mretail[msg.sender];\r\n        require(!mretail[msg.sender].isValue);\r\n        _newretail.raddr = msg.sender;\r\n        _newretail.retailID = _retailID;\r\n        _newretail.retailName = _retailName;\r\n        _newretail.retailAddress = _retailAddress;\r\n        retailCount++;\r\n        emit retailCreated(_newretail.retailID, _retailName, _retailAddress);\r\n    }\r\n}",
  "sourcePath": "C:/Users/Tamilselvi/Desktop/healthcare-master/contracts/SupplyChain.sol",
  "compiler": {
    "name": "solc",
    "version": "0.5.16+commit.9c3226ce.Emscripten.clang"
  },
  "schemaVersion": "3.3.2",
  "updatedAt": "2021-01-09T08:36:11.802Z",
  "networkType": "ethereum",
  "devdoc": {
    "methods": {}
  },
  "userdoc": {
    "methods": {}
  }
}