{
  "contractName": "SupplyChain",
  "abi": [
    {
      "anonymous": false,
      "inputs": [
        {
          "indexed": false,
          "internalType": "uint256",
          "name": "cropID",
          "type": "uint256"
        },
        {
          "indexed": false,
          "internalType": "string",
          "name": "cropName",
          "type": "string"
        },
        {
          "indexed": false,
          "internalType": "uint256",
          "name": "quantity",
          "type": "uint256"
        },
        {
          "indexed": false,
          "internalType": "uint256",
          "name": "cropPrice",
          "type": "uint256"
        },
        {
          "indexed": false,
          "internalType": "address",
          "name": "faddr",
          "type": "address"
        }
      ],
      "name": "cropCreated",
      "type": "event"
    },
    {
      "anonymous": false,
      "inputs": [
        {
          "indexed": false,
          "internalType": "uint256",
          "name": "distID",
          "type": "uint256"
        },
        {
          "indexed": false,
          "internalType": "string",
          "name": "distName",
          "type": "string"
        },
        {
          "indexed": false,
          "internalType": "uint256",
          "name": "distContact",
          "type": "uint256"
        },
        {
          "indexed": false,
          "internalType": "string",
          "name": "distAddress",
          "type": "string"
        }
      ],
      "name": "distCreated",
      "type": "event"
    },
    {
      "anonymous": false,
      "inputs": [
        {
          "indexed": false,
          "internalType": "uint256",
          "name": "cropID",
          "type": "uint256"
        }
      ],
      "name": "distCrop",
      "type": "event"
    },
    {
      "anonymous": false,
      "inputs": [
        {
          "indexed": false,
          "internalType": "uint256",
          "name": "farmerID",
          "type": "uint256"
        },
        {
          "indexed": false,
          "internalType": "string",
          "name": "farmerName",
          "type": "string"
        },
        {
          "indexed": false,
          "internalType": "uint256",
          "name": "farmerContact",
          "type": "uint256"
        },
        {
          "indexed": false,
          "internalType": "string",
          "name": "farmerAddress",
          "type": "string"
        }
      ],
      "name": "farmerCreated",
      "type": "event"
    },
    {
      "anonymous": false,
      "inputs": [
        {
          "indexed": false,
          "internalType": "uint256",
          "name": "fertilizerID",
          "type": "uint256"
        },
        {
          "indexed": false,
          "internalType": "string",
          "name": "fertilizerName",
          "type": "string"
        },
        {
          "indexed": false,
          "internalType": "uint256",
          "name": "fertilizerCost",
          "type": "uint256"
        },
        {
          "indexed": false,
          "internalType": "uint256",
          "name": "fertilizerQuantity",
          "type": "uint256"
        }
      ],
      "name": "fertilizerCreated",
      "type": "event"
    },
    {
      "anonymous": false,
      "inputs": [
        {
          "indexed": false,
          "internalType": "uint256",
          "name": "fertilizerID",
          "type": "uint256"
        }
      ],
      "name": "fertilizerPurchase",
      "type": "event"
    },
    {
      "anonymous": false,
      "inputs": [
        {
          "indexed": false,
          "internalType": "uint256",
          "name": "landID",
          "type": "uint256"
        },
        {
          "indexed": false,
          "internalType": "string",
          "name": "landAddress",
          "type": "string"
        },
        {
          "indexed": false,
          "internalType": "string",
          "name": "soilType",
          "type": "string"
        },
        {
          "indexed": false,
          "internalType": "uint256",
          "name": "area",
          "type": "uint256"
        },
        {
          "indexed": false,
          "internalType": "uint256",
          "name": "cost",
          "type": "uint256"
        },
        {
          "indexed": false,
          "internalType": "uint256",
          "name": "duration",
          "type": "uint256"
        }
      ],
      "name": "landForLease",
      "type": "event"
    },
    {
      "anonymous": false,
      "inputs": [
        {
          "indexed": false,
          "internalType": "uint256",
          "name": "landID",
          "type": "uint256"
        },
        {
          "indexed": false,
          "internalType": "string",
          "name": "landAddress",
          "type": "string"
        },
        {
          "indexed": false,
          "internalType": "string",
          "name": "soilType",
          "type": "string"
        },
        {
          "indexed": false,
          "internalType": "uint256",
          "name": "area",
          "type": "uint256"
        },
        {
          "indexed": false,
          "internalType": "uint256",
          "name": "cost",
          "type": "uint256"
        }
      ],
      "name": "landForSale",
      "type": "event"
    },
    {
      "anonymous": false,
      "inputs": [
        {
          "indexed": false,
          "internalType": "uint256",
          "name": "landID",
          "type": "uint256"
        }
      ],
      "name": "landPurchaseLease",
      "type": "event"
    },
    {
      "anonymous": false,
      "inputs": [
        {
          "indexed": false,
          "internalType": "uint256",
          "name": "landID",
          "type": "uint256"
        }
      ],
      "name": "landPurchaseSale",
      "type": "event"
    },
    {
      "anonymous": false,
      "inputs": [
        {
          "indexed": false,
          "internalType": "uint256",
          "name": "landlordID",
          "type": "uint256"
        },
        {
          "indexed": false,
          "internalType": "string",
          "name": "landlordName",
          "type": "string"
        },
        {
          "indexed": false,
          "internalType": "uint256",
          "name": "landlordContact",
          "type": "uint256"
        },
        {
          "indexed": false,
          "internalType": "string",
          "name": "landlordAddress",
          "type": "string"
        }
      ],
      "name": "landlordCreated",
      "type": "event"
    },
    {
      "anonymous": false,
      "inputs": [
        {
          "indexed": false,
          "internalType": "uint256",
          "name": "retailID",
          "type": "uint256"
        },
        {
          "indexed": false,
          "internalType": "string",
          "name": "retailName",
          "type": "string"
        },
        {
          "indexed": false,
          "internalType": "string",
          "name": "retailAddress",
          "type": "string"
        }
      ],
      "name": "retailCreated",
      "type": "event"
    },
    {
      "anonymous": false,
      "inputs": [
        {
          "indexed": false,
          "internalType": "uint256",
          "name": "seedID",
          "type": "uint256"
        },
        {
          "indexed": false,
          "internalType": "string",
          "name": "seedName",
          "type": "string"
        },
        {
          "indexed": false,
          "internalType": "uint256",
          "name": "seedcost",
          "type": "uint256"
        },
        {
          "indexed": false,
          "internalType": "uint256",
          "name": "seedQuantity",
          "type": "uint256"
        }
      ],
      "name": "seedCreated",
      "type": "event"
    },
    {
      "anonymous": false,
      "inputs": [
        {
          "indexed": false,
          "internalType": "uint256",
          "name": "dealerID",
          "type": "uint256"
        },
        {
          "indexed": false,
          "internalType": "string",
          "name": "dealerName",
          "type": "string"
        },
        {
          "indexed": false,
          "internalType": "uint256",
          "name": "dealerContact",
          "type": "uint256"
        },
        {
          "indexed": false,
          "internalType": "string",
          "name": "dealerAddress",
          "type": "string"
        }
      ],
      "name": "seedDealerCreated",
      "type": "event"
    },
    {
      "anonymous": false,
      "inputs": [
        {
          "indexed": false,
          "internalType": "uint256",
          "name": "seedID",
          "type": "uint256"
        }
      ],
      "name": "seedPurchase",
      "type": "event"
    },
    {
      "constant": true,
      "inputs": [
        {
          "internalType": "uint256",
          "name": "",
          "type": "uint256"
        }
      ],
      "name": "cropArr",
      "outputs": [
        {
          "internalType": "uint256",
          "name": "",
          "type": "uint256"
        }
      ],
      "payable": false,
      "stateMutability": "view",
      "type": "function"
    },
    {
      "constant": true,
      "inputs": [],
      "name": "cropCount",
      "outputs": [
        {
          "internalType": "uint256",
          "name": "",
          "type": "uint256"
        }
      ],
      "payable": false,
      "stateMutability": "view",
      "type": "function"
    },
    {
      "constant": true,
      "inputs": [],
      "name": "dealerCount",
      "outputs": [
        {
          "internalType": "uint256",
          "name": "",
          "type": "uint256"
        }
      ],
      "payable": false,
      "stateMutability": "view",
      "type": "function"
    },
    {
      "constant": true,
      "inputs": [],
      "name": "distCount",
      "outputs": [
        {
          "internalType": "uint256",
          "name": "",
          "type": "uint256"
        }
      ],
      "payable": false,
      "stateMutability": "view",
      "type": "function"
    },
    {
      "constant": true,
      "inputs": [
        {
          "internalType": "uint256",
          "name": "",
          "type": "uint256"
        }
      ],
      "name": "distCropArr",
      "outputs": [
        {
          "internalType": "uint256",
          "name": "",
          "type": "uint256"
        }
      ],
      "payable": false,
      "stateMutability": "view",
      "type": "function"
    },
    {
      "constant": true,
      "inputs": [],
      "name": "distCropCount",
      "outputs": [
        {
          "internalType": "uint256",
          "name": "",
          "type": "uint256"
        }
      ],
      "payable": false,
      "stateMutability": "view",
      "type": "function"
    },
    {
      "constant": true,
      "inputs": [],
      "name": "farmerCount",
      "outputs": [
        {
          "internalType": "uint256",
          "name": "",
          "type": "uint256"
        }
      ],
      "payable": false,
      "stateMutability": "view",
      "type": "function"
    },
    {
      "constant": true,
      "inputs": [
        {
          "internalType": "uint256",
          "name": "",
          "type": "uint256"
        }
      ],
      "name": "fertilizerArr",
      "outputs": [
        {
          "internalType": "uint256",
          "name": "",
          "type": "uint256"
        }
      ],
      "payable": false,
      "stateMutability": "view",
      "type": "function"
    },
    {
      "constant": true,
      "inputs": [],
      "name": "fertilizerCount",
      "outputs": [
        {
          "internalType": "uint256",
          "name": "",
          "type": "uint256"
        }
      ],
      "payable": false,
      "stateMutability": "view",
      "type": "function"
    },
    {
      "constant": true,
      "inputs": [],
      "name": "landlordCount",
      "outputs": [
        {
          "internalType": "uint256",
          "name": "",
          "type": "uint256"
        }
      ],
      "payable": false,
      "stateMutability": "view",
      "type": "function"
    },
    {
      "constant": true,
      "inputs": [
        {
          "internalType": "uint256",
          "name": "",
          "type": "uint256"
        }
      ],
      "name": "leaseArr",
      "outputs": [
        {
          "internalType": "uint256",
          "name": "",
          "type": "uint256"
        }
      ],
      "payable": false,
      "stateMutability": "view",
      "type": "function"
    },
    {
      "constant": true,
      "inputs": [],
      "name": "leaseCount",
      "outputs": [
        {
          "internalType": "uint256",
          "name": "",
          "type": "uint256"
        }
      ],
      "payable": false,
      "stateMutability": "view",
      "type": "function"
    },
    {
      "constant": true,
      "inputs": [
        {
          "internalType": "uint256",
          "name": "",
          "type": "uint256"
        }
      ],
      "name": "mcrop",
      "outputs": [
        {
          "internalType": "uint256",
          "name": "cropID",
          "type": "uint256"
        },
        {
          "internalType": "string",
          "name": "cropName",
          "type": "string"
        },
        {
          "internalType": "uint256",
          "name": "quantity",
          "type": "uint256"
        },
        {
          "internalType": "uint256",
          "name": "cropPrice",
          "type": "uint256"
        },
        {
          "internalType": "address",
          "name": "faddr",
          "type": "address"
        },
        {
          "internalType": "address",
          "name": "daddr",
          "type": "address"
        },
        {
          "internalType": "bool",
          "name": "isBought",
          "type": "bool"
        }
      ],
      "payable": false,
      "stateMutability": "view",
      "type": "function"
    },
    {
      "constant": true,
      "inputs": [
        {
          "internalType": "address",
          "name": "",
          "type": "address"
        }
      ],
      "name": "mdealer",
      "outputs": [
        {
          "internalType": "uint256",
          "name": "dealerID",
          "type": "uint256"
        },
        {
          "internalType": "string",
          "name": "dealerName",
          "type": "string"
        },
        {
          "internalType": "string",
          "name": "dealerAddress",
          "type": "string"
        },
        {
          "internalType": "uint256",
          "name": "dealerContact",
          "type": "uint256"
        },
        {
          "internalType": "address",
          "name": "saddr",
          "type": "address"
        },
        {
          "internalType": "bool",
          "name": "isValue",
          "type": "bool"
        }
      ],
      "payable": false,
      "stateMutability": "view",
      "type": "function"
    },
    {
      "constant": true,
      "inputs": [
        {
          "internalType": "address",
          "name": "",
          "type": "address"
        }
      ],
      "name": "mdist",
      "outputs": [
        {
          "internalType": "uint256",
          "name": "distID",
          "type": "uint256"
        },
        {
          "internalType": "string",
          "name": "distName",
          "type": "string"
        },
        {
          "internalType": "uint256",
          "name": "distContact",
          "type": "uint256"
        },
        {
          "internalType": "string",
          "name": "distAddress",
          "type": "string"
        },
        {
          "internalType": "address",
          "name": "daddr",
          "type": "address"
        },
        {
          "internalType": "bool",
          "name": "isValue",
          "type": "bool"
        }
      ],
      "payable": false,
      "stateMutability": "view",
      "type": "function"
    },
    {
      "constant": true,
      "inputs": [
        {
          "internalType": "address",
          "name": "",
          "type": "address"
        }
      ],
      "name": "mfarmer",
      "outputs": [
        {
          "internalType": "uint256",
          "name": "farmerID",
          "type": "uint256"
        },
        {
          "internalType": "string",
          "name": "farmerName",
          "type": "string"
        },
        {
          "internalType": "uint256",
          "name": "farmerContact",
          "type": "uint256"
        },
        {
          "internalType": "string",
          "name": "farmerAddress",
          "type": "string"
        },
        {
          "internalType": "address",
          "name": "faddr",
          "type": "address"
        },
        {
          "internalType": "bool",
          "name": "isValue",
          "type": "bool"
        }
      ],
      "payable": false,
      "stateMutability": "view",
      "type": "function"
    },
    {
      "constant": true,
      "inputs": [
        {
          "internalType": "uint256",
          "name": "",
          "type": "uint256"
        }
      ],
      "name": "mfertilizer",
      "outputs": [
        {
          "internalType": "uint256",
          "name": "fertilizerID",
          "type": "uint256"
        },
        {
          "internalType": "string",
          "name": "fertilizerName",
          "type": "string"
        },
        {
          "internalType": "uint256",
          "name": "fertilizerQuantity",
          "type": "uint256"
        },
        {
          "internalType": "bool",
          "name": "isBought",
          "type": "bool"
        },
        {
          "internalType": "bool",
          "name": "isSale",
          "type": "bool"
        },
        {
          "internalType": "uint256",
          "name": "fertilizerCost",
          "type": "uint256"
        },
        {
          "internalType": "address",
          "name": "saddr",
          "type": "address"
        },
        {
          "internalType": "address",
          "name": "faddr",
          "type": "address"
        }
      ],
      "payable": false,
      "stateMutability": "view",
      "type": "function"
    },
    {
      "constant": true,
      "inputs": [
        {
          "internalType": "address",
          "name": "",
          "type": "address"
        }
      ],
      "name": "mlandlord",
      "outputs": [
        {
          "internalType": "uint256",
          "name": "landlordID",
          "type": "uint256"
        },
        {
          "internalType": "string",
          "name": "landlordName",
          "type": "string"
        },
        {
          "internalType": "uint256",
          "name": "landlordContact",
          "type": "uint256"
        },
        {
          "internalType": "string",
          "name": "landlordAddress",
          "type": "string"
        },
        {
          "internalType": "address",
          "name": "laddr",
          "type": "address"
        },
        {
          "internalType": "bool",
          "name": "isValue",
          "type": "bool"
        }
      ],
      "payable": false,
      "stateMutability": "view",
      "type": "function"
    },
    {
      "constant": true,
      "inputs": [
        {
          "internalType": "uint256",
          "name": "",
          "type": "uint256"
        }
      ],
      "name": "mlland",
      "outputs": [
        {
          "internalType": "uint256",
          "name": "landID",
          "type": "uint256"
        },
        {
          "internalType": "string",
          "name": "landAddress",
          "type": "string"
        },
        {
          "internalType": "string",
          "name": "soilType",
          "type": "string"
        },
        {
          "internalType": "uint256",
          "name": "area",
          "type": "uint256"
        },
        {
          "internalType": "uint256",
          "name": "cost",
          "type": "uint256"
        },
        {
          "internalType": "uint256",
          "name": "duration",
          "type": "uint256"
        },
        {
          "internalType": "bool",
          "name": "isBought",
          "type": "bool"
        },
        {
          "internalType": "bool",
          "name": "isLease",
          "type": "bool"
        },
        {
          "internalType": "address",
          "name": "laddr",
          "type": "address"
        },
        {
          "internalType": "address",
          "name": "faddr",
          "type": "address"
        }
      ],
      "payable": false,
      "stateMutability": "view",
      "type": "function"
    },
    {
      "constant": true,
      "inputs": [
        {
          "internalType": "address",
          "name": "",
          "type": "address"
        }
      ],
      "name": "mretail",
      "outputs": [
        {
          "internalType": "uint256",
          "name": "retailID",
          "type": "uint256"
        },
        {
          "internalType": "string",
          "name": "retailName",
          "type": "string"
        },
        {
          "internalType": "uint256",
          "name": "retailContact",
          "type": "uint256"
        },
        {
          "internalType": "string",
          "name": "retailAddress",
          "type": "string"
        },
        {
          "internalType": "address",
          "name": "raddr",
          "type": "address"
        },
        {
          "internalType": "bool",
          "name": "isValue",
          "type": "bool"
        }
      ],
      "payable": false,
      "stateMutability": "view",
      "type": "function"
    },
    {
      "constant": true,
      "inputs": [
        {
          "internalType": "uint256",
          "name": "",
          "type": "uint256"
        }
      ],
      "name": "mseed",
      "outputs": [
        {
          "internalType": "uint256",
          "name": "seedID",
          "type": "uint256"
        },
        {
          "internalType": "string",
          "name": "seedName",
          "type": "string"
        },
        {
          "internalType": "uint256",
          "name": "seedQuantity",
          "type": "uint256"
        },
        {
          "internalType": "bool",
          "name": "isBought",
          "type": "bool"
        },
        {
          "internalType": "bool",
          "name": "isSale",
          "type": "bool"
        },
        {
          "internalType": "uint256",
          "name": "seedcost",
          "type": "uint256"
        },
        {
          "internalType": "address",
          "name": "saddr",
          "type": "address"
        },
        {
          "internalType": "address",
          "name": "faddr",
          "type": "address"
        }
      ],
      "payable": false,
      "stateMutability": "view",
      "type": "function"
    },
    {
      "constant": true,
      "inputs": [
        {
          "internalType": "uint256",
          "name": "",
          "type": "uint256"
        }
      ],
      "name": "msland",
      "outputs": [
        {
          "internalType": "uint256",
          "name": "landID",
          "type": "uint256"
        },
        {
          "internalType": "string",
          "name": "landAddress",
          "type": "string"
        },
        {
          "internalType": "string",
          "name": "soilType",
          "type": "string"
        },
        {
          "internalType": "uint256",
          "name": "area",
          "type": "uint256"
        },
        {
          "internalType": "uint256",
          "name": "cost",
          "type": "uint256"
        },
        {
          "internalType": "bool",
          "name": "isBought",
          "type": "bool"
        },
        {
          "internalType": "bool",
          "name": "isSale",
          "type": "bool"
        },
        {
          "internalType": "address",
          "name": "laddr",
          "type": "address"
        },
        {
          "internalType": "address",
          "name": "faddr",
          "type": "address"
        }
      ],
      "payable": false,
      "stateMutability": "view",
      "type": "function"
    },
    {
      "constant": true,
      "inputs": [],
      "name": "retailCount",
      "outputs": [
        {
          "internalType": "uint256",
          "name": "",
          "type": "uint256"
        }
      ],
      "payable": false,
      "stateMutability": "view",
      "type": "function"
    },
    {
      "constant": true,
      "inputs": [
        {
          "internalType": "uint256",
          "name": "",
          "type": "uint256"
        }
      ],
      "name": "saleArr",
      "outputs": [
        {
          "internalType": "uint256",
          "name": "",
          "type": "uint256"
        }
      ],
      "payable": false,
      "stateMutability": "view",
      "type": "function"
    },
    {
      "constant": true,
      "inputs": [],
      "name": "saleCount",
      "outputs": [
        {
          "internalType": "uint256",
          "name": "",
          "type": "uint256"
        }
      ],
      "payable": false,
      "stateMutability": "view",
      "type": "function"
    },
    {
      "constant": true,
      "inputs": [
        {
          "internalType": "uint256",
          "name": "",
          "type": "uint256"
        }
      ],
      "name": "seedArr",
      "outputs": [
        {
          "internalType": "uint256",
          "name": "",
          "type": "uint256"
        }
      ],
      "payable": false,
      "stateMutability": "view",
      "type": "function"
    },
    {
      "constant": true,
      "inputs": [],
      "name": "seedCount",
      "outputs": [
        {
          "internalType": "uint256",
          "name": "",
          "type": "uint256"
        }
      ],
      "payable": false,
      "stateMutability": "view",
      "type": "function"
    },
    {
      "constant": true,
      "inputs": [
        {
          "internalType": "uint256",
          "name": "",
          "type": "uint256"
        }
      ],
      "name": "temp",
      "outputs": [
        {
          "internalType": "uint256",
          "name": "",
          "type": "uint256"
        }
      ],
      "payable": false,
      "stateMutability": "view",
      "type": "function"
    },
    {
      "constant": false,
      "inputs": [
        {
          "internalType": "uint256",
          "name": "_landlordID",
          "type": "uint256"
        },
        {
          "internalType": "string",
          "name": "_landlordName",
          "type": "string"
        },
        {
          "internalType": "uint256",
          "name": "_landlordContact",
          "type": "uint256"
        },
        {
          "internalType": "string",
          "name": "_landlordAddress",
          "type": "string"
        }
      ],
      "name": "newLandlord",
      "outputs": [],
      "payable": false,
      "stateMutability": "nonpayable",
      "type": "function"
    },
    {
      "constant": false,
      "inputs": [
        {
          "internalType": "uint256",
          "name": "_landID",
          "type": "uint256"
        },
        {
          "internalType": "string",
          "name": "_landAddress",
          "type": "string"
        },
        {
          "internalType": "string",
          "name": "_soilType",
          "type": "string"
        },
        {
          "internalType": "uint256",
          "name": "_area",
          "type": "uint256"
        },
        {
          "internalType": "uint256",
          "name": "_cost",
          "type": "uint256"
        }
      ],
      "name": "addLandSale",
      "outputs": [],
      "payable": false,
      "stateMutability": "nonpayable",
      "type": "function"
    },
    {
      "constant": false,
      "inputs": [
        {
          "internalType": "uint256",
          "name": "_landID",
          "type": "uint256"
        },
        {
          "internalType": "string",
          "name": "_landAddress",
          "type": "string"
        },
        {
          "internalType": "string",
          "name": "_soilType",
          "type": "string"
        },
        {
          "internalType": "uint256",
          "name": "_area",
          "type": "uint256"
        },
        {
          "internalType": "uint256",
          "name": "_cost",
          "type": "uint256"
        },
        {
          "internalType": "uint256",
          "name": "_duration",
          "type": "uint256"
        }
      ],
      "name": "addLandLease",
      "outputs": [],
      "payable": false,
      "stateMutability": "nonpayable",
      "type": "function"
    },
    {
      "constant": false,
      "inputs": [
        {
          "internalType": "uint256",
          "name": "_dealerID",
          "type": "uint256"
        },
        {
          "internalType": "string",
          "name": "_dealerName",
          "type": "string"
        },
        {
          "internalType": "uint256",
          "name": "_dealerContact",
          "type": "uint256"
        },
        {
          "internalType": "string",
          "name": "_dealerAddress",
          "type": "string"
        }
      ],
      "name": "newSeedDealer",
      "outputs": [],
      "payable": false,
      "stateMutability": "nonpayable",
      "type": "function"
    },
    {
      "constant": false,
      "inputs": [
        {
          "internalType": "uint256",
          "name": "_seedID",
          "type": "uint256"
        },
        {
          "internalType": "string",
          "name": "_seedName",
          "type": "string"
        },
        {
          "internalType": "uint256",
          "name": "_seedcost",
          "type": "uint256"
        },
        {
          "internalType": "uint256",
          "name": "_seedQuantity",
          "type": "uint256"
        }
      ],
      "name": "newSeed",
      "outputs": [],
      "payable": false,
      "stateMutability": "nonpayable",
      "type": "function"
    },
    {
      "constant": false,
      "inputs": [
        {
          "internalType": "uint256",
          "name": "_fertilizerID",
          "type": "uint256"
        },
        {
          "internalType": "string",
          "name": "_fertilizerName",
          "type": "string"
        },
        {
          "internalType": "uint256",
          "name": "_fertilizerCost",
          "type": "uint256"
        },
        {
          "internalType": "uint256",
          "name": "_fertilizerQuantity",
          "type": "uint256"
        }
      ],
      "name": "newFertilizer",
      "outputs": [],
      "payable": false,
      "stateMutability": "nonpayable",
      "type": "function"
    },
    {
      "constant": false,
      "inputs": [
        {
          "internalType": "uint256",
          "name": "_farmerID",
          "type": "uint256"
        },
        {
          "internalType": "string",
          "name": "_farmerName",
          "type": "string"
        },
        {
          "internalType": "uint256",
          "name": "_farmerContact",
          "type": "uint256"
        },
        {
          "internalType": "string",
          "name": "_farmerAddress",
          "type": "string"
        }
      ],
      "name": "newFarmer",
      "outputs": [],
      "payable": false,
      "stateMutability": "nonpayable",
      "type": "function"
    },
    {
      "constant": false,
      "inputs": [
        {
          "internalType": "uint256",
          "name": "_cropID",
          "type": "uint256"
        },
        {
          "internalType": "string",
          "name": "_cropName",
          "type": "string"
        },
        {
          "internalType": "uint256",
          "name": "_quantity",
          "type": "uint256"
        },
        {
          "internalType": "uint256",
          "name": "_cropPrice",
          "type": "uint256"
        }
      ],
      "name": "addCrop",
      "outputs": [],
      "payable": false,
      "stateMutability": "nonpayable",
      "type": "function"
    },
    {
      "constant": false,
      "inputs": [
        {
          "internalType": "uint256",
          "name": "_landID",
          "type": "uint256"
        }
      ],
      "name": "purchaseLandLease",
      "outputs": [],
      "payable": false,
      "stateMutability": "nonpayable",
      "type": "function"
    },
    {
      "constant": false,
      "inputs": [
        {
          "internalType": "uint256",
          "name": "_landID",
          "type": "uint256"
        }
      ],
      "name": "purchaseLandSale",
      "outputs": [],
      "payable": false,
      "stateMutability": "nonpayable",
      "type": "function"
    },
    {
      "constant": false,
      "inputs": [
        {
          "internalType": "uint256",
          "name": "_seedID",
          "type": "uint256"
        }
      ],
      "name": "purchaseSeed",
      "outputs": [],
      "payable": false,
      "stateMutability": "nonpayable",
      "type": "function"
    },
    {
      "constant": false,
      "inputs": [
        {
          "internalType": "uint256",
          "name": "_fertilizerID",
          "type": "uint256"
        }
      ],
      "name": "purchaseFertilizer",
      "outputs": [],
      "payable": false,
      "stateMutability": "nonpayable",
      "type": "function"
    },
    {
      "constant": false,
      "inputs": [
        {
          "internalType": "uint256",
          "name": "_distID",
          "type": "uint256"
        },
        {
          "internalType": "string",
          "name": "_distName",
          "type": "string"
        },
        {
          "internalType": "uint256",
          "name": "_distContact",
          "type": "uint256"
        },
        {
          "internalType": "string",
          "name": "_distAddress",
          "type": "string"
        }
      ],
      "name": "addDist",
      "outputs": [],
      "payable": false,
      "stateMutability": "nonpayable",
      "type": "function"
    },
    {
      "constant": false,
      "inputs": [
        {
          "internalType": "uint256",
          "name": "_cropID",
          "type": "uint256"
        }
      ],
      "name": "distAddCrop",
      "outputs": [],
      "payable": false,
      "stateMutability": "nonpayable",
      "type": "function"
    },
    {
      "constant": false,
      "inputs": [
        {
          "internalType": "uint256",
          "name": "_retailID",
          "type": "uint256"
        },
        {
          "internalType": "string",
          "name": "_retailName",
          "type": "string"
        },
        {
          "internalType": "string",
          "name": "_retailAddress",
          "type": "string"
        }
      ],
      "name": "addRetail",
      "outputs": [],
      "payable": false,
      "stateMutability": "nonpayable",
      "type": "function"
    }
  ],
  "bytecode": "0x608060405234801561001057600080fd5b506149eb806100206000396000f3fe608060405234801561001057600080fd5b50600436106102695760003560e01c806396e68ce711610151578063d4cca0c5116100c3578063ea97ab4b11610087578063ea97ab4b14611cec578063edfb224214611d0a578063ef096e2b14611d28578063f034983214611d56578063fa1d9d2e14611ebc578063fa81086514611f9557610269565b8063d4cca0c5146119c5578063d544a90c146119f3578063dfd55a2c14611b2b578063e96ba7f214611b49578063ea8f39f614611cbe57610269565b8063b9dd828611610115578063b9dd8286146116d0578063bcd94def146116ee578063bd45b3971461185e578063bd850f0c1461187c578063cd9428c614611955578063d21fe1cc1461198357610269565b806396e68ce714611489578063a1e89aec146114a7578063b039da0f146114c5578063b4c0498b14611670578063b5eaf4811461168e57610269565b80634d3fdae9116101ea578063808d0356116101ae578063808d0356146110f857806381f28d801461113a578063832a31c6146112725780638bed5bd2146113e75780638d8a5b7d1461140557806396e53c4f1461144757610269565b80634d3fdae914610da85780634f3afe8314610dc65780635eeb088914610f2c578063675f3191146110885780636c3755ad146110b657610269565b80633d15a00e116102315780633d15a00e146106965780633f67865c1461083a57806342280493146109af57806343f197ba14610b1557806349045f5714610c4257610269565b8063065520911461026e5780631c4860f41461028c57806325c99da11461040157806330abaf00146104435780633c2267ff1461051c575b600080fd5b61027661210a565b6040518082815260200191505060405180910390f35b6102ce600480360360208110156102a257600080fd5b81019080803573ffffffffffffffffffffffffffffffffffffffff169060200190929190505050612110565b6040518087815260200180602001868152602001806020018573ffffffffffffffffffffffffffffffffffffffff1673ffffffffffffffffffffffffffffffffffffffff16815260200184151515158152602001838103835288818151815260200191508051906020019080838360005b8381101561035a57808201518184015260208101905061033f565b50505050905090810190601f1680156103875780820380516001836020036101000a031916815260200191505b50838103825286818151815260200191508051906020019080838360005b838110156103c05780820151818401526020810190506103a5565b50505050905090810190601f1680156103ed5780820380516001836020036101000a031916815260200191505b509850505050505050505060405180910390f35b61042d6004803603602081101561041757600080fd5b81019080803590602001909291905050506122a9565b6040518082815260200191505060405180910390f35b61051a6004803603608081101561045957600080fd5b81019080803590602001909291908035906020019064010000000081111561048057600080fd5b82018360208201111561049257600080fd5b803590602001918460018302840111640100000000831117156104b457600080fd5b91908080601f016020809104026020016040519081016040528093929190818152602001838380828437600081840152601f19601f82011690508083019250505050505050919291929080359060200190929190803590602001909291905050506122ca565b005b610694600480360360c081101561053257600080fd5b81019080803590602001909291908035906020019064010000000081111561055957600080fd5b82018360208201111561056b57600080fd5b8035906020019184600183028401116401000000008311171561058d57600080fd5b91908080601f016020809104026020016040519081016040528093929190818152602001838380828437600081840152601f19601f820116905080830192505050505050509192919290803590602001906401000000008111156105f057600080fd5b82018360208201111561060257600080fd5b8035906020019184600183028401116401000000008311171561062457600080fd5b91908080601f016020809104026020016040519081016040528093929190818152602001838380828437600081840152601f19601f8201169050808301925050505050505091929192908035906020019092919080359060200190929190803590602001909291905050506124ad565b005b6106c2600480360360208110156106ac57600080fd5b81019080803590602001909291905050506126d1565b604051808a8152602001806020018060200189815260200188815260200187151515158152602001861515151581526020018573ffffffffffffffffffffffffffffffffffffffff1673ffffffffffffffffffffffffffffffffffffffff1681526020018473ffffffffffffffffffffffffffffffffffffffff1673ffffffffffffffffffffffffffffffffffffffff16815260200183810383528b818151815260200191508051906020019080838360005b83811015610790578082015181840152602081019050610775565b50505050905090810190601f1680156107bd5780820380516001836020036101000a031916815260200191505b5083810382528a818151815260200191508051906020019080838360005b838110156107f65780820151818401526020810190506107db565b50505050905090810190601f1680156108235780820380516001836020036101000a031916815260200191505b509b50505050505050505050505060405180910390f35b61087c6004803603602081101561085057600080fd5b81019080803573ffffffffffffffffffffffffffffffffffffffff1690602001909291905050506128a9565b6040518087815260200180602001868152602001806020018573ffffffffffffffffffffffffffffffffffffffff1673ffffffffffffffffffffffffffffffffffffffff16815260200184151515158152602001838103835288818151815260200191508051906020019080838360005b838110156109085780820151818401526020810190506108ed565b50505050905090810190601f1680156109355780820380516001836020036101000a031916815260200191505b50838103825286818151815260200191508051906020019080838360005b8381101561096e578082015181840152602081019050610953565b50505050905090810190601f16801561099b5780820380516001836020036101000a031916815260200191505b509850505050505050505060405180910390f35b610b13600480360360808110156109c557600080fd5b8101908080359060200190929190803590602001906401000000008111156109ec57600080fd5b8201836020820111156109fe57600080fd5b80359060200191846001830284011164010000000083111715610a2057600080fd5b91908080601f016020809104026020016040519081016040528093929190818152602001838380828437600081840152601f19601f8201169050808301925050505050505091929192908035906020019092919080359060200190640100000000811115610a8d57600080fd5b820183602082011115610a9f57600080fd5b80359060200191846001830284011164010000000083111715610ac157600080fd5b91908080601f016020809104026020016040519081016040528093929190818152602001838380828437600081840152601f19601f820116905080830192505050505050509192919290505050612a42565b005b610b4160048036036020811015610b2b57600080fd5b8101908080359060200190929190505050612cb7565b60405180888152602001806020018781526020018681526020018573ffffffffffffffffffffffffffffffffffffffff1673ffffffffffffffffffffffffffffffffffffffff1681526020018473ffffffffffffffffffffffffffffffffffffffff1673ffffffffffffffffffffffffffffffffffffffff16815260200183151515158152602001828103825288818151815260200191508051906020019080838360005b83811015610c01578082015181840152602081019050610be6565b50505050905090810190601f168015610c2e5780820380516001836020036101000a031916815260200191505b509850505050505050505060405180910390f35b610da660048036036080811015610c5857600080fd5b810190808035906020019092919080359060200190640100000000811115610c7f57600080fd5b820183602082011115610c9157600080fd5b80359060200191846001830284011164010000000083111715610cb357600080fd5b91908080601f016020809104026020016040519081016040528093929190818152602001838380828437600081840152601f19601f8201169050808301925050505050505091929192908035906020019092919080359060200190640100000000811115610d2057600080fd5b820183602082011115610d3257600080fd5b80359060200191846001830284011164010000000083111715610d5457600080fd5b91908080601f016020809104026020016040519081016040528093929190818152602001838380828437600081840152601f19601f820116905080830192505050505050509192919290505050612dde565b005b610db0613055565b6040518082815260200191505060405180910390f35b610f2a60048036036080811015610ddc57600080fd5b810190808035906020019092919080359060200190640100000000811115610e0357600080fd5b820183602082011115610e1557600080fd5b80359060200191846001830284011164010000000083111715610e3757600080fd5b91908080601f016020809104026020016040519081016040528093929190818152602001838380828437600081840152601f19601f8201169050808301925050505050505091929192908035906020019092919080359060200190640100000000811115610ea457600080fd5b820183602082011115610eb657600080fd5b80359060200191846001830284011164010000000083111715610ed857600080fd5b91908080601f016020809104026020016040519081016040528093929190818152602001838380828437600081840152601f19601f82011690508083019250505050505050919291929050505061305b565b005b61108660048036036060811015610f4257600080fd5b810190808035906020019092919080359060200190640100000000811115610f6957600080fd5b820183602082011115610f7b57600080fd5b80359060200191846001830284011164010000000083111715610f9d57600080fd5b91908080601f016020809104026020016040519081016040528093929190818152602001838380828437600081840152601f19601f8201169050808301925050505050505091929192908035906020019064010000000081111561100057600080fd5b82018360208201111561101257600080fd5b8035906020019184600183028401116401000000008311171561103457600080fd5b91908080601f016020809104026020016040519081016040528093929190818152602001838380828437600081840152601f19601f8201169050808301925050505050505091929192905050506132d2565b005b6110b46004803603602081101561109e57600080fd5b810190808035906020019092919050505061351a565b005b6110e2600480360360208110156110cc57600080fd5b810190808035906020019092919050505061358d565b6040518082815260200191505060405180910390f35b6111246004803603602081101561110e57600080fd5b81019080803590602001909291905050506135ae565b6040518082815260200191505060405180910390f35b6111666004803603602081101561115057600080fd5b81019080803590602001909291905050506135cf565b604051808981526020018060200188815260200187151515158152602001861515151581526020018581526020018473ffffffffffffffffffffffffffffffffffffffff1673ffffffffffffffffffffffffffffffffffffffff1681526020018373ffffffffffffffffffffffffffffffffffffffff1673ffffffffffffffffffffffffffffffffffffffff168152602001828103825289818151815260200191508051906020019080838360005b83811015611230578082015181840152602081019050611215565b50505050905090810190601f16801561125d5780820380516001836020036101000a031916815260200191505b50995050505050505050505060405180910390f35b6112b46004803603602081101561128857600080fd5b81019080803573ffffffffffffffffffffffffffffffffffffffff169060200190929190505050613709565b6040518087815260200180602001868152602001806020018573ffffffffffffffffffffffffffffffffffffffff1673ffffffffffffffffffffffffffffffffffffffff16815260200184151515158152602001838103835288818151815260200191508051906020019080838360005b83811015611340578082015181840152602081019050611325565b50505050905090810190601f16801561136d5780820380516001836020036101000a031916815260200191505b50838103825286818151815260200191508051906020019080838360005b838110156113a657808201518184015260208101905061138b565b50505050905090810190601f1680156113d35780820380516001836020036101000a031916815260200191505b509850505050505050505060405180910390f35b6113ef6138a2565b6040518082815260200191505060405180910390f35b6114316004803603602081101561141b57600080fd5b81019080803590602001909291905050506138a8565b6040518082815260200191505060405180910390f35b6114736004803603602081101561145d57600080fd5b81019080803590602001909291905050506138c9565b6040518082815260200191505060405180910390f35b6114916138ea565b6040518082815260200191505060405180910390f35b6114af6138f0565b6040518082815260200191505060405180910390f35b6114f1600480360360208110156114db57600080fd5b81019080803590602001909291905050506138f6565b604051808b815260200180602001806020018a815260200189815260200188815260200187151515158152602001861515151581526020018573ffffffffffffffffffffffffffffffffffffffff1673ffffffffffffffffffffffffffffffffffffffff1681526020018473ffffffffffffffffffffffffffffffffffffffff1673ffffffffffffffffffffffffffffffffffffffff16815260200183810383528c818151815260200191508051906020019080838360005b838110156115c55780820151818401526020810190506115aa565b50505050905090810190601f1680156115f25780820380516001836020036101000a031916815260200191505b5083810382528b818151815260200191508051906020019080838360005b8381101561162b578082015181840152602081019050611610565b50505050905090810190601f1680156116585780820380516001836020036101000a031916815260200191505b509c5050505050505050505050505060405180910390f35b611678613ad4565b6040518082815260200191505060405180910390f35b6116ba600480360360208110156116a457600080fd5b8101908080359060200190929190505050613ada565b6040518082815260200191505060405180910390f35b6116d8613afb565b6040518082815260200191505060405180910390f35b61185c600480360360a081101561170457600080fd5b81019080803590602001909291908035906020019064010000000081111561172b57600080fd5b82018360208201111561173d57600080fd5b8035906020019184600183028401116401000000008311171561175f57600080fd5b91908080601f016020809104026020016040519081016040528093929190818152602001838380828437600081840152601f19601f820116905080830192505050505050509192919290803590602001906401000000008111156117c257600080fd5b8201836020820111156117d457600080fd5b803590602001918460018302840111640100000000831117156117f657600080fd5b91908080601f016020809104026020016040519081016040528093929190818152602001838380828437600081840152601f19601f8201169050808301925050505050505091929192908035906020019092919080359060200190929190505050613b01565b005b611866613d13565b6040518082815260200191505060405180910390f35b6119536004803603608081101561189257600080fd5b8101908080359060200190929190803590602001906401000000008111156118b957600080fd5b8201836020820111156118cb57600080fd5b803590602001918460018302840111640100000000831117156118ed57600080fd5b91908080601f016020809104026020016040519081016040528093929190818152602001838380828437600081840152601f19601f8201169050808301925050505050505091929192908035906020019092919080359060200190929190505050613d19565b005b6119816004803603602081101561196b57600080fd5b8101908080359060200190929190505050613ea4565b005b6119af6004803603602081101561199957600080fd5b8101908080359060200190929190505050613f17565b6040518082815260200191505060405180910390f35b6119f1600480360360208110156119db57600080fd5b8101908080359060200190929190505050613f38565b005b611a1f60048036036020811015611a0957600080fd5b8101908080359060200190929190505050613fab565b604051808981526020018060200188815260200187151515158152602001861515151581526020018581526020018473ffffffffffffffffffffffffffffffffffffffff1673ffffffffffffffffffffffffffffffffffffffff1681526020018373ffffffffffffffffffffffffffffffffffffffff1673ffffffffffffffffffffffffffffffffffffffff168152602001828103825289818151815260200191508051906020019080838360005b83811015611ae9578082015181840152602081019050611ace565b50505050905090810190601f168015611b165780820380516001836020036101000a031916815260200191505b50995050505050505050505060405180910390f35b611b336140e5565b6040518082815260200191505060405180910390f35b611b8b60048036036020811015611b5f57600080fd5b81019080803573ffffffffffffffffffffffffffffffffffffffff1690602001909291905050506140eb565b6040518087815260200180602001806020018681526020018573ffffffffffffffffffffffffffffffffffffffff1673ffffffffffffffffffffffffffffffffffffffff16815260200184151515158152602001838103835288818151815260200191508051906020019080838360005b83811015611c17578082015181840152602081019050611bfc565b50505050905090810190601f168015611c445780820380516001836020036101000a031916815260200191505b50838103825287818151815260200191508051906020019080838360005b83811015611c7d578082015181840152602081019050611c62565b50505050905090810190601f168015611caa5780820380516001836020036101000a031916815260200191505b509850505050505050505060405180910390f35b611cea60048036036020811015611cd457600080fd5b8101908080359060200190929190505050614284565b005b611cf46142f7565b6040518082815260200191505060405180910390f35b611d126142fd565b6040518082815260200191505060405180910390f35b611d5460048036036020811015611d3e57600080fd5b8101908080359060200190929190505050614303565b005b611eba60048036036080811015611d6c57600080fd5b810190808035906020019092919080359060200190640100000000811115611d9357600080fd5b820183602082011115611da557600080fd5b80359060200191846001830284011164010000000083111715611dc757600080fd5b91908080601f016020809104026020016040519081016040528093929190818152602001838380828437600081840152601f19601f8201169050808301925050505050505091929192908035906020019092919080359060200190640100000000811115611e3457600080fd5b820183602082011115611e4657600080fd5b80359060200191846001830284011164010000000083111715611e6857600080fd5b91908080601f016020809104026020016040519081016040528093929190818152602001838380828437600081840152601f19601f820116905080830192505050505050509192919290505050614376565b005b611f9360048036036080811015611ed257600080fd5b810190808035906020019092919080359060200190640100000000811115611ef957600080fd5b820183602082011115611f0b57600080fd5b80359060200191846001830284011164010000000083111715611f2d57600080fd5b91908080601f016020809104026020016040519081016040528093929190818152602001838380828437600081840152601f19601f82011690508083019250505050505050919291929080359060200190929190803590602001909291905050506145ed565b005b611fd760048036036020811015611fab57600080fd5b81019080803573ffffffffffffffffffffffffffffffffffffffff169060200190929190505050614778565b6040518087815260200180602001868152602001806020018573ffffffffffffffffffffffffffffffffffffffff1673ffffffffffffffffffffffffffffffffffffffff16815260200184151515158152602001838103835288818151815260200191508051906020019080838360005b83811015612063578082015181840152602081019050612048565b50505050905090810190601f1680156120905780820380516001836020036101000a031916815260200191505b50838103825286818151815260200191508051906020019080838360005b838110156120c95780820151818401526020810190506120ae565b50505050905090810190601f1680156120f65780820380516001836020036101000a031916815260200191505b509850505050505050505060405180910390f35b60115481565b6004602052806000526040600020600091509050806000015490806001018054600181600116156101000203166002900480601f0160208091040260200160405190810160405280929190818152602001828054600181600116156101000203166002900480156121c25780601f10612197576101008083540402835291602001916121c2565b820191906000526020600020905b8154815290600101906020018083116121a557829003601f168201915b505050505090806002015490806003018054600181600116156101000203166002900480601f0160208091040260200160405190810160405280929190818152602001828054600181600116156101000203166002900480156122665780601f1061223b57610100808354040283529160200191612266565b820191906000526020600020905b81548152906001019060200180831161224957829003601f168201915b5050505050908060040160009054906101000a900473ffffffffffffffffffffffffffffffffffffffff16908060040160149054906101000a900460ff16905086565b600b81815481106122b657fe5b906000526020600020016000915090505481565b6000600760008681526020019081526020016000209050338160040160006101000a81548173ffffffffffffffffffffffffffffffffffffffff021916908373ffffffffffffffffffffffffffffffffffffffff16021790555084816000018190555083816001019080519060200190612345929190614911565b50828160020181905550818160030181905550601860008154809291906001019190505550600e8590806001815401808255809150509060018203906000526020600020016000909192909190915055507f378c5f03b632c0811ba440398934fb1eafc2713c8186a0bc988db1302b2f9e0f81600001548585858560040160009054906101000a900473ffffffffffffffffffffffffffffffffffffffff1660405180868152602001806020018581526020018481526020018373ffffffffffffffffffffffffffffffffffffffff1673ffffffffffffffffffffffffffffffffffffffff168152602001828103825286818151815260200191508051906020019080838360005b8381101561246857808201518184015260208101905061244d565b50505050905090810190601f1680156124955780820380516001836020036101000a031916815260200191505b50965050505050505060405180910390a15050505050565b6000600260008881526020019081526020016000209050338160060160026101000a81548173ffffffffffffffffffffffffffffffffffffffff021916908373ffffffffffffffffffffffffffffffffffffffff16021790555086816000018190555085816001019080519060200190612528929190614911565b5084816002019080519060200190612541929190614911565b50838160030181905550828160040181905550818160050181905550601360008154809291906001019190505550600a8790806001815401808255809150509060018203906000526020600020016000909192909190915055507f439f63ff3358d031c0d7ea0b2dad09bb38c25aa5873ee25526f60b2434ddf69a81600001548787878787604051808781526020018060200180602001868152602001858152602001848152602001838103835288818151815260200191508051906020019080838360005b83811015612622578082015181840152602081019050612607565b50505050905090810190601f16801561264f5780820380516001836020036101000a031916815260200191505b50838103825287818151815260200191508051906020019080838360005b8381101561268857808201518184015260208101905061266d565b50505050905090810190601f1680156126b55780820380516001836020036101000a031916815260200191505b509850505050505050505060405180910390a150505050505050565b6003602052806000526040600020600091509050806000015490806001018054600181600116156101000203166002900480601f0160208091040260200160405190810160405280929190818152602001828054600181600116156101000203166002900480156127835780601f1061275857610100808354040283529160200191612783565b820191906000526020600020905b81548152906001019060200180831161276657829003601f168201915b505050505090806002018054600181600116156101000203166002900480601f0160208091040260200160405190810160405280929190818152602001828054600181600116156101000203166002900480156128215780601f106127f657610100808354040283529160200191612821565b820191906000526020600020905b81548152906001019060200180831161280457829003601f168201915b5050505050908060030154908060040154908060050160009054906101000a900460ff16908060050160019054906101000a900460ff16908060050160029054906101000a900473ffffffffffffffffffffffffffffffffffffffff16908060060160009054906101000a900473ffffffffffffffffffffffffffffffffffffffff16905089565b6000602052806000526040600020600091509050806000015490806001018054600181600116156101000203166002900480601f01602080910402602001604051908101604052809291908181526020018280546001816001161561010002031660029004801561295b5780601f106129305761010080835404028352916020019161295b565b820191906000526020600020905b81548152906001019060200180831161293e57829003601f168201915b505050505090806002015490806003018054600181600116156101000203166002900480601f0160208091040260200160405190810160405280929190818152602001828054600181600116156101000203166002900480156129ff5780601f106129d4576101008083540402835291602001916129ff565b820191906000526020600020905b8154815290600101906020018083116129e257829003601f168201915b5050505050908060040160009054906101000a900473ffffffffffffffffffffffffffffffffffffffff16908060040160149054906101000a900460ff16905086565b60008060003373ffffffffffffffffffffffffffffffffffffffff1673ffffffffffffffffffffffffffffffffffffffff16815260200190815260200160002090506000803373ffffffffffffffffffffffffffffffffffffffff1673ffffffffffffffffffffffffffffffffffffffff16815260200190815260200160002060040160149054906101000a900460ff1615612add57600080fd5b338160040160006101000a81548173ffffffffffffffffffffffffffffffffffffffff021916908373ffffffffffffffffffffffffffffffffffffffff16021790555084816000018190555083816001019080519060200190612b41929190614911565b5081816003019080519060200190612b5a929190614911565b5082816002018190555060018160040160146101000a81548160ff0219169083151502179055506011600081548092919060010191905055507f08668c3163d612d8a94f23903ed5e73898d30921f3f8141c5d33a9495487754c8160000154858585604051808581526020018060200184815260200180602001838103835286818151815260200191508051906020019080838360005b83811015612c0c578082015181840152602081019050612bf1565b50505050905090810190601f168015612c395780820380516001836020036101000a031916815260200191505b50838103825284818151815260200191508051906020019080838360005b83811015612c72578082015181840152602081019050612c57565b50505050905090810190601f168015612c9f5780820380516001836020036101000a031916815260200191505b50965050505050505060405180910390a15050505050565b6007602052806000526040600020600091509050806000015490806001018054600181600116156101000203166002900480601f016020809104026020016040519081016040528092919081815260200182805460018160011615610100020316600290048015612d695780601f10612d3e57610100808354040283529160200191612d69565b820191906000526020600020905b815481529060010190602001808311612d4c57829003601f168201915b5050505050908060020154908060030154908060040160009054906101000a900473ffffffffffffffffffffffffffffffffffffffff16908060050160009054906101000a900473ffffffffffffffffffffffffffffffffffffffff16908060050160149054906101000a900460ff16905087565b6000600160003373ffffffffffffffffffffffffffffffffffffffff1673ffffffffffffffffffffffffffffffffffffffff1681526020019081526020016000209050600160003373ffffffffffffffffffffffffffffffffffffffff1673ffffffffffffffffffffffffffffffffffffffff16815260200190815260200160002060040160149054906101000a900460ff1615612e7b57600080fd5b338160040160006101000a81548173ffffffffffffffffffffffffffffffffffffffff021916908373ffffffffffffffffffffffffffffffffffffffff16021790555084816000018190555083816001019080519060200190612edf929190614911565b5081816002019080519060200190612ef8929190614911565b5082816003018190555060018160040160146101000a81548160ff0219169083151502179055506012600081548092919060010191905055507fd6872be6e41398807aa745d3fa75664e9c98bab6bc08f2ede66cf950f1a86e4f8160000154858585604051808581526020018060200184815260200180602001838103835286818151815260200191508051906020019080838360005b83811015612faa578082015181840152602081019050612f8f565b50505050905090810190601f168015612fd75780820380516001836020036101000a031916815260200191505b50838103825284818151815260200191508051906020019080838360005b83811015613010578082015181840152602081019050612ff5565b50505050905090810190601f16801561303d5780820380516001836020036101000a031916815260200191505b50965050505050505060405180910390a15050505050565b60195481565b6000600460003373ffffffffffffffffffffffffffffffffffffffff1673ffffffffffffffffffffffffffffffffffffffff1681526020019081526020016000209050600460003373ffffffffffffffffffffffffffffffffffffffff1673ffffffffffffffffffffffffffffffffffffffff16815260200190815260200160002060040160149054906101000a900460ff16156130f857600080fd5b338160040160006101000a81548173ffffffffffffffffffffffffffffffffffffffff021916908373ffffffffffffffffffffffffffffffffffffffff1602179055508481600001819055508381600101908051906020019061315c929190614911565b5081816003019080519060200190613175929190614911565b5082816002018190555060018160040160146101000a81548160ff0219169083151502179055506017600081548092919060010191905055507fb36cc4119d00d499f56607c93b70202fbd20ed3ddec3c66d8f91c3890dc4ff2e8160000154858585604051808581526020018060200184815260200180602001838103835286818151815260200191508051906020019080838360005b8381101561322757808201518184015260208101905061320c565b50505050905090810190601f1680156132545780820380516001836020036101000a031916815260200191505b50838103825284818151815260200191508051906020019080838360005b8381101561328d578082015181840152602081019050613272565b50505050905090810190601f1680156132ba5780820380516001836020036101000a031916815260200191505b50965050505050505060405180910390a15050505050565b6000600960003373ffffffffffffffffffffffffffffffffffffffff1673ffffffffffffffffffffffffffffffffffffffff1681526020019081526020016000209050600960003373ffffffffffffffffffffffffffffffffffffffff1673ffffffffffffffffffffffffffffffffffffffff16815260200190815260200160002060040160149054906101000a900460ff161561336f57600080fd5b338160040160006101000a81548173ffffffffffffffffffffffffffffffffffffffff021916908373ffffffffffffffffffffffffffffffffffffffff160217905550838160000181905550828160010190805190602001906133d3929190614911565b50818160030190805190602001906133ec929190614911565b50601a600081548092919060010191905055507fbc6b63243e22bf0fe3d7d5c8071a02a37634c7252fd893f9c26d6a65e65d93e981600001548484604051808481526020018060200180602001838103835285818151815260200191508051906020019080838360005b83811015613471578082015181840152602081019050613456565b50505050905090810190601f16801561349e5780820380516001836020036101000a031916815260200191505b50838103825284818151815260200191508051906020019080838360005b838110156134d75780820151818401526020810190506134bc565b50505050905090810190601f1680156135045780820380516001836020036101000a031916815260200191505b509550505050505060405180910390a150505050565b600060026000838152602001908152602001600020905060018160060160006101000a81548160ff0219169083151502179055507fb113ddee1f19c663134cf17fedc292ab8569c4313980b37a98ad6f576fe205d081600001546040518082815260200191505060405180910390a15050565b6010818154811061359a57fe5b906000526020600020016000915090505481565b600c81815481106135bb57fe5b906000526020600020016000915090505481565b6006602052806000526040600020600091509050806000015490806001018054600181600116156101000203166002900480601f0160208091040260200160405190810160405280929190818152602001828054600181600116156101000203166002900480156136815780601f1061365657610100808354040283529160200191613681565b820191906000526020600020905b81548152906001019060200180831161366457829003601f168201915b5050505050908060020154908060030160009054906101000a900460ff16908060030160019054906101000a900460ff16908060040154908060050160009054906101000a900473ffffffffffffffffffffffffffffffffffffffff16908060060160009054906101000a900473ffffffffffffffffffffffffffffffffffffffff16905088565b6008602052806000526040600020600091509050806000015490806001018054600181600116156101000203166002900480601f0160208091040260200160405190810160405280929190818152602001828054600181600116156101000203166002900480156137bb5780601f10613790576101008083540402835291602001916137bb565b820191906000526020600020905b81548152906001019060200180831161379e57829003601f168201915b505050505090806002015490806003018054600181600116156101000203166002900480601f01602080910402602001604051908101604052809291908181526020018280546001816001161561010002031660029004801561385f5780601f106138345761010080835404028352916020019161385f565b820191906000526020600020905b81548152906001019060200180831161384257829003601f168201915b5050505050908060040160009054906101000a900473ffffffffffffffffffffffffffffffffffffffff16908060040160149054906101000a900460ff16905086565b60145481565b600d81815481106138b557fe5b906000526020600020016000915090505481565b600a81815481106138d657fe5b906000526020600020016000915090505481565b60155481565b60165481565b6002602052806000526040600020600091509050806000015490806001018054600181600116156101000203166002900480601f0160208091040260200160405190810160405280929190818152602001828054600181600116156101000203166002900480156139a85780601f1061397d576101008083540402835291602001916139a8565b820191906000526020600020905b81548152906001019060200180831161398b57829003601f168201915b505050505090806002018054600181600116156101000203166002900480601f016020809104026020016040519081016040528092919081815260200182805460018160011615610100020316600290048015613a465780601f10613a1b57610100808354040283529160200191613a46565b820191906000526020600020905b815481529060010190602001808311613a2957829003601f168201915b5050505050908060030154908060040154908060050154908060060160009054906101000a900460ff16908060060160019054906101000a900460ff16908060060160029054906101000a900473ffffffffffffffffffffffffffffffffffffffff16908060070160009054906101000a900473ffffffffffffffffffffffffffffffffffffffff1690508a565b60135481565b600e8181548110613ae757fe5b906000526020600020016000915090505481565b601a5481565b6000600360008781526020019081526020016000209050338160050160026101000a81548173ffffffffffffffffffffffffffffffffffffffff021916908373ffffffffffffffffffffffffffffffffffffffff16021790555085816000018190555084816001019080519060200190613b7c929190614911565b5083816002019080519060200190613b95929190614911565b50828160030181905550818160040181905550601660008154809291906001019190505550600b8690806001815401808255809150509060018203906000526020600020016000909192909190915055507f1165557beb26b62f0b993d64631cef5a6da178727e9e0403f41c77c28bc8d73d816000015486868686604051808681526020018060200180602001858152602001848152602001838103835287818151815260200191508051906020019080838360005b83811015613c66578082015181840152602081019050613c4b565b50505050905090810190601f168015613c935780820380516001836020036101000a031916815260200191505b50838103825286818151815260200191508051906020019080838360005b83811015613ccc578082015181840152602081019050613cb1565b50505050905090810190601f168015613cf95780820380516001836020036101000a031916815260200191505b5097505050505050505060405180910390a1505050505050565b60175481565b6000600660008681526020019081526020016000209050338160050160006101000a81548173ffffffffffffffffffffffffffffffffffffffff021916908373ffffffffffffffffffffffffffffffffffffffff16021790555084816000018190555083816001019080519060200190613d94929190614911565b50828160040181905550818160020181905550600d8590806001815401808255809150509060018203906000526020600020016000909192909190915055506015600081548092919060010191905055507f7dd1ac0f3045c721af138f4c0f5c1d81f03d3ce527d8984fb057c73a2229973e81600001548585856040518085815260200180602001848152602001838152602001828103825285818151815260200191508051906020019080838360005b83811015613e60578082015181840152602081019050613e45565b50505050905090810190601f168015613e8d5780820380516001836020036101000a031916815260200191505b509550505050505060405180910390a15050505050565b600060036000838152602001908152602001600020905060018160050160006101000a81548160ff0219169083151502179055507f4d76f888e2d45ed5342180cd02cd937a6df60e70f9267b6fe3d23fef91073dbe81600001546040518082815260200191505060405180910390a15050565b600f8181548110613f2457fe5b906000526020600020016000915090505481565b600060056000838152602001908152602001600020905060018160030160006101000a81548160ff0219169083151502179055507f4884f639bffe6ebc2bd20dcf3acba03bbb77a1c29ce119ee0468add1e526bf2e81600001546040518082815260200191505060405180910390a15050565b6005602052806000526040600020600091509050806000015490806001018054600181600116156101000203166002900480601f01602080910402602001604051908101604052809291908181526020018280546001816001161561010002031660029004801561405d5780601f106140325761010080835404028352916020019161405d565b820191906000526020600020905b81548152906001019060200180831161404057829003601f168201915b5050505050908060020154908060030160009054906101000a900460ff16908060030160019054906101000a900460ff16908060040154908060050160009054906101000a900473ffffffffffffffffffffffffffffffffffffffff16908060060160009054906101000a900473ffffffffffffffffffffffffffffffffffffffff16905088565b60185481565b6001602052806000526040600020600091509050806000015490806001018054600181600116156101000203166002900480601f01602080910402602001604051908101604052809291908181526020018280546001816001161561010002031660029004801561419d5780601f106141725761010080835404028352916020019161419d565b820191906000526020600020905b81548152906001019060200180831161418057829003601f168201915b505050505090806002018054600181600116156101000203166002900480601f01602080910402602001604051908101604052809291908181526020018280546001816001161561010002031660029004801561423b5780601f106142105761010080835404028352916020019161423b565b820191906000526020600020905b81548152906001019060200180831161421e57829003601f168201915b5050505050908060030154908060040160009054906101000a900473ffffffffffffffffffffffffffffffffffffffff16908060040160149054906101000a900460ff16905086565b600060076000838152602001908152602001600020905060018160050160146101000a81548160ff0219169083151502179055507fadae2f6d15893072faac01469d9c4ab03345012f63f977eabb99ca98c67fc3de81600001546040518082815260200191505060405180910390a15050565b60125481565b601b5481565b600060066000838152602001908152602001600020905060018160030160006101000a81548160ff0219169083151502179055507fa214b590499078bd7c3ac19858552eb9d47ef202d017c8c1af3a1f2559710b2b81600001546040518082815260200191505060405180910390a15050565b6000600860003373ffffffffffffffffffffffffffffffffffffffff1673ffffffffffffffffffffffffffffffffffffffff1681526020019081526020016000209050600860003373ffffffffffffffffffffffffffffffffffffffff1673ffffffffffffffffffffffffffffffffffffffff16815260200190815260200160002060040160149054906101000a900460ff161561441357600080fd5b338160040160006101000a81548173ffffffffffffffffffffffffffffffffffffffff021916908373ffffffffffffffffffffffffffffffffffffffff16021790555084816000018190555083816001019080519060200190614477929190614911565b5082816002018190555081816003019080519060200190614499929190614911565b5060018160040160146101000a81548160ff0219169083151502179055506019600081548092919060010191905055507f85ce94a09259d11fea28ef2cdae95f1a94d42451c0741fdd7e267f746c524b6a8160000154858585604051808581526020018060200184815260200180602001838103835286818151815260200191508051906020019080838360005b83811015614542578082015181840152602081019050614527565b50505050905090810190601f16801561456f5780820380516001836020036101000a031916815260200191505b50838103825284818151815260200191508051906020019080838360005b838110156145a857808201518184015260208101905061458d565b50505050905090810190601f1680156145d55780820380516001836020036101000a031916815260200191505b50965050505050505060405180910390a15050505050565b6000600560008681526020019081526020016000209050338160050160006101000a81548173ffffffffffffffffffffffffffffffffffffffff021916908373ffffffffffffffffffffffffffffffffffffffff16021790555084816000018190555083816001019080519060200190614668929190614911565b50828160040181905550818160020181905550600c8590806001815401808255809150509060018203906000526020600020016000909192909190915055506014600081548092919060010191905055507fa55da230e9462e2c52b347397a2cb6953432cf8bed20f679a034e459ef95e34b81600001548585856040518085815260200180602001848152602001838152602001828103825285818151815260200191508051906020019080838360005b83811015614734578082015181840152602081019050614719565b50505050905090810190601f1680156147615780820380516001836020036101000a031916815260200191505b509550505050505060405180910390a15050505050565b6009602052806000526040600020600091509050806000015490806001018054600181600116156101000203166002900480601f01602080910402602001604051908101604052809291908181526020018280546001816001161561010002031660029004801561482a5780601f106147ff5761010080835404028352916020019161482a565b820191906000526020600020905b81548152906001019060200180831161480d57829003601f168201915b505050505090806002015490806003018054600181600116156101000203166002900480601f0160208091040260200160405190810160405280929190818152602001828054600181600116156101000203166002900480156148ce5780601f106148a3576101008083540402835291602001916148ce565b820191906000526020600020905b8154815290600101906020018083116148b157829003601f168201915b5050505050908060040160009054906101000a900473ffffffffffffffffffffffffffffffffffffffff16908060040160149054906101000a900460ff16905086565b828054600181600116156101000203166002900490600052602060002090601f016020900481019282601f1061495257805160ff1916838001178555614980565b82800160010185558215614980579182015b8281111561497f578251825591602001919060010190614964565b5b50905061498d9190614991565b5090565b6149b391905b808211156149af576000816000905550600101614997565b5090565b9056fea265627a7a723158201348f776ea4abc8f115fdfaa49ccabf21578d32a08566909e7c54af2580148f864736f6c63430005100032",
  "source": "pragma solidity ^0.5.16;\r\n\r\ncontract SupplyChain{\r\n\r\n    //model a landlord\r\n    struct Landlord{\r\n        uint landlordID;\r\n        string landlordName;\r\n        uint landlordContact;\r\n        string landlordAddress;\r\n        address laddr;\r\n        bool isValue;\r\n    }\r\n\r\n    //model a seed dealer\r\n    struct SeedDealer{\r\n        uint dealerID;\r\n        string dealerName;\r\n        string dealerAddress;\r\n        uint dealerContact;\r\n        address saddr;\r\n        bool isValue;\r\n    }\r\n\r\n    //model a seed\r\n    struct Seed{\r\n        uint seedID;\r\n        string seedName;\r\n        uint seedQuantity;\r\n        bool isBought;\r\n        bool isSale;\r\n        uint seedcost;\r\n        address saddr;\r\n        address faddr;\r\n    }\r\n\r\n\r\n    //model a fertilizer\r\n    struct Fertilizer{\r\n        uint fertilizerID;\r\n        string fertilizerName;\r\n        uint fertilizerQuantity;\r\n        bool isBought;\r\n        bool isSale;\r\n        uint fertilizerCost;\r\n        address saddr;\r\n        address faddr;\r\n    }\r\n    //model a land\r\n    struct Landsale{\r\n        uint landID;\r\n        string landAddress;\r\n        string soilType;\r\n        //uint temperature;\r\n        //uint humidity;\r\n        //string cropType;\r\n        uint area;\r\n        uint cost;\r\n        bool isBought;\r\n        bool isSale;\r\n        address laddr;\r\n        address faddr;\r\n    }\r\n\r\n    //model a landlease\r\n    struct Landlease{\r\n        uint landID;\r\n        string landAddress;\r\n        string soilType;\r\n        //uint temperature;\r\n        //uint humidity;\r\n        //string cropType;\r\n        uint area;\r\n        uint cost;\r\n        uint duration;\r\n        bool isBought;\r\n        bool isLease;\r\n        address laddr;\r\n        address faddr;\r\n\r\n    }\r\n\r\n    //model a farmer\r\n   struct Farmer {\r\n       uint farmerID;\r\n       string farmerName;\r\n       uint farmerContact;\r\n      string farmerAddress;\r\n       address faddr;\r\n       bool isValue;\r\n   }\r\n\r\n   //model crop\r\n    struct Crop{\r\n       uint cropID;\r\n       string cropName;\r\n       uint quantity;\r\n       uint cropPrice;\r\n        address faddr;\r\n        address daddr;\r\n        bool isBought;      \r\n         //string fertilizer_name;\r\n       //string soil_name;\r\n   } \r\n\r\n   //model a distributor\r\n   struct Distributor{\r\n       uint distID;\r\n       string distName;\r\n       uint distContact;\r\n       string distAddress;\r\n       address daddr;\r\n       bool isValue;\r\n   }\r\n   \r\n   //model a retailer\r\n   struct Retailer{\r\n       uint retailID;\r\n       string retailName;\r\n       uint retailContact;\r\n       string  retailAddress;\r\n       address raddr;\r\n       bool isValue;\r\n   }\r\n   \r\n   mapping(address => Landlord) public mlandlord;\r\n   mapping(address => SeedDealer) public mdealer;\r\n   mapping(uint => Landlease) public mlland;\r\n   mapping(uint => Landsale) public msland;\r\n   mapping(address => Farmer) public mfarmer;\r\n   mapping(uint => Seed) public mseed;\r\n   mapping(uint => Fertilizer) public mfertilizer;\r\n   mapping(uint => Crop) public mcrop;\r\n   //mapping(uint => Crop) public dcrop;\r\n   mapping(address => Distributor) public mdist;\r\n   mapping(address => Retailer) public mretail;\r\n   \r\n\r\n   //count of crop\r\n   uint[] public leaseArr;\r\n   uint[] public saleArr;\r\n   uint[] public seedArr;\r\n   uint[] public fertilizerArr;\r\n   uint[] public cropArr;\r\n   uint[] public distCropArr;\r\n   uint[] public temp;\r\n   uint public landlordCount;\r\n   uint public dealerCount;\r\n   uint public leaseCount;\r\n   uint public seedCount;\r\n   uint public fertilizerCount;\r\n   uint public saleCount;\r\n   uint public farmerCount;\r\n   uint public cropCount;\r\n   uint public distCount;\r\n   uint public retailCount;\r\n   uint public distCropCount;\r\n\r\n   //event for landlord\r\n   event landlordCreated(\r\n       uint landlordID,\r\n       string landlordName,\r\n       uint landlordContact,\r\n       string landlordAddress\r\n   );\r\n   \r\n   //event for land sale\r\n   event landForSale (\r\n       uint landID,\r\n       string landAddress,\r\n       string soilType,\r\n       //uint temperature,\r\n       //uint humidity,\r\n       //string cropType,\r\n       uint area,\r\n       uint cost\r\n   );\r\n\r\n   //event for lease\r\n   event landForLease(\r\n       uint landID,\r\n       string landAddress,\r\n       string soilType,\r\n       //uint temperature,\r\n       //uint humidity,\r\n       //string cropType,\r\n       uint area,\r\n       uint cost,\r\n       uint duration\r\n   );\r\n\r\n \r\n   //event for seedDealer\r\n   event seedDealerCreated(\r\n        uint dealerID,\r\n        string dealerName,\r\n        uint dealerContact,\r\n        string dealerAddress\r\n   );\r\n\r\n   //event for seedCreated\r\n   event seedCreated(\r\n        uint seedID,\r\n        string seedName,\r\n        uint seedcost,\r\n        uint seedQuantity\r\n   );\r\n\r\n   //event for fertilizerCreated\r\n   event fertilizerCreated(\r\n        uint fertilizerID,\r\n        string fertilizerName,\r\n        uint fertilizerCost,\r\n        uint fertilizerQuantity\r\n   );\r\n\r\n   // event for farmer\r\n   event farmerCreated (\r\n       uint farmerID,\r\n       string farmerName,\r\n       uint farmerContact,\r\n       string farmerAddress\r\n   );\r\n\r\n   // event for crop\r\n   event cropCreated (\r\n       uint cropID,\r\n       string cropName,\r\n       uint quantity,\r\n       uint cropPrice,\r\n       address faddr\r\n   );\r\n\r\n   //event for farmer land purchase \r\n   event landPurchaseLease (\r\n       uint landID\r\n   );\r\n    event landPurchaseSale (\r\n       uint landID\r\n   );\r\n   //evbent for seed purchase\r\n   event seedPurchase(\r\n       uint seedID\r\n   );\r\n   //event for fertilizer purchase\r\n   event fertilizerPurchase(\r\n       uint fertilizerID\r\n   );\r\n\r\n   //event for distributor \r\n   event distCreated (\r\n       uint distID,\r\n       string distName,\r\n       uint distContact,\r\n       string distAddress\r\n   );\r\n\r\n   //event for distributor crop\r\n   event distCrop (\r\n       uint cropID\r\n   );\r\n   \r\n   //event for retailer\r\n   event retailCreated (\r\n       uint retailID,\r\n       string retailName,\r\n       string retailAddress\r\n   );\r\n\r\n    //add new Landlord\r\n    function newLandlord(\r\n        uint _landlordID,\r\n        string memory _landlordName,\r\n        uint _landlordContact,\r\n        string memory _landlordAddress\r\n    ) public {\r\n        Landlord storage _newlandlord = mlandlord[msg.sender];\r\n\r\n        // Only allows new records to be created\r\n         require(!mlandlord[msg.sender].isValue);\r\n        _newlandlord.laddr = msg.sender;\r\n        _newlandlord.landlordID = _landlordID;\r\n        _newlandlord.landlordName = _landlordName;\r\n        _newlandlord.landlordAddress = _landlordAddress;\r\n        _newlandlord.landlordContact = _landlordContact;\r\n        _newlandlord.isValue = true;\r\n        landlordCount++;\r\n        emit landlordCreated(_newlandlord.landlordID, _landlordName, _landlordContact,_landlordAddress);\r\n    }\r\n\r\n    //landlord adds new land for sale\r\n    function addLandSale (\r\n        uint _landID,\r\n        string memory _landAddress,\r\n        string memory _soilType,\r\n        //uint _temperature,\r\n        //uint _humidity,\r\n        //string memory _cropType,\r\n        uint _area,\r\n        uint _cost\r\n    ) public {\r\n        Landsale storage _newland = msland[_landID];\r\n        _newland.laddr = msg.sender;\r\n        _newland.landID = _landID;\r\n        _newland.landAddress = _landAddress;\r\n        _newland.soilType = _soilType;\r\n        //_newland.temperature=_temperature;\r\n        //_newland.humidity=_humidity;\r\n        //_newland.cropType=_cropType;\r\n        _newland.area=_area;\r\n        _newland.cost=_cost;\r\n        saleCount++;\r\n        saleArr.push(_landID);\r\n        emit landForSale(_newland.landID, _landAddress, _soilType,_area,_cost);\r\n    }\r\n\r\n    // //lease function\r\n     function addLandLease (\r\n        uint _landID,\r\n      //  string memory _landName,\r\n        string memory _landAddress,\r\n        string memory _soilType,\r\n        //uint _temperature,\r\n        //uint _humidity,\r\n        //string memory _cropType,\r\n        uint _area,\r\n        uint _cost,\r\n        uint _duration\r\n    ) public {\r\n        Landlease storage _newland = mlland[_landID];\r\n        _newland.laddr = msg.sender;\r\n        _newland.landID = _landID;\r\n       // _newland.landName = _landName;\r\n        _newland.landAddress = _landAddress;\r\n        _newland.soilType = _soilType;\r\n        //_newland.temperature=_temperature;\r\n        //_newland.humidity=_humidity;\r\n        //_newland.cropType=_cropType;\r\n        _newland.area=_area;\r\n        _newland.cost=_cost;\r\n        _newland.duration=_duration;\r\n        leaseCount++;\r\n        leaseArr.push(_landID);\r\n        emit landForLease(_newland.landID, _landAddress, _soilType,_area,_cost,_duration);\r\n    }\r\n    \r\n    //add new seedDealer\r\n    function newSeedDealer (\r\n        uint _dealerID,\r\n        string memory _dealerName,\r\n        uint _dealerContact,\r\n        string memory _dealerAddress\r\n    ) public {\r\n        SeedDealer storage _newdealer = mdealer[msg.sender];\r\n\r\n        // Only allows new records to be created\r\n        require(!mdealer[msg.sender].isValue);\r\n        _newdealer.saddr = msg.sender;\r\n        _newdealer.dealerID = _dealerID;\r\n        _newdealer.dealerName = _dealerName;\r\n        _newdealer.dealerAddress = _dealerAddress;\r\n        _newdealer.dealerContact = _dealerContact;\r\n        _newdealer.isValue = true;\r\n        dealerCount++;\r\n        emit seedDealerCreated(_newdealer.dealerID, _dealerName, _dealerContact,_dealerAddress);\r\n    }\r\n\r\n    //add new seed\r\n    function newSeed (\r\n        uint _seedID,\r\n        string memory _seedName,\r\n        uint _seedcost,\r\n        uint _seedQuantity\r\n    ) public {\r\n        Seed storage _newseed = mseed[_seedID];\r\n\r\n        // Only allows new records to be created\r\n        //require(!mseed[msg.sender].isValue);\r\n        _newseed.saddr = msg.sender;\r\n        _newseed.seedID = _seedID;\r\n        _newseed.seedName = _seedName;\r\n        _newseed.seedcost = _seedcost;\r\n        _newseed.seedQuantity = _seedQuantity;\r\n        //_newseed.isValue = true;\r\n        seedArr.push(_seedID);\r\n        seedCount++;\r\n        emit seedCreated(_newseed.seedID, _seedName, _seedcost, _seedQuantity);\r\n    }\r\n\r\n    //add new fertilizer\r\n    function newFertilizer (\r\n        uint _fertilizerID,\r\n        string memory _fertilizerName,\r\n        uint _fertilizerCost,\r\n        uint _fertilizerQuantity\r\n    ) public {\r\n        Fertilizer storage _newfertilizer = mfertilizer[_fertilizerID];\r\n\r\n        // Only allows new records to be created\r\n        //require(!mfertilizer[msg.sender].isValue);\r\n        _newfertilizer.saddr = msg.sender;\r\n        _newfertilizer.fertilizerID = _fertilizerID;\r\n        _newfertilizer.fertilizerName = _fertilizerName;\r\n        _newfertilizer.fertilizerCost = _fertilizerCost;\r\n        _newfertilizer.fertilizerQuantity = _fertilizerQuantity;\r\n       // _newfertilizer.isValue = true;\r\n        fertilizerArr.push(_fertilizerID);\r\n        fertilizerCount++;\r\n        emit fertilizerCreated(_newfertilizer.fertilizerID, _fertilizerName, _fertilizerCost, _fertilizerQuantity);\r\n    }\r\n\r\n    //add new farmer\r\n    function newFarmer (\r\n        uint _farmerID,\r\n        string memory _farmerName,\r\n        uint _farmerContact,\r\n        string memory _farmerAddress\r\n    ) public {\r\n        Farmer storage _newfarmer = mfarmer[msg.sender];\r\n\r\n        // Only allows new records to be created\r\n        require(!mfarmer[msg.sender].isValue);\r\n        _newfarmer.faddr = msg.sender;\r\n        _newfarmer.farmerID = _farmerID;\r\n        _newfarmer.farmerName = _farmerName;\r\n        _newfarmer.farmerAddress = _farmerAddress;\r\n        _newfarmer.farmerContact = _farmerContact;\r\n        _newfarmer.isValue = true;\r\n        farmerCount++;\r\n        emit farmerCreated(_newfarmer.farmerID, _farmerName, _farmerContact,_farmerAddress);\r\n    }\r\n\r\n    //add crop by old farmer\r\n     function addCrop(\r\n        uint _cropID,\r\n        string memory _cropName,\r\n        uint _quantity,\r\n        uint _cropPrice\r\n    ) public {\r\n        Crop storage _newcrop = mcrop[_cropID];\r\n        //Farmer storage _newfarmer = mfarmer[_farmerID];\r\n       \r\n        _newcrop.faddr = msg.sender;\r\n        _newcrop.cropID = _cropID;\r\n        _newcrop.cropName = _cropName;\r\n        _newcrop.quantity = _quantity;\r\n        _newcrop.cropPrice = _cropPrice;\r\n        cropCount++;\r\n        cropArr.push(_cropID);\r\n        emit cropCreated(_newcrop.cropID, _cropName, _quantity, _cropPrice, _newcrop.faddr);\r\n    }\r\n\r\n    //farmer purchase land lease\r\n     function purchaseLandLease (\r\n        uint _landID\r\n     ) public { \r\n        Landlease storage _newland = mlland[_landID];\r\n        _newland.isBought = true;\r\n        emit landPurchaseLease(_newland.landID);\r\n    }\r\n  \r\n    //farmer purchase sale\r\n     function purchaseLandSale (\r\n        uint _landID\r\n     ) public { \r\n        Landsale storage _newland = msland[_landID];\r\n        _newland.isBought = true;\r\n        emit landPurchaseSale(_newland.landID);\r\n    }\r\n\r\n    //farmer purchase seed\r\n    function purchaseSeed (\r\n        uint _seedID\r\n    ) public {\r\n        Seed storage _newseed = mseed[_seedID];\r\n        _newseed.isBought=true;\r\n        emit seedPurchase(_newseed.seedID);\r\n    }\r\n\r\n    //farmer purchase fertilizer\r\n    function purchaseFertilizer (\r\n        uint _fertilizerID\r\n    ) public {\r\n        Fertilizer storage _newfertilizer = mfertilizer[_fertilizerID];\r\n        _newfertilizer.isBought=true;\r\n        emit fertilizerPurchase(_newfertilizer.fertilizerID);\r\n    }\r\n\r\n    //add new distributor\r\n    function addDist(\r\n        uint _distID,\r\n        string memory _distName,\r\n        uint _distContact,\r\n        string memory _distAddress\r\n    ) public {\r\n        Distributor storage _newdist = mdist[msg.sender];\r\n\r\n        require(!mdist[msg.sender].isValue);\r\n        _newdist.daddr = msg.sender;\r\n        _newdist.distID = _distID;\r\n        _newdist.distName = _distName;\r\n        _newdist.distContact = _distContact;\r\n        _newdist.distAddress = _distAddress;\r\n        _newdist.isValue = true;\r\n        distCount++;\r\n        emit distCreated(_newdist.distID, _distName, _distContact, _distAddress);\r\n    }\r\n\r\n    //crop purchased by distributor\r\n    function distAddCrop(\r\n        uint _cropID\r\n     ) public { \r\n        Crop storage _newcrop = mcrop[_cropID];\r\n        _newcrop.isBought = true;\r\n        emit distCrop(_newcrop.cropID);\r\n    }\r\n\r\n    \r\n    \r\n    //add new retailer\r\n    function addRetail(\r\n        uint _retailID,\r\n        string memory _retailName,\r\n        string memory _retailAddress\r\n    ) public {\r\n        Retailer storage _newretail = mretail[msg.sender];\r\n        require(!mretail[msg.sender].isValue);\r\n        _newretail.raddr = msg.sender;\r\n        _newretail.retailID = _retailID;\r\n        _newretail.retailName = _retailName;\r\n        _newretail.retailAddress = _retailAddress;\r\n        retailCount++;\r\n        emit retailCreated(_newretail.retailID, _retailName, _retailAddress);\r\n    }\r\n}",
  "sourcePath": "C:/Users/Tamilselvi/OneDrive/Desktop/supplychain/contracts/SupplyChain.sol",
  "compiler": {
    "name": "solc",
    "version": "0.5.16+commit.9c3226ce.Emscripten.clang"
  },
  "schemaVersion": "3.3.3",
  "updatedAt": "2021-02-11T08:51:39.703Z",
  "networkType": "ethereum",
  "devdoc": {
    "methods": {}
  },
  "userdoc": {
    "methods": {}
  }
}