{
  "contractName": "SupplyChain",
  "abi": [
    {
      "anonymous": false,
      "inputs": [
        {
          "indexed": false,
          "internalType": "uint256",
          "name": "consumerID",
          "type": "uint256"
        },
        {
          "indexed": false,
          "internalType": "string",
          "name": "consumerName",
          "type": "string"
        },
        {
          "indexed": false,
          "internalType": "uint256",
          "name": "consumerContact",
          "type": "uint256"
        },
        {
          "indexed": false,
          "internalType": "string",
          "name": "consumerAddress",
          "type": "string"
        }
      ],
      "name": "consumerCreated",
      "type": "event"
    },
    {
      "anonymous": false,
      "inputs": [
        {
          "indexed": false,
          "internalType": "uint256",
          "name": "cropID",
          "type": "uint256"
        }
      ],
      "name": "consumerCrop",
      "type": "event"
    },
    {
      "anonymous": false,
      "inputs": [
        {
          "indexed": false,
          "internalType": "uint256",
          "name": "cropID",
          "type": "uint256"
        },
        {
          "indexed": false,
          "internalType": "string",
          "name": "cropName",
          "type": "string"
        },
        {
          "indexed": false,
          "internalType": "uint256",
          "name": "quantity",
          "type": "uint256"
        },
        {
          "indexed": false,
          "internalType": "uint256",
          "name": "cropPrice",
          "type": "uint256"
        },
        {
          "indexed": false,
          "internalType": "address",
          "name": "faddr",
          "type": "address"
        }
      ],
      "name": "cropCreated",
      "type": "event"
    },
    {
      "anonymous": false,
      "inputs": [
        {
          "indexed": false,
          "internalType": "uint256",
          "name": "distID",
          "type": "uint256"
        },
        {
          "indexed": false,
          "internalType": "string",
          "name": "distName",
          "type": "string"
        },
        {
          "indexed": false,
          "internalType": "uint256",
          "name": "distContact",
          "type": "uint256"
        },
        {
          "indexed": false,
          "internalType": "string",
          "name": "distAddress",
          "type": "string"
        }
      ],
      "name": "distCreated",
      "type": "event"
    },
    {
      "anonymous": false,
      "inputs": [
        {
          "indexed": false,
          "internalType": "uint256",
          "name": "cropID",
          "type": "uint256"
        }
      ],
      "name": "distCrop",
      "type": "event"
    },
    {
      "anonymous": false,
      "inputs": [
        {
          "indexed": false,
          "internalType": "uint256",
          "name": "farmerID",
          "type": "uint256"
        },
        {
          "indexed": false,
          "internalType": "string",
          "name": "farmerName",
          "type": "string"
        },
        {
          "indexed": false,
          "internalType": "uint256",
          "name": "farmerContact",
          "type": "uint256"
        },
        {
          "indexed": false,
          "internalType": "string",
          "name": "farmerAddress",
          "type": "string"
        }
      ],
      "name": "farmerCreated",
      "type": "event"
    },
    {
      "anonymous": false,
      "inputs": [
        {
          "indexed": false,
          "internalType": "uint256",
          "name": "fertilizerID",
          "type": "uint256"
        },
        {
          "indexed": false,
          "internalType": "string",
          "name": "fertilizerName",
          "type": "string"
        },
        {
          "indexed": false,
          "internalType": "uint256",
          "name": "fertilizerCost",
          "type": "uint256"
        },
        {
          "indexed": false,
          "internalType": "uint256",
          "name": "fertilizerQuantity",
          "type": "uint256"
        }
      ],
      "name": "fertilizerCreated",
      "type": "event"
    },
    {
      "anonymous": false,
      "inputs": [
        {
          "indexed": false,
          "internalType": "uint256",
          "name": "fertilizerID",
          "type": "uint256"
        }
      ],
      "name": "fertilizerPurchase",
      "type": "event"
    },
    {
      "anonymous": false,
      "inputs": [
        {
          "indexed": false,
          "internalType": "uint256",
          "name": "landID",
          "type": "uint256"
        },
        {
          "indexed": false,
          "internalType": "string",
          "name": "landAddress",
          "type": "string"
        },
        {
          "indexed": false,
          "internalType": "string",
          "name": "soilType",
          "type": "string"
        },
        {
          "indexed": false,
          "internalType": "uint256",
          "name": "area",
          "type": "uint256"
        },
        {
          "indexed": false,
          "internalType": "uint256",
          "name": "cost",
          "type": "uint256"
        },
        {
          "indexed": false,
          "internalType": "uint256",
          "name": "duration",
          "type": "uint256"
        }
      ],
      "name": "landForLease",
      "type": "event"
    },
    {
      "anonymous": false,
      "inputs": [
        {
          "indexed": false,
          "internalType": "uint256",
          "name": "landID",
          "type": "uint256"
        },
        {
          "indexed": false,
          "internalType": "string",
          "name": "landAddress",
          "type": "string"
        },
        {
          "indexed": false,
          "internalType": "string",
          "name": "soilType",
          "type": "string"
        },
        {
          "indexed": false,
          "internalType": "uint256",
          "name": "area",
          "type": "uint256"
        },
        {
          "indexed": false,
          "internalType": "uint256",
          "name": "cost",
          "type": "uint256"
        }
      ],
      "name": "landForSale",
      "type": "event"
    },
    {
      "anonymous": false,
      "inputs": [
        {
          "indexed": false,
          "internalType": "uint256",
          "name": "landID",
          "type": "uint256"
        }
      ],
      "name": "landPurchaseLease",
      "type": "event"
    },
    {
      "anonymous": false,
      "inputs": [
        {
          "indexed": false,
          "internalType": "uint256",
          "name": "landID",
          "type": "uint256"
        }
      ],
      "name": "landPurchaseSale",
      "type": "event"
    },
    {
      "anonymous": false,
      "inputs": [
        {
          "indexed": false,
          "internalType": "uint256",
          "name": "landlordID",
          "type": "uint256"
        },
        {
          "indexed": false,
          "internalType": "string",
          "name": "landlordName",
          "type": "string"
        },
        {
          "indexed": false,
          "internalType": "uint256",
          "name": "landlordContact",
          "type": "uint256"
        },
        {
          "indexed": false,
          "internalType": "string",
          "name": "landlordAddress",
          "type": "string"
        }
      ],
      "name": "landlordCreated",
      "type": "event"
    },
    {
      "anonymous": false,
      "inputs": [
        {
          "indexed": false,
          "internalType": "uint256",
          "name": "retailID",
          "type": "uint256"
        },
        {
          "indexed": false,
          "internalType": "string",
          "name": "retailName",
          "type": "string"
        },
        {
          "indexed": false,
          "internalType": "uint256",
          "name": "retailContact",
          "type": "uint256"
        },
        {
          "indexed": false,
          "internalType": "string",
          "name": "retailAddress",
          "type": "string"
        }
      ],
      "name": "retailCreated",
      "type": "event"
    },
    {
      "anonymous": false,
      "inputs": [
        {
          "indexed": false,
          "internalType": "uint256",
          "name": "cropID",
          "type": "uint256"
        }
      ],
      "name": "retailCrop",
      "type": "event"
    },
    {
      "anonymous": false,
      "inputs": [
        {
          "indexed": false,
          "internalType": "uint256",
          "name": "seedID",
          "type": "uint256"
        },
        {
          "indexed": false,
          "internalType": "string",
          "name": "seedName",
          "type": "string"
        },
        {
          "indexed": false,
          "internalType": "uint256",
          "name": "seedcost",
          "type": "uint256"
        },
        {
          "indexed": false,
          "internalType": "uint256",
          "name": "seedQuantity",
          "type": "uint256"
        }
      ],
      "name": "seedCreated",
      "type": "event"
    },
    {
      "anonymous": false,
      "inputs": [
        {
          "indexed": false,
          "internalType": "uint256",
          "name": "dealerID",
          "type": "uint256"
        },
        {
          "indexed": false,
          "internalType": "string",
          "name": "dealerName",
          "type": "string"
        },
        {
          "indexed": false,
          "internalType": "uint256",
          "name": "dealerContact",
          "type": "uint256"
        },
        {
          "indexed": false,
          "internalType": "string",
          "name": "dealerAddress",
          "type": "string"
        }
      ],
      "name": "seedDealerCreated",
      "type": "event"
    },
    {
      "anonymous": false,
      "inputs": [
        {
          "indexed": false,
          "internalType": "uint256",
          "name": "seedID",
          "type": "uint256"
        }
      ],
      "name": "seedPurchase",
      "type": "event"
    },
    {
      "constant": true,
      "inputs": [],
      "name": "consumerCount",
      "outputs": [
        {
          "internalType": "uint256",
          "name": "",
          "type": "uint256"
        }
      ],
      "payable": false,
      "stateMutability": "view",
      "type": "function"
    },
    {
      "constant": true,
      "inputs": [
        {
          "internalType": "uint256",
          "name": "",
          "type": "uint256"
        }
      ],
      "name": "consumerCropArr",
      "outputs": [
        {
          "internalType": "uint256",
          "name": "",
          "type": "uint256"
        }
      ],
      "payable": false,
      "stateMutability": "view",
      "type": "function"
    },
    {
      "constant": true,
      "inputs": [],
      "name": "consumerCropCount",
      "outputs": [
        {
          "internalType": "uint256",
          "name": "",
          "type": "uint256"
        }
      ],
      "payable": false,
      "stateMutability": "view",
      "type": "function"
    },
    {
      "constant": true,
      "inputs": [
        {
          "internalType": "uint256",
          "name": "",
          "type": "uint256"
        }
      ],
      "name": "cropArr",
      "outputs": [
        {
          "internalType": "uint256",
          "name": "",
          "type": "uint256"
        }
      ],
      "payable": false,
      "stateMutability": "view",
      "type": "function"
    },
    {
      "constant": true,
      "inputs": [],
      "name": "cropCount",
      "outputs": [
        {
          "internalType": "uint256",
          "name": "",
          "type": "uint256"
        }
      ],
      "payable": false,
      "stateMutability": "view",
      "type": "function"
    },
    {
      "constant": true,
      "inputs": [],
      "name": "dealerCount",
      "outputs": [
        {
          "internalType": "uint256",
          "name": "",
          "type": "uint256"
        }
      ],
      "payable": false,
      "stateMutability": "view",
      "type": "function"
    },
    {
      "constant": true,
      "inputs": [
        {
          "internalType": "uint256",
          "name": "",
          "type": "uint256"
        }
      ],
      "name": "distAdd",
      "outputs": [
        {
          "internalType": "address",
          "name": "",
          "type": "address"
        }
      ],
      "payable": false,
      "stateMutability": "view",
      "type": "function"
    },
    {
      "constant": true,
      "inputs": [],
      "name": "distCount",
      "outputs": [
        {
          "internalType": "uint256",
          "name": "",
          "type": "uint256"
        }
      ],
      "payable": false,
      "stateMutability": "view",
      "type": "function"
    },
    {
      "constant": true,
      "inputs": [
        {
          "internalType": "uint256",
          "name": "",
          "type": "uint256"
        }
      ],
      "name": "distCropArr",
      "outputs": [
        {
          "internalType": "uint256",
          "name": "",
          "type": "uint256"
        }
      ],
      "payable": false,
      "stateMutability": "view",
      "type": "function"
    },
    {
      "constant": true,
      "inputs": [],
      "name": "distCropCount",
      "outputs": [
        {
          "internalType": "uint256",
          "name": "",
          "type": "uint256"
        }
      ],
      "payable": false,
      "stateMutability": "view",
      "type": "function"
    },
    {
      "constant": true,
      "inputs": [
        {
          "internalType": "uint256",
          "name": "",
          "type": "uint256"
        }
      ],
      "name": "farmerAdd",
      "outputs": [
        {
          "internalType": "address",
          "name": "",
          "type": "address"
        }
      ],
      "payable": false,
      "stateMutability": "view",
      "type": "function"
    },
    {
      "constant": true,
      "inputs": [],
      "name": "farmerCount",
      "outputs": [
        {
          "internalType": "uint256",
          "name": "",
          "type": "uint256"
        }
      ],
      "payable": false,
      "stateMutability": "view",
      "type": "function"
    },
    {
      "constant": true,
      "inputs": [
        {
          "internalType": "uint256",
          "name": "",
          "type": "uint256"
        }
      ],
      "name": "fertilizerArr",
      "outputs": [
        {
          "internalType": "uint256",
          "name": "",
          "type": "uint256"
        }
      ],
      "payable": false,
      "stateMutability": "view",
      "type": "function"
    },
    {
      "constant": true,
      "inputs": [],
      "name": "fertilizerCount",
      "outputs": [
        {
          "internalType": "uint256",
          "name": "",
          "type": "uint256"
        }
      ],
      "payable": false,
      "stateMutability": "view",
      "type": "function"
    },
    {
      "constant": true,
      "inputs": [],
      "name": "landlordCount",
      "outputs": [
        {
          "internalType": "uint256",
          "name": "",
          "type": "uint256"
        }
      ],
      "payable": false,
      "stateMutability": "view",
      "type": "function"
    },
    {
      "constant": true,
      "inputs": [
        {
          "internalType": "uint256",
          "name": "",
          "type": "uint256"
        }
      ],
      "name": "leaseArr",
      "outputs": [
        {
          "internalType": "uint256",
          "name": "",
          "type": "uint256"
        }
      ],
      "payable": false,
      "stateMutability": "view",
      "type": "function"
    },
    {
      "constant": true,
      "inputs": [],
      "name": "leaseCount",
      "outputs": [
        {
          "internalType": "uint256",
          "name": "",
          "type": "uint256"
        }
      ],
      "payable": false,
      "stateMutability": "view",
      "type": "function"
    },
    {
      "constant": true,
      "inputs": [
        {
          "internalType": "address",
          "name": "",
          "type": "address"
        }
      ],
      "name": "mconsumer",
      "outputs": [
        {
          "internalType": "uint256",
          "name": "consumerID",
          "type": "uint256"
        },
        {
          "internalType": "string",
          "name": "consumerName",
          "type": "string"
        },
        {
          "internalType": "uint256",
          "name": "consumerContact",
          "type": "uint256"
        },
        {
          "internalType": "string",
          "name": "consumerAddress",
          "type": "string"
        },
        {
          "internalType": "address",
          "name": "caddr",
          "type": "address"
        },
        {
          "internalType": "bool",
          "name": "isValue",
          "type": "bool"
        }
      ],
      "payable": false,
      "stateMutability": "view",
      "type": "function"
    },
    {
      "constant": true,
      "inputs": [
        {
          "internalType": "uint256",
          "name": "",
          "type": "uint256"
        }
      ],
      "name": "mcrop",
      "outputs": [
        {
          "internalType": "uint256",
          "name": "cropID",
          "type": "uint256"
        },
        {
          "internalType": "string",
          "name": "cropName",
          "type": "string"
        },
        {
          "internalType": "uint256",
          "name": "quantity",
          "type": "uint256"
        },
        {
          "internalType": "uint256",
          "name": "cropPrice",
          "type": "uint256"
        },
        {
          "internalType": "address",
          "name": "faddr",
          "type": "address"
        },
        {
          "internalType": "address",
          "name": "daddr",
          "type": "address"
        },
        {
          "internalType": "address",
          "name": "raddr",
          "type": "address"
        },
        {
          "internalType": "address",
          "name": "caddr",
          "type": "address"
        },
        {
          "internalType": "bool",
          "name": "isBought",
          "type": "bool"
        },
        {
          "internalType": "bool",
          "name": "isBoughtByRetailer",
          "type": "bool"
        },
        {
          "internalType": "bool",
          "name": "isBoughtByConsumer",
          "type": "bool"
        }
      ],
      "payable": false,
      "stateMutability": "view",
      "type": "function"
    },
    {
      "constant": true,
      "inputs": [
        {
          "internalType": "address",
          "name": "",
          "type": "address"
        }
      ],
      "name": "mdealer",
      "outputs": [
        {
          "internalType": "uint256",
          "name": "dealerID",
          "type": "uint256"
        },
        {
          "internalType": "string",
          "name": "dealerName",
          "type": "string"
        },
        {
          "internalType": "string",
          "name": "dealerAddress",
          "type": "string"
        },
        {
          "internalType": "uint256",
          "name": "dealerContact",
          "type": "uint256"
        },
        {
          "internalType": "address",
          "name": "saddr",
          "type": "address"
        },
        {
          "internalType": "bool",
          "name": "isValue",
          "type": "bool"
        }
      ],
      "payable": false,
      "stateMutability": "view",
      "type": "function"
    },
    {
      "constant": true,
      "inputs": [
        {
          "internalType": "address",
          "name": "",
          "type": "address"
        }
      ],
      "name": "mdist",
      "outputs": [
        {
          "internalType": "uint256",
          "name": "distID",
          "type": "uint256"
        },
        {
          "internalType": "string",
          "name": "distName",
          "type": "string"
        },
        {
          "internalType": "uint256",
          "name": "distContact",
          "type": "uint256"
        },
        {
          "internalType": "string",
          "name": "distAddress",
          "type": "string"
        },
        {
          "internalType": "address",
          "name": "daddr",
          "type": "address"
        },
        {
          "internalType": "bool",
          "name": "isValue",
          "type": "bool"
        }
      ],
      "payable": false,
      "stateMutability": "view",
      "type": "function"
    },
    {
      "constant": true,
      "inputs": [
        {
          "internalType": "address",
          "name": "",
          "type": "address"
        }
      ],
      "name": "mfarmer",
      "outputs": [
        {
          "internalType": "uint256",
          "name": "farmerID",
          "type": "uint256"
        },
        {
          "internalType": "string",
          "name": "farmerName",
          "type": "string"
        },
        {
          "internalType": "uint256",
          "name": "farmerContact",
          "type": "uint256"
        },
        {
          "internalType": "string",
          "name": "farmerAddress",
          "type": "string"
        },
        {
          "internalType": "address",
          "name": "faddr",
          "type": "address"
        },
        {
          "internalType": "bool",
          "name": "isValue",
          "type": "bool"
        }
      ],
      "payable": false,
      "stateMutability": "view",
      "type": "function"
    },
    {
      "constant": true,
      "inputs": [
        {
          "internalType": "uint256",
          "name": "",
          "type": "uint256"
        }
      ],
      "name": "mfertilizer",
      "outputs": [
        {
          "internalType": "uint256",
          "name": "fertilizerID",
          "type": "uint256"
        },
        {
          "internalType": "string",
          "name": "fertilizerName",
          "type": "string"
        },
        {
          "internalType": "uint256",
          "name": "fertilizerQuantity",
          "type": "uint256"
        },
        {
          "internalType": "bool",
          "name": "isBought",
          "type": "bool"
        },
        {
          "internalType": "bool",
          "name": "isSale",
          "type": "bool"
        },
        {
          "internalType": "uint256",
          "name": "fertilizerCost",
          "type": "uint256"
        },
        {
          "internalType": "address",
          "name": "saddr",
          "type": "address"
        },
        {
          "internalType": "address",
          "name": "faddr",
          "type": "address"
        }
      ],
      "payable": false,
      "stateMutability": "view",
      "type": "function"
    },
    {
      "constant": true,
      "inputs": [
        {
          "internalType": "address",
          "name": "",
          "type": "address"
        }
      ],
      "name": "mlandlord",
      "outputs": [
        {
          "internalType": "uint256",
          "name": "landlordID",
          "type": "uint256"
        },
        {
          "internalType": "string",
          "name": "landlordName",
          "type": "string"
        },
        {
          "internalType": "uint256",
          "name": "landlordContact",
          "type": "uint256"
        },
        {
          "internalType": "string",
          "name": "landlordAddress",
          "type": "string"
        },
        {
          "internalType": "address",
          "name": "laddr",
          "type": "address"
        },
        {
          "internalType": "bool",
          "name": "isValue",
          "type": "bool"
        }
      ],
      "payable": false,
      "stateMutability": "view",
      "type": "function"
    },
    {
      "constant": true,
      "inputs": [
        {
          "internalType": "uint256",
          "name": "",
          "type": "uint256"
        }
      ],
      "name": "mlland",
      "outputs": [
        {
          "internalType": "uint256",
          "name": "landID",
          "type": "uint256"
        },
        {
          "internalType": "string",
          "name": "landAddress",
          "type": "string"
        },
        {
          "internalType": "string",
          "name": "soilType",
          "type": "string"
        },
        {
          "internalType": "uint256",
          "name": "area",
          "type": "uint256"
        },
        {
          "internalType": "uint256",
          "name": "cost",
          "type": "uint256"
        },
        {
          "internalType": "uint256",
          "name": "duration",
          "type": "uint256"
        },
        {
          "internalType": "bool",
          "name": "isBought",
          "type": "bool"
        },
        {
          "internalType": "bool",
          "name": "isLease",
          "type": "bool"
        },
        {
          "internalType": "address",
          "name": "laddr",
          "type": "address"
        },
        {
          "internalType": "address",
          "name": "faddr",
          "type": "address"
        }
      ],
      "payable": false,
      "stateMutability": "view",
      "type": "function"
    },
    {
      "constant": true,
      "inputs": [
        {
          "internalType": "address",
          "name": "",
          "type": "address"
        }
      ],
      "name": "mretail",
      "outputs": [
        {
          "internalType": "uint256",
          "name": "retailID",
          "type": "uint256"
        },
        {
          "internalType": "string",
          "name": "retailName",
          "type": "string"
        },
        {
          "internalType": "uint256",
          "name": "retailContact",
          "type": "uint256"
        },
        {
          "internalType": "string",
          "name": "retailAddress",
          "type": "string"
        },
        {
          "internalType": "address",
          "name": "raddr",
          "type": "address"
        },
        {
          "internalType": "bool",
          "name": "isValue",
          "type": "bool"
        }
      ],
      "payable": false,
      "stateMutability": "view",
      "type": "function"
    },
    {
      "constant": true,
      "inputs": [
        {
          "internalType": "uint256",
          "name": "",
          "type": "uint256"
        }
      ],
      "name": "mseed",
      "outputs": [
        {
          "internalType": "uint256",
          "name": "seedID",
          "type": "uint256"
        },
        {
          "internalType": "string",
          "name": "seedName",
          "type": "string"
        },
        {
          "internalType": "uint256",
          "name": "seedQuantity",
          "type": "uint256"
        },
        {
          "internalType": "bool",
          "name": "isBought",
          "type": "bool"
        },
        {
          "internalType": "bool",
          "name": "isSale",
          "type": "bool"
        },
        {
          "internalType": "uint256",
          "name": "seedcost",
          "type": "uint256"
        },
        {
          "internalType": "address",
          "name": "saddr",
          "type": "address"
        },
        {
          "internalType": "address",
          "name": "faddr",
          "type": "address"
        }
      ],
      "payable": false,
      "stateMutability": "view",
      "type": "function"
    },
    {
      "constant": true,
      "inputs": [
        {
          "internalType": "uint256",
          "name": "",
          "type": "uint256"
        }
      ],
      "name": "msland",
      "outputs": [
        {
          "internalType": "uint256",
          "name": "landID",
          "type": "uint256"
        },
        {
          "internalType": "string",
          "name": "landAddress",
          "type": "string"
        },
        {
          "internalType": "string",
          "name": "soilType",
          "type": "string"
        },
        {
          "internalType": "uint256",
          "name": "area",
          "type": "uint256"
        },
        {
          "internalType": "uint256",
          "name": "cost",
          "type": "uint256"
        },
        {
          "internalType": "bool",
          "name": "isBought",
          "type": "bool"
        },
        {
          "internalType": "bool",
          "name": "isSale",
          "type": "bool"
        },
        {
          "internalType": "address",
          "name": "laddr",
          "type": "address"
        },
        {
          "internalType": "address",
          "name": "faddr",
          "type": "address"
        }
      ],
      "payable": false,
      "stateMutability": "view",
      "type": "function"
    },
    {
      "constant": true,
      "inputs": [],
      "name": "retailCount",
      "outputs": [
        {
          "internalType": "uint256",
          "name": "",
          "type": "uint256"
        }
      ],
      "payable": false,
      "stateMutability": "view",
      "type": "function"
    },
    {
      "constant": true,
      "inputs": [],
      "name": "retailCropCount",
      "outputs": [
        {
          "internalType": "uint256",
          "name": "",
          "type": "uint256"
        }
      ],
      "payable": false,
      "stateMutability": "view",
      "type": "function"
    },
    {
      "constant": true,
      "inputs": [
        {
          "internalType": "uint256",
          "name": "",
          "type": "uint256"
        }
      ],
      "name": "saleArr",
      "outputs": [
        {
          "internalType": "uint256",
          "name": "",
          "type": "uint256"
        }
      ],
      "payable": false,
      "stateMutability": "view",
      "type": "function"
    },
    {
      "constant": true,
      "inputs": [],
      "name": "saleCount",
      "outputs": [
        {
          "internalType": "uint256",
          "name": "",
          "type": "uint256"
        }
      ],
      "payable": false,
      "stateMutability": "view",
      "type": "function"
    },
    {
      "constant": true,
      "inputs": [
        {
          "internalType": "uint256",
          "name": "",
          "type": "uint256"
        }
      ],
      "name": "seedArr",
      "outputs": [
        {
          "internalType": "uint256",
          "name": "",
          "type": "uint256"
        }
      ],
      "payable": false,
      "stateMutability": "view",
      "type": "function"
    },
    {
      "constant": true,
      "inputs": [],
      "name": "seedCount",
      "outputs": [
        {
          "internalType": "uint256",
          "name": "",
          "type": "uint256"
        }
      ],
      "payable": false,
      "stateMutability": "view",
      "type": "function"
    },
    {
      "constant": true,
      "inputs": [
        {
          "internalType": "uint256",
          "name": "",
          "type": "uint256"
        }
      ],
      "name": "temp",
      "outputs": [
        {
          "internalType": "uint256",
          "name": "",
          "type": "uint256"
        }
      ],
      "payable": false,
      "stateMutability": "view",
      "type": "function"
    },
    {
      "constant": false,
      "inputs": [
        {
          "internalType": "uint256",
          "name": "_landlordID",
          "type": "uint256"
        },
        {
          "internalType": "string",
          "name": "_landlordName",
          "type": "string"
        },
        {
          "internalType": "uint256",
          "name": "_landlordContact",
          "type": "uint256"
        },
        {
          "internalType": "string",
          "name": "_landlordAddress",
          "type": "string"
        }
      ],
      "name": "newLandlord",
      "outputs": [],
      "payable": false,
      "stateMutability": "nonpayable",
      "type": "function"
    },
    {
      "constant": false,
      "inputs": [
        {
          "internalType": "uint256",
          "name": "_landID",
          "type": "uint256"
        },
        {
          "internalType": "string",
          "name": "_landAddress",
          "type": "string"
        },
        {
          "internalType": "string",
          "name": "_soilType",
          "type": "string"
        },
        {
          "internalType": "uint256",
          "name": "_area",
          "type": "uint256"
        },
        {
          "internalType": "uint256",
          "name": "_cost",
          "type": "uint256"
        }
      ],
      "name": "addLandSale",
      "outputs": [],
      "payable": false,
      "stateMutability": "nonpayable",
      "type": "function"
    },
    {
      "constant": false,
      "inputs": [
        {
          "internalType": "uint256",
          "name": "_landID",
          "type": "uint256"
        },
        {
          "internalType": "string",
          "name": "_landAddress",
          "type": "string"
        },
        {
          "internalType": "string",
          "name": "_soilType",
          "type": "string"
        },
        {
          "internalType": "uint256",
          "name": "_area",
          "type": "uint256"
        },
        {
          "internalType": "uint256",
          "name": "_cost",
          "type": "uint256"
        },
        {
          "internalType": "uint256",
          "name": "_duration",
          "type": "uint256"
        }
      ],
      "name": "addLandLease",
      "outputs": [],
      "payable": false,
      "stateMutability": "nonpayable",
      "type": "function"
    },
    {
      "constant": false,
      "inputs": [
        {
          "internalType": "uint256",
          "name": "_dealerID",
          "type": "uint256"
        },
        {
          "internalType": "string",
          "name": "_dealerName",
          "type": "string"
        },
        {
          "internalType": "uint256",
          "name": "_dealerContact",
          "type": "uint256"
        },
        {
          "internalType": "string",
          "name": "_dealerAddress",
          "type": "string"
        }
      ],
      "name": "newSeedDealer",
      "outputs": [],
      "payable": false,
      "stateMutability": "nonpayable",
      "type": "function"
    },
    {
      "constant": false,
      "inputs": [
        {
          "internalType": "uint256",
          "name": "_seedID",
          "type": "uint256"
        },
        {
          "internalType": "string",
          "name": "_seedName",
          "type": "string"
        },
        {
          "internalType": "uint256",
          "name": "_seedcost",
          "type": "uint256"
        },
        {
          "internalType": "uint256",
          "name": "_seedQuantity",
          "type": "uint256"
        }
      ],
      "name": "newSeed",
      "outputs": [],
      "payable": false,
      "stateMutability": "nonpayable",
      "type": "function"
    },
    {
      "constant": false,
      "inputs": [
        {
          "internalType": "uint256",
          "name": "_fertilizerID",
          "type": "uint256"
        },
        {
          "internalType": "string",
          "name": "_fertilizerName",
          "type": "string"
        },
        {
          "internalType": "uint256",
          "name": "_fertilizerCost",
          "type": "uint256"
        },
        {
          "internalType": "uint256",
          "name": "_fertilizerQuantity",
          "type": "uint256"
        }
      ],
      "name": "newFertilizer",
      "outputs": [],
      "payable": false,
      "stateMutability": "nonpayable",
      "type": "function"
    },
    {
      "constant": false,
      "inputs": [
        {
          "internalType": "uint256",
          "name": "_farmerID",
          "type": "uint256"
        },
        {
          "internalType": "string",
          "name": "_farmerName",
          "type": "string"
        },
        {
          "internalType": "uint256",
          "name": "_farmerContact",
          "type": "uint256"
        },
        {
          "internalType": "string",
          "name": "_farmerAddress",
          "type": "string"
        }
      ],
      "name": "newFarmer",
      "outputs": [],
      "payable": false,
      "stateMutability": "nonpayable",
      "type": "function"
    },
    {
      "constant": false,
      "inputs": [
        {
          "internalType": "uint256",
          "name": "_cropID",
          "type": "uint256"
        },
        {
          "internalType": "string",
          "name": "_cropName",
          "type": "string"
        },
        {
          "internalType": "uint256",
          "name": "_quantity",
          "type": "uint256"
        },
        {
          "internalType": "uint256",
          "name": "_cropPrice",
          "type": "uint256"
        }
      ],
      "name": "addCrop",
      "outputs": [],
      "payable": false,
      "stateMutability": "nonpayable",
      "type": "function"
    },
    {
      "constant": false,
      "inputs": [
        {
          "internalType": "uint256",
          "name": "_landID",
          "type": "uint256"
        }
      ],
      "name": "purchaseLandLease",
      "outputs": [],
      "payable": false,
      "stateMutability": "nonpayable",
      "type": "function"
    },
    {
      "constant": false,
      "inputs": [
        {
          "internalType": "uint256",
          "name": "_landID",
          "type": "uint256"
        }
      ],
      "name": "purchaseLandSale",
      "outputs": [],
      "payable": false,
      "stateMutability": "nonpayable",
      "type": "function"
    },
    {
      "constant": false,
      "inputs": [
        {
          "internalType": "uint256",
          "name": "_seedID",
          "type": "uint256"
        }
      ],
      "name": "purchaseSeed",
      "outputs": [],
      "payable": false,
      "stateMutability": "nonpayable",
      "type": "function"
    },
    {
      "constant": false,
      "inputs": [
        {
          "internalType": "uint256",
          "name": "_fertilizerID",
          "type": "uint256"
        }
      ],
      "name": "purchaseFertilizer",
      "outputs": [],
      "payable": false,
      "stateMutability": "nonpayable",
      "type": "function"
    },
    {
      "constant": false,
      "inputs": [
        {
          "internalType": "uint256",
          "name": "_distID",
          "type": "uint256"
        },
        {
          "internalType": "string",
          "name": "_distName",
          "type": "string"
        },
        {
          "internalType": "uint256",
          "name": "_distContact",
          "type": "uint256"
        },
        {
          "internalType": "string",
          "name": "_distAddress",
          "type": "string"
        }
      ],
      "name": "addDist",
      "outputs": [],
      "payable": false,
      "stateMutability": "nonpayable",
      "type": "function"
    },
    {
      "constant": false,
      "inputs": [
        {
          "internalType": "uint256",
          "name": "_cropID",
          "type": "uint256"
        }
      ],
      "name": "distAddCrop",
      "outputs": [],
      "payable": false,
      "stateMutability": "nonpayable",
      "type": "function"
    },
    {
      "constant": false,
      "inputs": [
        {
          "internalType": "uint256",
          "name": "_retailID",
          "type": "uint256"
        },
        {
          "internalType": "string",
          "name": "_retailName",
          "type": "string"
        },
        {
          "internalType": "uint256",
          "name": "_retailContact",
          "type": "uint256"
        },
        {
          "internalType": "string",
          "name": "_retailAddress",
          "type": "string"
        }
      ],
      "name": "addRetail",
      "outputs": [],
      "payable": false,
      "stateMutability": "nonpayable",
      "type": "function"
    },
    {
      "constant": false,
      "inputs": [
        {
          "internalType": "uint256",
          "name": "_cropID",
          "type": "uint256"
        }
      ],
      "name": "retailAddCrop",
      "outputs": [],
      "payable": false,
      "stateMutability": "nonpayable",
      "type": "function"
    },
    {
      "constant": false,
      "inputs": [
        {
          "internalType": "uint256",
          "name": "_consumerID",
          "type": "uint256"
        },
        {
          "internalType": "string",
          "name": "_consumerName",
          "type": "string"
        },
        {
          "internalType": "uint256",
          "name": "_consumerContact",
          "type": "uint256"
        },
        {
          "internalType": "string",
          "name": "_consumerAddress",
          "type": "string"
        }
      ],
      "name": "addconsumer",
      "outputs": [],
      "payable": false,
      "stateMutability": "nonpayable",
      "type": "function"
    },
    {
      "constant": false,
      "inputs": [
        {
          "internalType": "uint256",
          "name": "_cropID",
          "type": "uint256"
        }
      ],
      "name": "consumerAddCrop",
      "outputs": [],
      "payable": false,
      "stateMutability": "nonpayable",
      "type": "function"
    }
  ],
  "bytecode": "0x608060405234801561001057600080fd5b506157b580620000216000396000f3fe608060405234801561001057600080fd5b50600436106103275760003560e01c8063a1e89aec116101b8578063d4cca0c511610104578063ef096e2b116100a2578063fa1d9d2e1161007c578063fa1d9d2e14612307578063fa810865146123e0578063fc279e6414612555578063fdd545e31461259757610327565b8063ef096e2b14612145578063f034983214612173578063f2c52675146122d957610327565b8063e96ba7f2116100de578063e96ba7f214611f66578063ea8f39f6146120db578063ea97ab4b14612109578063edfb22421461212757610327565b8063d4cca0c514611de2578063d544a90c14611e10578063dfd55a2c14611f4857610327565b8063bcd94def11610171578063c078c1b51161014b578063c078c1b514611d36578063c684c23114611d54578063cd9428c614611d72578063d21fe1cc14611da057610327565b8063bcd94def14611acf578063bd45b39714611c3f578063bd850f0c14611c5d57610327565b8063a1e89aec1461181a578063b039da0f14611838578063b4c0498b146119e3578063b5eaf48114611a01578063b5f4f48114611a43578063b9dd828614611ab157610327565b80634f256d6111610277578063808d0356116102305780638bed5bd21161020a5780638bed5bd21461175a5780638d8a5b7d1461177857806396e53c4f146117ba57806396e68ce7146117fc57610327565b8063808d03561461146b57806381f28d80146114ad578063832a31c6146115e557610327565b80634f256d6114610f9c5780634f3afe831461110257806362ec2cd814611268578063675f3191146113dd5780636c3755ad1461140b578063762347bf1461144d57610327565b80633d15a00e116102e457806343f197ba116102be57806343f197ba14610c0157806346f96d9a14610daa57806349045f5714610e185780634d3fdae914610f7e57610327565b80633d15a00e146107825780633f67865c146109265780634228049314610a9b57610327565b8063065520911461032c5780631c4860f41461034a5780631ff8f740146104bf57806325c99da1146104ed57806330abaf001461052f5780633c2267ff14610608575b600080fd5b6103346126fd565b6040518082815260200191505060405180910390f35b61038c6004803603602081101561036057600080fd5b81019080803573ffffffffffffffffffffffffffffffffffffffff169060200190929190505050612703565b6040518087815260200180602001868152602001806020018573ffffffffffffffffffffffffffffffffffffffff1673ffffffffffffffffffffffffffffffffffffffff16815260200184151515158152602001838103835288818151815260200191508051906020019080838360005b838110156104185780820151818401526020810190506103fd565b50505050905090810190601f1680156104455780820380516001836020036101000a031916815260200191505b50838103825286818151815260200191508051906020019080838360005b8381101561047e578082015181840152602081019050610463565b50505050905090810190601f1680156104ab5780820380516001836020036101000a031916815260200191505b509850505050505050505060405180910390f35b6104eb600480360360208110156104d557600080fd5b810190808035906020019092919050505061289c565b005b6105196004803603602081101561050357600080fd5b8101908080359060200190929190505050612952565b6040518082815260200191505060405180910390f35b6106066004803603608081101561054557600080fd5b81019080803590602001909291908035906020019064010000000081111561056c57600080fd5b82018360208201111561057e57600080fd5b803590602001918460018302840111640100000000831117156105a057600080fd5b91908080601f016020809104026020016040519081016040528093929190818152602001838380828437600081840152601f19601f8201169050808301925050505050505091929192908035906020019092919080359060200190929190505050612973565b005b610780600480360360c081101561061e57600080fd5b81019080803590602001909291908035906020019064010000000081111561064557600080fd5b82018360208201111561065757600080fd5b8035906020019184600183028401116401000000008311171561067957600080fd5b91908080601f016020809104026020016040519081016040528093929190818152602001838380828437600081840152601f19601f820116905080830192505050505050509192919290803590602001906401000000008111156106dc57600080fd5b8201836020820111156106ee57600080fd5b8035906020019184600183028401116401000000008311171561071057600080fd5b91908080601f016020809104026020016040519081016040528093929190818152602001838380828437600081840152601f19601f820116905080830192505050505050509192919290803590602001909291908035906020019092919080359060200190929190505050612b56565b005b6107ae6004803603602081101561079857600080fd5b8101908080359060200190929190505050612d7a565b604051808a8152602001806020018060200189815260200188815260200187151515158152602001861515151581526020018573ffffffffffffffffffffffffffffffffffffffff1673ffffffffffffffffffffffffffffffffffffffff1681526020018473ffffffffffffffffffffffffffffffffffffffff1673ffffffffffffffffffffffffffffffffffffffff16815260200183810383528b818151815260200191508051906020019080838360005b8381101561087c578082015181840152602081019050610861565b50505050905090810190601f1680156108a95780820380516001836020036101000a031916815260200191505b5083810382528a818151815260200191508051906020019080838360005b838110156108e25780820151818401526020810190506108c7565b50505050905090810190601f16801561090f5780820380516001836020036101000a031916815260200191505b509b50505050505050505050505060405180910390f35b6109686004803603602081101561093c57600080fd5b81019080803573ffffffffffffffffffffffffffffffffffffffff169060200190929190505050612f52565b6040518087815260200180602001868152602001806020018573ffffffffffffffffffffffffffffffffffffffff1673ffffffffffffffffffffffffffffffffffffffff16815260200184151515158152602001838103835288818151815260200191508051906020019080838360005b838110156109f45780820151818401526020810190506109d9565b50505050905090810190601f168015610a215780820380516001836020036101000a031916815260200191505b50838103825286818151815260200191508051906020019080838360005b83811015610a5a578082015181840152602081019050610a3f565b50505050905090810190601f168015610a875780820380516001836020036101000a031916815260200191505b509850505050505050505060405180910390f35b610bff60048036036080811015610ab157600080fd5b810190808035906020019092919080359060200190640100000000811115610ad857600080fd5b820183602082011115610aea57600080fd5b80359060200191846001830284011164010000000083111715610b0c57600080fd5b91908080601f016020809104026020016040519081016040528093929190818152602001838380828437600081840152601f19601f8201169050808301925050505050505091929192908035906020019092919080359060200190640100000000811115610b7957600080fd5b820183602082011115610b8b57600080fd5b80359060200191846001830284011164010000000083111715610bad57600080fd5b91908080601f016020809104026020016040519081016040528093929190818152602001838380828437600081840152601f19601f8201169050808301925050505050505091929192905050506130eb565b005b610c2d60048036036020811015610c1757600080fd5b8101908080359060200190929190505050613360565b604051808c8152602001806020018b81526020018a81526020018973ffffffffffffffffffffffffffffffffffffffff1673ffffffffffffffffffffffffffffffffffffffff1681526020018873ffffffffffffffffffffffffffffffffffffffff1673ffffffffffffffffffffffffffffffffffffffff1681526020018773ffffffffffffffffffffffffffffffffffffffff1673ffffffffffffffffffffffffffffffffffffffff1681526020018673ffffffffffffffffffffffffffffffffffffffff1673ffffffffffffffffffffffffffffffffffffffff16815260200185151515158152602001841515151581526020018315151515815260200182810382528c818151815260200191508051906020019080838360005b83811015610d65578082015181840152602081019050610d4a565b50505050905090810190601f168015610d925780820380516001836020036101000a031916815260200191505b509c5050505050505050505050505060405180910390f35b610dd660048036036020811015610dc057600080fd5b81019080803590602001909291905050506134f9565b604051808273ffffffffffffffffffffffffffffffffffffffff1673ffffffffffffffffffffffffffffffffffffffff16815260200191505060405180910390f35b610f7c60048036036080811015610e2e57600080fd5b810190808035906020019092919080359060200190640100000000811115610e5557600080fd5b820183602082011115610e6757600080fd5b80359060200191846001830284011164010000000083111715610e8957600080fd5b91908080601f016020809104026020016040519081016040528093929190818152602001838380828437600081840152601f19601f8201169050808301925050505050505091929192908035906020019092919080359060200190640100000000811115610ef657600080fd5b820183602082011115610f0857600080fd5b80359060200191846001830284011164010000000083111715610f2a57600080fd5b91908080601f016020809104026020016040519081016040528093929190818152602001838380828437600081840152601f19601f820116905080830192505050505050509192919290505050613535565b005b610f866137ac565b6040518082815260200191505060405180910390f35b61110060048036036080811015610fb257600080fd5b810190808035906020019092919080359060200190640100000000811115610fd957600080fd5b820183602082011115610feb57600080fd5b8035906020019184600183028401116401000000008311171561100d57600080fd5b91908080601f016020809104026020016040519081016040528093929190818152602001838380828437600081840152601f19601f820116905080830192505050505050509192919290803590602001909291908035906020019064010000000081111561107a57600080fd5b82018360208201111561108c57600080fd5b803590602001918460018302840111640100000000831117156110ae57600080fd5b91908080601f016020809104026020016040519081016040528093929190818152602001838380828437600081840152601f19601f8201169050808301925050505050505091929192905050506137b2565b005b6112666004803603608081101561111857600080fd5b81019080803590602001909291908035906020019064010000000081111561113f57600080fd5b82018360208201111561115157600080fd5b8035906020019184600183028401116401000000008311171561117357600080fd5b91908080601f016020809104026020016040519081016040528093929190818152602001838380828437600081840152601f19601f82011690508083019250505050505050919291929080359060200190929190803590602001906401000000008111156111e057600080fd5b8201836020820111156111f257600080fd5b8035906020019184600183028401116401000000008311171561121457600080fd5b91908080601f016020809104026020016040519081016040528093929190818152602001838380828437600081840152601f19601f820116905080830192505050505050509192919290505050613a29565b005b6112aa6004803603602081101561127e57600080fd5b81019080803573ffffffffffffffffffffffffffffffffffffffff169060200190929190505050613d06565b6040518087815260200180602001868152602001806020018573ffffffffffffffffffffffffffffffffffffffff1673ffffffffffffffffffffffffffffffffffffffff16815260200184151515158152602001838103835288818151815260200191508051906020019080838360005b8381101561133657808201518184015260208101905061131b565b50505050905090810190601f1680156113635780820380516001836020036101000a031916815260200191505b50838103825286818151815260200191508051906020019080838360005b8381101561139c578082015181840152602081019050611381565b50505050905090810190601f1680156113c95780820380516001836020036101000a031916815260200191505b509850505050505050505060405180910390f35b611409600480360360208110156113f357600080fd5b8101908080359060200190929190505050613e9f565b005b6114376004803603602081101561142157600080fd5b8101908080359060200190929190505050613f12565b6040518082815260200191505060405180910390f35b611455613f33565b6040518082815260200191505060405180910390f35b6114976004803603602081101561148157600080fd5b8101908080359060200190929190505050613f39565b6040518082815260200191505060405180910390f35b6114d9600480360360208110156114c357600080fd5b8101908080359060200190929190505050613f5a565b604051808981526020018060200188815260200187151515158152602001861515151581526020018581526020018473ffffffffffffffffffffffffffffffffffffffff1673ffffffffffffffffffffffffffffffffffffffff1681526020018373ffffffffffffffffffffffffffffffffffffffff1673ffffffffffffffffffffffffffffffffffffffff168152602001828103825289818151815260200191508051906020019080838360005b838110156115a3578082015181840152602081019050611588565b50505050905090810190601f1680156115d05780820380516001836020036101000a031916815260200191505b50995050505050505050505060405180910390f35b611627600480360360208110156115fb57600080fd5b81019080803573ffffffffffffffffffffffffffffffffffffffff169060200190929190505050614094565b6040518087815260200180602001868152602001806020018573ffffffffffffffffffffffffffffffffffffffff1673ffffffffffffffffffffffffffffffffffffffff16815260200184151515158152602001838103835288818151815260200191508051906020019080838360005b838110156116b3578082015181840152602081019050611698565b50505050905090810190601f1680156116e05780820380516001836020036101000a031916815260200191505b50838103825286818151815260200191508051906020019080838360005b838110156117195780820151818401526020810190506116fe565b50505050905090810190601f1680156117465780820380516001836020036101000a031916815260200191505b509850505050505050505060405180910390f35b61176261422d565b6040518082815260200191505060405180910390f35b6117a46004803603602081101561178e57600080fd5b8101908080359060200190929190505050614233565b6040518082815260200191505060405180910390f35b6117e6600480360360208110156117d057600080fd5b8101908080359060200190929190505050614254565b6040518082815260200191505060405180910390f35b611804614275565b6040518082815260200191505060405180910390f35b61182261427b565b6040518082815260200191505060405180910390f35b6118646004803603602081101561184e57600080fd5b8101908080359060200190929190505050614281565b604051808b815260200180602001806020018a815260200189815260200188815260200187151515158152602001861515151581526020018573ffffffffffffffffffffffffffffffffffffffff1673ffffffffffffffffffffffffffffffffffffffff1681526020018473ffffffffffffffffffffffffffffffffffffffff1673ffffffffffffffffffffffffffffffffffffffff16815260200183810383528c818151815260200191508051906020019080838360005b8381101561193857808201518184015260208101905061191d565b50505050905090810190601f1680156119655780820380516001836020036101000a031916815260200191505b5083810382528b818151815260200191508051906020019080838360005b8381101561199e578082015181840152602081019050611983565b50505050905090810190601f1680156119cb5780820380516001836020036101000a031916815260200191505b509c5050505050505050505050505060405180910390f35b6119eb61445f565b6040518082815260200191505060405180910390f35b611a2d60048036036020811015611a1757600080fd5b8101908080359060200190929190505050614465565b6040518082815260200191505060405180910390f35b611a6f60048036036020811015611a5957600080fd5b8101908080359060200190929190505050614486565b604051808273ffffffffffffffffffffffffffffffffffffffff1673ffffffffffffffffffffffffffffffffffffffff16815260200191505060405180910390f35b611ab96144c2565b6040518082815260200191505060405180910390f35b611c3d600480360360a0811015611ae557600080fd5b810190808035906020019092919080359060200190640100000000811115611b0c57600080fd5b820183602082011115611b1e57600080fd5b80359060200191846001830284011164010000000083111715611b4057600080fd5b91908080601f016020809104026020016040519081016040528093929190818152602001838380828437600081840152601f19601f82011690508083019250505050505050919291929080359060200190640100000000811115611ba357600080fd5b820183602082011115611bb557600080fd5b80359060200191846001830284011164010000000083111715611bd757600080fd5b91908080601f016020809104026020016040519081016040528093929190818152602001838380828437600081840152601f19601f82011690508083019250505050505050919291929080359060200190929190803590602001909291905050506144c8565b005b611c476146da565b6040518082815260200191505060405180910390f35b611d3460048036036080811015611c7357600080fd5b810190808035906020019092919080359060200190640100000000811115611c9a57600080fd5b820183602082011115611cac57600080fd5b80359060200191846001830284011164010000000083111715611cce57600080fd5b91908080601f016020809104026020016040519081016040528093929190818152602001838380828437600081840152601f19601f82011690508083019250505050505050919291929080359060200190929190803590602001909291905050506146e0565b005b611d3e61486b565b6040518082815260200191505060405180910390f35b611d5c614871565b6040518082815260200191505060405180910390f35b611d9e60048036036020811015611d8857600080fd5b8101908080359060200190929190505050614877565b005b611dcc60048036036020811015611db657600080fd5b81019080803590602001909291905050506148ea565b6040518082815260200191505060405180910390f35b611e0e60048036036020811015611df857600080fd5b810190808035906020019092919050505061490b565b005b611e3c60048036036020811015611e2657600080fd5b810190808035906020019092919050505061497e565b604051808981526020018060200188815260200187151515158152602001861515151581526020018581526020018473ffffffffffffffffffffffffffffffffffffffff1673ffffffffffffffffffffffffffffffffffffffff1681526020018373ffffffffffffffffffffffffffffffffffffffff1673ffffffffffffffffffffffffffffffffffffffff168152602001828103825289818151815260200191508051906020019080838360005b83811015611f06578082015181840152602081019050611eeb565b50505050905090810190601f168015611f335780820380516001836020036101000a031916815260200191505b50995050505050505050505060405180910390f35b611f50614ab8565b6040518082815260200191505060405180910390f35b611fa860048036036020811015611f7c57600080fd5b81019080803573ffffffffffffffffffffffffffffffffffffffff169060200190929190505050614abe565b6040518087815260200180602001806020018681526020018573ffffffffffffffffffffffffffffffffffffffff1673ffffffffffffffffffffffffffffffffffffffff16815260200184151515158152602001838103835288818151815260200191508051906020019080838360005b83811015612034578082015181840152602081019050612019565b50505050905090810190601f1680156120615780820380516001836020036101000a031916815260200191505b50838103825287818151815260200191508051906020019080838360005b8381101561209a57808201518184015260208101905061207f565b50505050905090810190601f1680156120c75780820380516001836020036101000a031916815260200191505b509850505050505050505060405180910390f35b612107600480360360208110156120f157600080fd5b8101908080359060200190929190505050614c57565b005b612111614d0d565b6040518082815260200191505060405180910390f35b61212f614d13565b6040518082815260200191505060405180910390f35b6121716004803603602081101561215b57600080fd5b8101908080359060200190929190505050614d19565b005b6122d76004803603608081101561218957600080fd5b8101908080359060200190929190803590602001906401000000008111156121b057600080fd5b8201836020820111156121c257600080fd5b803590602001918460018302840111640100000000831117156121e457600080fd5b91908080601f016020809104026020016040519081016040528093929190818152602001838380828437600081840152601f19601f820116905080830192505050505050509192919290803590602001909291908035906020019064010000000081111561225157600080fd5b82018360208201111561226357600080fd5b8035906020019184600183028401116401000000008311171561228557600080fd5b91908080601f016020809104026020016040519081016040528093929190818152602001838380828437600081840152601f19601f820116905080830192505050505050509192919290505050614d8c565b005b612305600480360360208110156122ef57600080fd5b8101908080359060200190929190505050615069565b005b6123de6004803603608081101561231d57600080fd5b81019080803590602001909291908035906020019064010000000081111561234457600080fd5b82018360208201111561235657600080fd5b8035906020019184600183028401116401000000008311171561237857600080fd5b91908080601f016020809104026020016040519081016040528093929190818152602001838380828437600081840152601f19601f820116905080830192505050505050509192919290803590602001909291908035906020019092919050505061511f565b005b612422600480360360208110156123f657600080fd5b81019080803573ffffffffffffffffffffffffffffffffffffffff1690602001909291905050506152aa565b6040518087815260200180602001868152602001806020018573ffffffffffffffffffffffffffffffffffffffff1673ffffffffffffffffffffffffffffffffffffffff16815260200184151515158152602001838103835288818151815260200191508051906020019080838360005b838110156124ae578082015181840152602081019050612493565b50505050905090810190601f1680156124db5780820380516001836020036101000a031916815260200191505b50838103825286818151815260200191508051906020019080838360005b838110156125145780820151818401526020810190506124f9565b50505050905090810190601f1680156125415780820380516001836020036101000a031916815260200191505b509850505050505050505060405180910390f35b6125816004803603602081101561256b57600080fd5b8101908080359060200190929190505050615443565b6040518082815260200191505060405180910390f35b6126fb600480360360808110156125ad57600080fd5b8101908080359060200190929190803590602001906401000000008111156125d457600080fd5b8201836020820111156125e657600080fd5b8035906020019184600183028401116401000000008311171561260857600080fd5b91908080601f016020809104026020016040519081016040528093929190818152602001838380828437600081840152601f19601f820116905080830192505050505050509192919290803590602001909291908035906020019064010000000081111561267557600080fd5b82018360208201111561268757600080fd5b803590602001918460018302840111640100000000831117156126a957600080fd5b91908080601f016020809104026020016040519081016040528093929190818152602001838380828437600081840152601f19601f820116905080830192505050505050509192919290505050615464565b005b60155481565b6004602052806000526040600020600091509050806000015490806001018054600181600116156101000203166002900480601f0160208091040260200160405190810160405280929190818152602001828054600181600116156101000203166002900480156127b55780601f1061278a576101008083540402835291602001916127b5565b820191906000526020600020905b81548152906001019060200180831161279857829003601f168201915b505050505090806002015490806003018054600181600116156101000203166002900480601f0160208091040260200160405190810160405280929190818152602001828054600181600116156101000203166002900480156128595780601f1061282e57610100808354040283529160200191612859565b820191906000526020600020905b81548152906001019060200180831161283c57829003601f168201915b5050505050908060040160009054906101000a900473ffffffffffffffffffffffffffffffffffffffff16908060040160149054906101000a900460ff16905086565b6000600760008381526020019081526020016000209050338160060160006101000a81548173ffffffffffffffffffffffffffffffffffffffff021916908373ffffffffffffffffffffffffffffffffffffffff16021790555060018160070160156101000a81548160ff0219169083151502179055507f0cbf06922eb83154b3fe6f9e5c3288291460b497fd91bab7aaecaf6f828a39ea81600001546040518082815260200191505060405180910390a15050565b600c818154811061295f57fe5b906000526020600020016000915090505481565b6000600760008681526020019081526020016000209050338160040160006101000a81548173ffffffffffffffffffffffffffffffffffffffff021916908373ffffffffffffffffffffffffffffffffffffffff160217905550848160000181905550838160010190805190602001906129ee9291906156db565b50828160020181905550818160030181905550601c60008154809291906001019190505550600f8590806001815401808255809150509060018203906000526020600020016000909192909190915055507f378c5f03b632c0811ba440398934fb1eafc2713c8186a0bc988db1302b2f9e0f81600001548585858560040160009054906101000a900473ffffffffffffffffffffffffffffffffffffffff1660405180868152602001806020018581526020018481526020018373ffffffffffffffffffffffffffffffffffffffff1673ffffffffffffffffffffffffffffffffffffffff168152602001828103825286818151815260200191508051906020019080838360005b83811015612b11578082015181840152602081019050612af6565b50505050905090810190601f168015612b3e5780820380516001836020036101000a031916815260200191505b50965050505050505060405180910390a15050505050565b6000600260008881526020019081526020016000209050338160060160026101000a81548173ffffffffffffffffffffffffffffffffffffffff021916908373ffffffffffffffffffffffffffffffffffffffff16021790555086816000018190555085816001019080519060200190612bd19291906156db565b5084816002019080519060200190612bea9291906156db565b50838160030181905550828160040181905550818160050181905550601760008154809291906001019190505550600b8790806001815401808255809150509060018203906000526020600020016000909192909190915055507f439f63ff3358d031c0d7ea0b2dad09bb38c25aa5873ee25526f60b2434ddf69a81600001548787878787604051808781526020018060200180602001868152602001858152602001848152602001838103835288818151815260200191508051906020019080838360005b83811015612ccb578082015181840152602081019050612cb0565b50505050905090810190601f168015612cf85780820380516001836020036101000a031916815260200191505b50838103825287818151815260200191508051906020019080838360005b83811015612d31578082015181840152602081019050612d16565b50505050905090810190601f168015612d5e5780820380516001836020036101000a031916815260200191505b509850505050505050505060405180910390a150505050505050565b6003602052806000526040600020600091509050806000015490806001018054600181600116156101000203166002900480601f016020809104026020016040519081016040528092919081815260200182805460018160011615610100020316600290048015612e2c5780601f10612e0157610100808354040283529160200191612e2c565b820191906000526020600020905b815481529060010190602001808311612e0f57829003601f168201915b505050505090806002018054600181600116156101000203166002900480601f016020809104026020016040519081016040528092919081815260200182805460018160011615610100020316600290048015612eca5780601f10612e9f57610100808354040283529160200191612eca565b820191906000526020600020905b815481529060010190602001808311612ead57829003601f168201915b5050505050908060030154908060040154908060050160009054906101000a900460ff16908060050160019054906101000a900460ff16908060050160029054906101000a900473ffffffffffffffffffffffffffffffffffffffff16908060060160009054906101000a900473ffffffffffffffffffffffffffffffffffffffff16905089565b6000602052806000526040600020600091509050806000015490806001018054600181600116156101000203166002900480601f0160208091040260200160405190810160405280929190818152602001828054600181600116156101000203166002900480156130045780601f10612fd957610100808354040283529160200191613004565b820191906000526020600020905b815481529060010190602001808311612fe757829003601f168201915b505050505090806002015490806003018054600181600116156101000203166002900480601f0160208091040260200160405190810160405280929190818152602001828054600181600116156101000203166002900480156130a85780601f1061307d576101008083540402835291602001916130a8565b820191906000526020600020905b81548152906001019060200180831161308b57829003601f168201915b5050505050908060040160009054906101000a900473ffffffffffffffffffffffffffffffffffffffff16908060040160149054906101000a900460ff16905086565b60008060003373ffffffffffffffffffffffffffffffffffffffff1673ffffffffffffffffffffffffffffffffffffffff16815260200190815260200160002090506000803373ffffffffffffffffffffffffffffffffffffffff1673ffffffffffffffffffffffffffffffffffffffff16815260200190815260200160002060040160149054906101000a900460ff161561318657600080fd5b338160040160006101000a81548173ffffffffffffffffffffffffffffffffffffffff021916908373ffffffffffffffffffffffffffffffffffffffff160217905550848160000181905550838160010190805190602001906131ea9291906156db565b50818160030190805190602001906132039291906156db565b5082816002018190555060018160040160146101000a81548160ff0219169083151502179055506015600081548092919060010191905055507f08668c3163d612d8a94f23903ed5e73898d30921f3f8141c5d33a9495487754c8160000154858585604051808581526020018060200184815260200180602001838103835286818151815260200191508051906020019080838360005b838110156132b557808201518184015260208101905061329a565b50505050905090810190601f1680156132e25780820380516001836020036101000a031916815260200191505b50838103825284818151815260200191508051906020019080838360005b8381101561331b578082015181840152602081019050613300565b50505050905090810190601f1680156133485780820380516001836020036101000a031916815260200191505b50965050505050505060405180910390a15050505050565b6007602052806000526040600020600091509050806000015490806001018054600181600116156101000203166002900480601f0160208091040260200160405190810160405280929190818152602001828054600181600116156101000203166002900480156134125780601f106133e757610100808354040283529160200191613412565b820191906000526020600020905b8154815290600101906020018083116133f557829003601f168201915b5050505050908060020154908060030154908060040160009054906101000a900473ffffffffffffffffffffffffffffffffffffffff16908060050160009054906101000a900473ffffffffffffffffffffffffffffffffffffffff16908060060160009054906101000a900473ffffffffffffffffffffffffffffffffffffffff16908060070160009054906101000a900473ffffffffffffffffffffffffffffffffffffffff16908060070160149054906101000a900460ff16908060070160159054906101000a900460ff16908060070160169054906101000a900460ff1690508b565b6013818154811061350657fe5b906000526020600020016000915054906101000a900473ffffffffffffffffffffffffffffffffffffffff1681565b6000600160003373ffffffffffffffffffffffffffffffffffffffff1673ffffffffffffffffffffffffffffffffffffffff1681526020019081526020016000209050600160003373ffffffffffffffffffffffffffffffffffffffff1673ffffffffffffffffffffffffffffffffffffffff16815260200190815260200160002060040160149054906101000a900460ff16156135d257600080fd5b338160040160006101000a81548173ffffffffffffffffffffffffffffffffffffffff021916908373ffffffffffffffffffffffffffffffffffffffff160217905550848160000181905550838160010190805190602001906136369291906156db565b508181600201908051906020019061364f9291906156db565b5082816003018190555060018160040160146101000a81548160ff0219169083151502179055506016600081548092919060010191905055507fd6872be6e41398807aa745d3fa75664e9c98bab6bc08f2ede66cf950f1a86e4f8160000154858585604051808581526020018060200184815260200180602001838103835286818151815260200191508051906020019080838360005b838110156137015780820151818401526020810190506136e6565b50505050905090810190601f16801561372e5780820380516001836020036101000a031916815260200191505b50838103825284818151815260200191508051906020019080838360005b8381101561376757808201518184015260208101905061374c565b50505050905090810190601f1680156137945780820380516001836020036101000a031916815260200191505b50965050505050505060405180910390a15050505050565b601d5481565b6000600a60003373ffffffffffffffffffffffffffffffffffffffff1673ffffffffffffffffffffffffffffffffffffffff1681526020019081526020016000209050600a60003373ffffffffffffffffffffffffffffffffffffffff1673ffffffffffffffffffffffffffffffffffffffff16815260200190815260200160002060040160149054906101000a900460ff161561384f57600080fd5b338160040160006101000a81548173ffffffffffffffffffffffffffffffffffffffff021916908373ffffffffffffffffffffffffffffffffffffffff160217905550848160000181905550838160010190805190602001906138b39291906156db565b50828160020181905550818160030190805190602001906138d59291906156db565b5060018160040160146101000a81548160ff021916908315150217905550601f600081548092919060010191905055507f1a13455a6f21ea22183743d3a2e4337878ecb3600567972479049c8beeb902988160000154858585604051808581526020018060200184815260200180602001838103835286818151815260200191508051906020019080838360005b8381101561397e578082015181840152602081019050613963565b50505050905090810190601f1680156139ab5780820380516001836020036101000a031916815260200191505b50838103825284818151815260200191508051906020019080838360005b838110156139e45780820151818401526020810190506139c9565b50505050905090810190601f168015613a115780820380516001836020036101000a031916815260200191505b50965050505050505060405180910390a15050505050565b6000600460003373ffffffffffffffffffffffffffffffffffffffff1673ffffffffffffffffffffffffffffffffffffffff1681526020019081526020016000209050600460003373ffffffffffffffffffffffffffffffffffffffff1673ffffffffffffffffffffffffffffffffffffffff16815260200190815260200160002060040160149054906101000a900460ff1615613ac657600080fd5b338160040160006101000a81548173ffffffffffffffffffffffffffffffffffffffff021916908373ffffffffffffffffffffffffffffffffffffffff16021790555084816000018190555083816001019080519060200190613b2a9291906156db565b5081816003019080519060200190613b439291906156db565b5082816002018190555060018160040160146101000a81548160ff02191690831515021790555060133390806001815401808255809150509060018203906000526020600020016000909192909190916101000a81548173ffffffffffffffffffffffffffffffffffffffff021916908373ffffffffffffffffffffffffffffffffffffffff16021790555050601b600081548092919060010191905055507fb36cc4119d00d499f56607c93b70202fbd20ed3ddec3c66d8f91c3890dc4ff2e8160000154858585604051808581526020018060200184815260200180602001838103835286818151815260200191508051906020019080838360005b83811015613c5b578082015181840152602081019050613c40565b50505050905090810190601f168015613c885780820380516001836020036101000a031916815260200191505b50838103825284818151815260200191508051906020019080838360005b83811015613cc1578082015181840152602081019050613ca6565b50505050905090810190601f168015613cee5780820380516001836020036101000a031916815260200191505b50965050505050505060405180910390a15050505050565b600a602052806000526040600020600091509050806000015490806001018054600181600116156101000203166002900480601f016020809104026020016040519081016040528092919081815260200182805460018160011615610100020316600290048015613db85780601f10613d8d57610100808354040283529160200191613db8565b820191906000526020600020905b815481529060010190602001808311613d9b57829003601f168201915b505050505090806002015490806003018054600181600116156101000203166002900480601f016020809104026020016040519081016040528092919081815260200182805460018160011615610100020316600290048015613e5c5780601f10613e3157610100808354040283529160200191613e5c565b820191906000526020600020905b815481529060010190602001808311613e3f57829003601f168201915b5050505050908060040160009054906101000a900473ffffffffffffffffffffffffffffffffffffffff16908060040160149054906101000a900460ff16905086565b600060026000838152602001908152602001600020905060018160060160006101000a81548160ff0219169083151502179055507fb113ddee1f19c663134cf17fedc292ab8569c4313980b37a98ad6f576fe205d081600001546040518082815260200191505060405180910390a15050565b60128181548110613f1f57fe5b906000526020600020016000915090505481565b60225481565b600d8181548110613f4657fe5b906000526020600020016000915090505481565b6006602052806000526040600020600091509050806000015490806001018054600181600116156101000203166002900480601f01602080910402602001604051908101604052809291908181526020018280546001816001161561010002031660029004801561400c5780601f10613fe15761010080835404028352916020019161400c565b820191906000526020600020905b815481529060010190602001808311613fef57829003601f168201915b5050505050908060020154908060030160009054906101000a900460ff16908060030160019054906101000a900460ff16908060040154908060050160009054906101000a900473ffffffffffffffffffffffffffffffffffffffff16908060060160009054906101000a900473ffffffffffffffffffffffffffffffffffffffff16905088565b6008602052806000526040600020600091509050806000015490806001018054600181600116156101000203166002900480601f0160208091040260200160405190810160405280929190818152602001828054600181600116156101000203166002900480156141465780601f1061411b57610100808354040283529160200191614146565b820191906000526020600020905b81548152906001019060200180831161412957829003601f168201915b505050505090806002015490806003018054600181600116156101000203166002900480601f0160208091040260200160405190810160405280929190818152602001828054600181600116156101000203166002900480156141ea5780601f106141bf576101008083540402835291602001916141ea565b820191906000526020600020905b8154815290600101906020018083116141cd57829003601f168201915b5050505050908060040160009054906101000a900473ffffffffffffffffffffffffffffffffffffffff16908060040160149054906101000a900460ff16905086565b60185481565b600e818154811061424057fe5b906000526020600020016000915090505481565b600b818154811061426157fe5b906000526020600020016000915090505481565b60195481565b601a5481565b6002602052806000526040600020600091509050806000015490806001018054600181600116156101000203166002900480601f0160208091040260200160405190810160405280929190818152602001828054600181600116156101000203166002900480156143335780601f1061430857610100808354040283529160200191614333565b820191906000526020600020905b81548152906001019060200180831161431657829003601f168201915b505050505090806002018054600181600116156101000203166002900480601f0160208091040260200160405190810160405280929190818152602001828054600181600116156101000203166002900480156143d15780601f106143a6576101008083540402835291602001916143d1565b820191906000526020600020905b8154815290600101906020018083116143b457829003601f168201915b5050505050908060030154908060040154908060050154908060060160009054906101000a900460ff16908060060160019054906101000a900460ff16908060060160029054906101000a900473ffffffffffffffffffffffffffffffffffffffff16908060070160009054906101000a900473ffffffffffffffffffffffffffffffffffffffff1690508a565b60175481565b600f818154811061447257fe5b906000526020600020016000915090505481565b6014818154811061449357fe5b906000526020600020016000915054906101000a900473ffffffffffffffffffffffffffffffffffffffff1681565b601e5481565b6000600360008781526020019081526020016000209050338160050160026101000a81548173ffffffffffffffffffffffffffffffffffffffff021916908373ffffffffffffffffffffffffffffffffffffffff160217905550858160000181905550848160010190805190602001906145439291906156db565b508381600201908051906020019061455c9291906156db565b50828160030181905550818160040181905550601a60008154809291906001019190505550600c8690806001815401808255809150509060018203906000526020600020016000909192909190915055507f1165557beb26b62f0b993d64631cef5a6da178727e9e0403f41c77c28bc8d73d816000015486868686604051808681526020018060200180602001858152602001848152602001838103835287818151815260200191508051906020019080838360005b8381101561462d578082015181840152602081019050614612565b50505050905090810190601f16801561465a5780820380516001836020036101000a031916815260200191505b50838103825286818151815260200191508051906020019080838360005b83811015614693578082015181840152602081019050614678565b50505050905090810190601f1680156146c05780820380516001836020036101000a031916815260200191505b5097505050505050505060405180910390a1505050505050565b601b5481565b6000600660008681526020019081526020016000209050338160050160006101000a81548173ffffffffffffffffffffffffffffffffffffffff021916908373ffffffffffffffffffffffffffffffffffffffff1602179055508481600001819055508381600101908051906020019061475b9291906156db565b50828160040181905550818160020181905550600e8590806001815401808255809150509060018203906000526020600020016000909192909190915055506019600081548092919060010191905055507f7dd1ac0f3045c721af138f4c0f5c1d81f03d3ce527d8984fb057c73a2229973e81600001548585856040518085815260200180602001848152602001838152602001828103825285818151815260200191508051906020019080838360005b8381101561482757808201518184015260208101905061480c565b50505050905090810190601f1680156148545780820380516001836020036101000a031916815260200191505b509550505050505060405180910390a15050505050565b601f5481565b60215481565b600060036000838152602001908152602001600020905060018160050160006101000a81548160ff0219169083151502179055507f4d76f888e2d45ed5342180cd02cd937a6df60e70f9267b6fe3d23fef91073dbe81600001546040518082815260200191505060405180910390a15050565b601081815481106148f757fe5b906000526020600020016000915090505481565b600060056000838152602001908152602001600020905060018160030160006101000a81548160ff0219169083151502179055507f4884f639bffe6ebc2bd20dcf3acba03bbb77a1c29ce119ee0468add1e526bf2e81600001546040518082815260200191505060405180910390a15050565b6005602052806000526040600020600091509050806000015490806001018054600181600116156101000203166002900480601f016020809104026020016040519081016040528092919081815260200182805460018160011615610100020316600290048015614a305780601f10614a0557610100808354040283529160200191614a30565b820191906000526020600020905b815481529060010190602001808311614a1357829003601f168201915b5050505050908060020154908060030160009054906101000a900460ff16908060030160019054906101000a900460ff16908060040154908060050160009054906101000a900473ffffffffffffffffffffffffffffffffffffffff16908060060160009054906101000a900473ffffffffffffffffffffffffffffffffffffffff16905088565b601c5481565b6001602052806000526040600020600091509050806000015490806001018054600181600116156101000203166002900480601f016020809104026020016040519081016040528092919081815260200182805460018160011615610100020316600290048015614b705780601f10614b4557610100808354040283529160200191614b70565b820191906000526020600020905b815481529060010190602001808311614b5357829003601f168201915b505050505090806002018054600181600116156101000203166002900480601f016020809104026020016040519081016040528092919081815260200182805460018160011615610100020316600290048015614c0e5780601f10614be357610100808354040283529160200191614c0e565b820191906000526020600020905b815481529060010190602001808311614bf157829003601f168201915b5050505050908060030154908060040160009054906101000a900473ffffffffffffffffffffffffffffffffffffffff16908060040160149054906101000a900460ff16905086565b6000600760008381526020019081526020016000209050338160050160006101000a81548173ffffffffffffffffffffffffffffffffffffffff021916908373ffffffffffffffffffffffffffffffffffffffff16021790555060018160070160146101000a81548160ff0219169083151502179055507fadae2f6d15893072faac01469d9c4ab03345012f63f977eabb99ca98c67fc3de81600001546040518082815260200191505060405180910390a15050565b60165481565b60205481565b600060066000838152602001908152602001600020905060018160030160006101000a81548160ff0219169083151502179055507fa214b590499078bd7c3ac19858552eb9d47ef202d017c8c1af3a1f2559710b2b81600001546040518082815260200191505060405180910390a15050565b6000600860003373ffffffffffffffffffffffffffffffffffffffff1673ffffffffffffffffffffffffffffffffffffffff1681526020019081526020016000209050600860003373ffffffffffffffffffffffffffffffffffffffff1673ffffffffffffffffffffffffffffffffffffffff16815260200190815260200160002060040160149054906101000a900460ff1615614e2957600080fd5b338160040160006101000a81548173ffffffffffffffffffffffffffffffffffffffff021916908373ffffffffffffffffffffffffffffffffffffffff16021790555084816000018190555083816001019080519060200190614e8d9291906156db565b5082816002018190555081816003019080519060200190614eaf9291906156db565b5060018160040160146101000a81548160ff02191690831515021790555060143390806001815401808255809150509060018203906000526020600020016000909192909190916101000a81548173ffffffffffffffffffffffffffffffffffffffff021916908373ffffffffffffffffffffffffffffffffffffffff16021790555050601d600081548092919060010191905055507f85ce94a09259d11fea28ef2cdae95f1a94d42451c0741fdd7e267f746c524b6a8160000154858585604051808581526020018060200184815260200180602001838103835286818151815260200191508051906020019080838360005b83811015614fbe578082015181840152602081019050614fa3565b50505050905090810190601f168015614feb5780820380516001836020036101000a031916815260200191505b50838103825284818151815260200191508051906020019080838360005b83811015615024578082015181840152602081019050615009565b50505050905090810190601f1680156150515780820380516001836020036101000a031916815260200191505b50965050505050505060405180910390a15050505050565b6000600760008381526020019081526020016000209050338160070160006101000a81548173ffffffffffffffffffffffffffffffffffffffff021916908373ffffffffffffffffffffffffffffffffffffffff16021790555060018160070160166101000a81548160ff0219169083151502179055507f719795a1d0f96d96000a0253c72c0cabd1e32bceca96fc716babca1abb0ec40e81600001546040518082815260200191505060405180910390a15050565b6000600560008681526020019081526020016000209050338160050160006101000a81548173ffffffffffffffffffffffffffffffffffffffff021916908373ffffffffffffffffffffffffffffffffffffffff1602179055508481600001819055508381600101908051906020019061519a9291906156db565b50828160040181905550818160020181905550600d8590806001815401808255809150509060018203906000526020600020016000909192909190915055506018600081548092919060010191905055507fa55da230e9462e2c52b347397a2cb6953432cf8bed20f679a034e459ef95e34b81600001548585856040518085815260200180602001848152602001838152602001828103825285818151815260200191508051906020019080838360005b8381101561526657808201518184015260208101905061524b565b50505050905090810190601f1680156152935780820380516001836020036101000a031916815260200191505b509550505050505060405180910390a15050505050565b6009602052806000526040600020600091509050806000015490806001018054600181600116156101000203166002900480601f01602080910402602001604051908101604052809291908181526020018280546001816001161561010002031660029004801561535c5780601f106153315761010080835404028352916020019161535c565b820191906000526020600020905b81548152906001019060200180831161533f57829003601f168201915b505050505090806002015490806003018054600181600116156101000203166002900480601f0160208091040260200160405190810160405280929190818152602001828054600181600116156101000203166002900480156154005780601f106153d557610100808354040283529160200191615400565b820191906000526020600020905b8154815290600101906020018083116153e357829003601f168201915b5050505050908060040160009054906101000a900473ffffffffffffffffffffffffffffffffffffffff16908060040160149054906101000a900460ff16905086565b6011818154811061545057fe5b906000526020600020016000915090505481565b6000600960003373ffffffffffffffffffffffffffffffffffffffff1673ffffffffffffffffffffffffffffffffffffffff1681526020019081526020016000209050600960003373ffffffffffffffffffffffffffffffffffffffff1673ffffffffffffffffffffffffffffffffffffffff16815260200190815260200160002060040160149054906101000a900460ff161561550157600080fd5b338160040160006101000a81548173ffffffffffffffffffffffffffffffffffffffff021916908373ffffffffffffffffffffffffffffffffffffffff160217905550848160000181905550838160010190805190602001906155659291906156db565b50828160020181905550818160030190805190602001906155879291906156db565b5060018160040160146101000a81548160ff021916908315150217905550601e600081548092919060010191905055507fb0e45e8125bcae396aa2f4df5baf1c1fe6cc08db71c22a9fc54e8e2529b5934a8160000154858585604051808581526020018060200184815260200180602001838103835286818151815260200191508051906020019080838360005b83811015615630578082015181840152602081019050615615565b50505050905090810190601f16801561565d5780820380516001836020036101000a031916815260200191505b50838103825284818151815260200191508051906020019080838360005b8381101561569657808201518184015260208101905061567b565b50505050905090810190601f1680156156c35780820380516001836020036101000a031916815260200191505b50965050505050505060405180910390a15050505050565b828054600181600116156101000203166002900490600052602060002090601f016020900481019282601f1061571c57805160ff191683800117855561574a565b8280016001018555821561574a579182015b8281111561574957825182559160200191906001019061572e565b5b509050615757919061575b565b5090565b61577d91905b80821115615779576000816000905550600101615761565b5090565b9056fea265627a7a72315820524f7f30b5a4c693ee3ffd9b470d68a3537056236e3fefa5545114fb402e5d4f64736f6c63430005100032",
  "source": "pragma solidity ^0.5.16;\r\n\r\ncontract SupplyChain{\r\n\r\n    //model a landlord\r\n    struct Landlord{\r\n        uint landlordID;\r\n        string landlordName;\r\n        uint landlordContact;\r\n        string landlordAddress;\r\n        address laddr;\r\n        bool isValue;\r\n    }\r\n\r\n    //model a seed dealer\r\n    struct SeedDealer{\r\n        uint dealerID;\r\n        string dealerName;\r\n        string dealerAddress;\r\n        uint dealerContact;\r\n        address saddr;\r\n        bool isValue;\r\n    }\r\n\r\n    //model a seed\r\n    struct Seed{\r\n        uint seedID;\r\n        string seedName;\r\n        uint seedQuantity;\r\n        bool isBought;\r\n        bool isSale;\r\n        uint seedcost;\r\n        address saddr;\r\n        address faddr;\r\n    }\r\n\r\n\r\n    //model a fertilizer\r\n    struct Fertilizer{\r\n        uint fertilizerID;\r\n        string fertilizerName;\r\n        uint fertilizerQuantity;\r\n        bool isBought;\r\n        bool isSale;\r\n        uint fertilizerCost;\r\n        address saddr;\r\n        address faddr;\r\n    }\r\n    //model a land\r\n    struct Landsale{\r\n        uint landID;\r\n        string landAddress;\r\n        string soilType;\r\n        //uint temperature;\r\n        //uint humidity;\r\n        //string cropType;\r\n        uint area;\r\n        uint cost;\r\n        bool isBought;\r\n        bool isSale;\r\n        address laddr;\r\n        address faddr;\r\n    }\r\n\r\n    //model a landlease\r\n    struct Landlease{\r\n        uint landID;\r\n        string landAddress;\r\n        string soilType;\r\n        //uint temperature;\r\n        //uint humidity;\r\n        //string cropType;\r\n        uint area;\r\n        uint cost;\r\n        uint duration;\r\n        bool isBought;\r\n        bool isLease;\r\n        address laddr;\r\n        address faddr;\r\n\r\n    }\r\n\r\n    //model a farmer\r\n   struct Farmer {\r\n       uint farmerID;\r\n       string farmerName;\r\n       uint farmerContact;\r\n      string farmerAddress;\r\n       address faddr;\r\n       bool isValue;\r\n   }\r\n\r\n   //model crop\r\n    struct Crop{\r\n       uint cropID;\r\n       string cropName;\r\n       uint quantity;\r\n       uint cropPrice;\r\n        address faddr;\r\n        address daddr;\r\n        address raddr;\r\n        address caddr;\r\n        bool isBought; \r\n        bool isBoughtByRetailer;     \r\n        bool isBoughtByConsumer;    \r\n } \r\n\r\n   //model a distributor\r\n   struct Distributor{\r\n       uint distID;\r\n       string distName;\r\n       uint distContact;\r\n       string distAddress;\r\n       address daddr;\r\n       bool isValue;\r\n   }\r\n   \r\n   //model a retailer\r\n   struct Retailer{\r\n       uint retailID;\r\n       string retailName;\r\n       uint retailContact;\r\n       string  retailAddress;\r\n       address raddr;\r\n       bool isValue;\r\n   }\r\n   \r\n   //model a consumer\r\n   struct Consumer{\r\n       uint consumerID;\r\n       string consumerName;\r\n       uint consumerContact;\r\n       string consumerAddress;\r\n       address caddr;\r\n       bool isValue;\r\n   }\r\n\r\n   mapping(address => Landlord) public mlandlord;\r\n   mapping(address => SeedDealer) public mdealer;\r\n   mapping(uint => Landlease) public mlland;\r\n   mapping(uint => Landsale) public msland;\r\n   mapping(address => Farmer) public mfarmer;\r\n   mapping(uint => Seed) public mseed;\r\n   mapping(uint => Fertilizer) public mfertilizer;\r\n   mapping(uint => Crop) public mcrop;\r\n   //mapping(uint => Crop) public dcrop;\r\n   mapping(address => Distributor) public mdist;\r\n   mapping(address => Retailer) public mretail;\r\n   mapping(address => Consumer) public mconsumer;\r\n   \r\n\r\n   //count of crop\r\n   uint[] public leaseArr;\r\n   uint[] public saleArr;\r\n   uint[] public seedArr;\r\n   uint[] public fertilizerArr;\r\n   uint[] public cropArr;\r\n   uint[] public distCropArr;\r\n   uint[] public consumerCropArr;\r\n   uint[] public temp;\r\n   address[] public farmerAdd;\r\n   address[] public distAdd;\r\n   uint public landlordCount;\r\n   uint public dealerCount;\r\n   uint public leaseCount;\r\n   uint public seedCount;\r\n   uint public fertilizerCount;\r\n   uint public saleCount;\r\n   uint public farmerCount;\r\n   uint public cropCount;\r\n   uint public distCount;\r\n   uint public retailCount;\r\n   uint public consumerCount;\r\n   uint public distCropCount;\r\n   uint public retailCropCount;\r\n   uint public consumerCropCount;\r\n\r\n\r\n   //event for landlord\r\n   event landlordCreated(\r\n       uint landlordID,\r\n       string landlordName,\r\n       uint landlordContact,\r\n       string landlordAddress\r\n   );\r\n   \r\n   //event for land sale\r\n   event landForSale (\r\n       uint landID,\r\n       string landAddress,\r\n       string soilType,\r\n       //uint temperature,\r\n       //uint humidity,\r\n       //string cropType,\r\n       uint area,\r\n       uint cost\r\n   );\r\n\r\n   //event for lease\r\n   event landForLease(\r\n       uint landID,\r\n       string landAddress,\r\n       string soilType,\r\n       //uint temperature,\r\n       //uint humidity,\r\n       //string cropType,\r\n       uint area,\r\n       uint cost,\r\n       uint duration\r\n   );\r\n\r\n \r\n   //event for seedDealer\r\n   event seedDealerCreated(\r\n        uint dealerID,\r\n        string dealerName,\r\n        uint dealerContact,\r\n        string dealerAddress\r\n   );\r\n\r\n   //event for seedCreated\r\n   event seedCreated(\r\n        uint seedID,\r\n        string seedName,\r\n        uint seedcost,\r\n        uint seedQuantity\r\n   );\r\n\r\n   //event for fertilizerCreated\r\n   event fertilizerCreated(\r\n        uint fertilizerID,\r\n        string fertilizerName,\r\n        uint fertilizerCost,\r\n        uint fertilizerQuantity\r\n   );\r\n\r\n   // event for farmer\r\n   event farmerCreated (\r\n       uint farmerID,\r\n       string farmerName,\r\n       uint farmerContact,\r\n       string farmerAddress\r\n   );\r\n\r\n   // event for crop\r\n   event cropCreated (\r\n       uint cropID,\r\n       string cropName,\r\n       uint quantity,\r\n       uint cropPrice,\r\n       address faddr\r\n   );\r\n\r\n   //event for farmer land purchase \r\n   event landPurchaseLease (\r\n       uint landID\r\n   );\r\n    event landPurchaseSale (\r\n       uint landID\r\n   );\r\n   //evbent for seed purchase\r\n   event seedPurchase(\r\n       uint seedID\r\n   );\r\n   //event for fertilizer purchase\r\n   event fertilizerPurchase(\r\n       uint fertilizerID\r\n   );\r\n\r\n   //event for distributor \r\n   event distCreated (\r\n       uint distID,\r\n       string distName,\r\n       uint distContact,\r\n       string distAddress\r\n   );\r\n\r\n   //event for distributor crop\r\n   event distCrop (\r\n       uint cropID\r\n   );\r\n   \r\n   //event for retailer\r\n   event retailCreated (\r\n       uint retailID,\r\n       string retailName,\r\n       uint retailContact,\r\n       string retailAddress\r\n   );\r\n\r\n   //event for retail adding crop\r\n   event retailCrop (\r\n       uint cropID\r\n   );\r\n\r\n   //event for consumer\r\n   event consumerCreated(\r\n       uint consumerID,\r\n       string consumerName,\r\n       uint consumerContact,\r\n       string consumerAddress\r\n   );\r\n\r\n  // event for consumer adding crop\r\n  event consumerCrop(\r\n      uint cropID\r\n  );\r\n\r\n    //add new Landlord\r\n    function newLandlord(\r\n        uint _landlordID,\r\n        string memory _landlordName,\r\n        uint _landlordContact,\r\n        string memory _landlordAddress\r\n    ) public {\r\n        Landlord storage _newlandlord = mlandlord[msg.sender];\r\n\r\n        // Only allows new records to be created\r\n         require(!mlandlord[msg.sender].isValue);\r\n        _newlandlord.laddr = msg.sender;\r\n        _newlandlord.landlordID = _landlordID;\r\n        _newlandlord.landlordName = _landlordName;\r\n        _newlandlord.landlordAddress = _landlordAddress;\r\n        _newlandlord.landlordContact = _landlordContact;\r\n        _newlandlord.isValue = true;\r\n        landlordCount++;\r\n        emit landlordCreated(_newlandlord.landlordID, _landlordName, _landlordContact,_landlordAddress);\r\n    }\r\n\r\n    //landlord adds new land for sale\r\n    function addLandSale (\r\n        uint _landID,\r\n        string memory _landAddress,\r\n        string memory _soilType,\r\n        //uint _temperature,\r\n        //uint _humidity,\r\n        //string memory _cropType,\r\n        uint _area,\r\n        uint _cost \r\n    ) public {\r\n        Landsale storage _newland = msland[_landID];\r\n        _newland.laddr = msg.sender;\r\n        _newland.landID = _landID;\r\n        _newland.landAddress = _landAddress;\r\n        _newland.soilType = _soilType;\r\n        //_newland.temperature=_temperature;\r\n        //_newland.humidity=_humidity;\r\n        //_newland.cropType=_cropType;\r\n        _newland.area=_area;\r\n        _newland.cost=_cost;\r\n        saleCount++;\r\n        saleArr.push(_landID);\r\n        emit landForSale(_newland.landID, _landAddress, _soilType,_area,_cost);\r\n    }\r\n\r\n    // //lease function\r\n     function addLandLease (\r\n        uint _landID,\r\n      //  string memory _landName,\r\n        string memory _landAddress,\r\n        string memory _soilType,\r\n        //uint _temperature,\r\n        //uint _humidity,\r\n        //string memory _cropType,\r\n        uint _area,\r\n        uint _cost,\r\n        uint _duration\r\n    ) public {\r\n        Landlease storage _newland = mlland[_landID];\r\n        _newland.laddr = msg.sender;\r\n        _newland.landID = _landID;\r\n       // _newland.landName = _landName;\r\n        _newland.landAddress = _landAddress;\r\n        _newland.soilType = _soilType;\r\n        //_newland.temperature=_temperature;\r\n        //_newland.humidity=_humidity;\r\n        //_newland.cropType=_cropType;\r\n        _newland.area=_area;\r\n        _newland.cost=_cost;\r\n        _newland.duration=_duration;\r\n        leaseCount++;\r\n        leaseArr.push(_landID);\r\n        emit landForLease(_newland.landID, _landAddress, _soilType,_area,_cost,_duration);\r\n    }\r\n    \r\n    //add new seedDealer\r\n    function newSeedDealer (\r\n        uint _dealerID,\r\n        string memory _dealerName,\r\n        uint _dealerContact,\r\n        string memory _dealerAddress\r\n    ) public {\r\n        SeedDealer storage _newdealer = mdealer[msg.sender];\r\n\r\n        // Only allows new records to be created\r\n        require(!mdealer[msg.sender].isValue);\r\n        _newdealer.saddr = msg.sender;\r\n        _newdealer.dealerID = _dealerID;\r\n        _newdealer.dealerName = _dealerName;\r\n        _newdealer.dealerAddress = _dealerAddress;\r\n        _newdealer.dealerContact = _dealerContact;\r\n        _newdealer.isValue = true;\r\n        dealerCount++;\r\n        emit seedDealerCreated(_newdealer.dealerID, _dealerName, _dealerContact,_dealerAddress);\r\n    }\r\n\r\n    //add new seed\r\n    function newSeed (\r\n        uint _seedID,\r\n        string memory _seedName,\r\n        uint _seedcost,\r\n        uint _seedQuantity\r\n    ) public {\r\n        Seed storage _newseed = mseed[_seedID];\r\n\r\n        // Only allows new records to be created\r\n        //require(!mseed[msg.sender].isValue);\r\n        _newseed.saddr = msg.sender;\r\n        _newseed.seedID = _seedID;\r\n        _newseed.seedName = _seedName;\r\n        _newseed.seedcost = _seedcost;\r\n        _newseed.seedQuantity = _seedQuantity;\r\n        //_newseed.isValue = true;\r\n        seedArr.push(_seedID);\r\n        seedCount++;\r\n        emit seedCreated(_newseed.seedID, _seedName, _seedcost, _seedQuantity);\r\n    }\r\n\r\n    //add new fertilizer\r\n    function newFertilizer (\r\n        uint _fertilizerID,\r\n        string memory _fertilizerName,\r\n        uint _fertilizerCost,\r\n        uint _fertilizerQuantity\r\n    ) public {\r\n        Fertilizer storage _newfertilizer = mfertilizer[_fertilizerID];\r\n\r\n        // Only allows new records to be created\r\n        //require(!mfertilizer[msg.sender].isValue);\r\n        _newfertilizer.saddr = msg.sender;\r\n        _newfertilizer.fertilizerID = _fertilizerID;\r\n        _newfertilizer.fertilizerName = _fertilizerName;\r\n        _newfertilizer.fertilizerCost = _fertilizerCost;\r\n        _newfertilizer.fertilizerQuantity = _fertilizerQuantity;\r\n       // _newfertilizer.isValue = true;\r\n        fertilizerArr.push(_fertilizerID);\r\n        fertilizerCount++;\r\n        emit fertilizerCreated(_newfertilizer.fertilizerID, _fertilizerName, _fertilizerCost, _fertilizerQuantity);\r\n    }\r\n\r\n    //add new farmer\r\n    function newFarmer (\r\n        uint _farmerID,\r\n        string memory _farmerName,\r\n        uint _farmerContact,\r\n        string memory _farmerAddress\r\n    ) public {\r\n        Farmer storage _newfarmer = mfarmer[msg.sender];\r\n\r\n        // Only allows new records to be created\r\n        require(!mfarmer[msg.sender].isValue);\r\n        _newfarmer.faddr = msg.sender;\r\n        _newfarmer.farmerID = _farmerID;\r\n        _newfarmer.farmerName = _farmerName;\r\n        _newfarmer.farmerAddress = _farmerAddress;\r\n        _newfarmer.farmerContact = _farmerContact;\r\n        _newfarmer.isValue = true;\r\n        farmerAdd.push(msg.sender);\r\n        farmerCount++;\r\n        emit farmerCreated(_newfarmer.farmerID, _farmerName, _farmerContact,_farmerAddress);\r\n    }\r\n\r\n    //add crop by old farmer\r\n     function addCrop(\r\n        uint _cropID,\r\n        string memory _cropName,\r\n        uint _quantity,\r\n        uint _cropPrice\r\n    ) public {\r\n        Crop storage _newcrop = mcrop[_cropID];\r\n        //Farmer storage _newfarmer = mfarmer[_farmerID];\r\n       \r\n        _newcrop.faddr = msg.sender;\r\n        _newcrop.cropID = _cropID;\r\n        _newcrop.cropName = _cropName;\r\n        _newcrop.quantity = _quantity;\r\n        _newcrop.cropPrice = _cropPrice;\r\n        cropCount++;\r\n        cropArr.push(_cropID);\r\n        emit cropCreated(_newcrop.cropID, _cropName, _quantity, _cropPrice, _newcrop.faddr);\r\n    }\r\n\r\n    //farmer purchase land lease\r\n     function purchaseLandLease (\r\n        uint _landID\r\n     ) public { \r\n        Landlease storage _newland = mlland[_landID];\r\n        _newland.isBought = true;\r\n        emit landPurchaseLease(_newland.landID);\r\n    }\r\n  \r\n    //farmer purchase sale\r\n     function purchaseLandSale (\r\n        uint _landID\r\n     ) public { \r\n        Landsale storage _newland = msland[_landID];\r\n        _newland.isBought = true;\r\n        emit landPurchaseSale(_newland.landID);\r\n    }\r\n\r\n    //farmer purchase seed\r\n    function purchaseSeed (\r\n        uint _seedID\r\n    ) public {\r\n        Seed storage _newseed = mseed[_seedID];\r\n        _newseed.isBought=true;\r\n        emit seedPurchase(_newseed.seedID);\r\n    }\r\n\r\n    //farmer purchase fertilizer\r\n    function purchaseFertilizer (\r\n        uint _fertilizerID\r\n    ) public {\r\n        Fertilizer storage _newfertilizer = mfertilizer[_fertilizerID];\r\n        _newfertilizer.isBought=true;\r\n        emit fertilizerPurchase(_newfertilizer.fertilizerID);\r\n    }\r\n\r\n    //add new distributor\r\n    function addDist(\r\n        uint _distID,\r\n        string memory _distName,\r\n        uint _distContact,\r\n        string memory _distAddress\r\n    ) public {\r\n        Distributor storage _newdist = mdist[msg.sender];\r\n\r\n        require(!mdist[msg.sender].isValue);\r\n        _newdist.daddr = msg.sender;\r\n        _newdist.distID = _distID;\r\n        _newdist.distName = _distName;\r\n        _newdist.distContact = _distContact;\r\n        _newdist.distAddress = _distAddress;\r\n        _newdist.isValue = true;\r\n        distAdd.push(msg.sender);\r\n        distCount++;\r\n        emit distCreated(_newdist.distID, _distName, _distContact, _distAddress);\r\n    }\r\n\r\n    //crop purchased by distributor\r\n    function distAddCrop(\r\n        uint _cropID\r\n     ) public { \r\n        Crop storage _newcrop = mcrop[_cropID];\r\n         _newcrop.daddr = msg.sender;\r\n        _newcrop.isBought = true;\r\n        emit distCrop(_newcrop.cropID);\r\n    }\r\n\r\n    \r\n    \r\n    //add new retailer\r\n    function addRetail(\r\n        uint _retailID,\r\n        string memory _retailName,\r\n        uint _retailContact,\r\n        string memory _retailAddress\r\n    ) public {\r\n        Retailer storage _newretail = mretail[msg.sender];\r\n        require(!mretail[msg.sender].isValue);\r\n        _newretail.raddr = msg.sender;\r\n        _newretail.retailID = _retailID;\r\n        _newretail.retailName = _retailName;\r\n        _newretail.retailContact = _retailContact;\r\n        _newretail.retailAddress = _retailAddress;\r\n        _newretail.isValue = true;\r\n        retailCount++;\r\n        emit retailCreated(_newretail.retailID, _retailName, _retailContact, _retailAddress);\r\n    }\r\n\r\n    //purchase crop by retailer\r\n    function retailAddCrop(\r\n        uint _cropID\r\n     ) public { \r\n        Crop storage _newcrop = mcrop[_cropID];\r\n        _newcrop.raddr = msg.sender;\r\n        _newcrop.isBoughtByRetailer = true;\r\n        emit retailCrop(_newcrop.cropID);\r\n    }\r\n\r\n     //add new consumer\r\n    function addconsumer(\r\n        uint _consumerID,\r\n        string memory _consumerName,\r\n        uint _consumerContact,\r\n        string memory _consumerAddress\r\n    ) public {\r\n        Consumer storage _newconsumer = mconsumer[msg.sender];\r\n        require(!mconsumer[msg.sender].isValue);\r\n        _newconsumer.caddr = msg.sender;\r\n        _newconsumer.consumerID = _consumerID;\r\n        _newconsumer.consumerName = _consumerName;\r\n        _newconsumer.consumerContact = _consumerContact;\r\n        _newconsumer.consumerAddress = _consumerAddress;\r\n        _newconsumer.isValue = true;\r\n        consumerCount++;\r\n        emit consumerCreated(_newconsumer.consumerID, _consumerName, _consumerContact, _consumerAddress);\r\n    }\r\n\r\n    //purchase crop by consumer\r\n    function consumerAddCrop(\r\n        uint _cropID\r\n     ) public { \r\n        Crop storage _newcrop = mcrop[_cropID];\r\n        _newcrop.caddr = msg.sender;\r\n        _newcrop.isBoughtByConsumer = true;\r\n        emit consumerCrop(_newcrop.cropID);\r\n    }\r\n\r\n}",
  "sourcePath": "C:/Users/Tamilselvi/OneDrive/Desktop/supplychain/contracts/SupplyChain.sol",
  "compiler": {
    "name": "solc",
    "version": "0.5.16+commit.9c3226ce.Emscripten.clang"
  },
  "schemaVersion": "3.3.3",
  "updatedAt": "2021-03-10T09:09:45.906Z",
  "networkType": "ethereum",
  "devdoc": {
    "methods": {}
  },
  "userdoc": {
    "methods": {}
  }
}