{
  "contractName": "SupplyChain",
  "abi": [
    {
      "anonymous": false,
      "inputs": [
        {
          "indexed": false,
          "internalType": "uint256",
          "name": "consumerID",
          "type": "uint256"
        },
        {
          "indexed": false,
          "internalType": "string",
          "name": "consumerName",
          "type": "string"
        },
        {
          "indexed": false,
          "internalType": "uint256",
          "name": "consumerContact",
          "type": "uint256"
        },
        {
          "indexed": false,
          "internalType": "string",
          "name": "consumerAddress",
          "type": "string"
        }
      ],
      "name": "consumerCreated",
      "type": "event"
    },
    {
      "anonymous": false,
      "inputs": [
        {
          "indexed": false,
          "internalType": "uint256",
          "name": "cropID",
          "type": "uint256"
        }
      ],
      "name": "consumerCrop",
      "type": "event"
    },
    {
      "anonymous": false,
      "inputs": [
        {
          "indexed": false,
          "internalType": "uint256",
          "name": "cropID",
          "type": "uint256"
        },
        {
          "indexed": false,
          "internalType": "string",
          "name": "cropName",
          "type": "string"
        },
        {
          "indexed": false,
          "internalType": "uint256",
          "name": "quantity",
          "type": "uint256"
        },
        {
          "indexed": false,
          "internalType": "uint256",
          "name": "cropPrice",
          "type": "uint256"
        },
        {
          "indexed": false,
          "internalType": "address",
          "name": "faddr",
          "type": "address"
        }
      ],
      "name": "cropCreated",
      "type": "event"
    },
    {
      "anonymous": false,
      "inputs": [
        {
          "indexed": false,
          "internalType": "uint256",
          "name": "distID",
          "type": "uint256"
        },
        {
          "indexed": false,
          "internalType": "string",
          "name": "distName",
          "type": "string"
        },
        {
          "indexed": false,
          "internalType": "uint256",
          "name": "distContact",
          "type": "uint256"
        },
        {
          "indexed": false,
          "internalType": "string",
          "name": "distAddress",
          "type": "string"
        }
      ],
      "name": "distCreated",
      "type": "event"
    },
    {
      "anonymous": false,
      "inputs": [
        {
          "indexed": false,
          "internalType": "uint256",
          "name": "cropID",
          "type": "uint256"
        }
      ],
      "name": "distCrop",
      "type": "event"
    },
    {
      "anonymous": false,
      "inputs": [
        {
          "indexed": false,
          "internalType": "uint256",
          "name": "farmerID",
          "type": "uint256"
        },
        {
          "indexed": false,
          "internalType": "string",
          "name": "farmerName",
          "type": "string"
        },
        {
          "indexed": false,
          "internalType": "uint256",
          "name": "farmerContact",
          "type": "uint256"
        },
        {
          "indexed": false,
          "internalType": "string",
          "name": "farmerAddress",
          "type": "string"
        }
      ],
      "name": "farmerCreated",
      "type": "event"
    },
    {
      "anonymous": false,
      "inputs": [
        {
          "indexed": false,
          "internalType": "uint256",
          "name": "fertilizerID",
          "type": "uint256"
        },
        {
          "indexed": false,
          "internalType": "string",
          "name": "fertilizerName",
          "type": "string"
        },
        {
          "indexed": false,
          "internalType": "uint256",
          "name": "fertilizerCost",
          "type": "uint256"
        },
        {
          "indexed": false,
          "internalType": "uint256",
          "name": "fertilizerQuantity",
          "type": "uint256"
        }
      ],
      "name": "fertilizerCreated",
      "type": "event"
    },
    {
      "anonymous": false,
      "inputs": [
        {
          "indexed": false,
          "internalType": "uint256",
          "name": "fertilizerID",
          "type": "uint256"
        }
      ],
      "name": "fertilizerPurchase",
      "type": "event"
    },
    {
      "anonymous": false,
      "inputs": [
        {
          "indexed": false,
          "internalType": "uint256",
          "name": "landID",
          "type": "uint256"
        },
        {
          "indexed": false,
          "internalType": "string",
          "name": "landAddress",
          "type": "string"
        },
        {
          "indexed": false,
          "internalType": "string",
          "name": "soilType",
          "type": "string"
        },
        {
          "indexed": false,
          "internalType": "uint256",
          "name": "area",
          "type": "uint256"
        },
        {
          "indexed": false,
          "internalType": "uint256",
          "name": "cost",
          "type": "uint256"
        },
        {
          "indexed": false,
          "internalType": "uint256",
          "name": "duration",
          "type": "uint256"
        }
      ],
      "name": "landForLease",
      "type": "event"
    },
    {
      "anonymous": false,
      "inputs": [
        {
          "indexed": false,
          "internalType": "uint256",
          "name": "landID",
          "type": "uint256"
        },
        {
          "indexed": false,
          "internalType": "string",
          "name": "landAddress",
          "type": "string"
        },
        {
          "indexed": false,
          "internalType": "string",
          "name": "soilType",
          "type": "string"
        },
        {
          "indexed": false,
          "internalType": "uint256",
          "name": "area",
          "type": "uint256"
        },
        {
          "indexed": false,
          "internalType": "uint256",
          "name": "cost",
          "type": "uint256"
        }
      ],
      "name": "landForSale",
      "type": "event"
    },
    {
      "anonymous": false,
      "inputs": [
        {
          "indexed": false,
          "internalType": "uint256",
          "name": "landID",
          "type": "uint256"
        }
      ],
      "name": "landPurchaseLease",
      "type": "event"
    },
    {
      "anonymous": false,
      "inputs": [
        {
          "indexed": false,
          "internalType": "uint256",
          "name": "landID",
          "type": "uint256"
        }
      ],
      "name": "landPurchaseSale",
      "type": "event"
    },
    {
      "anonymous": false,
      "inputs": [
        {
          "indexed": false,
          "internalType": "uint256",
          "name": "landlordID",
          "type": "uint256"
        },
        {
          "indexed": false,
          "internalType": "string",
          "name": "landlordName",
          "type": "string"
        },
        {
          "indexed": false,
          "internalType": "uint256",
          "name": "landlordContact",
          "type": "uint256"
        },
        {
          "indexed": false,
          "internalType": "string",
          "name": "landlordAddress",
          "type": "string"
        }
      ],
      "name": "landlordCreated",
      "type": "event"
    },
    {
      "anonymous": false,
      "inputs": [
        {
          "indexed": false,
          "internalType": "uint256",
          "name": "retailID",
          "type": "uint256"
        },
        {
          "indexed": false,
          "internalType": "string",
          "name": "retailName",
          "type": "string"
        },
        {
          "indexed": false,
          "internalType": "uint256",
          "name": "retailContact",
          "type": "uint256"
        },
        {
          "indexed": false,
          "internalType": "string",
          "name": "retailAddress",
          "type": "string"
        }
      ],
      "name": "retailCreated",
      "type": "event"
    },
    {
      "anonymous": false,
      "inputs": [
        {
          "indexed": false,
          "internalType": "uint256",
          "name": "cropID",
          "type": "uint256"
        }
      ],
      "name": "retailCrop",
      "type": "event"
    },
    {
      "anonymous": false,
      "inputs": [
        {
          "indexed": false,
          "internalType": "uint256",
          "name": "seedID",
          "type": "uint256"
        },
        {
          "indexed": false,
          "internalType": "string",
          "name": "seedName",
          "type": "string"
        },
        {
          "indexed": false,
          "internalType": "uint256",
          "name": "seedcost",
          "type": "uint256"
        },
        {
          "indexed": false,
          "internalType": "uint256",
          "name": "seedQuantity",
          "type": "uint256"
        }
      ],
      "name": "seedCreated",
      "type": "event"
    },
    {
      "anonymous": false,
      "inputs": [
        {
          "indexed": false,
          "internalType": "uint256",
          "name": "dealerID",
          "type": "uint256"
        },
        {
          "indexed": false,
          "internalType": "string",
          "name": "dealerName",
          "type": "string"
        },
        {
          "indexed": false,
          "internalType": "uint256",
          "name": "dealerContact",
          "type": "uint256"
        },
        {
          "indexed": false,
          "internalType": "string",
          "name": "dealerAddress",
          "type": "string"
        }
      ],
      "name": "seedDealerCreated",
      "type": "event"
    },
    {
      "anonymous": false,
      "inputs": [
        {
          "indexed": false,
          "internalType": "uint256",
          "name": "seedID",
          "type": "uint256"
        }
      ],
      "name": "seedPurchase",
      "type": "event"
    },
    {
      "constant": true,
      "inputs": [],
      "name": "consumerCount",
      "outputs": [
        {
          "internalType": "uint256",
          "name": "",
          "type": "uint256"
        }
      ],
      "payable": false,
      "stateMutability": "view",
      "type": "function"
    },
    {
      "constant": true,
      "inputs": [
        {
          "internalType": "uint256",
          "name": "",
          "type": "uint256"
        }
      ],
      "name": "consumerCropArr",
      "outputs": [
        {
          "internalType": "uint256",
          "name": "",
          "type": "uint256"
        }
      ],
      "payable": false,
      "stateMutability": "view",
      "type": "function"
    },
    {
      "constant": true,
      "inputs": [],
      "name": "consumerCropCount",
      "outputs": [
        {
          "internalType": "uint256",
          "name": "",
          "type": "uint256"
        }
      ],
      "payable": false,
      "stateMutability": "view",
      "type": "function"
    },
    {
      "constant": true,
      "inputs": [
        {
          "internalType": "uint256",
          "name": "",
          "type": "uint256"
        }
      ],
      "name": "cropArr",
      "outputs": [
        {
          "internalType": "uint256",
          "name": "",
          "type": "uint256"
        }
      ],
      "payable": false,
      "stateMutability": "view",
      "type": "function"
    },
    {
      "constant": true,
      "inputs": [],
      "name": "cropCount",
      "outputs": [
        {
          "internalType": "uint256",
          "name": "",
          "type": "uint256"
        }
      ],
      "payable": false,
      "stateMutability": "view",
      "type": "function"
    },
    {
      "constant": true,
      "inputs": [],
      "name": "dealerCount",
      "outputs": [
        {
          "internalType": "uint256",
          "name": "",
          "type": "uint256"
        }
      ],
      "payable": false,
      "stateMutability": "view",
      "type": "function"
    },
    {
      "constant": true,
      "inputs": [
        {
          "internalType": "uint256",
          "name": "",
          "type": "uint256"
        }
      ],
      "name": "distAdd",
      "outputs": [
        {
          "internalType": "address",
          "name": "",
          "type": "address"
        }
      ],
      "payable": false,
      "stateMutability": "view",
      "type": "function"
    },
    {
      "constant": true,
      "inputs": [],
      "name": "distCount",
      "outputs": [
        {
          "internalType": "uint256",
          "name": "",
          "type": "uint256"
        }
      ],
      "payable": false,
      "stateMutability": "view",
      "type": "function"
    },
    {
      "constant": true,
      "inputs": [
        {
          "internalType": "uint256",
          "name": "",
          "type": "uint256"
        }
      ],
      "name": "distCropArr",
      "outputs": [
        {
          "internalType": "uint256",
          "name": "",
          "type": "uint256"
        }
      ],
      "payable": false,
      "stateMutability": "view",
      "type": "function"
    },
    {
      "constant": true,
      "inputs": [],
      "name": "distCropCount",
      "outputs": [
        {
          "internalType": "uint256",
          "name": "",
          "type": "uint256"
        }
      ],
      "payable": false,
      "stateMutability": "view",
      "type": "function"
    },
    {
      "constant": true,
      "inputs": [
        {
          "internalType": "uint256",
          "name": "",
          "type": "uint256"
        }
      ],
      "name": "farmerAdd",
      "outputs": [
        {
          "internalType": "address",
          "name": "",
          "type": "address"
        }
      ],
      "payable": false,
      "stateMutability": "view",
      "type": "function"
    },
    {
      "constant": true,
      "inputs": [],
      "name": "farmerCount",
      "outputs": [
        {
          "internalType": "uint256",
          "name": "",
          "type": "uint256"
        }
      ],
      "payable": false,
      "stateMutability": "view",
      "type": "function"
    },
    {
      "constant": true,
      "inputs": [
        {
          "internalType": "uint256",
          "name": "",
          "type": "uint256"
        }
      ],
      "name": "fertilizerArr",
      "outputs": [
        {
          "internalType": "uint256",
          "name": "",
          "type": "uint256"
        }
      ],
      "payable": false,
      "stateMutability": "view",
      "type": "function"
    },
    {
      "constant": true,
      "inputs": [],
      "name": "fertilizerCount",
      "outputs": [
        {
          "internalType": "uint256",
          "name": "",
          "type": "uint256"
        }
      ],
      "payable": false,
      "stateMutability": "view",
      "type": "function"
    },
    {
      "constant": true,
      "inputs": [],
      "name": "landlordCount",
      "outputs": [
        {
          "internalType": "uint256",
          "name": "",
          "type": "uint256"
        }
      ],
      "payable": false,
      "stateMutability": "view",
      "type": "function"
    },
    {
      "constant": true,
      "inputs": [
        {
          "internalType": "uint256",
          "name": "",
          "type": "uint256"
        }
      ],
      "name": "leaseArr",
      "outputs": [
        {
          "internalType": "uint256",
          "name": "",
          "type": "uint256"
        }
      ],
      "payable": false,
      "stateMutability": "view",
      "type": "function"
    },
    {
      "constant": true,
      "inputs": [],
      "name": "leaseCount",
      "outputs": [
        {
          "internalType": "uint256",
          "name": "",
          "type": "uint256"
        }
      ],
      "payable": false,
      "stateMutability": "view",
      "type": "function"
    },
    {
      "constant": true,
      "inputs": [
        {
          "internalType": "address",
          "name": "",
          "type": "address"
        }
      ],
      "name": "mconsumer",
      "outputs": [
        {
          "internalType": "uint256",
          "name": "consumerID",
          "type": "uint256"
        },
        {
          "internalType": "string",
          "name": "consumerName",
          "type": "string"
        },
        {
          "internalType": "uint256",
          "name": "consumerContact",
          "type": "uint256"
        },
        {
          "internalType": "string",
          "name": "consumerAddress",
          "type": "string"
        },
        {
          "internalType": "address",
          "name": "caddr",
          "type": "address"
        },
        {
          "internalType": "bool",
          "name": "isValue",
          "type": "bool"
        }
      ],
      "payable": false,
      "stateMutability": "view",
      "type": "function"
    },
    {
      "constant": true,
      "inputs": [
        {
          "internalType": "uint256",
          "name": "",
          "type": "uint256"
        }
      ],
      "name": "mcrop",
      "outputs": [
        {
          "internalType": "uint256",
          "name": "cropID",
          "type": "uint256"
        },
        {
          "internalType": "string",
          "name": "cropName",
          "type": "string"
        },
        {
          "internalType": "uint256",
          "name": "quantity",
          "type": "uint256"
        },
        {
          "internalType": "uint256",
          "name": "cropPrice",
          "type": "uint256"
        },
        {
          "internalType": "address",
          "name": "faddr",
          "type": "address"
        },
        {
          "internalType": "address",
          "name": "daddr",
          "type": "address"
        },
        {
          "internalType": "address",
          "name": "raddr",
          "type": "address"
        },
        {
          "internalType": "address",
          "name": "caddr",
          "type": "address"
        },
        {
          "internalType": "bool",
          "name": "isBought",
          "type": "bool"
        },
        {
          "internalType": "bool",
          "name": "isBoughtByRetailer",
          "type": "bool"
        },
        {
          "internalType": "bool",
          "name": "isBoughtByConsumer",
          "type": "bool"
        }
      ],
      "payable": false,
      "stateMutability": "view",
      "type": "function"
    },
    {
      "constant": true,
      "inputs": [
        {
          "internalType": "address",
          "name": "",
          "type": "address"
        }
      ],
      "name": "mdealer",
      "outputs": [
        {
          "internalType": "uint256",
          "name": "dealerID",
          "type": "uint256"
        },
        {
          "internalType": "string",
          "name": "dealerName",
          "type": "string"
        },
        {
          "internalType": "string",
          "name": "dealerAddress",
          "type": "string"
        },
        {
          "internalType": "uint256",
          "name": "dealerContact",
          "type": "uint256"
        },
        {
          "internalType": "address",
          "name": "saddr",
          "type": "address"
        },
        {
          "internalType": "bool",
          "name": "isValue",
          "type": "bool"
        }
      ],
      "payable": false,
      "stateMutability": "view",
      "type": "function"
    },
    {
      "constant": true,
      "inputs": [
        {
          "internalType": "address",
          "name": "",
          "type": "address"
        }
      ],
      "name": "mdist",
      "outputs": [
        {
          "internalType": "uint256",
          "name": "distID",
          "type": "uint256"
        },
        {
          "internalType": "string",
          "name": "distName",
          "type": "string"
        },
        {
          "internalType": "uint256",
          "name": "distContact",
          "type": "uint256"
        },
        {
          "internalType": "string",
          "name": "distAddress",
          "type": "string"
        },
        {
          "internalType": "address",
          "name": "daddr",
          "type": "address"
        },
        {
          "internalType": "bool",
          "name": "isValue",
          "type": "bool"
        }
      ],
      "payable": false,
      "stateMutability": "view",
      "type": "function"
    },
    {
      "constant": true,
      "inputs": [
        {
          "internalType": "address",
          "name": "",
          "type": "address"
        }
      ],
      "name": "mfarmer",
      "outputs": [
        {
          "internalType": "uint256",
          "name": "farmerID",
          "type": "uint256"
        },
        {
          "internalType": "string",
          "name": "farmerName",
          "type": "string"
        },
        {
          "internalType": "uint256",
          "name": "farmerContact",
          "type": "uint256"
        },
        {
          "internalType": "string",
          "name": "farmerAddress",
          "type": "string"
        },
        {
          "internalType": "address",
          "name": "faddr",
          "type": "address"
        },
        {
          "internalType": "bool",
          "name": "isValue",
          "type": "bool"
        }
      ],
      "payable": false,
      "stateMutability": "view",
      "type": "function"
    },
    {
      "constant": true,
      "inputs": [
        {
          "internalType": "uint256",
          "name": "",
          "type": "uint256"
        }
      ],
      "name": "mfertilizer",
      "outputs": [
        {
          "internalType": "uint256",
          "name": "fertilizerID",
          "type": "uint256"
        },
        {
          "internalType": "string",
          "name": "fertilizerName",
          "type": "string"
        },
        {
          "internalType": "uint256",
          "name": "fertilizerQuantity",
          "type": "uint256"
        },
        {
          "internalType": "bool",
          "name": "isBought",
          "type": "bool"
        },
        {
          "internalType": "bool",
          "name": "isSale",
          "type": "bool"
        },
        {
          "internalType": "uint256",
          "name": "fertilizerCost",
          "type": "uint256"
        },
        {
          "internalType": "address",
          "name": "saddr",
          "type": "address"
        },
        {
          "internalType": "address",
          "name": "faddr",
          "type": "address"
        }
      ],
      "payable": false,
      "stateMutability": "view",
      "type": "function"
    },
    {
      "constant": true,
      "inputs": [
        {
          "internalType": "address",
          "name": "",
          "type": "address"
        }
      ],
      "name": "mlandlord",
      "outputs": [
        {
          "internalType": "uint256",
          "name": "landlordID",
          "type": "uint256"
        },
        {
          "internalType": "string",
          "name": "landlordName",
          "type": "string"
        },
        {
          "internalType": "uint256",
          "name": "landlordContact",
          "type": "uint256"
        },
        {
          "internalType": "string",
          "name": "landlordAddress",
          "type": "string"
        },
        {
          "internalType": "address",
          "name": "laddr",
          "type": "address"
        },
        {
          "internalType": "bool",
          "name": "isValue",
          "type": "bool"
        }
      ],
      "payable": false,
      "stateMutability": "view",
      "type": "function"
    },
    {
      "constant": true,
      "inputs": [
        {
          "internalType": "uint256",
          "name": "",
          "type": "uint256"
        }
      ],
      "name": "mlland",
      "outputs": [
        {
          "internalType": "uint256",
          "name": "landID",
          "type": "uint256"
        },
        {
          "internalType": "string",
          "name": "landAddress",
          "type": "string"
        },
        {
          "internalType": "string",
          "name": "soilType",
          "type": "string"
        },
        {
          "internalType": "uint256",
          "name": "area",
          "type": "uint256"
        },
        {
          "internalType": "uint256",
          "name": "cost",
          "type": "uint256"
        },
        {
          "internalType": "uint256",
          "name": "duration",
          "type": "uint256"
        },
        {
          "internalType": "bool",
          "name": "isBought",
          "type": "bool"
        },
        {
          "internalType": "bool",
          "name": "isLease",
          "type": "bool"
        },
        {
          "internalType": "address",
          "name": "laddr",
          "type": "address"
        },
        {
          "internalType": "address",
          "name": "faddr",
          "type": "address"
        }
      ],
      "payable": false,
      "stateMutability": "view",
      "type": "function"
    },
    {
      "constant": true,
      "inputs": [
        {
          "internalType": "address",
          "name": "",
          "type": "address"
        }
      ],
      "name": "mretail",
      "outputs": [
        {
          "internalType": "uint256",
          "name": "retailID",
          "type": "uint256"
        },
        {
          "internalType": "string",
          "name": "retailName",
          "type": "string"
        },
        {
          "internalType": "uint256",
          "name": "retailContact",
          "type": "uint256"
        },
        {
          "internalType": "string",
          "name": "retailAddress",
          "type": "string"
        },
        {
          "internalType": "address",
          "name": "raddr",
          "type": "address"
        },
        {
          "internalType": "bool",
          "name": "isValue",
          "type": "bool"
        }
      ],
      "payable": false,
      "stateMutability": "view",
      "type": "function"
    },
    {
      "constant": true,
      "inputs": [
        {
          "internalType": "uint256",
          "name": "",
          "type": "uint256"
        }
      ],
      "name": "mseed",
      "outputs": [
        {
          "internalType": "uint256",
          "name": "seedID",
          "type": "uint256"
        },
        {
          "internalType": "string",
          "name": "seedName",
          "type": "string"
        },
        {
          "internalType": "uint256",
          "name": "seedQuantity",
          "type": "uint256"
        },
        {
          "internalType": "bool",
          "name": "isBought",
          "type": "bool"
        },
        {
          "internalType": "bool",
          "name": "isSale",
          "type": "bool"
        },
        {
          "internalType": "uint256",
          "name": "seedcost",
          "type": "uint256"
        },
        {
          "internalType": "address",
          "name": "saddr",
          "type": "address"
        },
        {
          "internalType": "address",
          "name": "faddr",
          "type": "address"
        }
      ],
      "payable": false,
      "stateMutability": "view",
      "type": "function"
    },
    {
      "constant": true,
      "inputs": [
        {
          "internalType": "uint256",
          "name": "",
          "type": "uint256"
        }
      ],
      "name": "msland",
      "outputs": [
        {
          "internalType": "uint256",
          "name": "landID",
          "type": "uint256"
        },
        {
          "internalType": "string",
          "name": "landAddress",
          "type": "string"
        },
        {
          "internalType": "string",
          "name": "soilType",
          "type": "string"
        },
        {
          "internalType": "uint256",
          "name": "area",
          "type": "uint256"
        },
        {
          "internalType": "uint256",
          "name": "cost",
          "type": "uint256"
        },
        {
          "internalType": "bool",
          "name": "isBought",
          "type": "bool"
        },
        {
          "internalType": "bool",
          "name": "isSale",
          "type": "bool"
        },
        {
          "internalType": "address",
          "name": "laddr",
          "type": "address"
        },
        {
          "internalType": "address",
          "name": "faddr",
          "type": "address"
        }
      ],
      "payable": false,
      "stateMutability": "view",
      "type": "function"
    },
    {
      "constant": true,
      "inputs": [
        {
          "internalType": "uint256",
          "name": "",
          "type": "uint256"
        }
      ],
      "name": "retailAdd",
      "outputs": [
        {
          "internalType": "address",
          "name": "",
          "type": "address"
        }
      ],
      "payable": false,
      "stateMutability": "view",
      "type": "function"
    },
    {
      "constant": true,
      "inputs": [],
      "name": "retailCount",
      "outputs": [
        {
          "internalType": "uint256",
          "name": "",
          "type": "uint256"
        }
      ],
      "payable": false,
      "stateMutability": "view",
      "type": "function"
    },
    {
      "constant": true,
      "inputs": [],
      "name": "retailCropCount",
      "outputs": [
        {
          "internalType": "uint256",
          "name": "",
          "type": "uint256"
        }
      ],
      "payable": false,
      "stateMutability": "view",
      "type": "function"
    },
    {
      "constant": true,
      "inputs": [
        {
          "internalType": "uint256",
          "name": "",
          "type": "uint256"
        }
      ],
      "name": "saleArr",
      "outputs": [
        {
          "internalType": "uint256",
          "name": "",
          "type": "uint256"
        }
      ],
      "payable": false,
      "stateMutability": "view",
      "type": "function"
    },
    {
      "constant": true,
      "inputs": [],
      "name": "saleCount",
      "outputs": [
        {
          "internalType": "uint256",
          "name": "",
          "type": "uint256"
        }
      ],
      "payable": false,
      "stateMutability": "view",
      "type": "function"
    },
    {
      "constant": true,
      "inputs": [
        {
          "internalType": "uint256",
          "name": "",
          "type": "uint256"
        }
      ],
      "name": "seedArr",
      "outputs": [
        {
          "internalType": "uint256",
          "name": "",
          "type": "uint256"
        }
      ],
      "payable": false,
      "stateMutability": "view",
      "type": "function"
    },
    {
      "constant": true,
      "inputs": [],
      "name": "seedCount",
      "outputs": [
        {
          "internalType": "uint256",
          "name": "",
          "type": "uint256"
        }
      ],
      "payable": false,
      "stateMutability": "view",
      "type": "function"
    },
    {
      "constant": true,
      "inputs": [
        {
          "internalType": "uint256",
          "name": "",
          "type": "uint256"
        }
      ],
      "name": "temp",
      "outputs": [
        {
          "internalType": "uint256",
          "name": "",
          "type": "uint256"
        }
      ],
      "payable": false,
      "stateMutability": "view",
      "type": "function"
    },
    {
      "constant": false,
      "inputs": [
        {
          "internalType": "uint256",
          "name": "_landlordID",
          "type": "uint256"
        },
        {
          "internalType": "string",
          "name": "_landlordName",
          "type": "string"
        },
        {
          "internalType": "uint256",
          "name": "_landlordContact",
          "type": "uint256"
        },
        {
          "internalType": "string",
          "name": "_landlordAddress",
          "type": "string"
        }
      ],
      "name": "newLandlord",
      "outputs": [],
      "payable": false,
      "stateMutability": "nonpayable",
      "type": "function"
    },
    {
      "constant": false,
      "inputs": [
        {
          "internalType": "uint256",
          "name": "_landID",
          "type": "uint256"
        },
        {
          "internalType": "string",
          "name": "_landAddress",
          "type": "string"
        },
        {
          "internalType": "string",
          "name": "_soilType",
          "type": "string"
        },
        {
          "internalType": "uint256",
          "name": "_area",
          "type": "uint256"
        },
        {
          "internalType": "uint256",
          "name": "_cost",
          "type": "uint256"
        }
      ],
      "name": "addLandSale",
      "outputs": [],
      "payable": false,
      "stateMutability": "nonpayable",
      "type": "function"
    },
    {
      "constant": false,
      "inputs": [
        {
          "internalType": "uint256",
          "name": "_landID",
          "type": "uint256"
        },
        {
          "internalType": "string",
          "name": "_landAddress",
          "type": "string"
        },
        {
          "internalType": "string",
          "name": "_soilType",
          "type": "string"
        },
        {
          "internalType": "uint256",
          "name": "_area",
          "type": "uint256"
        },
        {
          "internalType": "uint256",
          "name": "_cost",
          "type": "uint256"
        },
        {
          "internalType": "uint256",
          "name": "_duration",
          "type": "uint256"
        }
      ],
      "name": "addLandLease",
      "outputs": [],
      "payable": false,
      "stateMutability": "nonpayable",
      "type": "function"
    },
    {
      "constant": false,
      "inputs": [
        {
          "internalType": "uint256",
          "name": "_dealerID",
          "type": "uint256"
        },
        {
          "internalType": "string",
          "name": "_dealerName",
          "type": "string"
        },
        {
          "internalType": "uint256",
          "name": "_dealerContact",
          "type": "uint256"
        },
        {
          "internalType": "string",
          "name": "_dealerAddress",
          "type": "string"
        }
      ],
      "name": "newSeedDealer",
      "outputs": [],
      "payable": false,
      "stateMutability": "nonpayable",
      "type": "function"
    },
    {
      "constant": false,
      "inputs": [
        {
          "internalType": "uint256",
          "name": "_seedID",
          "type": "uint256"
        },
        {
          "internalType": "string",
          "name": "_seedName",
          "type": "string"
        },
        {
          "internalType": "uint256",
          "name": "_seedcost",
          "type": "uint256"
        },
        {
          "internalType": "uint256",
          "name": "_seedQuantity",
          "type": "uint256"
        }
      ],
      "name": "newSeed",
      "outputs": [],
      "payable": false,
      "stateMutability": "nonpayable",
      "type": "function"
    },
    {
      "constant": false,
      "inputs": [
        {
          "internalType": "uint256",
          "name": "_fertilizerID",
          "type": "uint256"
        },
        {
          "internalType": "string",
          "name": "_fertilizerName",
          "type": "string"
        },
        {
          "internalType": "uint256",
          "name": "_fertilizerCost",
          "type": "uint256"
        },
        {
          "internalType": "uint256",
          "name": "_fertilizerQuantity",
          "type": "uint256"
        }
      ],
      "name": "newFertilizer",
      "outputs": [],
      "payable": false,
      "stateMutability": "nonpayable",
      "type": "function"
    },
    {
      "constant": false,
      "inputs": [
        {
          "internalType": "uint256",
          "name": "_farmerID",
          "type": "uint256"
        },
        {
          "internalType": "string",
          "name": "_farmerName",
          "type": "string"
        },
        {
          "internalType": "uint256",
          "name": "_farmerContact",
          "type": "uint256"
        },
        {
          "internalType": "string",
          "name": "_farmerAddress",
          "type": "string"
        }
      ],
      "name": "newFarmer",
      "outputs": [],
      "payable": false,
      "stateMutability": "nonpayable",
      "type": "function"
    },
    {
      "constant": false,
      "inputs": [
        {
          "internalType": "uint256",
          "name": "_cropID",
          "type": "uint256"
        },
        {
          "internalType": "string",
          "name": "_cropName",
          "type": "string"
        },
        {
          "internalType": "uint256",
          "name": "_quantity",
          "type": "uint256"
        },
        {
          "internalType": "uint256",
          "name": "_cropPrice",
          "type": "uint256"
        }
      ],
      "name": "addCrop",
      "outputs": [],
      "payable": false,
      "stateMutability": "nonpayable",
      "type": "function"
    },
    {
      "constant": false,
      "inputs": [
        {
          "internalType": "uint256",
          "name": "_landID",
          "type": "uint256"
        }
      ],
      "name": "purchaseLandLease",
      "outputs": [],
      "payable": false,
      "stateMutability": "nonpayable",
      "type": "function"
    },
    {
      "constant": false,
      "inputs": [
        {
          "internalType": "uint256",
          "name": "_landID",
          "type": "uint256"
        }
      ],
      "name": "purchaseLandSale",
      "outputs": [],
      "payable": false,
      "stateMutability": "nonpayable",
      "type": "function"
    },
    {
      "constant": false,
      "inputs": [
        {
          "internalType": "uint256",
          "name": "_seedID",
          "type": "uint256"
        }
      ],
      "name": "purchaseSeed",
      "outputs": [],
      "payable": false,
      "stateMutability": "nonpayable",
      "type": "function"
    },
    {
      "constant": false,
      "inputs": [
        {
          "internalType": "uint256",
          "name": "_fertilizerID",
          "type": "uint256"
        }
      ],
      "name": "purchaseFertilizer",
      "outputs": [],
      "payable": false,
      "stateMutability": "nonpayable",
      "type": "function"
    },
    {
      "constant": false,
      "inputs": [
        {
          "internalType": "uint256",
          "name": "_distID",
          "type": "uint256"
        },
        {
          "internalType": "string",
          "name": "_distName",
          "type": "string"
        },
        {
          "internalType": "uint256",
          "name": "_distContact",
          "type": "uint256"
        },
        {
          "internalType": "string",
          "name": "_distAddress",
          "type": "string"
        }
      ],
      "name": "addDist",
      "outputs": [],
      "payable": false,
      "stateMutability": "nonpayable",
      "type": "function"
    },
    {
      "constant": false,
      "inputs": [
        {
          "internalType": "uint256",
          "name": "_cropID",
          "type": "uint256"
        }
      ],
      "name": "distAddCrop",
      "outputs": [],
      "payable": false,
      "stateMutability": "nonpayable",
      "type": "function"
    },
    {
      "constant": false,
      "inputs": [
        {
          "internalType": "uint256",
          "name": "_retailID",
          "type": "uint256"
        },
        {
          "internalType": "string",
          "name": "_retailName",
          "type": "string"
        },
        {
          "internalType": "uint256",
          "name": "_retailContact",
          "type": "uint256"
        },
        {
          "internalType": "string",
          "name": "_retailAddress",
          "type": "string"
        }
      ],
      "name": "addRetail",
      "outputs": [],
      "payable": false,
      "stateMutability": "nonpayable",
      "type": "function"
    },
    {
      "constant": false,
      "inputs": [
        {
          "internalType": "uint256",
          "name": "_cropID",
          "type": "uint256"
        }
      ],
      "name": "retailAddCrop",
      "outputs": [],
      "payable": false,
      "stateMutability": "nonpayable",
      "type": "function"
    },
    {
      "constant": false,
      "inputs": [
        {
          "internalType": "uint256",
          "name": "_consumerID",
          "type": "uint256"
        },
        {
          "internalType": "string",
          "name": "_consumerName",
          "type": "string"
        },
        {
          "internalType": "uint256",
          "name": "_consumerContact",
          "type": "uint256"
        },
        {
          "internalType": "string",
          "name": "_consumerAddress",
          "type": "string"
        }
      ],
      "name": "addconsumer",
      "outputs": [],
      "payable": false,
      "stateMutability": "nonpayable",
      "type": "function"
    },
    {
      "constant": false,
      "inputs": [
        {
          "internalType": "uint256",
          "name": "_cropID",
          "type": "uint256"
        }
      ],
      "name": "consumerAddCrop",
      "outputs": [],
      "payable": false,
      "stateMutability": "nonpayable",
      "type": "function"
    }
  ],
  "bytecode": "0x608060405234801561001057600080fd5b506158e080620000216000396000f3fe608060405234801561001057600080fd5b50600436106103425760003560e01c8063a1e89aec116101b8578063d4cca0c511610104578063ef096e2b116100a2578063fa1d9d2e1161007c578063fa1d9d2e14612390578063fa81086514612469578063fc279e64146125de578063fdd545e31461262057610342565b8063ef096e2b146121ce578063f0349832146121fc578063f2c526751461236257610342565b8063e96ba7f2116100de578063e96ba7f214611fef578063ea8f39f614612164578063ea97ab4b14612192578063edfb2242146121b057610342565b8063d4cca0c514611e6b578063d544a90c14611e99578063dfd55a2c14611fd157610342565b8063bcd94def11610171578063c078c1b51161014b578063c078c1b514611dbf578063c684c23114611ddd578063cd9428c614611dfb578063d21fe1cc14611e2957610342565b8063bcd94def14611b58578063bd45b39714611cc8578063bd850f0c14611ce657610342565b8063a1e89aec146118a3578063b039da0f146118c1578063b4c0498b14611a6c578063b5eaf48114611a8a578063b5f4f48114611acc578063b9dd828614611b3a57610342565b80634f256d6111610292578063808d0356116102305780638bed5bd21161020a5780638bed5bd2146117e35780638d8a5b7d1461180157806396e53c4f1461184357806396e68ce71461188557610342565b8063808d0356146114f457806381f28d8014611536578063832a31c61461166e57610342565b806362ec2cd81161026c57806362ec2cd8146112f1578063675f3191146114665780636c3755ad14611494578063762347bf146114d657610342565b80634f256d6114610fb75780634f3afe831461111d57806350a517801461128357610342565b80633d15a00e116102ff57806343f197ba116102d957806343f197ba14610c1c57806346f96d9a14610dc557806349045f5714610e335780634d3fdae914610f9957610342565b80633d15a00e1461079d5780633f67865c146109415780634228049314610ab657610342565b806306552091146103475780631c4860f4146103655780631ff8f740146104da57806325c99da11461050857806330abaf001461054a5780633c2267ff14610623575b600080fd5b61034f612786565b6040518082815260200191505060405180910390f35b6103a76004803603602081101561037b57600080fd5b81019080803573ffffffffffffffffffffffffffffffffffffffff16906020019092919050505061278c565b6040518087815260200180602001868152602001806020018573ffffffffffffffffffffffffffffffffffffffff1673ffffffffffffffffffffffffffffffffffffffff16815260200184151515158152602001838103835288818151815260200191508051906020019080838360005b83811015610433578082015181840152602081019050610418565b50505050905090810190601f1680156104605780820380516001836020036101000a031916815260200191505b50838103825286818151815260200191508051906020019080838360005b8381101561049957808201518184015260208101905061047e565b50505050905090810190601f1680156104c65780820380516001836020036101000a031916815260200191505b509850505050505050505060405180910390f35b610506600480360360208110156104f057600080fd5b8101908080359060200190929190505050612925565b005b6105346004803603602081101561051e57600080fd5b81019080803590602001909291905050506129db565b6040518082815260200191505060405180910390f35b6106216004803603608081101561056057600080fd5b81019080803590602001909291908035906020019064010000000081111561058757600080fd5b82018360208201111561059957600080fd5b803590602001918460018302840111640100000000831117156105bb57600080fd5b91908080601f016020809104026020016040519081016040528093929190818152602001838380828437600081840152601f19601f82011690508083019250505050505050919291929080359060200190929190803590602001909291905050506129fc565b005b61079b600480360360c081101561063957600080fd5b81019080803590602001909291908035906020019064010000000081111561066057600080fd5b82018360208201111561067257600080fd5b8035906020019184600183028401116401000000008311171561069457600080fd5b91908080601f016020809104026020016040519081016040528093929190818152602001838380828437600081840152601f19601f820116905080830192505050505050509192919290803590602001906401000000008111156106f757600080fd5b82018360208201111561070957600080fd5b8035906020019184600183028401116401000000008311171561072b57600080fd5b91908080601f016020809104026020016040519081016040528093929190818152602001838380828437600081840152601f19601f820116905080830192505050505050509192919290803590602001909291908035906020019092919080359060200190929190505050612bdf565b005b6107c9600480360360208110156107b357600080fd5b8101908080359060200190929190505050612e03565b604051808a8152602001806020018060200189815260200188815260200187151515158152602001861515151581526020018573ffffffffffffffffffffffffffffffffffffffff1673ffffffffffffffffffffffffffffffffffffffff1681526020018473ffffffffffffffffffffffffffffffffffffffff1673ffffffffffffffffffffffffffffffffffffffff16815260200183810383528b818151815260200191508051906020019080838360005b8381101561089757808201518184015260208101905061087c565b50505050905090810190601f1680156108c45780820380516001836020036101000a031916815260200191505b5083810382528a818151815260200191508051906020019080838360005b838110156108fd5780820151818401526020810190506108e2565b50505050905090810190601f16801561092a5780820380516001836020036101000a031916815260200191505b509b50505050505050505050505060405180910390f35b6109836004803603602081101561095757600080fd5b81019080803573ffffffffffffffffffffffffffffffffffffffff169060200190929190505050612fdb565b6040518087815260200180602001868152602001806020018573ffffffffffffffffffffffffffffffffffffffff1673ffffffffffffffffffffffffffffffffffffffff16815260200184151515158152602001838103835288818151815260200191508051906020019080838360005b83811015610a0f5780820151818401526020810190506109f4565b50505050905090810190601f168015610a3c5780820380516001836020036101000a031916815260200191505b50838103825286818151815260200191508051906020019080838360005b83811015610a75578082015181840152602081019050610a5a565b50505050905090810190601f168015610aa25780820380516001836020036101000a031916815260200191505b509850505050505050505060405180910390f35b610c1a60048036036080811015610acc57600080fd5b810190808035906020019092919080359060200190640100000000811115610af357600080fd5b820183602082011115610b0557600080fd5b80359060200191846001830284011164010000000083111715610b2757600080fd5b91908080601f016020809104026020016040519081016040528093929190818152602001838380828437600081840152601f19601f8201169050808301925050505050505091929192908035906020019092919080359060200190640100000000811115610b9457600080fd5b820183602082011115610ba657600080fd5b80359060200191846001830284011164010000000083111715610bc857600080fd5b91908080601f016020809104026020016040519081016040528093929190818152602001838380828437600081840152601f19601f820116905080830192505050505050509192919290505050613174565b005b610c4860048036036020811015610c3257600080fd5b81019080803590602001909291905050506133e9565b604051808c8152602001806020018b81526020018a81526020018973ffffffffffffffffffffffffffffffffffffffff1673ffffffffffffffffffffffffffffffffffffffff1681526020018873ffffffffffffffffffffffffffffffffffffffff1673ffffffffffffffffffffffffffffffffffffffff1681526020018773ffffffffffffffffffffffffffffffffffffffff1673ffffffffffffffffffffffffffffffffffffffff1681526020018673ffffffffffffffffffffffffffffffffffffffff1673ffffffffffffffffffffffffffffffffffffffff16815260200185151515158152602001841515151581526020018315151515815260200182810382528c818151815260200191508051906020019080838360005b83811015610d80578082015181840152602081019050610d65565b50505050905090810190601f168015610dad5780820380516001836020036101000a031916815260200191505b509c5050505050505050505050505060405180910390f35b610df160048036036020811015610ddb57600080fd5b8101908080359060200190929190505050613582565b604051808273ffffffffffffffffffffffffffffffffffffffff1673ffffffffffffffffffffffffffffffffffffffff16815260200191505060405180910390f35b610f9760048036036080811015610e4957600080fd5b810190808035906020019092919080359060200190640100000000811115610e7057600080fd5b820183602082011115610e8257600080fd5b80359060200191846001830284011164010000000083111715610ea457600080fd5b91908080601f016020809104026020016040519081016040528093929190818152602001838380828437600081840152601f19601f8201169050808301925050505050505091929192908035906020019092919080359060200190640100000000811115610f1157600080fd5b820183602082011115610f2357600080fd5b80359060200191846001830284011164010000000083111715610f4557600080fd5b91908080601f016020809104026020016040519081016040528093929190818152602001838380828437600081840152601f19601f8201169050808301925050505050505091929192905050506135be565b005b610fa1613835565b6040518082815260200191505060405180910390f35b61111b60048036036080811015610fcd57600080fd5b810190808035906020019092919080359060200190640100000000811115610ff457600080fd5b82018360208201111561100657600080fd5b8035906020019184600183028401116401000000008311171561102857600080fd5b91908080601f016020809104026020016040519081016040528093929190818152602001838380828437600081840152601f19601f820116905080830192505050505050509192919290803590602001909291908035906020019064010000000081111561109557600080fd5b8201836020820111156110a757600080fd5b803590602001918460018302840111640100000000831117156110c957600080fd5b91908080601f016020809104026020016040519081016040528093929190818152602001838380828437600081840152601f19601f82011690508083019250505050505050919291929050505061383b565b005b6112816004803603608081101561113357600080fd5b81019080803590602001909291908035906020019064010000000081111561115a57600080fd5b82018360208201111561116c57600080fd5b8035906020019184600183028401116401000000008311171561118e57600080fd5b91908080601f016020809104026020016040519081016040528093929190818152602001838380828437600081840152601f19601f82011690508083019250505050505050919291929080359060200190929190803590602001906401000000008111156111fb57600080fd5b82018360208201111561120d57600080fd5b8035906020019184600183028401116401000000008311171561122f57600080fd5b91908080601f016020809104026020016040519081016040528093929190818152602001838380828437600081840152601f19601f820116905080830192505050505050509192919290505050613ab2565b005b6112af6004803603602081101561129957600080fd5b8101908080359060200190929190505050613d8f565b604051808273ffffffffffffffffffffffffffffffffffffffff1673ffffffffffffffffffffffffffffffffffffffff16815260200191505060405180910390f35b6113336004803603602081101561130757600080fd5b81019080803573ffffffffffffffffffffffffffffffffffffffff169060200190929190505050613dcb565b6040518087815260200180602001868152602001806020018573ffffffffffffffffffffffffffffffffffffffff1673ffffffffffffffffffffffffffffffffffffffff16815260200184151515158152602001838103835288818151815260200191508051906020019080838360005b838110156113bf5780820151818401526020810190506113a4565b50505050905090810190601f1680156113ec5780820380516001836020036101000a031916815260200191505b50838103825286818151815260200191508051906020019080838360005b8381101561142557808201518184015260208101905061140a565b50505050905090810190601f1680156114525780820380516001836020036101000a031916815260200191505b509850505050505050505060405180910390f35b6114926004803603602081101561147c57600080fd5b8101908080359060200190929190505050613f64565b005b6114c0600480360360208110156114aa57600080fd5b8101908080359060200190929190505050613fd7565b6040518082815260200191505060405180910390f35b6114de613ff8565b6040518082815260200191505060405180910390f35b6115206004803603602081101561150a57600080fd5b8101908080359060200190929190505050613ffe565b6040518082815260200191505060405180910390f35b6115626004803603602081101561154c57600080fd5b810190808035906020019092919050505061401f565b604051808981526020018060200188815260200187151515158152602001861515151581526020018581526020018473ffffffffffffffffffffffffffffffffffffffff1673ffffffffffffffffffffffffffffffffffffffff1681526020018373ffffffffffffffffffffffffffffffffffffffff1673ffffffffffffffffffffffffffffffffffffffff168152602001828103825289818151815260200191508051906020019080838360005b8381101561162c578082015181840152602081019050611611565b50505050905090810190601f1680156116595780820380516001836020036101000a031916815260200191505b50995050505050505050505060405180910390f35b6116b06004803603602081101561168457600080fd5b81019080803573ffffffffffffffffffffffffffffffffffffffff169060200190929190505050614159565b6040518087815260200180602001868152602001806020018573ffffffffffffffffffffffffffffffffffffffff1673ffffffffffffffffffffffffffffffffffffffff16815260200184151515158152602001838103835288818151815260200191508051906020019080838360005b8381101561173c578082015181840152602081019050611721565b50505050905090810190601f1680156117695780820380516001836020036101000a031916815260200191505b50838103825286818151815260200191508051906020019080838360005b838110156117a2578082015181840152602081019050611787565b50505050905090810190601f1680156117cf5780820380516001836020036101000a031916815260200191505b509850505050505050505060405180910390f35b6117eb6142f2565b6040518082815260200191505060405180910390f35b61182d6004803603602081101561181757600080fd5b81019080803590602001909291905050506142f8565b6040518082815260200191505060405180910390f35b61186f6004803603602081101561185957600080fd5b8101908080359060200190929190505050614319565b6040518082815260200191505060405180910390f35b61188d61433a565b6040518082815260200191505060405180910390f35b6118ab614340565b6040518082815260200191505060405180910390f35b6118ed600480360360208110156118d757600080fd5b8101908080359060200190929190505050614346565b604051808b815260200180602001806020018a815260200189815260200188815260200187151515158152602001861515151581526020018573ffffffffffffffffffffffffffffffffffffffff1673ffffffffffffffffffffffffffffffffffffffff1681526020018473ffffffffffffffffffffffffffffffffffffffff1673ffffffffffffffffffffffffffffffffffffffff16815260200183810383528c818151815260200191508051906020019080838360005b838110156119c15780820151818401526020810190506119a6565b50505050905090810190601f1680156119ee5780820380516001836020036101000a031916815260200191505b5083810382528b818151815260200191508051906020019080838360005b83811015611a27578082015181840152602081019050611a0c565b50505050905090810190601f168015611a545780820380516001836020036101000a031916815260200191505b509c5050505050505050505050505060405180910390f35b611a74614524565b6040518082815260200191505060405180910390f35b611ab660048036036020811015611aa057600080fd5b810190808035906020019092919050505061452a565b6040518082815260200191505060405180910390f35b611af860048036036020811015611ae257600080fd5b810190808035906020019092919050505061454b565b604051808273ffffffffffffffffffffffffffffffffffffffff1673ffffffffffffffffffffffffffffffffffffffff16815260200191505060405180910390f35b611b42614587565b6040518082815260200191505060405180910390f35b611cc6600480360360a0811015611b6e57600080fd5b810190808035906020019092919080359060200190640100000000811115611b9557600080fd5b820183602082011115611ba757600080fd5b80359060200191846001830284011164010000000083111715611bc957600080fd5b91908080601f016020809104026020016040519081016040528093929190818152602001838380828437600081840152601f19601f82011690508083019250505050505050919291929080359060200190640100000000811115611c2c57600080fd5b820183602082011115611c3e57600080fd5b80359060200191846001830284011164010000000083111715611c6057600080fd5b91908080601f016020809104026020016040519081016040528093929190818152602001838380828437600081840152601f19601f820116905080830192505050505050509192919290803590602001909291908035906020019092919050505061458d565b005b611cd061479f565b6040518082815260200191505060405180910390f35b611dbd60048036036080811015611cfc57600080fd5b810190808035906020019092919080359060200190640100000000811115611d2357600080fd5b820183602082011115611d3557600080fd5b80359060200191846001830284011164010000000083111715611d5757600080fd5b91908080601f016020809104026020016040519081016040528093929190818152602001838380828437600081840152601f19601f82011690508083019250505050505050919291929080359060200190929190803590602001909291905050506147a5565b005b611dc7614930565b6040518082815260200191505060405180910390f35b611de5614936565b6040518082815260200191505060405180910390f35b611e2760048036036020811015611e1157600080fd5b810190808035906020019092919050505061493c565b005b611e5560048036036020811015611e3f57600080fd5b81019080803590602001909291905050506149af565b6040518082815260200191505060405180910390f35b611e9760048036036020811015611e8157600080fd5b81019080803590602001909291905050506149d0565b005b611ec560048036036020811015611eaf57600080fd5b8101908080359060200190929190505050614a43565b604051808981526020018060200188815260200187151515158152602001861515151581526020018581526020018473ffffffffffffffffffffffffffffffffffffffff1673ffffffffffffffffffffffffffffffffffffffff1681526020018373ffffffffffffffffffffffffffffffffffffffff1673ffffffffffffffffffffffffffffffffffffffff168152602001828103825289818151815260200191508051906020019080838360005b83811015611f8f578082015181840152602081019050611f74565b50505050905090810190601f168015611fbc5780820380516001836020036101000a031916815260200191505b50995050505050505050505060405180910390f35b611fd9614b7d565b6040518082815260200191505060405180910390f35b6120316004803603602081101561200557600080fd5b81019080803573ffffffffffffffffffffffffffffffffffffffff169060200190929190505050614b83565b6040518087815260200180602001806020018681526020018573ffffffffffffffffffffffffffffffffffffffff1673ffffffffffffffffffffffffffffffffffffffff16815260200184151515158152602001838103835288818151815260200191508051906020019080838360005b838110156120bd5780820151818401526020810190506120a2565b50505050905090810190601f1680156120ea5780820380516001836020036101000a031916815260200191505b50838103825287818151815260200191508051906020019080838360005b83811015612123578082015181840152602081019050612108565b50505050905090810190601f1680156121505780820380516001836020036101000a031916815260200191505b509850505050505050505060405180910390f35b6121906004803603602081101561217a57600080fd5b8101908080359060200190929190505050614d1c565b005b61219a614dd2565b6040518082815260200191505060405180910390f35b6121b8614dd8565b6040518082815260200191505060405180910390f35b6121fa600480360360208110156121e457600080fd5b8101908080359060200190929190505050614dde565b005b6123606004803603608081101561221257600080fd5b81019080803590602001909291908035906020019064010000000081111561223957600080fd5b82018360208201111561224b57600080fd5b8035906020019184600183028401116401000000008311171561226d57600080fd5b91908080601f016020809104026020016040519081016040528093929190818152602001838380828437600081840152601f19601f82011690508083019250505050505050919291929080359060200190929190803590602001906401000000008111156122da57600080fd5b8201836020820111156122ec57600080fd5b8035906020019184600183028401116401000000008311171561230e57600080fd5b91908080601f016020809104026020016040519081016040528093929190818152602001838380828437600081840152601f19601f820116905080830192505050505050509192919290505050614e51565b005b61238e6004803603602081101561237857600080fd5b810190808035906020019092919050505061512e565b005b612467600480360360808110156123a657600080fd5b8101908080359060200190929190803590602001906401000000008111156123cd57600080fd5b8201836020820111156123df57600080fd5b8035906020019184600183028401116401000000008311171561240157600080fd5b91908080601f016020809104026020016040519081016040528093929190818152602001838380828437600081840152601f19601f82011690508083019250505050505050919291929080359060200190929190803590602001909291905050506151e4565b005b6124ab6004803603602081101561247f57600080fd5b81019080803573ffffffffffffffffffffffffffffffffffffffff16906020019092919050505061536f565b6040518087815260200180602001868152602001806020018573ffffffffffffffffffffffffffffffffffffffff1673ffffffffffffffffffffffffffffffffffffffff16815260200184151515158152602001838103835288818151815260200191508051906020019080838360005b8381101561253757808201518184015260208101905061251c565b50505050905090810190601f1680156125645780820380516001836020036101000a031916815260200191505b50838103825286818151815260200191508051906020019080838360005b8381101561259d578082015181840152602081019050612582565b50505050905090810190601f1680156125ca5780820380516001836020036101000a031916815260200191505b509850505050505050505060405180910390f35b61260a600480360360208110156125f457600080fd5b8101908080359060200190929190505050615508565b6040518082815260200191505060405180910390f35b6127846004803603608081101561263657600080fd5b81019080803590602001909291908035906020019064010000000081111561265d57600080fd5b82018360208201111561266f57600080fd5b8035906020019184600183028401116401000000008311171561269157600080fd5b91908080601f016020809104026020016040519081016040528093929190818152602001838380828437600081840152601f19601f82011690508083019250505050505050919291929080359060200190929190803590602001906401000000008111156126fe57600080fd5b82018360208201111561271057600080fd5b8035906020019184600183028401116401000000008311171561273257600080fd5b91908080601f016020809104026020016040519081016040528093929190818152602001838380828437600081840152601f19601f820116905080830192505050505050509192919290505050615529565b005b60165481565b6004602052806000526040600020600091509050806000015490806001018054600181600116156101000203166002900480601f01602080910402602001604051908101604052809291908181526020018280546001816001161561010002031660029004801561283e5780601f106128135761010080835404028352916020019161283e565b820191906000526020600020905b81548152906001019060200180831161282157829003601f168201915b505050505090806002015490806003018054600181600116156101000203166002900480601f0160208091040260200160405190810160405280929190818152602001828054600181600116156101000203166002900480156128e25780601f106128b7576101008083540402835291602001916128e2565b820191906000526020600020905b8154815290600101906020018083116128c557829003601f168201915b5050505050908060040160009054906101000a900473ffffffffffffffffffffffffffffffffffffffff16908060040160149054906101000a900460ff16905086565b6000600760008381526020019081526020016000209050338160060160006101000a81548173ffffffffffffffffffffffffffffffffffffffff021916908373ffffffffffffffffffffffffffffffffffffffff16021790555060018160070160156101000a81548160ff0219169083151502179055507f0cbf06922eb83154b3fe6f9e5c3288291460b497fd91bab7aaecaf6f828a39ea81600001546040518082815260200191505060405180910390a15050565b600c81815481106129e857fe5b906000526020600020016000915090505481565b6000600760008681526020019081526020016000209050338160040160006101000a81548173ffffffffffffffffffffffffffffffffffffffff021916908373ffffffffffffffffffffffffffffffffffffffff16021790555084816000018190555083816001019080519060200190612a77929190615806565b50828160020181905550818160030181905550601d60008154809291906001019190505550600f8590806001815401808255809150509060018203906000526020600020016000909192909190915055507f378c5f03b632c0811ba440398934fb1eafc2713c8186a0bc988db1302b2f9e0f81600001548585858560040160009054906101000a900473ffffffffffffffffffffffffffffffffffffffff1660405180868152602001806020018581526020018481526020018373ffffffffffffffffffffffffffffffffffffffff1673ffffffffffffffffffffffffffffffffffffffff168152602001828103825286818151815260200191508051906020019080838360005b83811015612b9a578082015181840152602081019050612b7f565b50505050905090810190601f168015612bc75780820380516001836020036101000a031916815260200191505b50965050505050505060405180910390a15050505050565b6000600260008881526020019081526020016000209050338160060160026101000a81548173ffffffffffffffffffffffffffffffffffffffff021916908373ffffffffffffffffffffffffffffffffffffffff16021790555086816000018190555085816001019080519060200190612c5a929190615806565b5084816002019080519060200190612c73929190615806565b50838160030181905550828160040181905550818160050181905550601860008154809291906001019190505550600b8790806001815401808255809150509060018203906000526020600020016000909192909190915055507f439f63ff3358d031c0d7ea0b2dad09bb38c25aa5873ee25526f60b2434ddf69a81600001548787878787604051808781526020018060200180602001868152602001858152602001848152602001838103835288818151815260200191508051906020019080838360005b83811015612d54578082015181840152602081019050612d39565b50505050905090810190601f168015612d815780820380516001836020036101000a031916815260200191505b50838103825287818151815260200191508051906020019080838360005b83811015612dba578082015181840152602081019050612d9f565b50505050905090810190601f168015612de75780820380516001836020036101000a031916815260200191505b509850505050505050505060405180910390a150505050505050565b6003602052806000526040600020600091509050806000015490806001018054600181600116156101000203166002900480601f016020809104026020016040519081016040528092919081815260200182805460018160011615610100020316600290048015612eb55780601f10612e8a57610100808354040283529160200191612eb5565b820191906000526020600020905b815481529060010190602001808311612e9857829003601f168201915b505050505090806002018054600181600116156101000203166002900480601f016020809104026020016040519081016040528092919081815260200182805460018160011615610100020316600290048015612f535780601f10612f2857610100808354040283529160200191612f53565b820191906000526020600020905b815481529060010190602001808311612f3657829003601f168201915b5050505050908060030154908060040154908060050160009054906101000a900460ff16908060050160019054906101000a900460ff16908060050160029054906101000a900473ffffffffffffffffffffffffffffffffffffffff16908060060160009054906101000a900473ffffffffffffffffffffffffffffffffffffffff16905089565b6000602052806000526040600020600091509050806000015490806001018054600181600116156101000203166002900480601f01602080910402602001604051908101604052809291908181526020018280546001816001161561010002031660029004801561308d5780601f106130625761010080835404028352916020019161308d565b820191906000526020600020905b81548152906001019060200180831161307057829003601f168201915b505050505090806002015490806003018054600181600116156101000203166002900480601f0160208091040260200160405190810160405280929190818152602001828054600181600116156101000203166002900480156131315780601f1061310657610100808354040283529160200191613131565b820191906000526020600020905b81548152906001019060200180831161311457829003601f168201915b5050505050908060040160009054906101000a900473ffffffffffffffffffffffffffffffffffffffff16908060040160149054906101000a900460ff16905086565b60008060003373ffffffffffffffffffffffffffffffffffffffff1673ffffffffffffffffffffffffffffffffffffffff16815260200190815260200160002090506000803373ffffffffffffffffffffffffffffffffffffffff1673ffffffffffffffffffffffffffffffffffffffff16815260200190815260200160002060040160149054906101000a900460ff161561320f57600080fd5b338160040160006101000a81548173ffffffffffffffffffffffffffffffffffffffff021916908373ffffffffffffffffffffffffffffffffffffffff16021790555084816000018190555083816001019080519060200190613273929190615806565b508181600301908051906020019061328c929190615806565b5082816002018190555060018160040160146101000a81548160ff0219169083151502179055506016600081548092919060010191905055507f08668c3163d612d8a94f23903ed5e73898d30921f3f8141c5d33a9495487754c8160000154858585604051808581526020018060200184815260200180602001838103835286818151815260200191508051906020019080838360005b8381101561333e578082015181840152602081019050613323565b50505050905090810190601f16801561336b5780820380516001836020036101000a031916815260200191505b50838103825284818151815260200191508051906020019080838360005b838110156133a4578082015181840152602081019050613389565b50505050905090810190601f1680156133d15780820380516001836020036101000a031916815260200191505b50965050505050505060405180910390a15050505050565b6007602052806000526040600020600091509050806000015490806001018054600181600116156101000203166002900480601f01602080910402602001604051908101604052809291908181526020018280546001816001161561010002031660029004801561349b5780601f106134705761010080835404028352916020019161349b565b820191906000526020600020905b81548152906001019060200180831161347e57829003601f168201915b5050505050908060020154908060030154908060040160009054906101000a900473ffffffffffffffffffffffffffffffffffffffff16908060050160009054906101000a900473ffffffffffffffffffffffffffffffffffffffff16908060060160009054906101000a900473ffffffffffffffffffffffffffffffffffffffff16908060070160009054906101000a900473ffffffffffffffffffffffffffffffffffffffff16908060070160149054906101000a900460ff16908060070160159054906101000a900460ff16908060070160169054906101000a900460ff1690508b565b6013818154811061358f57fe5b906000526020600020016000915054906101000a900473ffffffffffffffffffffffffffffffffffffffff1681565b6000600160003373ffffffffffffffffffffffffffffffffffffffff1673ffffffffffffffffffffffffffffffffffffffff1681526020019081526020016000209050600160003373ffffffffffffffffffffffffffffffffffffffff1673ffffffffffffffffffffffffffffffffffffffff16815260200190815260200160002060040160149054906101000a900460ff161561365b57600080fd5b338160040160006101000a81548173ffffffffffffffffffffffffffffffffffffffff021916908373ffffffffffffffffffffffffffffffffffffffff160217905550848160000181905550838160010190805190602001906136bf929190615806565b50818160020190805190602001906136d8929190615806565b5082816003018190555060018160040160146101000a81548160ff0219169083151502179055506017600081548092919060010191905055507fd6872be6e41398807aa745d3fa75664e9c98bab6bc08f2ede66cf950f1a86e4f8160000154858585604051808581526020018060200184815260200180602001838103835286818151815260200191508051906020019080838360005b8381101561378a57808201518184015260208101905061376f565b50505050905090810190601f1680156137b75780820380516001836020036101000a031916815260200191505b50838103825284818151815260200191508051906020019080838360005b838110156137f05780820151818401526020810190506137d5565b50505050905090810190601f16801561381d5780820380516001836020036101000a031916815260200191505b50965050505050505060405180910390a15050505050565b601e5481565b6000600a60003373ffffffffffffffffffffffffffffffffffffffff1673ffffffffffffffffffffffffffffffffffffffff1681526020019081526020016000209050600a60003373ffffffffffffffffffffffffffffffffffffffff1673ffffffffffffffffffffffffffffffffffffffff16815260200190815260200160002060040160149054906101000a900460ff16156138d857600080fd5b338160040160006101000a81548173ffffffffffffffffffffffffffffffffffffffff021916908373ffffffffffffffffffffffffffffffffffffffff1602179055508481600001819055508381600101908051906020019061393c929190615806565b508281600201819055508181600301908051906020019061395e929190615806565b5060018160040160146101000a81548160ff0219169083151502179055506020600081548092919060010191905055507f1a13455a6f21ea22183743d3a2e4337878ecb3600567972479049c8beeb902988160000154858585604051808581526020018060200184815260200180602001838103835286818151815260200191508051906020019080838360005b83811015613a075780820151818401526020810190506139ec565b50505050905090810190601f168015613a345780820380516001836020036101000a031916815260200191505b50838103825284818151815260200191508051906020019080838360005b83811015613a6d578082015181840152602081019050613a52565b50505050905090810190601f168015613a9a5780820380516001836020036101000a031916815260200191505b50965050505050505060405180910390a15050505050565b6000600460003373ffffffffffffffffffffffffffffffffffffffff1673ffffffffffffffffffffffffffffffffffffffff1681526020019081526020016000209050600460003373ffffffffffffffffffffffffffffffffffffffff1673ffffffffffffffffffffffffffffffffffffffff16815260200190815260200160002060040160149054906101000a900460ff1615613b4f57600080fd5b338160040160006101000a81548173ffffffffffffffffffffffffffffffffffffffff021916908373ffffffffffffffffffffffffffffffffffffffff16021790555084816000018190555083816001019080519060200190613bb3929190615806565b5081816003019080519060200190613bcc929190615806565b5082816002018190555060018160040160146101000a81548160ff02191690831515021790555060133390806001815401808255809150509060018203906000526020600020016000909192909190916101000a81548173ffffffffffffffffffffffffffffffffffffffff021916908373ffffffffffffffffffffffffffffffffffffffff16021790555050601c600081548092919060010191905055507fb36cc4119d00d499f56607c93b70202fbd20ed3ddec3c66d8f91c3890dc4ff2e8160000154858585604051808581526020018060200184815260200180602001838103835286818151815260200191508051906020019080838360005b83811015613ce4578082015181840152602081019050613cc9565b50505050905090810190601f168015613d115780820380516001836020036101000a031916815260200191505b50838103825284818151815260200191508051906020019080838360005b83811015613d4a578082015181840152602081019050613d2f565b50505050905090810190601f168015613d775780820380516001836020036101000a031916815260200191505b50965050505050505060405180910390a15050505050565b60158181548110613d9c57fe5b906000526020600020016000915054906101000a900473ffffffffffffffffffffffffffffffffffffffff1681565b600a602052806000526040600020600091509050806000015490806001018054600181600116156101000203166002900480601f016020809104026020016040519081016040528092919081815260200182805460018160011615610100020316600290048015613e7d5780601f10613e5257610100808354040283529160200191613e7d565b820191906000526020600020905b815481529060010190602001808311613e6057829003601f168201915b505050505090806002015490806003018054600181600116156101000203166002900480601f016020809104026020016040519081016040528092919081815260200182805460018160011615610100020316600290048015613f215780601f10613ef657610100808354040283529160200191613f21565b820191906000526020600020905b815481529060010190602001808311613f0457829003601f168201915b5050505050908060040160009054906101000a900473ffffffffffffffffffffffffffffffffffffffff16908060040160149054906101000a900460ff16905086565b600060026000838152602001908152602001600020905060018160060160006101000a81548160ff0219169083151502179055507fb113ddee1f19c663134cf17fedc292ab8569c4313980b37a98ad6f576fe205d081600001546040518082815260200191505060405180910390a15050565b60128181548110613fe457fe5b906000526020600020016000915090505481565b60235481565b600d818154811061400b57fe5b906000526020600020016000915090505481565b6006602052806000526040600020600091509050806000015490806001018054600181600116156101000203166002900480601f0160208091040260200160405190810160405280929190818152602001828054600181600116156101000203166002900480156140d15780601f106140a6576101008083540402835291602001916140d1565b820191906000526020600020905b8154815290600101906020018083116140b457829003601f168201915b5050505050908060020154908060030160009054906101000a900460ff16908060030160019054906101000a900460ff16908060040154908060050160009054906101000a900473ffffffffffffffffffffffffffffffffffffffff16908060060160009054906101000a900473ffffffffffffffffffffffffffffffffffffffff16905088565b6008602052806000526040600020600091509050806000015490806001018054600181600116156101000203166002900480601f01602080910402602001604051908101604052809291908181526020018280546001816001161561010002031660029004801561420b5780601f106141e05761010080835404028352916020019161420b565b820191906000526020600020905b8154815290600101906020018083116141ee57829003601f168201915b505050505090806002015490806003018054600181600116156101000203166002900480601f0160208091040260200160405190810160405280929190818152602001828054600181600116156101000203166002900480156142af5780601f10614284576101008083540402835291602001916142af565b820191906000526020600020905b81548152906001019060200180831161429257829003601f168201915b5050505050908060040160009054906101000a900473ffffffffffffffffffffffffffffffffffffffff16908060040160149054906101000a900460ff16905086565b60195481565b600e818154811061430557fe5b906000526020600020016000915090505481565b600b818154811061432657fe5b906000526020600020016000915090505481565b601a5481565b601b5481565b6002602052806000526040600020600091509050806000015490806001018054600181600116156101000203166002900480601f0160208091040260200160405190810160405280929190818152602001828054600181600116156101000203166002900480156143f85780601f106143cd576101008083540402835291602001916143f8565b820191906000526020600020905b8154815290600101906020018083116143db57829003601f168201915b505050505090806002018054600181600116156101000203166002900480601f0160208091040260200160405190810160405280929190818152602001828054600181600116156101000203166002900480156144965780601f1061446b57610100808354040283529160200191614496565b820191906000526020600020905b81548152906001019060200180831161447957829003601f168201915b5050505050908060030154908060040154908060050154908060060160009054906101000a900460ff16908060060160019054906101000a900460ff16908060060160029054906101000a900473ffffffffffffffffffffffffffffffffffffffff16908060070160009054906101000a900473ffffffffffffffffffffffffffffffffffffffff1690508a565b60185481565b600f818154811061453757fe5b906000526020600020016000915090505481565b6014818154811061455857fe5b906000526020600020016000915054906101000a900473ffffffffffffffffffffffffffffffffffffffff1681565b601f5481565b6000600360008781526020019081526020016000209050338160050160026101000a81548173ffffffffffffffffffffffffffffffffffffffff021916908373ffffffffffffffffffffffffffffffffffffffff16021790555085816000018190555084816001019080519060200190614608929190615806565b5083816002019080519060200190614621929190615806565b50828160030181905550818160040181905550601b60008154809291906001019190505550600c8690806001815401808255809150509060018203906000526020600020016000909192909190915055507f1165557beb26b62f0b993d64631cef5a6da178727e9e0403f41c77c28bc8d73d816000015486868686604051808681526020018060200180602001858152602001848152602001838103835287818151815260200191508051906020019080838360005b838110156146f25780820151818401526020810190506146d7565b50505050905090810190601f16801561471f5780820380516001836020036101000a031916815260200191505b50838103825286818151815260200191508051906020019080838360005b8381101561475857808201518184015260208101905061473d565b50505050905090810190601f1680156147855780820380516001836020036101000a031916815260200191505b5097505050505050505060405180910390a1505050505050565b601c5481565b6000600660008681526020019081526020016000209050338160050160006101000a81548173ffffffffffffffffffffffffffffffffffffffff021916908373ffffffffffffffffffffffffffffffffffffffff16021790555084816000018190555083816001019080519060200190614820929190615806565b50828160040181905550818160020181905550600e859080600181540180825580915050906001820390600052602060002001600090919290919091505550601a600081548092919060010191905055507f7dd1ac0f3045c721af138f4c0f5c1d81f03d3ce527d8984fb057c73a2229973e81600001548585856040518085815260200180602001848152602001838152602001828103825285818151815260200191508051906020019080838360005b838110156148ec5780820151818401526020810190506148d1565b50505050905090810190601f1680156149195780820380516001836020036101000a031916815260200191505b509550505050505060405180910390a15050505050565b60205481565b60225481565b600060036000838152602001908152602001600020905060018160050160006101000a81548160ff0219169083151502179055507f4d76f888e2d45ed5342180cd02cd937a6df60e70f9267b6fe3d23fef91073dbe81600001546040518082815260200191505060405180910390a15050565b601081815481106149bc57fe5b906000526020600020016000915090505481565b600060056000838152602001908152602001600020905060018160030160006101000a81548160ff0219169083151502179055507f4884f639bffe6ebc2bd20dcf3acba03bbb77a1c29ce119ee0468add1e526bf2e81600001546040518082815260200191505060405180910390a15050565b6005602052806000526040600020600091509050806000015490806001018054600181600116156101000203166002900480601f016020809104026020016040519081016040528092919081815260200182805460018160011615610100020316600290048015614af55780601f10614aca57610100808354040283529160200191614af5565b820191906000526020600020905b815481529060010190602001808311614ad857829003601f168201915b5050505050908060020154908060030160009054906101000a900460ff16908060030160019054906101000a900460ff16908060040154908060050160009054906101000a900473ffffffffffffffffffffffffffffffffffffffff16908060060160009054906101000a900473ffffffffffffffffffffffffffffffffffffffff16905088565b601d5481565b6001602052806000526040600020600091509050806000015490806001018054600181600116156101000203166002900480601f016020809104026020016040519081016040528092919081815260200182805460018160011615610100020316600290048015614c355780601f10614c0a57610100808354040283529160200191614c35565b820191906000526020600020905b815481529060010190602001808311614c1857829003601f168201915b505050505090806002018054600181600116156101000203166002900480601f016020809104026020016040519081016040528092919081815260200182805460018160011615610100020316600290048015614cd35780601f10614ca857610100808354040283529160200191614cd3565b820191906000526020600020905b815481529060010190602001808311614cb657829003601f168201915b5050505050908060030154908060040160009054906101000a900473ffffffffffffffffffffffffffffffffffffffff16908060040160149054906101000a900460ff16905086565b6000600760008381526020019081526020016000209050338160050160006101000a81548173ffffffffffffffffffffffffffffffffffffffff021916908373ffffffffffffffffffffffffffffffffffffffff16021790555060018160070160146101000a81548160ff0219169083151502179055507fadae2f6d15893072faac01469d9c4ab03345012f63f977eabb99ca98c67fc3de81600001546040518082815260200191505060405180910390a15050565b60175481565b60215481565b600060066000838152602001908152602001600020905060018160030160006101000a81548160ff0219169083151502179055507fa214b590499078bd7c3ac19858552eb9d47ef202d017c8c1af3a1f2559710b2b81600001546040518082815260200191505060405180910390a15050565b6000600860003373ffffffffffffffffffffffffffffffffffffffff1673ffffffffffffffffffffffffffffffffffffffff1681526020019081526020016000209050600860003373ffffffffffffffffffffffffffffffffffffffff1673ffffffffffffffffffffffffffffffffffffffff16815260200190815260200160002060040160149054906101000a900460ff1615614eee57600080fd5b338160040160006101000a81548173ffffffffffffffffffffffffffffffffffffffff021916908373ffffffffffffffffffffffffffffffffffffffff16021790555084816000018190555083816001019080519060200190614f52929190615806565b5082816002018190555081816003019080519060200190614f74929190615806565b5060018160040160146101000a81548160ff02191690831515021790555060143390806001815401808255809150509060018203906000526020600020016000909192909190916101000a81548173ffffffffffffffffffffffffffffffffffffffff021916908373ffffffffffffffffffffffffffffffffffffffff16021790555050601e600081548092919060010191905055507f85ce94a09259d11fea28ef2cdae95f1a94d42451c0741fdd7e267f746c524b6a8160000154858585604051808581526020018060200184815260200180602001838103835286818151815260200191508051906020019080838360005b83811015615083578082015181840152602081019050615068565b50505050905090810190601f1680156150b05780820380516001836020036101000a031916815260200191505b50838103825284818151815260200191508051906020019080838360005b838110156150e95780820151818401526020810190506150ce565b50505050905090810190601f1680156151165780820380516001836020036101000a031916815260200191505b50965050505050505060405180910390a15050505050565b6000600760008381526020019081526020016000209050338160070160006101000a81548173ffffffffffffffffffffffffffffffffffffffff021916908373ffffffffffffffffffffffffffffffffffffffff16021790555060018160070160166101000a81548160ff0219169083151502179055507f719795a1d0f96d96000a0253c72c0cabd1e32bceca96fc716babca1abb0ec40e81600001546040518082815260200191505060405180910390a15050565b6000600560008681526020019081526020016000209050338160050160006101000a81548173ffffffffffffffffffffffffffffffffffffffff021916908373ffffffffffffffffffffffffffffffffffffffff1602179055508481600001819055508381600101908051906020019061525f929190615806565b50828160040181905550818160020181905550600d8590806001815401808255809150509060018203906000526020600020016000909192909190915055506019600081548092919060010191905055507fa55da230e9462e2c52b347397a2cb6953432cf8bed20f679a034e459ef95e34b81600001548585856040518085815260200180602001848152602001838152602001828103825285818151815260200191508051906020019080838360005b8381101561532b578082015181840152602081019050615310565b50505050905090810190601f1680156153585780820380516001836020036101000a031916815260200191505b509550505050505060405180910390a15050505050565b6009602052806000526040600020600091509050806000015490806001018054600181600116156101000203166002900480601f0160208091040260200160405190810160405280929190818152602001828054600181600116156101000203166002900480156154215780601f106153f657610100808354040283529160200191615421565b820191906000526020600020905b81548152906001019060200180831161540457829003601f168201915b505050505090806002015490806003018054600181600116156101000203166002900480601f0160208091040260200160405190810160405280929190818152602001828054600181600116156101000203166002900480156154c55780601f1061549a576101008083540402835291602001916154c5565b820191906000526020600020905b8154815290600101906020018083116154a857829003601f168201915b5050505050908060040160009054906101000a900473ffffffffffffffffffffffffffffffffffffffff16908060040160149054906101000a900460ff16905086565b6011818154811061551557fe5b906000526020600020016000915090505481565b6000600960003373ffffffffffffffffffffffffffffffffffffffff1673ffffffffffffffffffffffffffffffffffffffff1681526020019081526020016000209050600960003373ffffffffffffffffffffffffffffffffffffffff1673ffffffffffffffffffffffffffffffffffffffff16815260200190815260200160002060040160149054906101000a900460ff16156155c657600080fd5b338160040160006101000a81548173ffffffffffffffffffffffffffffffffffffffff021916908373ffffffffffffffffffffffffffffffffffffffff1602179055508481600001819055508381600101908051906020019061562a929190615806565b508281600201819055508181600301908051906020019061564c929190615806565b5060018160040160146101000a81548160ff02191690831515021790555060153390806001815401808255809150509060018203906000526020600020016000909192909190916101000a81548173ffffffffffffffffffffffffffffffffffffffff021916908373ffffffffffffffffffffffffffffffffffffffff16021790555050601f600081548092919060010191905055507fb0e45e8125bcae396aa2f4df5baf1c1fe6cc08db71c22a9fc54e8e2529b5934a8160000154858585604051808581526020018060200184815260200180602001838103835286818151815260200191508051906020019080838360005b8381101561575b578082015181840152602081019050615740565b50505050905090810190601f1680156157885780820380516001836020036101000a031916815260200191505b50838103825284818151815260200191508051906020019080838360005b838110156157c15780820151818401526020810190506157a6565b50505050905090810190601f1680156157ee5780820380516001836020036101000a031916815260200191505b50965050505050505060405180910390a15050505050565b828054600181600116156101000203166002900490600052602060002090601f016020900481019282601f1061584757805160ff1916838001178555615875565b82800160010185558215615875579182015b82811115615874578251825591602001919060010190615859565b5b5090506158829190615886565b5090565b6158a891905b808211156158a457600081600090555060010161588c565b5090565b9056fea265627a7a72315820d2ea5088d30ecb3d62d50a2fe10af150a185fdf7b434e75e56f1a6b98aeb157d64736f6c63430005100032",
  "source": "pragma solidity ^0.5.16;\r\n\r\ncontract SupplyChain{\r\n\r\n    //model a landlord\r\n    struct Landlord{\r\n        uint landlordID;\r\n        string landlordName;\r\n        uint landlordContact;\r\n        string landlordAddress;\r\n        address laddr;\r\n        bool isValue;\r\n    }\r\n\r\n    //model a seed dealer\r\n    struct SeedDealer{\r\n        uint dealerID;\r\n        string dealerName;\r\n        string dealerAddress;\r\n        uint dealerContact;\r\n        address saddr;\r\n        bool isValue;\r\n    }\r\n\r\n    //model a seed\r\n    struct Seed{\r\n        uint seedID;\r\n        string seedName;\r\n        uint seedQuantity;\r\n        bool isBought;\r\n        bool isSale;\r\n        uint seedcost;\r\n        address saddr;\r\n        address faddr;\r\n    }\r\n\r\n\r\n    //model a fertilizer\r\n    struct Fertilizer{\r\n        uint fertilizerID;\r\n        string fertilizerName;\r\n        uint fertilizerQuantity;\r\n        bool isBought;\r\n        bool isSale;\r\n        uint fertilizerCost;\r\n        address saddr;\r\n        address faddr;\r\n    }\r\n    //model a land\r\n    struct Landsale{\r\n        uint landID;\r\n        string landAddress;\r\n        string soilType;\r\n        //uint temperature;\r\n        //uint humidity;\r\n        //string cropType;\r\n        uint area;\r\n        uint cost;\r\n        bool isBought;\r\n        bool isSale;\r\n        address laddr;\r\n        address faddr;\r\n    }\r\n\r\n    //model a landlease\r\n    struct Landlease{\r\n        uint landID;\r\n        string landAddress;\r\n        string soilType;\r\n        //uint temperature;\r\n        //uint humidity;\r\n        //string cropType;\r\n        uint area;\r\n        uint cost;\r\n        uint duration;\r\n        bool isBought;\r\n        bool isLease;\r\n        address laddr;\r\n        address faddr;\r\n\r\n    }\r\n\r\n    //model a farmer\r\n   struct Farmer {\r\n       uint farmerID;\r\n       string farmerName;\r\n       uint farmerContact;\r\n      string farmerAddress;\r\n       address faddr;\r\n       bool isValue;\r\n   }\r\n\r\n   //model crop\r\n    struct Crop{\r\n       uint cropID;\r\n       string cropName;\r\n       uint quantity;\r\n       uint cropPrice;\r\n        address faddr;\r\n        address daddr;\r\n        address raddr;\r\n        address caddr;\r\n        bool isBought; \r\n        bool isBoughtByRetailer;     \r\n        bool isBoughtByConsumer;    \r\n } \r\n\r\n   //model a distributor\r\n   struct Distributor{\r\n       uint distID;\r\n       string distName;\r\n       uint distContact;\r\n       string distAddress;\r\n       address daddr;\r\n       bool isValue;\r\n   }\r\n   \r\n   //model a retailer\r\n   struct Retailer{\r\n       uint retailID;\r\n       string retailName;\r\n       uint retailContact;\r\n       string  retailAddress;\r\n       address raddr;\r\n       bool isValue;\r\n   }\r\n   \r\n   //model a consumer\r\n   struct Consumer{\r\n       uint consumerID;\r\n       string consumerName;\r\n       uint consumerContact;\r\n       string consumerAddress;\r\n       address caddr;\r\n       bool isValue;\r\n   }\r\n\r\n   mapping(address => Landlord) public mlandlord;\r\n   mapping(address => SeedDealer) public mdealer;\r\n   mapping(uint => Landlease) public mlland;\r\n   mapping(uint => Landsale) public msland;\r\n   mapping(address => Farmer) public mfarmer;\r\n   mapping(uint => Seed) public mseed;\r\n   mapping(uint => Fertilizer) public mfertilizer;\r\n   mapping(uint => Crop) public mcrop;\r\n   //mapping(uint => Crop) public dcrop;\r\n   mapping(address => Distributor) public mdist;\r\n   mapping(address => Retailer) public mretail;\r\n   mapping(address => Consumer) public mconsumer;\r\n   \r\n\r\n   //count of crop\r\n   uint[] public leaseArr;\r\n   uint[] public saleArr;\r\n   uint[] public seedArr;\r\n   uint[] public fertilizerArr;\r\n   uint[] public cropArr;\r\n   uint[] public distCropArr;\r\n   uint[] public consumerCropArr;\r\n   uint[] public temp;\r\n   address[] public farmerAdd;\r\n   address[] public distAdd;\r\n   address[] public retailAdd;\r\n   uint public landlordCount;\r\n   uint public dealerCount;\r\n   uint public leaseCount;\r\n   uint public seedCount;\r\n   uint public fertilizerCount;\r\n   uint public saleCount;\r\n   uint public farmerCount;\r\n   uint public cropCount;\r\n   uint public distCount;\r\n   uint public retailCount;\r\n   uint public consumerCount;\r\n   uint public distCropCount;\r\n   uint public retailCropCount;\r\n   uint public consumerCropCount;\r\n\r\n\r\n   //event for landlord\r\n   event landlordCreated(\r\n       uint landlordID,\r\n       string landlordName,\r\n       uint landlordContact,\r\n       string landlordAddress\r\n   );\r\n   \r\n   //event for land sale\r\n   event landForSale (\r\n       uint landID,\r\n       string landAddress,\r\n       string soilType,\r\n       //uint temperature,\r\n       //uint humidity,\r\n       //string cropType,\r\n       uint area,\r\n       uint cost\r\n   );\r\n\r\n   //event for lease\r\n   event landForLease(\r\n       uint landID,\r\n       string landAddress,\r\n       string soilType,\r\n       //uint temperature,\r\n       //uint humidity,\r\n       //string cropType,\r\n       uint area,\r\n       uint cost,\r\n       uint duration\r\n   );\r\n\r\n \r\n   //event for seedDealer\r\n   event seedDealerCreated(\r\n        uint dealerID,\r\n        string dealerName,\r\n        uint dealerContact,\r\n        string dealerAddress\r\n   );\r\n\r\n   //event for seedCreated\r\n   event seedCreated(\r\n        uint seedID,\r\n        string seedName,\r\n        uint seedcost,\r\n        uint seedQuantity\r\n   );\r\n\r\n   //event for fertilizerCreated\r\n   event fertilizerCreated(\r\n        uint fertilizerID,\r\n        string fertilizerName,\r\n        uint fertilizerCost,\r\n        uint fertilizerQuantity\r\n   );\r\n\r\n   // event for farmer\r\n   event farmerCreated (\r\n       uint farmerID,\r\n       string farmerName,\r\n       uint farmerContact,\r\n       string farmerAddress\r\n   );\r\n\r\n   // event for crop\r\n   event cropCreated (\r\n       uint cropID,\r\n       string cropName,\r\n       uint quantity,\r\n       uint cropPrice,\r\n       address faddr\r\n   );\r\n\r\n   //event for farmer land purchase \r\n   event landPurchaseLease (\r\n       uint landID\r\n   );\r\n    event landPurchaseSale (\r\n       uint landID\r\n   );\r\n   //evbent for seed purchase\r\n   event seedPurchase(\r\n       uint seedID\r\n   );\r\n   //event for fertilizer purchase\r\n   event fertilizerPurchase(\r\n       uint fertilizerID\r\n   );\r\n\r\n   //event for distributor \r\n   event distCreated (\r\n       uint distID,\r\n       string distName,\r\n       uint distContact,\r\n       string distAddress\r\n   );\r\n\r\n   //event for distributor crop\r\n   event distCrop (\r\n       uint cropID\r\n   );\r\n   \r\n   //event for retailer\r\n   event retailCreated (\r\n       uint retailID,\r\n       string retailName,\r\n       uint retailContact,\r\n       string retailAddress\r\n   );\r\n\r\n   //event for retail adding crop\r\n   event retailCrop (\r\n       uint cropID\r\n   );\r\n\r\n   //event for consumer\r\n   event consumerCreated(\r\n       uint consumerID,\r\n       string consumerName,\r\n       uint consumerContact,\r\n       string consumerAddress\r\n   );\r\n\r\n  // event for consumer adding crop\r\n  event consumerCrop(\r\n      uint cropID\r\n  );\r\n\r\n    //add new Landlord\r\n    function newLandlord(\r\n        uint _landlordID,\r\n        string memory _landlordName,\r\n        uint _landlordContact,\r\n        string memory _landlordAddress\r\n    ) public {\r\n        Landlord storage _newlandlord = mlandlord[msg.sender];\r\n\r\n        // Only allows new records to be created\r\n         require(!mlandlord[msg.sender].isValue);\r\n        _newlandlord.laddr = msg.sender;\r\n        _newlandlord.landlordID = _landlordID;\r\n        _newlandlord.landlordName = _landlordName;\r\n        _newlandlord.landlordAddress = _landlordAddress;\r\n        _newlandlord.landlordContact = _landlordContact;\r\n        _newlandlord.isValue = true;\r\n        landlordCount++;\r\n        emit landlordCreated(_newlandlord.landlordID, _landlordName, _landlordContact,_landlordAddress);\r\n    }\r\n\r\n    //landlord adds new land for sale\r\n    function addLandSale (\r\n        uint _landID,\r\n        string memory _landAddress,\r\n        string memory _soilType,\r\n        //uint _temperature,\r\n        //uint _humidity,\r\n        //string memory _cropType,\r\n        uint _area,\r\n        uint _cost \r\n    ) public {\r\n        Landsale storage _newland = msland[_landID];\r\n        _newland.laddr = msg.sender;\r\n        _newland.landID = _landID;\r\n        _newland.landAddress = _landAddress;\r\n        _newland.soilType = _soilType;\r\n        //_newland.temperature=_temperature;\r\n        //_newland.humidity=_humidity;\r\n        //_newland.cropType=_cropType;\r\n        _newland.area=_area;\r\n        _newland.cost=_cost;\r\n        saleCount++;\r\n        saleArr.push(_landID);\r\n        emit landForSale(_newland.landID, _landAddress, _soilType,_area,_cost);\r\n    }\r\n\r\n    // //lease function\r\n     function addLandLease (\r\n        uint _landID,\r\n      //  string memory _landName,\r\n        string memory _landAddress,\r\n        string memory _soilType,\r\n        //uint _temperature,\r\n        //uint _humidity,\r\n        //string memory _cropType,\r\n        uint _area,\r\n        uint _cost,\r\n        uint _duration\r\n    ) public {\r\n        Landlease storage _newland = mlland[_landID];\r\n        _newland.laddr = msg.sender;\r\n        _newland.landID = _landID;\r\n       // _newland.landName = _landName;\r\n        _newland.landAddress = _landAddress;\r\n        _newland.soilType = _soilType;\r\n        //_newland.temperature=_temperature;\r\n        //_newland.humidity=_humidity;\r\n        //_newland.cropType=_cropType;\r\n        _newland.area=_area;\r\n        _newland.cost=_cost;\r\n        _newland.duration=_duration;\r\n        leaseCount++;\r\n        leaseArr.push(_landID);\r\n        emit landForLease(_newland.landID, _landAddress, _soilType,_area,_cost,_duration);\r\n    }\r\n    \r\n    //add new seedDealer\r\n    function newSeedDealer (\r\n        uint _dealerID,\r\n        string memory _dealerName,\r\n        uint _dealerContact,\r\n        string memory _dealerAddress\r\n    ) public {\r\n        SeedDealer storage _newdealer = mdealer[msg.sender];\r\n\r\n        // Only allows new records to be created\r\n        require(!mdealer[msg.sender].isValue);\r\n        _newdealer.saddr = msg.sender;\r\n        _newdealer.dealerID = _dealerID;\r\n        _newdealer.dealerName = _dealerName;\r\n        _newdealer.dealerAddress = _dealerAddress;\r\n        _newdealer.dealerContact = _dealerContact;\r\n        _newdealer.isValue = true;\r\n        dealerCount++;\r\n        emit seedDealerCreated(_newdealer.dealerID, _dealerName, _dealerContact,_dealerAddress);\r\n    }\r\n\r\n    //add new seed\r\n    function newSeed (\r\n        uint _seedID,\r\n        string memory _seedName,\r\n        uint _seedcost,\r\n        uint _seedQuantity\r\n    ) public {\r\n        Seed storage _newseed = mseed[_seedID];\r\n\r\n        // Only allows new records to be created\r\n        //require(!mseed[msg.sender].isValue);\r\n        _newseed.saddr = msg.sender;\r\n        _newseed.seedID = _seedID;\r\n        _newseed.seedName = _seedName;\r\n        _newseed.seedcost = _seedcost;\r\n        _newseed.seedQuantity = _seedQuantity;\r\n        //_newseed.isValue = true;\r\n        seedArr.push(_seedID);\r\n        seedCount++;\r\n        emit seedCreated(_newseed.seedID, _seedName, _seedcost, _seedQuantity);\r\n    }\r\n\r\n    //add new fertilizer\r\n    function newFertilizer (\r\n        uint _fertilizerID,\r\n        string memory _fertilizerName,\r\n        uint _fertilizerCost,\r\n        uint _fertilizerQuantity\r\n    ) public {\r\n        Fertilizer storage _newfertilizer = mfertilizer[_fertilizerID];\r\n\r\n        // Only allows new records to be created\r\n        //require(!mfertilizer[msg.sender].isValue);\r\n        _newfertilizer.saddr = msg.sender;\r\n        _newfertilizer.fertilizerID = _fertilizerID;\r\n        _newfertilizer.fertilizerName = _fertilizerName;\r\n        _newfertilizer.fertilizerCost = _fertilizerCost;\r\n        _newfertilizer.fertilizerQuantity = _fertilizerQuantity;\r\n       // _newfertilizer.isValue = true;\r\n        fertilizerArr.push(_fertilizerID);\r\n        fertilizerCount++;\r\n        emit fertilizerCreated(_newfertilizer.fertilizerID, _fertilizerName, _fertilizerCost, _fertilizerQuantity);\r\n    }\r\n\r\n    //add new farmer\r\n    function newFarmer (\r\n        uint _farmerID,\r\n        string memory _farmerName,\r\n        uint _farmerContact,\r\n        string memory _farmerAddress\r\n    ) public {\r\n        Farmer storage _newfarmer = mfarmer[msg.sender];\r\n\r\n        // Only allows new records to be created\r\n        require(!mfarmer[msg.sender].isValue);\r\n        _newfarmer.faddr = msg.sender;\r\n        _newfarmer.farmerID = _farmerID;\r\n        _newfarmer.farmerName = _farmerName;\r\n        _newfarmer.farmerAddress = _farmerAddress;\r\n        _newfarmer.farmerContact = _farmerContact;\r\n        _newfarmer.isValue = true;\r\n        farmerAdd.push(msg.sender);\r\n        farmerCount++;\r\n        emit farmerCreated(_newfarmer.farmerID, _farmerName, _farmerContact,_farmerAddress);\r\n    }\r\n\r\n    //add crop by old farmer\r\n     function addCrop(\r\n        uint _cropID,\r\n        string memory _cropName,\r\n        uint _quantity,\r\n        uint _cropPrice\r\n    ) public {\r\n        Crop storage _newcrop = mcrop[_cropID];\r\n        //Farmer storage _newfarmer = mfarmer[_farmerID];\r\n       \r\n        _newcrop.faddr = msg.sender;\r\n        _newcrop.cropID = _cropID;\r\n        _newcrop.cropName = _cropName;\r\n        _newcrop.quantity = _quantity;\r\n        _newcrop.cropPrice = _cropPrice;\r\n        cropCount++;\r\n        cropArr.push(_cropID);\r\n        emit cropCreated(_newcrop.cropID, _cropName, _quantity, _cropPrice, _newcrop.faddr);\r\n    }\r\n\r\n    //farmer purchase land lease\r\n     function purchaseLandLease (\r\n        uint _landID\r\n     ) public { \r\n        Landlease storage _newland = mlland[_landID];\r\n        _newland.isBought = true;\r\n        emit landPurchaseLease(_newland.landID);\r\n    }\r\n  \r\n    //farmer purchase sale\r\n     function purchaseLandSale (\r\n        uint _landID\r\n     ) public { \r\n        Landsale storage _newland = msland[_landID];\r\n        _newland.isBought = true;\r\n        emit landPurchaseSale(_newland.landID);\r\n    }\r\n\r\n    //farmer purchase seed\r\n    function purchaseSeed (\r\n        uint _seedID\r\n    ) public {\r\n        Seed storage _newseed = mseed[_seedID];\r\n        _newseed.isBought=true;\r\n        emit seedPurchase(_newseed.seedID);\r\n    }\r\n\r\n    //farmer purchase fertilizer\r\n    function purchaseFertilizer (\r\n        uint _fertilizerID\r\n    ) public {\r\n        Fertilizer storage _newfertilizer = mfertilizer[_fertilizerID];\r\n        _newfertilizer.isBought=true;\r\n        emit fertilizerPurchase(_newfertilizer.fertilizerID);\r\n    }\r\n\r\n    //add new distributor\r\n    function addDist(\r\n        uint _distID,\r\n        string memory _distName,\r\n        uint _distContact,\r\n        string memory _distAddress\r\n    ) public {\r\n        Distributor storage _newdist = mdist[msg.sender];\r\n\r\n        require(!mdist[msg.sender].isValue);\r\n        _newdist.daddr = msg.sender;\r\n        _newdist.distID = _distID;\r\n        _newdist.distName = _distName;\r\n        _newdist.distContact = _distContact;\r\n        _newdist.distAddress = _distAddress;\r\n        _newdist.isValue = true;\r\n        distAdd.push(msg.sender);\r\n        distCount++;\r\n        emit distCreated(_newdist.distID, _distName, _distContact, _distAddress);\r\n    }\r\n\r\n    //crop purchased by distributor\r\n    function distAddCrop(\r\n        uint _cropID\r\n     ) public { \r\n        Crop storage _newcrop = mcrop[_cropID];\r\n         _newcrop.daddr = msg.sender;\r\n        _newcrop.isBought = true;\r\n        emit distCrop(_newcrop.cropID);\r\n    }\r\n\r\n    \r\n    \r\n    //add new retailer\r\n    function addRetail(\r\n        uint _retailID,\r\n        string memory _retailName,\r\n        uint _retailContact,\r\n        string memory _retailAddress\r\n    ) public {\r\n        Retailer storage _newretail = mretail[msg.sender];\r\n        require(!mretail[msg.sender].isValue);\r\n        _newretail.raddr = msg.sender;\r\n        _newretail.retailID = _retailID;\r\n        _newretail.retailName = _retailName;\r\n        _newretail.retailContact = _retailContact;\r\n        _newretail.retailAddress = _retailAddress;\r\n        _newretail.isValue = true;\r\n        retailAdd.push(msg.sender);\r\n        retailCount++;\r\n        emit retailCreated(_newretail.retailID, _retailName, _retailContact, _retailAddress);\r\n    }\r\n\r\n    //purchase crop by retailer\r\n    function retailAddCrop(\r\n        uint _cropID\r\n     ) public { \r\n        Crop storage _newcrop = mcrop[_cropID];\r\n        _newcrop.raddr = msg.sender;\r\n        _newcrop.isBoughtByRetailer = true;\r\n        emit retailCrop(_newcrop.cropID);\r\n    }\r\n\r\n     //add new consumer\r\n    function addconsumer(\r\n        uint _consumerID,\r\n        string memory _consumerName,\r\n        uint _consumerContact,\r\n        string memory _consumerAddress\r\n    ) public {\r\n        Consumer storage _newconsumer = mconsumer[msg.sender];\r\n        require(!mconsumer[msg.sender].isValue);\r\n        _newconsumer.caddr = msg.sender;\r\n        _newconsumer.consumerID = _consumerID;\r\n        _newconsumer.consumerName = _consumerName;\r\n        _newconsumer.consumerContact = _consumerContact;\r\n        _newconsumer.consumerAddress = _consumerAddress;\r\n        _newconsumer.isValue = true;\r\n        consumerCount++;\r\n        emit consumerCreated(_newconsumer.consumerID, _consumerName, _consumerContact, _consumerAddress);\r\n    }\r\n\r\n    //purchase crop by consumer\r\n    function consumerAddCrop(\r\n        uint _cropID\r\n     ) public { \r\n        Crop storage _newcrop = mcrop[_cropID];\r\n        _newcrop.caddr = msg.sender;\r\n        _newcrop.isBoughtByConsumer = true;\r\n        emit consumerCrop(_newcrop.cropID);\r\n    }\r\n\r\n}",
  "sourcePath": "C:/Users/Tamilselvi/OneDrive/Desktop/supplychain/contracts/SupplyChain.sol",
  "compiler": {
    "name": "solc",
    "version": "0.5.16+commit.9c3226ce.Emscripten.clang"
  },
  "schemaVersion": "3.3.3",
  "updatedAt": "2021-03-10T09:32:53.129Z",
  "networkType": "ethereum",
  "devdoc": {
    "methods": {}
  },
  "userdoc": {
    "methods": {}
  }
}