{
  "contractName": "SupplyChain",
  "abi": [
    {
      "anonymous": false,
      "inputs": [
        {
          "indexed": false,
          "internalType": "uint256",
          "name": "consumerID",
          "type": "uint256"
        },
        {
          "indexed": false,
          "internalType": "string",
          "name": "consumerName",
          "type": "string"
        },
        {
          "indexed": false,
          "internalType": "uint256",
          "name": "consumerContact",
          "type": "uint256"
        },
        {
          "indexed": false,
          "internalType": "string",
          "name": "consumerAddress",
          "type": "string"
        }
      ],
      "name": "consumerCreated",
      "type": "event"
    },
    {
      "anonymous": false,
      "inputs": [
        {
          "indexed": false,
          "internalType": "uint256",
          "name": "cropID",
          "type": "uint256"
        }
      ],
      "name": "consumerCrop",
      "type": "event"
    },
    {
      "anonymous": false,
      "inputs": [
        {
          "indexed": false,
          "internalType": "uint256",
          "name": "cropID",
          "type": "uint256"
        },
        {
          "indexed": false,
          "internalType": "string",
          "name": "cropName",
          "type": "string"
        },
        {
          "indexed": false,
          "internalType": "uint256",
          "name": "quantity",
          "type": "uint256"
        },
        {
          "indexed": false,
          "internalType": "uint256",
          "name": "cropPrice",
          "type": "uint256"
        },
        {
          "indexed": false,
          "internalType": "address",
          "name": "faddr",
          "type": "address"
        }
      ],
      "name": "cropCreated",
      "type": "event"
    },
    {
      "anonymous": false,
      "inputs": [
        {
          "indexed": false,
          "internalType": "uint256",
          "name": "distID",
          "type": "uint256"
        },
        {
          "indexed": false,
          "internalType": "string",
          "name": "distName",
          "type": "string"
        },
        {
          "indexed": false,
          "internalType": "uint256",
          "name": "distContact",
          "type": "uint256"
        },
        {
          "indexed": false,
          "internalType": "string",
          "name": "distAddress",
          "type": "string"
        }
      ],
      "name": "distCreated",
      "type": "event"
    },
    {
      "anonymous": false,
      "inputs": [
        {
          "indexed": false,
          "internalType": "uint256",
          "name": "cropID",
          "type": "uint256"
        }
      ],
      "name": "distCrop",
      "type": "event"
    },
    {
      "anonymous": false,
      "inputs": [
        {
          "indexed": false,
          "internalType": "uint256",
          "name": "farmerID",
          "type": "uint256"
        },
        {
          "indexed": false,
          "internalType": "string",
          "name": "farmerName",
          "type": "string"
        },
        {
          "indexed": false,
          "internalType": "uint256",
          "name": "farmerContact",
          "type": "uint256"
        },
        {
          "indexed": false,
          "internalType": "string",
          "name": "farmerAddress",
          "type": "string"
        }
      ],
      "name": "farmerCreated",
      "type": "event"
    },
    {
      "anonymous": false,
      "inputs": [
        {
          "indexed": false,
          "internalType": "uint256",
          "name": "fertilizerID",
          "type": "uint256"
        },
        {
          "indexed": false,
          "internalType": "string",
          "name": "fertilizerName",
          "type": "string"
        },
        {
          "indexed": false,
          "internalType": "uint256",
          "name": "fertilizerCost",
          "type": "uint256"
        },
        {
          "indexed": false,
          "internalType": "uint256",
          "name": "fertilizerQuantity",
          "type": "uint256"
        }
      ],
      "name": "fertilizerCreated",
      "type": "event"
    },
    {
      "anonymous": false,
      "inputs": [
        {
          "indexed": false,
          "internalType": "uint256",
          "name": "fertilizerID",
          "type": "uint256"
        }
      ],
      "name": "fertilizerPurchase",
      "type": "event"
    },
    {
      "anonymous": false,
      "inputs": [
        {
          "indexed": false,
          "internalType": "uint256",
          "name": "landID",
          "type": "uint256"
        },
        {
          "indexed": false,
          "internalType": "string",
          "name": "landAddress",
          "type": "string"
        },
        {
          "indexed": false,
          "internalType": "string",
          "name": "soilType",
          "type": "string"
        },
        {
          "indexed": false,
          "internalType": "uint256",
          "name": "area",
          "type": "uint256"
        },
        {
          "indexed": false,
          "internalType": "uint256",
          "name": "cost",
          "type": "uint256"
        },
        {
          "indexed": false,
          "internalType": "uint256",
          "name": "duration",
          "type": "uint256"
        }
      ],
      "name": "landForLease",
      "type": "event"
    },
    {
      "anonymous": false,
      "inputs": [
        {
          "indexed": false,
          "internalType": "uint256",
          "name": "landID",
          "type": "uint256"
        },
        {
          "indexed": false,
          "internalType": "string",
          "name": "landAddress",
          "type": "string"
        },
        {
          "indexed": false,
          "internalType": "string",
          "name": "soilType",
          "type": "string"
        },
        {
          "indexed": false,
          "internalType": "uint256",
          "name": "area",
          "type": "uint256"
        },
        {
          "indexed": false,
          "internalType": "uint256",
          "name": "cost",
          "type": "uint256"
        }
      ],
      "name": "landForSale",
      "type": "event"
    },
    {
      "anonymous": false,
      "inputs": [
        {
          "indexed": false,
          "internalType": "uint256",
          "name": "landID",
          "type": "uint256"
        }
      ],
      "name": "landPurchaseLease",
      "type": "event"
    },
    {
      "anonymous": false,
      "inputs": [
        {
          "indexed": false,
          "internalType": "uint256",
          "name": "landID",
          "type": "uint256"
        }
      ],
      "name": "landPurchaseSale",
      "type": "event"
    },
    {
      "anonymous": false,
      "inputs": [
        {
          "indexed": false,
          "internalType": "uint256",
          "name": "landlordID",
          "type": "uint256"
        },
        {
          "indexed": false,
          "internalType": "string",
          "name": "landlordName",
          "type": "string"
        },
        {
          "indexed": false,
          "internalType": "uint256",
          "name": "landlordContact",
          "type": "uint256"
        },
        {
          "indexed": false,
          "internalType": "string",
          "name": "landlordAddress",
          "type": "string"
        }
      ],
      "name": "landlordCreated",
      "type": "event"
    },
    {
      "anonymous": false,
      "inputs": [
        {
          "indexed": false,
          "internalType": "uint256",
          "name": "retailID",
          "type": "uint256"
        },
        {
          "indexed": false,
          "internalType": "string",
          "name": "retailName",
          "type": "string"
        },
        {
          "indexed": false,
          "internalType": "uint256",
          "name": "retailContact",
          "type": "uint256"
        },
        {
          "indexed": false,
          "internalType": "string",
          "name": "retailAddress",
          "type": "string"
        }
      ],
      "name": "retailCreated",
      "type": "event"
    },
    {
      "anonymous": false,
      "inputs": [
        {
          "indexed": false,
          "internalType": "uint256",
          "name": "cropID",
          "type": "uint256"
        }
      ],
      "name": "retailCrop",
      "type": "event"
    },
    {
      "anonymous": false,
      "inputs": [
        {
          "indexed": false,
          "internalType": "uint256",
          "name": "seedID",
          "type": "uint256"
        },
        {
          "indexed": false,
          "internalType": "string",
          "name": "seedName",
          "type": "string"
        },
        {
          "indexed": false,
          "internalType": "uint256",
          "name": "seedcost",
          "type": "uint256"
        },
        {
          "indexed": false,
          "internalType": "uint256",
          "name": "seedQuantity",
          "type": "uint256"
        }
      ],
      "name": "seedCreated",
      "type": "event"
    },
    {
      "anonymous": false,
      "inputs": [
        {
          "indexed": false,
          "internalType": "uint256",
          "name": "dealerID",
          "type": "uint256"
        },
        {
          "indexed": false,
          "internalType": "string",
          "name": "dealerName",
          "type": "string"
        },
        {
          "indexed": false,
          "internalType": "uint256",
          "name": "dealerContact",
          "type": "uint256"
        },
        {
          "indexed": false,
          "internalType": "string",
          "name": "dealerAddress",
          "type": "string"
        }
      ],
      "name": "seedDealerCreated",
      "type": "event"
    },
    {
      "anonymous": false,
      "inputs": [
        {
          "indexed": false,
          "internalType": "uint256",
          "name": "seedID",
          "type": "uint256"
        }
      ],
      "name": "seedPurchase",
      "type": "event"
    },
    {
      "constant": true,
      "inputs": [],
      "name": "consumerCount",
      "outputs": [
        {
          "internalType": "uint256",
          "name": "",
          "type": "uint256"
        }
      ],
      "payable": false,
      "stateMutability": "view",
      "type": "function"
    },
    {
      "constant": true,
      "inputs": [
        {
          "internalType": "uint256",
          "name": "",
          "type": "uint256"
        }
      ],
      "name": "consumerCropArr",
      "outputs": [
        {
          "internalType": "uint256",
          "name": "",
          "type": "uint256"
        }
      ],
      "payable": false,
      "stateMutability": "view",
      "type": "function"
    },
    {
      "constant": true,
      "inputs": [],
      "name": "consumerCropCount",
      "outputs": [
        {
          "internalType": "uint256",
          "name": "",
          "type": "uint256"
        }
      ],
      "payable": false,
      "stateMutability": "view",
      "type": "function"
    },
    {
      "constant": true,
      "inputs": [
        {
          "internalType": "uint256",
          "name": "",
          "type": "uint256"
        }
      ],
      "name": "cropArr",
      "outputs": [
        {
          "internalType": "uint256",
          "name": "",
          "type": "uint256"
        }
      ],
      "payable": false,
      "stateMutability": "view",
      "type": "function"
    },
    {
      "constant": true,
      "inputs": [],
      "name": "cropCount",
      "outputs": [
        {
          "internalType": "uint256",
          "name": "",
          "type": "uint256"
        }
      ],
      "payable": false,
      "stateMutability": "view",
      "type": "function"
    },
    {
      "constant": true,
      "inputs": [],
      "name": "dealerCount",
      "outputs": [
        {
          "internalType": "uint256",
          "name": "",
          "type": "uint256"
        }
      ],
      "payable": false,
      "stateMutability": "view",
      "type": "function"
    },
    {
      "constant": true,
      "inputs": [],
      "name": "distCount",
      "outputs": [
        {
          "internalType": "uint256",
          "name": "",
          "type": "uint256"
        }
      ],
      "payable": false,
      "stateMutability": "view",
      "type": "function"
    },
    {
      "constant": true,
      "inputs": [
        {
          "internalType": "uint256",
          "name": "",
          "type": "uint256"
        }
      ],
      "name": "distCropArr",
      "outputs": [
        {
          "internalType": "uint256",
          "name": "",
          "type": "uint256"
        }
      ],
      "payable": false,
      "stateMutability": "view",
      "type": "function"
    },
    {
      "constant": true,
      "inputs": [],
      "name": "distCropCount",
      "outputs": [
        {
          "internalType": "uint256",
          "name": "",
          "type": "uint256"
        }
      ],
      "payable": false,
      "stateMutability": "view",
      "type": "function"
    },
    {
      "constant": true,
      "inputs": [],
      "name": "farmerCount",
      "outputs": [
        {
          "internalType": "uint256",
          "name": "",
          "type": "uint256"
        }
      ],
      "payable": false,
      "stateMutability": "view",
      "type": "function"
    },
    {
      "constant": true,
      "inputs": [
        {
          "internalType": "uint256",
          "name": "",
          "type": "uint256"
        }
      ],
      "name": "fertilizerArr",
      "outputs": [
        {
          "internalType": "uint256",
          "name": "",
          "type": "uint256"
        }
      ],
      "payable": false,
      "stateMutability": "view",
      "type": "function"
    },
    {
      "constant": true,
      "inputs": [],
      "name": "fertilizerCount",
      "outputs": [
        {
          "internalType": "uint256",
          "name": "",
          "type": "uint256"
        }
      ],
      "payable": false,
      "stateMutability": "view",
      "type": "function"
    },
    {
      "constant": true,
      "inputs": [],
      "name": "landlordCount",
      "outputs": [
        {
          "internalType": "uint256",
          "name": "",
          "type": "uint256"
        }
      ],
      "payable": false,
      "stateMutability": "view",
      "type": "function"
    },
    {
      "constant": true,
      "inputs": [
        {
          "internalType": "uint256",
          "name": "",
          "type": "uint256"
        }
      ],
      "name": "leaseArr",
      "outputs": [
        {
          "internalType": "uint256",
          "name": "",
          "type": "uint256"
        }
      ],
      "payable": false,
      "stateMutability": "view",
      "type": "function"
    },
    {
      "constant": true,
      "inputs": [],
      "name": "leaseCount",
      "outputs": [
        {
          "internalType": "uint256",
          "name": "",
          "type": "uint256"
        }
      ],
      "payable": false,
      "stateMutability": "view",
      "type": "function"
    },
    {
      "constant": true,
      "inputs": [
        {
          "internalType": "address",
          "name": "",
          "type": "address"
        }
      ],
      "name": "mconsumer",
      "outputs": [
        {
          "internalType": "uint256",
          "name": "consumerID",
          "type": "uint256"
        },
        {
          "internalType": "string",
          "name": "consumerName",
          "type": "string"
        },
        {
          "internalType": "uint256",
          "name": "consumerContact",
          "type": "uint256"
        },
        {
          "internalType": "string",
          "name": "consumerAddress",
          "type": "string"
        },
        {
          "internalType": "address",
          "name": "caddr",
          "type": "address"
        },
        {
          "internalType": "bool",
          "name": "isValue",
          "type": "bool"
        }
      ],
      "payable": false,
      "stateMutability": "view",
      "type": "function"
    },
    {
      "constant": true,
      "inputs": [
        {
          "internalType": "uint256",
          "name": "",
          "type": "uint256"
        }
      ],
      "name": "mcrop",
      "outputs": [
        {
          "internalType": "uint256",
          "name": "cropID",
          "type": "uint256"
        },
        {
          "internalType": "string",
          "name": "cropName",
          "type": "string"
        },
        {
          "internalType": "uint256",
          "name": "quantity",
          "type": "uint256"
        },
        {
          "internalType": "uint256",
          "name": "cropPrice",
          "type": "uint256"
        },
        {
          "internalType": "address",
          "name": "faddr",
          "type": "address"
        },
        {
          "internalType": "address",
          "name": "daddr",
          "type": "address"
        },
        {
          "internalType": "address",
          "name": "raddr",
          "type": "address"
        },
        {
          "internalType": "address",
          "name": "caddr",
          "type": "address"
        },
        {
          "internalType": "bool",
          "name": "isBought",
          "type": "bool"
        },
        {
          "internalType": "bool",
          "name": "isBoughtByRetailer",
          "type": "bool"
        },
        {
          "internalType": "bool",
          "name": "isBoughtByConsumer",
          "type": "bool"
        }
      ],
      "payable": false,
      "stateMutability": "view",
      "type": "function"
    },
    {
      "constant": true,
      "inputs": [
        {
          "internalType": "address",
          "name": "",
          "type": "address"
        }
      ],
      "name": "mdealer",
      "outputs": [
        {
          "internalType": "uint256",
          "name": "dealerID",
          "type": "uint256"
        },
        {
          "internalType": "string",
          "name": "dealerName",
          "type": "string"
        },
        {
          "internalType": "string",
          "name": "dealerAddress",
          "type": "string"
        },
        {
          "internalType": "uint256",
          "name": "dealerContact",
          "type": "uint256"
        },
        {
          "internalType": "address",
          "name": "saddr",
          "type": "address"
        },
        {
          "internalType": "bool",
          "name": "isValue",
          "type": "bool"
        }
      ],
      "payable": false,
      "stateMutability": "view",
      "type": "function"
    },
    {
      "constant": true,
      "inputs": [
        {
          "internalType": "address",
          "name": "",
          "type": "address"
        }
      ],
      "name": "mdist",
      "outputs": [
        {
          "internalType": "uint256",
          "name": "distID",
          "type": "uint256"
        },
        {
          "internalType": "string",
          "name": "distName",
          "type": "string"
        },
        {
          "internalType": "uint256",
          "name": "distContact",
          "type": "uint256"
        },
        {
          "internalType": "string",
          "name": "distAddress",
          "type": "string"
        },
        {
          "internalType": "address",
          "name": "daddr",
          "type": "address"
        },
        {
          "internalType": "bool",
          "name": "isValue",
          "type": "bool"
        }
      ],
      "payable": false,
      "stateMutability": "view",
      "type": "function"
    },
    {
      "constant": true,
      "inputs": [
        {
          "internalType": "address",
          "name": "",
          "type": "address"
        }
      ],
      "name": "mfarmer",
      "outputs": [
        {
          "internalType": "uint256",
          "name": "farmerID",
          "type": "uint256"
        },
        {
          "internalType": "string",
          "name": "farmerName",
          "type": "string"
        },
        {
          "internalType": "uint256",
          "name": "farmerContact",
          "type": "uint256"
        },
        {
          "internalType": "string",
          "name": "farmerAddress",
          "type": "string"
        },
        {
          "internalType": "address",
          "name": "faddr",
          "type": "address"
        },
        {
          "internalType": "bool",
          "name": "isValue",
          "type": "bool"
        }
      ],
      "payable": false,
      "stateMutability": "view",
      "type": "function"
    },
    {
      "constant": true,
      "inputs": [
        {
          "internalType": "uint256",
          "name": "",
          "type": "uint256"
        }
      ],
      "name": "mfertilizer",
      "outputs": [
        {
          "internalType": "uint256",
          "name": "fertilizerID",
          "type": "uint256"
        },
        {
          "internalType": "string",
          "name": "fertilizerName",
          "type": "string"
        },
        {
          "internalType": "uint256",
          "name": "fertilizerQuantity",
          "type": "uint256"
        },
        {
          "internalType": "bool",
          "name": "isBought",
          "type": "bool"
        },
        {
          "internalType": "bool",
          "name": "isSale",
          "type": "bool"
        },
        {
          "internalType": "uint256",
          "name": "fertilizerCost",
          "type": "uint256"
        },
        {
          "internalType": "address",
          "name": "saddr",
          "type": "address"
        },
        {
          "internalType": "address",
          "name": "faddr",
          "type": "address"
        }
      ],
      "payable": false,
      "stateMutability": "view",
      "type": "function"
    },
    {
      "constant": true,
      "inputs": [
        {
          "internalType": "address",
          "name": "",
          "type": "address"
        }
      ],
      "name": "mlandlord",
      "outputs": [
        {
          "internalType": "uint256",
          "name": "landlordID",
          "type": "uint256"
        },
        {
          "internalType": "string",
          "name": "landlordName",
          "type": "string"
        },
        {
          "internalType": "uint256",
          "name": "landlordContact",
          "type": "uint256"
        },
        {
          "internalType": "string",
          "name": "landlordAddress",
          "type": "string"
        },
        {
          "internalType": "address",
          "name": "laddr",
          "type": "address"
        },
        {
          "internalType": "bool",
          "name": "isValue",
          "type": "bool"
        }
      ],
      "payable": false,
      "stateMutability": "view",
      "type": "function"
    },
    {
      "constant": true,
      "inputs": [
        {
          "internalType": "uint256",
          "name": "",
          "type": "uint256"
        }
      ],
      "name": "mlland",
      "outputs": [
        {
          "internalType": "uint256",
          "name": "landID",
          "type": "uint256"
        },
        {
          "internalType": "string",
          "name": "landAddress",
          "type": "string"
        },
        {
          "internalType": "string",
          "name": "soilType",
          "type": "string"
        },
        {
          "internalType": "uint256",
          "name": "area",
          "type": "uint256"
        },
        {
          "internalType": "uint256",
          "name": "cost",
          "type": "uint256"
        },
        {
          "internalType": "uint256",
          "name": "duration",
          "type": "uint256"
        },
        {
          "internalType": "bool",
          "name": "isBought",
          "type": "bool"
        },
        {
          "internalType": "bool",
          "name": "isLease",
          "type": "bool"
        },
        {
          "internalType": "address",
          "name": "laddr",
          "type": "address"
        },
        {
          "internalType": "address",
          "name": "faddr",
          "type": "address"
        }
      ],
      "payable": false,
      "stateMutability": "view",
      "type": "function"
    },
    {
      "constant": true,
      "inputs": [
        {
          "internalType": "address",
          "name": "",
          "type": "address"
        }
      ],
      "name": "mretail",
      "outputs": [
        {
          "internalType": "uint256",
          "name": "retailID",
          "type": "uint256"
        },
        {
          "internalType": "string",
          "name": "retailName",
          "type": "string"
        },
        {
          "internalType": "uint256",
          "name": "retailContact",
          "type": "uint256"
        },
        {
          "internalType": "string",
          "name": "retailAddress",
          "type": "string"
        },
        {
          "internalType": "address",
          "name": "raddr",
          "type": "address"
        },
        {
          "internalType": "bool",
          "name": "isValue",
          "type": "bool"
        }
      ],
      "payable": false,
      "stateMutability": "view",
      "type": "function"
    },
    {
      "constant": true,
      "inputs": [
        {
          "internalType": "uint256",
          "name": "",
          "type": "uint256"
        }
      ],
      "name": "mseed",
      "outputs": [
        {
          "internalType": "uint256",
          "name": "seedID",
          "type": "uint256"
        },
        {
          "internalType": "string",
          "name": "seedName",
          "type": "string"
        },
        {
          "internalType": "uint256",
          "name": "seedQuantity",
          "type": "uint256"
        },
        {
          "internalType": "bool",
          "name": "isBought",
          "type": "bool"
        },
        {
          "internalType": "bool",
          "name": "isSale",
          "type": "bool"
        },
        {
          "internalType": "uint256",
          "name": "seedcost",
          "type": "uint256"
        },
        {
          "internalType": "address",
          "name": "saddr",
          "type": "address"
        },
        {
          "internalType": "address",
          "name": "faddr",
          "type": "address"
        }
      ],
      "payable": false,
      "stateMutability": "view",
      "type": "function"
    },
    {
      "constant": true,
      "inputs": [
        {
          "internalType": "uint256",
          "name": "",
          "type": "uint256"
        }
      ],
      "name": "msland",
      "outputs": [
        {
          "internalType": "uint256",
          "name": "landID",
          "type": "uint256"
        },
        {
          "internalType": "string",
          "name": "landAddress",
          "type": "string"
        },
        {
          "internalType": "string",
          "name": "soilType",
          "type": "string"
        },
        {
          "internalType": "uint256",
          "name": "area",
          "type": "uint256"
        },
        {
          "internalType": "uint256",
          "name": "cost",
          "type": "uint256"
        },
        {
          "internalType": "bool",
          "name": "isBought",
          "type": "bool"
        },
        {
          "internalType": "bool",
          "name": "isSale",
          "type": "bool"
        },
        {
          "internalType": "address",
          "name": "laddr",
          "type": "address"
        },
        {
          "internalType": "address",
          "name": "faddr",
          "type": "address"
        }
      ],
      "payable": false,
      "stateMutability": "view",
      "type": "function"
    },
    {
      "constant": true,
      "inputs": [],
      "name": "retailCount",
      "outputs": [
        {
          "internalType": "uint256",
          "name": "",
          "type": "uint256"
        }
      ],
      "payable": false,
      "stateMutability": "view",
      "type": "function"
    },
    {
      "constant": true,
      "inputs": [],
      "name": "retailCropCount",
      "outputs": [
        {
          "internalType": "uint256",
          "name": "",
          "type": "uint256"
        }
      ],
      "payable": false,
      "stateMutability": "view",
      "type": "function"
    },
    {
      "constant": true,
      "inputs": [
        {
          "internalType": "uint256",
          "name": "",
          "type": "uint256"
        }
      ],
      "name": "saleArr",
      "outputs": [
        {
          "internalType": "uint256",
          "name": "",
          "type": "uint256"
        }
      ],
      "payable": false,
      "stateMutability": "view",
      "type": "function"
    },
    {
      "constant": true,
      "inputs": [],
      "name": "saleCount",
      "outputs": [
        {
          "internalType": "uint256",
          "name": "",
          "type": "uint256"
        }
      ],
      "payable": false,
      "stateMutability": "view",
      "type": "function"
    },
    {
      "constant": true,
      "inputs": [
        {
          "internalType": "uint256",
          "name": "",
          "type": "uint256"
        }
      ],
      "name": "seedArr",
      "outputs": [
        {
          "internalType": "uint256",
          "name": "",
          "type": "uint256"
        }
      ],
      "payable": false,
      "stateMutability": "view",
      "type": "function"
    },
    {
      "constant": true,
      "inputs": [],
      "name": "seedCount",
      "outputs": [
        {
          "internalType": "uint256",
          "name": "",
          "type": "uint256"
        }
      ],
      "payable": false,
      "stateMutability": "view",
      "type": "function"
    },
    {
      "constant": true,
      "inputs": [
        {
          "internalType": "uint256",
          "name": "",
          "type": "uint256"
        }
      ],
      "name": "temp",
      "outputs": [
        {
          "internalType": "uint256",
          "name": "",
          "type": "uint256"
        }
      ],
      "payable": false,
      "stateMutability": "view",
      "type": "function"
    },
    {
      "constant": false,
      "inputs": [
        {
          "internalType": "uint256",
          "name": "_landlordID",
          "type": "uint256"
        },
        {
          "internalType": "string",
          "name": "_landlordName",
          "type": "string"
        },
        {
          "internalType": "uint256",
          "name": "_landlordContact",
          "type": "uint256"
        },
        {
          "internalType": "string",
          "name": "_landlordAddress",
          "type": "string"
        }
      ],
      "name": "newLandlord",
      "outputs": [],
      "payable": false,
      "stateMutability": "nonpayable",
      "type": "function"
    },
    {
      "constant": false,
      "inputs": [
        {
          "internalType": "uint256",
          "name": "_landID",
          "type": "uint256"
        },
        {
          "internalType": "string",
          "name": "_landAddress",
          "type": "string"
        },
        {
          "internalType": "string",
          "name": "_soilType",
          "type": "string"
        },
        {
          "internalType": "uint256",
          "name": "_area",
          "type": "uint256"
        },
        {
          "internalType": "uint256",
          "name": "_cost",
          "type": "uint256"
        }
      ],
      "name": "addLandSale",
      "outputs": [],
      "payable": false,
      "stateMutability": "nonpayable",
      "type": "function"
    },
    {
      "constant": false,
      "inputs": [
        {
          "internalType": "uint256",
          "name": "_landID",
          "type": "uint256"
        },
        {
          "internalType": "string",
          "name": "_landAddress",
          "type": "string"
        },
        {
          "internalType": "string",
          "name": "_soilType",
          "type": "string"
        },
        {
          "internalType": "uint256",
          "name": "_area",
          "type": "uint256"
        },
        {
          "internalType": "uint256",
          "name": "_cost",
          "type": "uint256"
        },
        {
          "internalType": "uint256",
          "name": "_duration",
          "type": "uint256"
        }
      ],
      "name": "addLandLease",
      "outputs": [],
      "payable": false,
      "stateMutability": "nonpayable",
      "type": "function"
    },
    {
      "constant": false,
      "inputs": [
        {
          "internalType": "uint256",
          "name": "_dealerID",
          "type": "uint256"
        },
        {
          "internalType": "string",
          "name": "_dealerName",
          "type": "string"
        },
        {
          "internalType": "uint256",
          "name": "_dealerContact",
          "type": "uint256"
        },
        {
          "internalType": "string",
          "name": "_dealerAddress",
          "type": "string"
        }
      ],
      "name": "newSeedDealer",
      "outputs": [],
      "payable": false,
      "stateMutability": "nonpayable",
      "type": "function"
    },
    {
      "constant": false,
      "inputs": [
        {
          "internalType": "uint256",
          "name": "_seedID",
          "type": "uint256"
        },
        {
          "internalType": "string",
          "name": "_seedName",
          "type": "string"
        },
        {
          "internalType": "uint256",
          "name": "_seedcost",
          "type": "uint256"
        },
        {
          "internalType": "uint256",
          "name": "_seedQuantity",
          "type": "uint256"
        }
      ],
      "name": "newSeed",
      "outputs": [],
      "payable": false,
      "stateMutability": "nonpayable",
      "type": "function"
    },
    {
      "constant": false,
      "inputs": [
        {
          "internalType": "uint256",
          "name": "_fertilizerID",
          "type": "uint256"
        },
        {
          "internalType": "string",
          "name": "_fertilizerName",
          "type": "string"
        },
        {
          "internalType": "uint256",
          "name": "_fertilizerCost",
          "type": "uint256"
        },
        {
          "internalType": "uint256",
          "name": "_fertilizerQuantity",
          "type": "uint256"
        }
      ],
      "name": "newFertilizer",
      "outputs": [],
      "payable": false,
      "stateMutability": "nonpayable",
      "type": "function"
    },
    {
      "constant": false,
      "inputs": [
        {
          "internalType": "uint256",
          "name": "_farmerID",
          "type": "uint256"
        },
        {
          "internalType": "string",
          "name": "_farmerName",
          "type": "string"
        },
        {
          "internalType": "uint256",
          "name": "_farmerContact",
          "type": "uint256"
        },
        {
          "internalType": "string",
          "name": "_farmerAddress",
          "type": "string"
        }
      ],
      "name": "newFarmer",
      "outputs": [],
      "payable": false,
      "stateMutability": "nonpayable",
      "type": "function"
    },
    {
      "constant": false,
      "inputs": [
        {
          "internalType": "uint256",
          "name": "_cropID",
          "type": "uint256"
        },
        {
          "internalType": "string",
          "name": "_cropName",
          "type": "string"
        },
        {
          "internalType": "uint256",
          "name": "_quantity",
          "type": "uint256"
        },
        {
          "internalType": "uint256",
          "name": "_cropPrice",
          "type": "uint256"
        }
      ],
      "name": "addCrop",
      "outputs": [],
      "payable": false,
      "stateMutability": "nonpayable",
      "type": "function"
    },
    {
      "constant": false,
      "inputs": [
        {
          "internalType": "uint256",
          "name": "_landID",
          "type": "uint256"
        }
      ],
      "name": "purchaseLandLease",
      "outputs": [],
      "payable": false,
      "stateMutability": "nonpayable",
      "type": "function"
    },
    {
      "constant": false,
      "inputs": [
        {
          "internalType": "uint256",
          "name": "_landID",
          "type": "uint256"
        }
      ],
      "name": "purchaseLandSale",
      "outputs": [],
      "payable": false,
      "stateMutability": "nonpayable",
      "type": "function"
    },
    {
      "constant": false,
      "inputs": [
        {
          "internalType": "uint256",
          "name": "_seedID",
          "type": "uint256"
        }
      ],
      "name": "purchaseSeed",
      "outputs": [],
      "payable": false,
      "stateMutability": "nonpayable",
      "type": "function"
    },
    {
      "constant": false,
      "inputs": [
        {
          "internalType": "uint256",
          "name": "_fertilizerID",
          "type": "uint256"
        }
      ],
      "name": "purchaseFertilizer",
      "outputs": [],
      "payable": false,
      "stateMutability": "nonpayable",
      "type": "function"
    },
    {
      "constant": false,
      "inputs": [
        {
          "internalType": "uint256",
          "name": "_distID",
          "type": "uint256"
        },
        {
          "internalType": "string",
          "name": "_distName",
          "type": "string"
        },
        {
          "internalType": "uint256",
          "name": "_distContact",
          "type": "uint256"
        },
        {
          "internalType": "string",
          "name": "_distAddress",
          "type": "string"
        }
      ],
      "name": "addDist",
      "outputs": [],
      "payable": false,
      "stateMutability": "nonpayable",
      "type": "function"
    },
    {
      "constant": false,
      "inputs": [
        {
          "internalType": "uint256",
          "name": "_cropID",
          "type": "uint256"
        }
      ],
      "name": "distAddCrop",
      "outputs": [],
      "payable": false,
      "stateMutability": "nonpayable",
      "type": "function"
    },
    {
      "constant": false,
      "inputs": [
        {
          "internalType": "uint256",
          "name": "_retailID",
          "type": "uint256"
        },
        {
          "internalType": "string",
          "name": "_retailName",
          "type": "string"
        },
        {
          "internalType": "uint256",
          "name": "_retailContact",
          "type": "uint256"
        },
        {
          "internalType": "string",
          "name": "_retailAddress",
          "type": "string"
        }
      ],
      "name": "addRetail",
      "outputs": [],
      "payable": false,
      "stateMutability": "nonpayable",
      "type": "function"
    },
    {
      "constant": false,
      "inputs": [
        {
          "internalType": "uint256",
          "name": "_cropID",
          "type": "uint256"
        }
      ],
      "name": "retailAddCrop",
      "outputs": [],
      "payable": false,
      "stateMutability": "nonpayable",
      "type": "function"
    },
    {
      "constant": false,
      "inputs": [
        {
          "internalType": "uint256",
          "name": "_consumerID",
          "type": "uint256"
        },
        {
          "internalType": "string",
          "name": "_consumerName",
          "type": "string"
        },
        {
          "internalType": "uint256",
          "name": "_consumerContact",
          "type": "uint256"
        },
        {
          "internalType": "string",
          "name": "_consumerAddress",
          "type": "string"
        }
      ],
      "name": "addconsumer",
      "outputs": [],
      "payable": false,
      "stateMutability": "nonpayable",
      "type": "function"
    },
    {
      "constant": false,
      "inputs": [
        {
          "internalType": "uint256",
          "name": "_cropID",
          "type": "uint256"
        }
      ],
      "name": "consumerAddCrop",
      "outputs": [],
      "payable": false,
      "stateMutability": "nonpayable",
      "type": "function"
    }
  ],
  "bytecode": "0x608060405234801561001057600080fd5b5061555f806100206000396000f3fe608060405234801561001057600080fd5b50600436106102f15760003560e01c8063a1e89aec1161019d578063d544a90c116100e9578063ef096e2b116100a2578063fa1d9d2e1161007c578063fa1d9d2e146121f5578063fa810865146122ce578063fc279e6414612443578063fdd545e314612485576102f1565b8063ef096e2b14612033578063f034983214612061578063f2c52675146121c7576102f1565b8063d544a90c14611cfe578063dfd55a2c14611e36578063e96ba7f214611e54578063ea8f39f614611fc9578063ea97ab4b14611ff7578063edfb224214612015576102f1565b8063bd45b39711610156578063c684c23111610130578063c684c23114611c42578063cd9428c614611c60578063d21fe1cc14611c8e578063d4cca0c514611cd0576102f1565b8063bd45b39714611b2d578063bd850f0c14611b4b578063c078c1b514611c24576102f1565b8063a1e89aec14611776578063b039da0f14611794578063b4c0498b1461193f578063b5eaf4811461195d578063b9dd82861461199f578063bcd94def146119bd576102f1565b80634f256d611161025c578063808d0356116102155780638bed5bd2116101ef5780638bed5bd2146116b65780638d8a5b7d146116d457806396e53c4f1461171657806396e68ce714611758576102f1565b8063808d0356146113c757806381f28d8014611409578063832a31c614611541576102f1565b80634f256d6114610ef85780634f3afe831461105e57806362ec2cd8146111c4578063675f3191146113395780636c3755ad14611367578063762347bf146113a9576102f1565b80633d15a00e116102ae5780633d15a00e1461074c5780633f67865c146108f05780634228049314610a6557806343f197ba14610bcb57806349045f5714610d745780634d3fdae914610eda576102f1565b806306552091146102f65780631c4860f4146103145780631ff8f7401461048957806325c99da1146104b757806330abaf00146104f95780633c2267ff146105d2575b600080fd5b6102fe6125eb565b6040518082815260200191505060405180910390f35b6103566004803603602081101561032a57600080fd5b81019080803573ffffffffffffffffffffffffffffffffffffffff1690602001909291905050506125f1565b6040518087815260200180602001868152602001806020018573ffffffffffffffffffffffffffffffffffffffff1673ffffffffffffffffffffffffffffffffffffffff16815260200184151515158152602001838103835288818151815260200191508051906020019080838360005b838110156103e25780820151818401526020810190506103c7565b50505050905090810190601f16801561040f5780820380516001836020036101000a031916815260200191505b50838103825286818151815260200191508051906020019080838360005b8381101561044857808201518184015260208101905061042d565b50505050905090810190601f1680156104755780820380516001836020036101000a031916815260200191505b509850505050505050505060405180910390f35b6104b56004803603602081101561049f57600080fd5b810190808035906020019092919050505061278a565b005b6104e3600480360360208110156104cd57600080fd5b8101908080359060200190929190505050612840565b6040518082815260200191505060405180910390f35b6105d06004803603608081101561050f57600080fd5b81019080803590602001909291908035906020019064010000000081111561053657600080fd5b82018360208201111561054857600080fd5b8035906020019184600183028401116401000000008311171561056a57600080fd5b91908080601f016020809104026020016040519081016040528093929190818152602001838380828437600081840152601f19601f8201169050808301925050505050505091929192908035906020019092919080359060200190929190505050612861565b005b61074a600480360360c08110156105e857600080fd5b81019080803590602001909291908035906020019064010000000081111561060f57600080fd5b82018360208201111561062157600080fd5b8035906020019184600183028401116401000000008311171561064357600080fd5b91908080601f016020809104026020016040519081016040528093929190818152602001838380828437600081840152601f19601f820116905080830192505050505050509192919290803590602001906401000000008111156106a657600080fd5b8201836020820111156106b857600080fd5b803590602001918460018302840111640100000000831117156106da57600080fd5b91908080601f016020809104026020016040519081016040528093929190818152602001838380828437600081840152601f19601f820116905080830192505050505050509192919290803590602001909291908035906020019092919080359060200190929190505050612a44565b005b6107786004803603602081101561076257600080fd5b8101908080359060200190929190505050612c68565b604051808a8152602001806020018060200189815260200188815260200187151515158152602001861515151581526020018573ffffffffffffffffffffffffffffffffffffffff1673ffffffffffffffffffffffffffffffffffffffff1681526020018473ffffffffffffffffffffffffffffffffffffffff1673ffffffffffffffffffffffffffffffffffffffff16815260200183810383528b818151815260200191508051906020019080838360005b8381101561084657808201518184015260208101905061082b565b50505050905090810190601f1680156108735780820380516001836020036101000a031916815260200191505b5083810382528a818151815260200191508051906020019080838360005b838110156108ac578082015181840152602081019050610891565b50505050905090810190601f1680156108d95780820380516001836020036101000a031916815260200191505b509b50505050505050505050505060405180910390f35b6109326004803603602081101561090657600080fd5b81019080803573ffffffffffffffffffffffffffffffffffffffff169060200190929190505050612e40565b6040518087815260200180602001868152602001806020018573ffffffffffffffffffffffffffffffffffffffff1673ffffffffffffffffffffffffffffffffffffffff16815260200184151515158152602001838103835288818151815260200191508051906020019080838360005b838110156109be5780820151818401526020810190506109a3565b50505050905090810190601f1680156109eb5780820380516001836020036101000a031916815260200191505b50838103825286818151815260200191508051906020019080838360005b83811015610a24578082015181840152602081019050610a09565b50505050905090810190601f168015610a515780820380516001836020036101000a031916815260200191505b509850505050505050505060405180910390f35b610bc960048036036080811015610a7b57600080fd5b810190808035906020019092919080359060200190640100000000811115610aa257600080fd5b820183602082011115610ab457600080fd5b80359060200191846001830284011164010000000083111715610ad657600080fd5b91908080601f016020809104026020016040519081016040528093929190818152602001838380828437600081840152601f19601f8201169050808301925050505050505091929192908035906020019092919080359060200190640100000000811115610b4357600080fd5b820183602082011115610b5557600080fd5b80359060200191846001830284011164010000000083111715610b7757600080fd5b91908080601f016020809104026020016040519081016040528093929190818152602001838380828437600081840152601f19601f820116905080830192505050505050509192919290505050612fd9565b005b610bf760048036036020811015610be157600080fd5b810190808035906020019092919050505061324e565b604051808c8152602001806020018b81526020018a81526020018973ffffffffffffffffffffffffffffffffffffffff1673ffffffffffffffffffffffffffffffffffffffff1681526020018873ffffffffffffffffffffffffffffffffffffffff1673ffffffffffffffffffffffffffffffffffffffff1681526020018773ffffffffffffffffffffffffffffffffffffffff1673ffffffffffffffffffffffffffffffffffffffff1681526020018673ffffffffffffffffffffffffffffffffffffffff1673ffffffffffffffffffffffffffffffffffffffff16815260200185151515158152602001841515151581526020018315151515815260200182810382528c818151815260200191508051906020019080838360005b83811015610d2f578082015181840152602081019050610d14565b50505050905090810190601f168015610d5c5780820380516001836020036101000a031916815260200191505b509c5050505050505050505050505060405180910390f35b610ed860048036036080811015610d8a57600080fd5b810190808035906020019092919080359060200190640100000000811115610db157600080fd5b820183602082011115610dc357600080fd5b80359060200191846001830284011164010000000083111715610de557600080fd5b91908080601f016020809104026020016040519081016040528093929190818152602001838380828437600081840152601f19601f8201169050808301925050505050505091929192908035906020019092919080359060200190640100000000811115610e5257600080fd5b820183602082011115610e6457600080fd5b80359060200191846001830284011164010000000083111715610e8657600080fd5b91908080601f016020809104026020016040519081016040528093929190818152602001838380828437600081840152601f19601f8201169050808301925050505050505091929192905050506133e7565b005b610ee261365e565b6040518082815260200191505060405180910390f35b61105c60048036036080811015610f0e57600080fd5b810190808035906020019092919080359060200190640100000000811115610f3557600080fd5b820183602082011115610f4757600080fd5b80359060200191846001830284011164010000000083111715610f6957600080fd5b91908080601f016020809104026020016040519081016040528093929190818152602001838380828437600081840152601f19601f8201169050808301925050505050505091929192908035906020019092919080359060200190640100000000811115610fd657600080fd5b820183602082011115610fe857600080fd5b8035906020019184600183028401116401000000008311171561100a57600080fd5b91908080601f016020809104026020016040519081016040528093929190818152602001838380828437600081840152601f19601f820116905080830192505050505050509192919290505050613664565b005b6111c26004803603608081101561107457600080fd5b81019080803590602001909291908035906020019064010000000081111561109b57600080fd5b8201836020820111156110ad57600080fd5b803590602001918460018302840111640100000000831117156110cf57600080fd5b91908080601f016020809104026020016040519081016040528093929190818152602001838380828437600081840152601f19601f820116905080830192505050505050509192919290803590602001909291908035906020019064010000000081111561113c57600080fd5b82018360208201111561114e57600080fd5b8035906020019184600183028401116401000000008311171561117057600080fd5b91908080601f016020809104026020016040519081016040528093929190818152602001838380828437600081840152601f19601f8201169050808301925050505050505091929192905050506138db565b005b611206600480360360208110156111da57600080fd5b81019080803573ffffffffffffffffffffffffffffffffffffffff169060200190929190505050613b52565b6040518087815260200180602001868152602001806020018573ffffffffffffffffffffffffffffffffffffffff1673ffffffffffffffffffffffffffffffffffffffff16815260200184151515158152602001838103835288818151815260200191508051906020019080838360005b83811015611292578082015181840152602081019050611277565b50505050905090810190601f1680156112bf5780820380516001836020036101000a031916815260200191505b50838103825286818151815260200191508051906020019080838360005b838110156112f85780820151818401526020810190506112dd565b50505050905090810190601f1680156113255780820380516001836020036101000a031916815260200191505b509850505050505050505060405180910390f35b6113656004803603602081101561134f57600080fd5b8101908080359060200190929190505050613ceb565b005b6113936004803603602081101561137d57600080fd5b8101908080359060200190929190505050613d5e565b6040518082815260200191505060405180910390f35b6113b1613d7f565b6040518082815260200191505060405180910390f35b6113f3600480360360208110156113dd57600080fd5b8101908080359060200190929190505050613d85565b6040518082815260200191505060405180910390f35b6114356004803603602081101561141f57600080fd5b8101908080359060200190929190505050613da6565b604051808981526020018060200188815260200187151515158152602001861515151581526020018581526020018473ffffffffffffffffffffffffffffffffffffffff1673ffffffffffffffffffffffffffffffffffffffff1681526020018373ffffffffffffffffffffffffffffffffffffffff1673ffffffffffffffffffffffffffffffffffffffff168152602001828103825289818151815260200191508051906020019080838360005b838110156114ff5780820151818401526020810190506114e4565b50505050905090810190601f16801561152c5780820380516001836020036101000a031916815260200191505b50995050505050505050505060405180910390f35b6115836004803603602081101561155757600080fd5b81019080803573ffffffffffffffffffffffffffffffffffffffff169060200190929190505050613ee0565b6040518087815260200180602001868152602001806020018573ffffffffffffffffffffffffffffffffffffffff1673ffffffffffffffffffffffffffffffffffffffff16815260200184151515158152602001838103835288818151815260200191508051906020019080838360005b8381101561160f5780820151818401526020810190506115f4565b50505050905090810190601f16801561163c5780820380516001836020036101000a031916815260200191505b50838103825286818151815260200191508051906020019080838360005b8381101561167557808201518184015260208101905061165a565b50505050905090810190601f1680156116a25780820380516001836020036101000a031916815260200191505b509850505050505050505060405180910390f35b6116be614079565b6040518082815260200191505060405180910390f35b611700600480360360208110156116ea57600080fd5b810190808035906020019092919050505061407f565b6040518082815260200191505060405180910390f35b6117426004803603602081101561172c57600080fd5b81019080803590602001909291905050506140a0565b6040518082815260200191505060405180910390f35b6117606140c1565b6040518082815260200191505060405180910390f35b61177e6140c7565b6040518082815260200191505060405180910390f35b6117c0600480360360208110156117aa57600080fd5b81019080803590602001909291905050506140cd565b604051808b815260200180602001806020018a815260200189815260200188815260200187151515158152602001861515151581526020018573ffffffffffffffffffffffffffffffffffffffff1673ffffffffffffffffffffffffffffffffffffffff1681526020018473ffffffffffffffffffffffffffffffffffffffff1673ffffffffffffffffffffffffffffffffffffffff16815260200183810383528c818151815260200191508051906020019080838360005b83811015611894578082015181840152602081019050611879565b50505050905090810190601f1680156118c15780820380516001836020036101000a031916815260200191505b5083810382528b818151815260200191508051906020019080838360005b838110156118fa5780820151818401526020810190506118df565b50505050905090810190601f1680156119275780820380516001836020036101000a031916815260200191505b509c5050505050505050505050505060405180910390f35b6119476142ab565b6040518082815260200191505060405180910390f35b6119896004803603602081101561197357600080fd5b81019080803590602001909291905050506142b1565b6040518082815260200191505060405180910390f35b6119a76142d2565b6040518082815260200191505060405180910390f35b611b2b600480360360a08110156119d357600080fd5b8101908080359060200190929190803590602001906401000000008111156119fa57600080fd5b820183602082011115611a0c57600080fd5b80359060200191846001830284011164010000000083111715611a2e57600080fd5b91908080601f016020809104026020016040519081016040528093929190818152602001838380828437600081840152601f19601f82011690508083019250505050505050919291929080359060200190640100000000811115611a9157600080fd5b820183602082011115611aa357600080fd5b80359060200191846001830284011164010000000083111715611ac557600080fd5b91908080601f016020809104026020016040519081016040528093929190818152602001838380828437600081840152601f19601f82011690508083019250505050505050919291929080359060200190929190803590602001909291905050506142d8565b005b611b356144ea565b6040518082815260200191505060405180910390f35b611c2260048036036080811015611b6157600080fd5b810190808035906020019092919080359060200190640100000000811115611b8857600080fd5b820183602082011115611b9a57600080fd5b80359060200191846001830284011164010000000083111715611bbc57600080fd5b91908080601f016020809104026020016040519081016040528093929190818152602001838380828437600081840152601f19601f82011690508083019250505050505050919291929080359060200190929190803590602001909291905050506144f0565b005b611c2c61467b565b6040518082815260200191505060405180910390f35b611c4a614681565b6040518082815260200191505060405180910390f35b611c8c60048036036020811015611c7657600080fd5b8101908080359060200190929190505050614687565b005b611cba60048036036020811015611ca457600080fd5b81019080803590602001909291905050506146fa565b6040518082815260200191505060405180910390f35b611cfc60048036036020811015611ce657600080fd5b810190808035906020019092919050505061471b565b005b611d2a60048036036020811015611d1457600080fd5b810190808035906020019092919050505061478e565b604051808981526020018060200188815260200187151515158152602001861515151581526020018581526020018473ffffffffffffffffffffffffffffffffffffffff1673ffffffffffffffffffffffffffffffffffffffff1681526020018373ffffffffffffffffffffffffffffffffffffffff1673ffffffffffffffffffffffffffffffffffffffff168152602001828103825289818151815260200191508051906020019080838360005b83811015611df4578082015181840152602081019050611dd9565b50505050905090810190601f168015611e215780820380516001836020036101000a031916815260200191505b50995050505050505050505060405180910390f35b611e3e6148c8565b6040518082815260200191505060405180910390f35b611e9660048036036020811015611e6a57600080fd5b81019080803573ffffffffffffffffffffffffffffffffffffffff1690602001909291905050506148ce565b6040518087815260200180602001806020018681526020018573ffffffffffffffffffffffffffffffffffffffff1673ffffffffffffffffffffffffffffffffffffffff16815260200184151515158152602001838103835288818151815260200191508051906020019080838360005b83811015611f22578082015181840152602081019050611f07565b50505050905090810190601f168015611f4f5780820380516001836020036101000a031916815260200191505b50838103825287818151815260200191508051906020019080838360005b83811015611f88578082015181840152602081019050611f6d565b50505050905090810190601f168015611fb55780820380516001836020036101000a031916815260200191505b509850505050505050505060405180910390f35b611ff560048036036020811015611fdf57600080fd5b8101908080359060200190929190505050614a67565b005b611fff614b1d565b6040518082815260200191505060405180910390f35b61201d614b23565b6040518082815260200191505060405180910390f35b61205f6004803603602081101561204957600080fd5b8101908080359060200190929190505050614b29565b005b6121c56004803603608081101561207757600080fd5b81019080803590602001909291908035906020019064010000000081111561209e57600080fd5b8201836020820111156120b057600080fd5b803590602001918460018302840111640100000000831117156120d257600080fd5b91908080601f016020809104026020016040519081016040528093929190818152602001838380828437600081840152601f19601f820116905080830192505050505050509192919290803590602001909291908035906020019064010000000081111561213f57600080fd5b82018360208201111561215157600080fd5b8035906020019184600183028401116401000000008311171561217357600080fd5b91908080601f016020809104026020016040519081016040528093929190818152602001838380828437600081840152601f19601f820116905080830192505050505050509192919290505050614b9c565b005b6121f3600480360360208110156121dd57600080fd5b8101908080359060200190929190505050614e13565b005b6122cc6004803603608081101561220b57600080fd5b81019080803590602001909291908035906020019064010000000081111561223257600080fd5b82018360208201111561224457600080fd5b8035906020019184600183028401116401000000008311171561226657600080fd5b91908080601f016020809104026020016040519081016040528093929190818152602001838380828437600081840152601f19601f8201169050808301925050505050505091929192908035906020019092919080359060200190929190505050614ec9565b005b612310600480360360208110156122e457600080fd5b81019080803573ffffffffffffffffffffffffffffffffffffffff169060200190929190505050615054565b6040518087815260200180602001868152602001806020018573ffffffffffffffffffffffffffffffffffffffff1673ffffffffffffffffffffffffffffffffffffffff16815260200184151515158152602001838103835288818151815260200191508051906020019080838360005b8381101561239c578082015181840152602081019050612381565b50505050905090810190601f1680156123c95780820380516001836020036101000a031916815260200191505b50838103825286818151815260200191508051906020019080838360005b838110156124025780820151818401526020810190506123e7565b50505050905090810190601f16801561242f5780820380516001836020036101000a031916815260200191505b509850505050505050505060405180910390f35b61246f6004803603602081101561245957600080fd5b81019080803590602001909291905050506151ed565b6040518082815260200191505060405180910390f35b6125e96004803603608081101561249b57600080fd5b8101908080359060200190929190803590602001906401000000008111156124c257600080fd5b8201836020820111156124d457600080fd5b803590602001918460018302840111640100000000831117156124f657600080fd5b91908080601f016020809104026020016040519081016040528093929190818152602001838380828437600081840152601f19601f820116905080830192505050505050509192919290803590602001909291908035906020019064010000000081111561256357600080fd5b82018360208201111561257557600080fd5b8035906020019184600183028401116401000000008311171561259757600080fd5b91908080601f016020809104026020016040519081016040528093929190818152602001838380828437600081840152601f19601f82011690508083019250505050505050919291929050505061520e565b005b60135481565b6004602052806000526040600020600091509050806000015490806001018054600181600116156101000203166002900480601f0160208091040260200160405190810160405280929190818152602001828054600181600116156101000203166002900480156126a35780601f10612678576101008083540402835291602001916126a3565b820191906000526020600020905b81548152906001019060200180831161268657829003601f168201915b505050505090806002015490806003018054600181600116156101000203166002900480601f0160208091040260200160405190810160405280929190818152602001828054600181600116156101000203166002900480156127475780601f1061271c57610100808354040283529160200191612747565b820191906000526020600020905b81548152906001019060200180831161272a57829003601f168201915b5050505050908060040160009054906101000a900473ffffffffffffffffffffffffffffffffffffffff16908060040160149054906101000a900460ff16905086565b6000600760008381526020019081526020016000209050338160060160006101000a81548173ffffffffffffffffffffffffffffffffffffffff021916908373ffffffffffffffffffffffffffffffffffffffff16021790555060018160070160156101000a81548160ff0219169083151502179055507f0cbf06922eb83154b3fe6f9e5c3288291460b497fd91bab7aaecaf6f828a39ea81600001546040518082815260200191505060405180910390a15050565b600c818154811061284d57fe5b906000526020600020016000915090505481565b6000600760008681526020019081526020016000209050338160040160006101000a81548173ffffffffffffffffffffffffffffffffffffffff021916908373ffffffffffffffffffffffffffffffffffffffff160217905550848160000181905550838160010190805190602001906128dc929190615485565b50828160020181905550818160030181905550601a60008154809291906001019190505550600f8590806001815401808255809150509060018203906000526020600020016000909192909190915055507f378c5f03b632c0811ba440398934fb1eafc2713c8186a0bc988db1302b2f9e0f81600001548585858560040160009054906101000a900473ffffffffffffffffffffffffffffffffffffffff1660405180868152602001806020018581526020018481526020018373ffffffffffffffffffffffffffffffffffffffff1673ffffffffffffffffffffffffffffffffffffffff168152602001828103825286818151815260200191508051906020019080838360005b838110156129ff5780820151818401526020810190506129e4565b50505050905090810190601f168015612a2c5780820380516001836020036101000a031916815260200191505b50965050505050505060405180910390a15050505050565b6000600260008881526020019081526020016000209050338160060160026101000a81548173ffffffffffffffffffffffffffffffffffffffff021916908373ffffffffffffffffffffffffffffffffffffffff16021790555086816000018190555085816001019080519060200190612abf929190615485565b5084816002019080519060200190612ad8929190615485565b50838160030181905550828160040181905550818160050181905550601560008154809291906001019190505550600b8790806001815401808255809150509060018203906000526020600020016000909192909190915055507f439f63ff3358d031c0d7ea0b2dad09bb38c25aa5873ee25526f60b2434ddf69a81600001548787878787604051808781526020018060200180602001868152602001858152602001848152602001838103835288818151815260200191508051906020019080838360005b83811015612bb9578082015181840152602081019050612b9e565b50505050905090810190601f168015612be65780820380516001836020036101000a031916815260200191505b50838103825287818151815260200191508051906020019080838360005b83811015612c1f578082015181840152602081019050612c04565b50505050905090810190601f168015612c4c5780820380516001836020036101000a031916815260200191505b509850505050505050505060405180910390a150505050505050565b6003602052806000526040600020600091509050806000015490806001018054600181600116156101000203166002900480601f016020809104026020016040519081016040528092919081815260200182805460018160011615610100020316600290048015612d1a5780601f10612cef57610100808354040283529160200191612d1a565b820191906000526020600020905b815481529060010190602001808311612cfd57829003601f168201915b505050505090806002018054600181600116156101000203166002900480601f016020809104026020016040519081016040528092919081815260200182805460018160011615610100020316600290048015612db85780601f10612d8d57610100808354040283529160200191612db8565b820191906000526020600020905b815481529060010190602001808311612d9b57829003601f168201915b5050505050908060030154908060040154908060050160009054906101000a900460ff16908060050160019054906101000a900460ff16908060050160029054906101000a900473ffffffffffffffffffffffffffffffffffffffff16908060060160009054906101000a900473ffffffffffffffffffffffffffffffffffffffff16905089565b6000602052806000526040600020600091509050806000015490806001018054600181600116156101000203166002900480601f016020809104026020016040519081016040528092919081815260200182805460018160011615610100020316600290048015612ef25780601f10612ec757610100808354040283529160200191612ef2565b820191906000526020600020905b815481529060010190602001808311612ed557829003601f168201915b505050505090806002015490806003018054600181600116156101000203166002900480601f016020809104026020016040519081016040528092919081815260200182805460018160011615610100020316600290048015612f965780601f10612f6b57610100808354040283529160200191612f96565b820191906000526020600020905b815481529060010190602001808311612f7957829003601f168201915b5050505050908060040160009054906101000a900473ffffffffffffffffffffffffffffffffffffffff16908060040160149054906101000a900460ff16905086565b60008060003373ffffffffffffffffffffffffffffffffffffffff1673ffffffffffffffffffffffffffffffffffffffff16815260200190815260200160002090506000803373ffffffffffffffffffffffffffffffffffffffff1673ffffffffffffffffffffffffffffffffffffffff16815260200190815260200160002060040160149054906101000a900460ff161561307457600080fd5b338160040160006101000a81548173ffffffffffffffffffffffffffffffffffffffff021916908373ffffffffffffffffffffffffffffffffffffffff160217905550848160000181905550838160010190805190602001906130d8929190615485565b50818160030190805190602001906130f1929190615485565b5082816002018190555060018160040160146101000a81548160ff0219169083151502179055506013600081548092919060010191905055507f08668c3163d612d8a94f23903ed5e73898d30921f3f8141c5d33a9495487754c8160000154858585604051808581526020018060200184815260200180602001838103835286818151815260200191508051906020019080838360005b838110156131a3578082015181840152602081019050613188565b50505050905090810190601f1680156131d05780820380516001836020036101000a031916815260200191505b50838103825284818151815260200191508051906020019080838360005b838110156132095780820151818401526020810190506131ee565b50505050905090810190601f1680156132365780820380516001836020036101000a031916815260200191505b50965050505050505060405180910390a15050505050565b6007602052806000526040600020600091509050806000015490806001018054600181600116156101000203166002900480601f0160208091040260200160405190810160405280929190818152602001828054600181600116156101000203166002900480156133005780601f106132d557610100808354040283529160200191613300565b820191906000526020600020905b8154815290600101906020018083116132e357829003601f168201915b5050505050908060020154908060030154908060040160009054906101000a900473ffffffffffffffffffffffffffffffffffffffff16908060050160009054906101000a900473ffffffffffffffffffffffffffffffffffffffff16908060060160009054906101000a900473ffffffffffffffffffffffffffffffffffffffff16908060070160009054906101000a900473ffffffffffffffffffffffffffffffffffffffff16908060070160149054906101000a900460ff16908060070160159054906101000a900460ff16908060070160169054906101000a900460ff1690508b565b6000600160003373ffffffffffffffffffffffffffffffffffffffff1673ffffffffffffffffffffffffffffffffffffffff1681526020019081526020016000209050600160003373ffffffffffffffffffffffffffffffffffffffff1673ffffffffffffffffffffffffffffffffffffffff16815260200190815260200160002060040160149054906101000a900460ff161561348457600080fd5b338160040160006101000a81548173ffffffffffffffffffffffffffffffffffffffff021916908373ffffffffffffffffffffffffffffffffffffffff160217905550848160000181905550838160010190805190602001906134e8929190615485565b5081816002019080519060200190613501929190615485565b5082816003018190555060018160040160146101000a81548160ff0219169083151502179055506014600081548092919060010191905055507fd6872be6e41398807aa745d3fa75664e9c98bab6bc08f2ede66cf950f1a86e4f8160000154858585604051808581526020018060200184815260200180602001838103835286818151815260200191508051906020019080838360005b838110156135b3578082015181840152602081019050613598565b50505050905090810190601f1680156135e05780820380516001836020036101000a031916815260200191505b50838103825284818151815260200191508051906020019080838360005b838110156136195780820151818401526020810190506135fe565b50505050905090810190601f1680156136465780820380516001836020036101000a031916815260200191505b50965050505050505060405180910390a15050505050565b601b5481565b6000600a60003373ffffffffffffffffffffffffffffffffffffffff1673ffffffffffffffffffffffffffffffffffffffff1681526020019081526020016000209050600a60003373ffffffffffffffffffffffffffffffffffffffff1673ffffffffffffffffffffffffffffffffffffffff16815260200190815260200160002060040160149054906101000a900460ff161561370157600080fd5b338160040160006101000a81548173ffffffffffffffffffffffffffffffffffffffff021916908373ffffffffffffffffffffffffffffffffffffffff16021790555084816000018190555083816001019080519060200190613765929190615485565b5082816002018190555081816003019080519060200190613787929190615485565b5060018160040160146101000a81548160ff021916908315150217905550601d600081548092919060010191905055507f1a13455a6f21ea22183743d3a2e4337878ecb3600567972479049c8beeb902988160000154858585604051808581526020018060200184815260200180602001838103835286818151815260200191508051906020019080838360005b83811015613830578082015181840152602081019050613815565b50505050905090810190601f16801561385d5780820380516001836020036101000a031916815260200191505b50838103825284818151815260200191508051906020019080838360005b8381101561389657808201518184015260208101905061387b565b50505050905090810190601f1680156138c35780820380516001836020036101000a031916815260200191505b50965050505050505060405180910390a15050505050565b6000600460003373ffffffffffffffffffffffffffffffffffffffff1673ffffffffffffffffffffffffffffffffffffffff1681526020019081526020016000209050600460003373ffffffffffffffffffffffffffffffffffffffff1673ffffffffffffffffffffffffffffffffffffffff16815260200190815260200160002060040160149054906101000a900460ff161561397857600080fd5b338160040160006101000a81548173ffffffffffffffffffffffffffffffffffffffff021916908373ffffffffffffffffffffffffffffffffffffffff160217905550848160000181905550838160010190805190602001906139dc929190615485565b50818160030190805190602001906139f5929190615485565b5082816002018190555060018160040160146101000a81548160ff0219169083151502179055506019600081548092919060010191905055507fb36cc4119d00d499f56607c93b70202fbd20ed3ddec3c66d8f91c3890dc4ff2e8160000154858585604051808581526020018060200184815260200180602001838103835286818151815260200191508051906020019080838360005b83811015613aa7578082015181840152602081019050613a8c565b50505050905090810190601f168015613ad45780820380516001836020036101000a031916815260200191505b50838103825284818151815260200191508051906020019080838360005b83811015613b0d578082015181840152602081019050613af2565b50505050905090810190601f168015613b3a5780820380516001836020036101000a031916815260200191505b50965050505050505060405180910390a15050505050565b600a602052806000526040600020600091509050806000015490806001018054600181600116156101000203166002900480601f016020809104026020016040519081016040528092919081815260200182805460018160011615610100020316600290048015613c045780601f10613bd957610100808354040283529160200191613c04565b820191906000526020600020905b815481529060010190602001808311613be757829003601f168201915b505050505090806002015490806003018054600181600116156101000203166002900480601f016020809104026020016040519081016040528092919081815260200182805460018160011615610100020316600290048015613ca85780601f10613c7d57610100808354040283529160200191613ca8565b820191906000526020600020905b815481529060010190602001808311613c8b57829003601f168201915b5050505050908060040160009054906101000a900473ffffffffffffffffffffffffffffffffffffffff16908060040160149054906101000a900460ff16905086565b600060026000838152602001908152602001600020905060018160060160006101000a81548160ff0219169083151502179055507fb113ddee1f19c663134cf17fedc292ab8569c4313980b37a98ad6f576fe205d081600001546040518082815260200191505060405180910390a15050565b60128181548110613d6b57fe5b906000526020600020016000915090505481565b60205481565b600d8181548110613d9257fe5b906000526020600020016000915090505481565b6006602052806000526040600020600091509050806000015490806001018054600181600116156101000203166002900480601f016020809104026020016040519081016040528092919081815260200182805460018160011615610100020316600290048015613e585780601f10613e2d57610100808354040283529160200191613e58565b820191906000526020600020905b815481529060010190602001808311613e3b57829003601f168201915b5050505050908060020154908060030160009054906101000a900460ff16908060030160019054906101000a900460ff16908060040154908060050160009054906101000a900473ffffffffffffffffffffffffffffffffffffffff16908060060160009054906101000a900473ffffffffffffffffffffffffffffffffffffffff16905088565b6008602052806000526040600020600091509050806000015490806001018054600181600116156101000203166002900480601f016020809104026020016040519081016040528092919081815260200182805460018160011615610100020316600290048015613f925780601f10613f6757610100808354040283529160200191613f92565b820191906000526020600020905b815481529060010190602001808311613f7557829003601f168201915b505050505090806002015490806003018054600181600116156101000203166002900480601f0160208091040260200160405190810160405280929190818152602001828054600181600116156101000203166002900480156140365780601f1061400b57610100808354040283529160200191614036565b820191906000526020600020905b81548152906001019060200180831161401957829003601f168201915b5050505050908060040160009054906101000a900473ffffffffffffffffffffffffffffffffffffffff16908060040160149054906101000a900460ff16905086565b60165481565b600e818154811061408c57fe5b906000526020600020016000915090505481565b600b81815481106140ad57fe5b906000526020600020016000915090505481565b60175481565b60185481565b6002602052806000526040600020600091509050806000015490806001018054600181600116156101000203166002900480601f01602080910402602001604051908101604052809291908181526020018280546001816001161561010002031660029004801561417f5780601f106141545761010080835404028352916020019161417f565b820191906000526020600020905b81548152906001019060200180831161416257829003601f168201915b505050505090806002018054600181600116156101000203166002900480601f01602080910402602001604051908101604052809291908181526020018280546001816001161561010002031660029004801561421d5780601f106141f25761010080835404028352916020019161421d565b820191906000526020600020905b81548152906001019060200180831161420057829003601f168201915b5050505050908060030154908060040154908060050154908060060160009054906101000a900460ff16908060060160019054906101000a900460ff16908060060160029054906101000a900473ffffffffffffffffffffffffffffffffffffffff16908060070160009054906101000a900473ffffffffffffffffffffffffffffffffffffffff1690508a565b60155481565b600f81815481106142be57fe5b906000526020600020016000915090505481565b601c5481565b6000600360008781526020019081526020016000209050338160050160026101000a81548173ffffffffffffffffffffffffffffffffffffffff021916908373ffffffffffffffffffffffffffffffffffffffff16021790555085816000018190555084816001019080519060200190614353929190615485565b508381600201908051906020019061436c929190615485565b50828160030181905550818160040181905550601860008154809291906001019190505550600c8690806001815401808255809150509060018203906000526020600020016000909192909190915055507f1165557beb26b62f0b993d64631cef5a6da178727e9e0403f41c77c28bc8d73d816000015486868686604051808681526020018060200180602001858152602001848152602001838103835287818151815260200191508051906020019080838360005b8381101561443d578082015181840152602081019050614422565b50505050905090810190601f16801561446a5780820380516001836020036101000a031916815260200191505b50838103825286818151815260200191508051906020019080838360005b838110156144a3578082015181840152602081019050614488565b50505050905090810190601f1680156144d05780820380516001836020036101000a031916815260200191505b5097505050505050505060405180910390a1505050505050565b60195481565b6000600660008681526020019081526020016000209050338160050160006101000a81548173ffffffffffffffffffffffffffffffffffffffff021916908373ffffffffffffffffffffffffffffffffffffffff1602179055508481600001819055508381600101908051906020019061456b929190615485565b50828160040181905550818160020181905550600e8590806001815401808255809150509060018203906000526020600020016000909192909190915055506017600081548092919060010191905055507f7dd1ac0f3045c721af138f4c0f5c1d81f03d3ce527d8984fb057c73a2229973e81600001548585856040518085815260200180602001848152602001838152602001828103825285818151815260200191508051906020019080838360005b8381101561463757808201518184015260208101905061461c565b50505050905090810190601f1680156146645780820380516001836020036101000a031916815260200191505b509550505050505060405180910390a15050505050565b601d5481565b601f5481565b600060036000838152602001908152602001600020905060018160050160006101000a81548160ff0219169083151502179055507f4d76f888e2d45ed5342180cd02cd937a6df60e70f9267b6fe3d23fef91073dbe81600001546040518082815260200191505060405180910390a15050565b6010818154811061470757fe5b906000526020600020016000915090505481565b600060056000838152602001908152602001600020905060018160030160006101000a81548160ff0219169083151502179055507f4884f639bffe6ebc2bd20dcf3acba03bbb77a1c29ce119ee0468add1e526bf2e81600001546040518082815260200191505060405180910390a15050565b6005602052806000526040600020600091509050806000015490806001018054600181600116156101000203166002900480601f0160208091040260200160405190810160405280929190818152602001828054600181600116156101000203166002900480156148405780601f1061481557610100808354040283529160200191614840565b820191906000526020600020905b81548152906001019060200180831161482357829003601f168201915b5050505050908060020154908060030160009054906101000a900460ff16908060030160019054906101000a900460ff16908060040154908060050160009054906101000a900473ffffffffffffffffffffffffffffffffffffffff16908060060160009054906101000a900473ffffffffffffffffffffffffffffffffffffffff16905088565b601a5481565b6001602052806000526040600020600091509050806000015490806001018054600181600116156101000203166002900480601f0160208091040260200160405190810160405280929190818152602001828054600181600116156101000203166002900480156149805780601f1061495557610100808354040283529160200191614980565b820191906000526020600020905b81548152906001019060200180831161496357829003601f168201915b505050505090806002018054600181600116156101000203166002900480601f016020809104026020016040519081016040528092919081815260200182805460018160011615610100020316600290048015614a1e5780601f106149f357610100808354040283529160200191614a1e565b820191906000526020600020905b815481529060010190602001808311614a0157829003601f168201915b5050505050908060030154908060040160009054906101000a900473ffffffffffffffffffffffffffffffffffffffff16908060040160149054906101000a900460ff16905086565b6000600760008381526020019081526020016000209050338160050160006101000a81548173ffffffffffffffffffffffffffffffffffffffff021916908373ffffffffffffffffffffffffffffffffffffffff16021790555060018160070160146101000a81548160ff0219169083151502179055507fadae2f6d15893072faac01469d9c4ab03345012f63f977eabb99ca98c67fc3de81600001546040518082815260200191505060405180910390a15050565b60145481565b601e5481565b600060066000838152602001908152602001600020905060018160030160006101000a81548160ff0219169083151502179055507fa214b590499078bd7c3ac19858552eb9d47ef202d017c8c1af3a1f2559710b2b81600001546040518082815260200191505060405180910390a15050565b6000600860003373ffffffffffffffffffffffffffffffffffffffff1673ffffffffffffffffffffffffffffffffffffffff1681526020019081526020016000209050600860003373ffffffffffffffffffffffffffffffffffffffff1673ffffffffffffffffffffffffffffffffffffffff16815260200190815260200160002060040160149054906101000a900460ff1615614c3957600080fd5b338160040160006101000a81548173ffffffffffffffffffffffffffffffffffffffff021916908373ffffffffffffffffffffffffffffffffffffffff16021790555084816000018190555083816001019080519060200190614c9d929190615485565b5082816002018190555081816003019080519060200190614cbf929190615485565b5060018160040160146101000a81548160ff021916908315150217905550601b600081548092919060010191905055507f85ce94a09259d11fea28ef2cdae95f1a94d42451c0741fdd7e267f746c524b6a8160000154858585604051808581526020018060200184815260200180602001838103835286818151815260200191508051906020019080838360005b83811015614d68578082015181840152602081019050614d4d565b50505050905090810190601f168015614d955780820380516001836020036101000a031916815260200191505b50838103825284818151815260200191508051906020019080838360005b83811015614dce578082015181840152602081019050614db3565b50505050905090810190601f168015614dfb5780820380516001836020036101000a031916815260200191505b50965050505050505060405180910390a15050505050565b6000600760008381526020019081526020016000209050338160070160006101000a81548173ffffffffffffffffffffffffffffffffffffffff021916908373ffffffffffffffffffffffffffffffffffffffff16021790555060018160070160166101000a81548160ff0219169083151502179055507f719795a1d0f96d96000a0253c72c0cabd1e32bceca96fc716babca1abb0ec40e81600001546040518082815260200191505060405180910390a15050565b6000600560008681526020019081526020016000209050338160050160006101000a81548173ffffffffffffffffffffffffffffffffffffffff021916908373ffffffffffffffffffffffffffffffffffffffff16021790555084816000018190555083816001019080519060200190614f44929190615485565b50828160040181905550818160020181905550600d8590806001815401808255809150509060018203906000526020600020016000909192909190915055506016600081548092919060010191905055507fa55da230e9462e2c52b347397a2cb6953432cf8bed20f679a034e459ef95e34b81600001548585856040518085815260200180602001848152602001838152602001828103825285818151815260200191508051906020019080838360005b83811015615010578082015181840152602081019050614ff5565b50505050905090810190601f16801561503d5780820380516001836020036101000a031916815260200191505b509550505050505060405180910390a15050505050565b6009602052806000526040600020600091509050806000015490806001018054600181600116156101000203166002900480601f0160208091040260200160405190810160405280929190818152602001828054600181600116156101000203166002900480156151065780601f106150db57610100808354040283529160200191615106565b820191906000526020600020905b8154815290600101906020018083116150e957829003601f168201915b505050505090806002015490806003018054600181600116156101000203166002900480601f0160208091040260200160405190810160405280929190818152602001828054600181600116156101000203166002900480156151aa5780601f1061517f576101008083540402835291602001916151aa565b820191906000526020600020905b81548152906001019060200180831161518d57829003601f168201915b5050505050908060040160009054906101000a900473ffffffffffffffffffffffffffffffffffffffff16908060040160149054906101000a900460ff16905086565b601181815481106151fa57fe5b906000526020600020016000915090505481565b6000600960003373ffffffffffffffffffffffffffffffffffffffff1673ffffffffffffffffffffffffffffffffffffffff1681526020019081526020016000209050600960003373ffffffffffffffffffffffffffffffffffffffff1673ffffffffffffffffffffffffffffffffffffffff16815260200190815260200160002060040160149054906101000a900460ff16156152ab57600080fd5b338160040160006101000a81548173ffffffffffffffffffffffffffffffffffffffff021916908373ffffffffffffffffffffffffffffffffffffffff1602179055508481600001819055508381600101908051906020019061530f929190615485565b5082816002018190555081816003019080519060200190615331929190615485565b5060018160040160146101000a81548160ff021916908315150217905550601c600081548092919060010191905055507fb0e45e8125bcae396aa2f4df5baf1c1fe6cc08db71c22a9fc54e8e2529b5934a8160000154858585604051808581526020018060200184815260200180602001838103835286818151815260200191508051906020019080838360005b838110156153da5780820151818401526020810190506153bf565b50505050905090810190601f1680156154075780820380516001836020036101000a031916815260200191505b50838103825284818151815260200191508051906020019080838360005b83811015615440578082015181840152602081019050615425565b50505050905090810190601f16801561546d5780820380516001836020036101000a031916815260200191505b50965050505050505060405180910390a15050505050565b828054600181600116156101000203166002900490600052602060002090601f016020900481019282601f106154c657805160ff19168380011785556154f4565b828001600101855582156154f4579182015b828111156154f35782518255916020019190600101906154d8565b5b5090506155019190615505565b5090565b61552791905b8082111561552357600081600090555060010161550b565b5090565b9056fea265627a7a72315820947d0ceca7063966780b2729151f0acf78889747f7675eacb318a921ab67a68264736f6c63430005100032",
  "source": "pragma solidity ^0.5.16;\r\n\r\ncontract SupplyChain{\r\n\r\n    //model a landlord\r\n    struct Landlord{\r\n        uint landlordID;\r\n        string landlordName;\r\n        uint landlordContact;\r\n        string landlordAddress;\r\n        address laddr;\r\n        bool isValue;\r\n    }\r\n\r\n    //model a seed dealer\r\n    struct SeedDealer{\r\n        uint dealerID;\r\n        string dealerName;\r\n        string dealerAddress;\r\n        uint dealerContact;\r\n        address saddr;\r\n        bool isValue;\r\n    }\r\n\r\n    //model a seed\r\n    struct Seed{\r\n        uint seedID;\r\n        string seedName;\r\n        uint seedQuantity;\r\n        bool isBought;\r\n        bool isSale;\r\n        uint seedcost;\r\n        address saddr;\r\n        address faddr;\r\n    }\r\n\r\n\r\n    //model a fertilizer\r\n    struct Fertilizer{\r\n        uint fertilizerID;\r\n        string fertilizerName;\r\n        uint fertilizerQuantity;\r\n        bool isBought;\r\n        bool isSale;\r\n        uint fertilizerCost;\r\n        address saddr;\r\n        address faddr;\r\n    }\r\n    //model a land\r\n    struct Landsale{\r\n        uint landID;\r\n        string landAddress;\r\n        string soilType;\r\n        //uint temperature;\r\n        //uint humidity;\r\n        //string cropType;\r\n        uint area;\r\n        uint cost;\r\n        bool isBought;\r\n        bool isSale;\r\n        address laddr;\r\n        address faddr;\r\n    }\r\n\r\n    //model a landlease\r\n    struct Landlease{\r\n        uint landID;\r\n        string landAddress;\r\n        string soilType;\r\n        //uint temperature;\r\n        //uint humidity;\r\n        //string cropType;\r\n        uint area;\r\n        uint cost;\r\n        uint duration;\r\n        bool isBought;\r\n        bool isLease;\r\n        address laddr;\r\n        address faddr;\r\n\r\n    }\r\n\r\n    //model a farmer\r\n   struct Farmer {\r\n       uint farmerID;\r\n       string farmerName;\r\n       uint farmerContact;\r\n      string farmerAddress;\r\n       address faddr;\r\n       bool isValue;\r\n   }\r\n\r\n   //model crop\r\n    struct Crop{\r\n       uint cropID;\r\n       string cropName;\r\n       uint quantity;\r\n       uint cropPrice;\r\n        address faddr;\r\n        address daddr;\r\n        address raddr;\r\n        address caddr;\r\n        bool isBought; \r\n        bool isBoughtByRetailer;     \r\n        bool isBoughtByConsumer;    \r\n } \r\n\r\n   //model a distributor\r\n   struct Distributor{\r\n       uint distID;\r\n       string distName;\r\n       uint distContact;\r\n       string distAddress;\r\n       address daddr;\r\n       bool isValue;\r\n   }\r\n   \r\n   //model a retailer\r\n   struct Retailer{\r\n       uint retailID;\r\n       string retailName;\r\n       uint retailContact;\r\n       string  retailAddress;\r\n       address raddr;\r\n       bool isValue;\r\n   }\r\n   \r\n   //model a consumer\r\n   struct Consumer{\r\n       uint consumerID;\r\n       string consumerName;\r\n       uint consumerContact;\r\n       string consumerAddress;\r\n       address caddr;\r\n       bool isValue;\r\n   }\r\n\r\n   mapping(address => Landlord) public mlandlord;\r\n   mapping(address => SeedDealer) public mdealer;\r\n   mapping(uint => Landlease) public mlland;\r\n   mapping(uint => Landsale) public msland;\r\n   mapping(address => Farmer) public mfarmer;\r\n   mapping(uint => Seed) public mseed;\r\n   mapping(uint => Fertilizer) public mfertilizer;\r\n   mapping(uint => Crop) public mcrop;\r\n   //mapping(uint => Crop) public dcrop;\r\n   mapping(address => Distributor) public mdist;\r\n   mapping(address => Retailer) public mretail;\r\n   mapping(address => Consumer) public mconsumer;\r\n   \r\n\r\n   //count of crop\r\n   uint[] public leaseArr;\r\n   uint[] public saleArr;\r\n   uint[] public seedArr;\r\n   uint[] public fertilizerArr;\r\n   uint[] public cropArr;\r\n   uint[] public distCropArr;\r\n   uint[] public consumerCropArr;\r\n   uint[] public temp;\r\n   uint public landlordCount;\r\n   uint public dealerCount;\r\n   uint public leaseCount;\r\n   uint public seedCount;\r\n   uint public fertilizerCount;\r\n   uint public saleCount;\r\n   uint public farmerCount;\r\n   uint public cropCount;\r\n   uint public distCount;\r\n   uint public retailCount;\r\n   uint public consumerCount;\r\n   uint public distCropCount;\r\n   uint public retailCropCount;\r\n   uint public consumerCropCount;\r\n\r\n\r\n   //event for landlord\r\n   event landlordCreated(\r\n       uint landlordID,\r\n       string landlordName,\r\n       uint landlordContact,\r\n       string landlordAddress\r\n   );\r\n   \r\n   //event for land sale\r\n   event landForSale (\r\n       uint landID,\r\n       string landAddress,\r\n       string soilType,\r\n       //uint temperature,\r\n       //uint humidity,\r\n       //string cropType,\r\n       uint area,\r\n       uint cost\r\n   );\r\n\r\n   //event for lease\r\n   event landForLease(\r\n       uint landID,\r\n       string landAddress,\r\n       string soilType,\r\n       //uint temperature,\r\n       //uint humidity,\r\n       //string cropType,\r\n       uint area,\r\n       uint cost,\r\n       uint duration\r\n   );\r\n\r\n \r\n   //event for seedDealer\r\n   event seedDealerCreated(\r\n        uint dealerID,\r\n        string dealerName,\r\n        uint dealerContact,\r\n        string dealerAddress\r\n   );\r\n\r\n   //event for seedCreated\r\n   event seedCreated(\r\n        uint seedID,\r\n        string seedName,\r\n        uint seedcost,\r\n        uint seedQuantity\r\n   );\r\n\r\n   //event for fertilizerCreated\r\n   event fertilizerCreated(\r\n        uint fertilizerID,\r\n        string fertilizerName,\r\n        uint fertilizerCost,\r\n        uint fertilizerQuantity\r\n   );\r\n\r\n   // event for farmer\r\n   event farmerCreated (\r\n       uint farmerID,\r\n       string farmerName,\r\n       uint farmerContact,\r\n       string farmerAddress\r\n   );\r\n\r\n   // event for crop\r\n   event cropCreated (\r\n       uint cropID,\r\n       string cropName,\r\n       uint quantity,\r\n       uint cropPrice,\r\n       address faddr\r\n   );\r\n\r\n   //event for farmer land purchase \r\n   event landPurchaseLease (\r\n       uint landID\r\n   );\r\n    event landPurchaseSale (\r\n       uint landID\r\n   );\r\n   //evbent for seed purchase\r\n   event seedPurchase(\r\n       uint seedID\r\n   );\r\n   //event for fertilizer purchase\r\n   event fertilizerPurchase(\r\n       uint fertilizerID\r\n   );\r\n\r\n   //event for distributor \r\n   event distCreated (\r\n       uint distID,\r\n       string distName,\r\n       uint distContact,\r\n       string distAddress\r\n   );\r\n\r\n   //event for distributor crop\r\n   event distCrop (\r\n       uint cropID\r\n   );\r\n   \r\n   //event for retailer\r\n   event retailCreated (\r\n       uint retailID,\r\n       string retailName,\r\n       uint retailContact,\r\n       string retailAddress\r\n   );\r\n\r\n   //event for retail adding crop\r\n   event retailCrop (\r\n       uint cropID\r\n   );\r\n\r\n   //event for consumer\r\n   event consumerCreated(\r\n       uint consumerID,\r\n       string consumerName,\r\n       uint consumerContact,\r\n       string consumerAddress\r\n   );\r\n\r\n  // event for consumer adding crop\r\n  event consumerCrop(\r\n      uint cropID\r\n  );\r\n\r\n    //add new Landlord\r\n    function newLandlord(\r\n        uint _landlordID,\r\n        string memory _landlordName,\r\n        uint _landlordContact,\r\n        string memory _landlordAddress\r\n    ) public {\r\n        Landlord storage _newlandlord = mlandlord[msg.sender];\r\n\r\n        // Only allows new records to be created\r\n         require(!mlandlord[msg.sender].isValue);\r\n        _newlandlord.laddr = msg.sender;\r\n        _newlandlord.landlordID = _landlordID;\r\n        _newlandlord.landlordName = _landlordName;\r\n        _newlandlord.landlordAddress = _landlordAddress;\r\n        _newlandlord.landlordContact = _landlordContact;\r\n        _newlandlord.isValue = true;\r\n        landlordCount++;\r\n        emit landlordCreated(_newlandlord.landlordID, _landlordName, _landlordContact,_landlordAddress);\r\n    }\r\n\r\n    //landlord adds new land for sale\r\n    function addLandSale (\r\n        uint _landID,\r\n        string memory _landAddress,\r\n        string memory _soilType,\r\n        //uint _temperature,\r\n        //uint _humidity,\r\n        //string memory _cropType,\r\n        uint _area,\r\n        uint _cost \r\n    ) public {\r\n        Landsale storage _newland = msland[_landID];\r\n        _newland.laddr = msg.sender;\r\n        _newland.landID = _landID;\r\n        _newland.landAddress = _landAddress;\r\n        _newland.soilType = _soilType;\r\n        //_newland.temperature=_temperature;\r\n        //_newland.humidity=_humidity;\r\n        //_newland.cropType=_cropType;\r\n        _newland.area=_area;\r\n        _newland.cost=_cost;\r\n        saleCount++;\r\n        saleArr.push(_landID);\r\n        emit landForSale(_newland.landID, _landAddress, _soilType,_area,_cost);\r\n    }\r\n\r\n    // //lease function\r\n     function addLandLease (\r\n        uint _landID,\r\n      //  string memory _landName,\r\n        string memory _landAddress,\r\n        string memory _soilType,\r\n        //uint _temperature,\r\n        //uint _humidity,\r\n        //string memory _cropType,\r\n        uint _area,\r\n        uint _cost,\r\n        uint _duration\r\n    ) public {\r\n        Landlease storage _newland = mlland[_landID];\r\n        _newland.laddr = msg.sender;\r\n        _newland.landID = _landID;\r\n       // _newland.landName = _landName;\r\n        _newland.landAddress = _landAddress;\r\n        _newland.soilType = _soilType;\r\n        //_newland.temperature=_temperature;\r\n        //_newland.humidity=_humidity;\r\n        //_newland.cropType=_cropType;\r\n        _newland.area=_area;\r\n        _newland.cost=_cost;\r\n        _newland.duration=_duration;\r\n        leaseCount++;\r\n        leaseArr.push(_landID);\r\n        emit landForLease(_newland.landID, _landAddress, _soilType,_area,_cost,_duration);\r\n    }\r\n    \r\n    //add new seedDealer\r\n    function newSeedDealer (\r\n        uint _dealerID,\r\n        string memory _dealerName,\r\n        uint _dealerContact,\r\n        string memory _dealerAddress\r\n    ) public {\r\n        SeedDealer storage _newdealer = mdealer[msg.sender];\r\n\r\n        // Only allows new records to be created\r\n        require(!mdealer[msg.sender].isValue);\r\n        _newdealer.saddr = msg.sender;\r\n        _newdealer.dealerID = _dealerID;\r\n        _newdealer.dealerName = _dealerName;\r\n        _newdealer.dealerAddress = _dealerAddress;\r\n        _newdealer.dealerContact = _dealerContact;\r\n        _newdealer.isValue = true;\r\n        dealerCount++;\r\n        emit seedDealerCreated(_newdealer.dealerID, _dealerName, _dealerContact,_dealerAddress);\r\n    }\r\n\r\n    //add new seed\r\n    function newSeed (\r\n        uint _seedID,\r\n        string memory _seedName,\r\n        uint _seedcost,\r\n        uint _seedQuantity\r\n    ) public {\r\n        Seed storage _newseed = mseed[_seedID];\r\n\r\n        // Only allows new records to be created\r\n        //require(!mseed[msg.sender].isValue);\r\n        _newseed.saddr = msg.sender;\r\n        _newseed.seedID = _seedID;\r\n        _newseed.seedName = _seedName;\r\n        _newseed.seedcost = _seedcost;\r\n        _newseed.seedQuantity = _seedQuantity;\r\n        //_newseed.isValue = true;\r\n        seedArr.push(_seedID);\r\n        seedCount++;\r\n        emit seedCreated(_newseed.seedID, _seedName, _seedcost, _seedQuantity);\r\n    }\r\n\r\n    //add new fertilizer\r\n    function newFertilizer (\r\n        uint _fertilizerID,\r\n        string memory _fertilizerName,\r\n        uint _fertilizerCost,\r\n        uint _fertilizerQuantity\r\n    ) public {\r\n        Fertilizer storage _newfertilizer = mfertilizer[_fertilizerID];\r\n\r\n        // Only allows new records to be created\r\n        //require(!mfertilizer[msg.sender].isValue);\r\n        _newfertilizer.saddr = msg.sender;\r\n        _newfertilizer.fertilizerID = _fertilizerID;\r\n        _newfertilizer.fertilizerName = _fertilizerName;\r\n        _newfertilizer.fertilizerCost = _fertilizerCost;\r\n        _newfertilizer.fertilizerQuantity = _fertilizerQuantity;\r\n       // _newfertilizer.isValue = true;\r\n        fertilizerArr.push(_fertilizerID);\r\n        fertilizerCount++;\r\n        emit fertilizerCreated(_newfertilizer.fertilizerID, _fertilizerName, _fertilizerCost, _fertilizerQuantity);\r\n    }\r\n\r\n    //add new farmer\r\n    function newFarmer (\r\n        uint _farmerID,\r\n        string memory _farmerName,\r\n        uint _farmerContact,\r\n        string memory _farmerAddress\r\n    ) public {\r\n        Farmer storage _newfarmer = mfarmer[msg.sender];\r\n\r\n        // Only allows new records to be created\r\n        require(!mfarmer[msg.sender].isValue);\r\n        _newfarmer.faddr = msg.sender;\r\n        _newfarmer.farmerID = _farmerID;\r\n        _newfarmer.farmerName = _farmerName;\r\n        _newfarmer.farmerAddress = _farmerAddress;\r\n        _newfarmer.farmerContact = _farmerContact;\r\n        _newfarmer.isValue = true;\r\n        farmerCount++;\r\n        emit farmerCreated(_newfarmer.farmerID, _farmerName, _farmerContact,_farmerAddress);\r\n    }\r\n\r\n    //add crop by old farmer\r\n     function addCrop(\r\n        uint _cropID,\r\n        string memory _cropName,\r\n        uint _quantity,\r\n        uint _cropPrice\r\n    ) public {\r\n        Crop storage _newcrop = mcrop[_cropID];\r\n        //Farmer storage _newfarmer = mfarmer[_farmerID];\r\n       \r\n        _newcrop.faddr = msg.sender;\r\n        _newcrop.cropID = _cropID;\r\n        _newcrop.cropName = _cropName;\r\n        _newcrop.quantity = _quantity;\r\n        _newcrop.cropPrice = _cropPrice;\r\n        cropCount++;\r\n        cropArr.push(_cropID);\r\n        emit cropCreated(_newcrop.cropID, _cropName, _quantity, _cropPrice, _newcrop.faddr);\r\n    }\r\n\r\n    //farmer purchase land lease\r\n     function purchaseLandLease (\r\n        uint _landID\r\n     ) public { \r\n        Landlease storage _newland = mlland[_landID];\r\n        _newland.isBought = true;\r\n        emit landPurchaseLease(_newland.landID);\r\n    }\r\n  \r\n    //farmer purchase sale\r\n     function purchaseLandSale (\r\n        uint _landID\r\n     ) public { \r\n        Landsale storage _newland = msland[_landID];\r\n        _newland.isBought = true;\r\n        emit landPurchaseSale(_newland.landID);\r\n    }\r\n\r\n    //farmer purchase seed\r\n    function purchaseSeed (\r\n        uint _seedID\r\n    ) public {\r\n        Seed storage _newseed = mseed[_seedID];\r\n        _newseed.isBought=true;\r\n        emit seedPurchase(_newseed.seedID);\r\n    }\r\n\r\n    //farmer purchase fertilizer\r\n    function purchaseFertilizer (\r\n        uint _fertilizerID\r\n    ) public {\r\n        Fertilizer storage _newfertilizer = mfertilizer[_fertilizerID];\r\n        _newfertilizer.isBought=true;\r\n        emit fertilizerPurchase(_newfertilizer.fertilizerID);\r\n    }\r\n\r\n    //add new distributor\r\n    function addDist(\r\n        uint _distID,\r\n        string memory _distName,\r\n        uint _distContact,\r\n        string memory _distAddress\r\n    ) public {\r\n        Distributor storage _newdist = mdist[msg.sender];\r\n\r\n        require(!mdist[msg.sender].isValue);\r\n        _newdist.daddr = msg.sender;\r\n        _newdist.distID = _distID;\r\n        _newdist.distName = _distName;\r\n        _newdist.distContact = _distContact;\r\n        _newdist.distAddress = _distAddress;\r\n        _newdist.isValue = true;\r\n        distCount++;\r\n        emit distCreated(_newdist.distID, _distName, _distContact, _distAddress);\r\n    }\r\n\r\n    //crop purchased by distributor\r\n    function distAddCrop(\r\n        uint _cropID\r\n     ) public { \r\n        Crop storage _newcrop = mcrop[_cropID];\r\n         _newcrop.daddr = msg.sender;\r\n        _newcrop.isBought = true;\r\n        emit distCrop(_newcrop.cropID);\r\n    }\r\n\r\n    \r\n    \r\n    //add new retailer\r\n    function addRetail(\r\n        uint _retailID,\r\n        string memory _retailName,\r\n        uint _retailContact,\r\n        string memory _retailAddress\r\n    ) public {\r\n        Retailer storage _newretail = mretail[msg.sender];\r\n        require(!mretail[msg.sender].isValue);\r\n        _newretail.raddr = msg.sender;\r\n        _newretail.retailID = _retailID;\r\n        _newretail.retailName = _retailName;\r\n        _newretail.retailContact = _retailContact;\r\n        _newretail.retailAddress = _retailAddress;\r\n        _newretail.isValue = true;\r\n        retailCount++;\r\n        emit retailCreated(_newretail.retailID, _retailName, _retailContact, _retailAddress);\r\n    }\r\n\r\n    //purchase crop by retailer\r\n    function retailAddCrop(\r\n        uint _cropID\r\n     ) public { \r\n        Crop storage _newcrop = mcrop[_cropID];\r\n        _newcrop.raddr = msg.sender;\r\n        _newcrop.isBoughtByRetailer = true;\r\n        emit retailCrop(_newcrop.cropID);\r\n    }\r\n\r\n     //add new consumer\r\n    function addconsumer(\r\n        uint _consumerID,\r\n        string memory _consumerName,\r\n        uint _consumerContact,\r\n        string memory _consumerAddress\r\n    ) public {\r\n        Consumer storage _newconsumer = mconsumer[msg.sender];\r\n        require(!mconsumer[msg.sender].isValue);\r\n        _newconsumer.caddr = msg.sender;\r\n        _newconsumer.consumerID = _consumerID;\r\n        _newconsumer.consumerName = _consumerName;\r\n        _newconsumer.consumerContact = _consumerContact;\r\n        _newconsumer.consumerAddress = _consumerAddress;\r\n        _newconsumer.isValue = true;\r\n        consumerCount++;\r\n        emit consumerCreated(_newconsumer.consumerID, _consumerName, _consumerContact, _consumerAddress);\r\n    }\r\n\r\n    //purchase crop by consumer\r\n    function consumerAddCrop(\r\n        uint _cropID\r\n     ) public { \r\n        Crop storage _newcrop = mcrop[_cropID];\r\n        _newcrop.caddr = msg.sender;\r\n        _newcrop.isBoughtByConsumer = true;\r\n        emit consumerCrop(_newcrop.cropID);\r\n    }\r\n\r\n}",
  "sourcePath": "C:/Users/Tamilselvi/OneDrive/Desktop/supplychain/contracts/SupplyChain.sol",
  "compiler": {
    "name": "solc",
    "version": "0.5.16+commit.9c3226ce.Emscripten.clang"
  },
  "schemaVersion": "3.3.3",
  "updatedAt": "2021-03-09T15:36:46.117Z",
  "networkType": "ethereum",
  "devdoc": {
    "methods": {}
  },
  "userdoc": {
    "methods": {}
  }
}