{
  "contractName": "SupplyChain",
  "abi": [
    {
      "constant": true,
      "inputs": [],
      "name": "landlordCount",
      "outputs": [
        {
          "name": "",
          "type": "uint256"
        }
      ],
      "payable": false,
      "stateMutability": "view",
      "type": "function",
      "signature": "0x06552091"
    },
    {
      "constant": true,
      "inputs": [
        {
          "name": "",
          "type": "address"
        }
      ],
      "name": "mfarmer",
      "outputs": [
        {
          "name": "farmerID",
          "type": "uint256"
        },
        {
          "name": "farmerName",
          "type": "string"
        },
        {
          "name": "farmerContact",
          "type": "uint256"
        },
        {
          "name": "farmerAddress",
          "type": "string"
        },
        {
          "name": "faddr",
          "type": "address"
        },
        {
          "name": "isValue",
          "type": "bool"
        }
      ],
      "payable": false,
      "stateMutability": "view",
      "type": "function",
      "signature": "0x1c4860f4"
    },
    {
      "constant": true,
      "inputs": [
        {
          "name": "",
          "type": "uint256"
        }
      ],
      "name": "saleArr",
      "outputs": [
        {
          "name": "",
          "type": "uint256"
        }
      ],
      "payable": false,
      "stateMutability": "view",
      "type": "function",
      "signature": "0x25c99da1"
    },
    {
      "constant": true,
      "inputs": [
        {
          "name": "",
          "type": "uint256"
        }
      ],
      "name": "msland",
      "outputs": [
        {
          "name": "landID",
          "type": "uint256"
        },
        {
          "name": "landAddress",
          "type": "string"
        },
        {
          "name": "soilType",
          "type": "string"
        },
        {
          "name": "area",
          "type": "uint256"
        },
        {
          "name": "cost",
          "type": "uint256"
        },
        {
          "name": "isBought",
          "type": "bool"
        },
        {
          "name": "isSale",
          "type": "bool"
        },
        {
          "name": "laddr",
          "type": "address"
        },
        {
          "name": "faddr",
          "type": "address"
        }
      ],
      "payable": false,
      "stateMutability": "view",
      "type": "function",
      "signature": "0x3d15a00e"
    },
    {
      "constant": true,
      "inputs": [
        {
          "name": "",
          "type": "address"
        }
      ],
      "name": "mlandlord",
      "outputs": [
        {
          "name": "landlordID",
          "type": "uint256"
        },
        {
          "name": "landlordName",
          "type": "string"
        },
        {
          "name": "landlordContact",
          "type": "uint256"
        },
        {
          "name": "landlordAddress",
          "type": "string"
        },
        {
          "name": "laddr",
          "type": "address"
        },
        {
          "name": "isValue",
          "type": "bool"
        }
      ],
      "payable": false,
      "stateMutability": "view",
      "type": "function",
      "signature": "0x3f67865c"
    },
    {
      "constant": true,
      "inputs": [
        {
          "name": "",
          "type": "uint256"
        }
      ],
      "name": "consAdd",
      "outputs": [
        {
          "name": "",
          "type": "address"
        }
      ],
      "payable": false,
      "stateMutability": "view",
      "type": "function",
      "signature": "0x4342279a"
    },
    {
      "constant": true,
      "inputs": [
        {
          "name": "",
          "type": "uint256"
        }
      ],
      "name": "mcrop",
      "outputs": [
        {
          "name": "cropID",
          "type": "uint256"
        },
        {
          "name": "cropName",
          "type": "string"
        },
        {
          "name": "quantity",
          "type": "uint256"
        },
        {
          "name": "cropPrice",
          "type": "uint256"
        },
        {
          "name": "faddr",
          "type": "address"
        },
        {
          "name": "daddr",
          "type": "address"
        },
        {
          "name": "raddr",
          "type": "address"
        },
        {
          "name": "caddr",
          "type": "address"
        },
        {
          "name": "isBought",
          "type": "bool"
        },
        {
          "name": "isBoughtByRetailer",
          "type": "bool"
        },
        {
          "name": "isBoughtByConsumer",
          "type": "bool"
        }
      ],
      "payable": false,
      "stateMutability": "view",
      "type": "function",
      "signature": "0x43f197ba"
    },
    {
      "constant": true,
      "inputs": [
        {
          "name": "",
          "type": "uint256"
        }
      ],
      "name": "farmerAdd",
      "outputs": [
        {
          "name": "",
          "type": "address"
        }
      ],
      "payable": false,
      "stateMutability": "view",
      "type": "function",
      "signature": "0x46f96d9a"
    },
    {
      "constant": true,
      "inputs": [],
      "name": "distCount",
      "outputs": [
        {
          "name": "",
          "type": "uint256"
        }
      ],
      "payable": false,
      "stateMutability": "view",
      "type": "function",
      "signature": "0x4d3fdae9"
    },
    {
      "constant": true,
      "inputs": [
        {
          "name": "",
          "type": "uint256"
        }
      ],
      "name": "retailAdd",
      "outputs": [
        {
          "name": "",
          "type": "address"
        }
      ],
      "payable": false,
      "stateMutability": "view",
      "type": "function",
      "signature": "0x50a51780"
    },
    {
      "constant": true,
      "inputs": [
        {
          "name": "",
          "type": "address"
        }
      ],
      "name": "mconsumer",
      "outputs": [
        {
          "name": "consumerID",
          "type": "uint256"
        },
        {
          "name": "consumerName",
          "type": "string"
        },
        {
          "name": "consumerContact",
          "type": "uint256"
        },
        {
          "name": "consumerAddress",
          "type": "string"
        },
        {
          "name": "caddr",
          "type": "address"
        },
        {
          "name": "isValue",
          "type": "bool"
        }
      ],
      "payable": false,
      "stateMutability": "view",
      "type": "function",
      "signature": "0x62ec2cd8"
    },
    {
      "constant": true,
      "inputs": [
        {
          "name": "",
          "type": "uint256"
        }
      ],
      "name": "seedArr",
      "outputs": [
        {
          "name": "",
          "type": "uint256"
        }
      ],
      "payable": false,
      "stateMutability": "view",
      "type": "function",
      "signature": "0x808d0356"
    },
    {
      "constant": true,
      "inputs": [
        {
          "name": "",
          "type": "uint256"
        }
      ],
      "name": "mfertilizer",
      "outputs": [
        {
          "name": "fertilizerID",
          "type": "uint256"
        },
        {
          "name": "fertilizerName",
          "type": "string"
        },
        {
          "name": "fertilizerQuantity",
          "type": "uint256"
        },
        {
          "name": "isBought",
          "type": "bool"
        },
        {
          "name": "isSale",
          "type": "bool"
        },
        {
          "name": "fertilizerCost",
          "type": "uint256"
        },
        {
          "name": "saddr",
          "type": "address"
        },
        {
          "name": "faddr",
          "type": "address"
        }
      ],
      "payable": false,
      "stateMutability": "view",
      "type": "function",
      "signature": "0x81f28d80"
    },
    {
      "constant": true,
      "inputs": [
        {
          "name": "",
          "type": "address"
        }
      ],
      "name": "mdist",
      "outputs": [
        {
          "name": "distID",
          "type": "uint256"
        },
        {
          "name": "distName",
          "type": "string"
        },
        {
          "name": "distContact",
          "type": "uint256"
        },
        {
          "name": "distAddress",
          "type": "string"
        },
        {
          "name": "daddr",
          "type": "address"
        },
        {
          "name": "isValue",
          "type": "bool"
        }
      ],
      "payable": false,
      "stateMutability": "view",
      "type": "function",
      "signature": "0x832a31c6"
    },
    {
      "constant": true,
      "inputs": [],
      "name": "seedCount",
      "outputs": [
        {
          "name": "",
          "type": "uint256"
        }
      ],
      "payable": false,
      "stateMutability": "view",
      "type": "function",
      "signature": "0x8bed5bd2"
    },
    {
      "constant": true,
      "inputs": [
        {
          "name": "",
          "type": "uint256"
        }
      ],
      "name": "fertilizerArr",
      "outputs": [
        {
          "name": "",
          "type": "uint256"
        }
      ],
      "payable": false,
      "stateMutability": "view",
      "type": "function",
      "signature": "0x8d8a5b7d"
    },
    {
      "constant": true,
      "inputs": [
        {
          "name": "",
          "type": "uint256"
        }
      ],
      "name": "leaseArr",
      "outputs": [
        {
          "name": "",
          "type": "uint256"
        }
      ],
      "payable": false,
      "stateMutability": "view",
      "type": "function",
      "signature": "0x96e53c4f"
    },
    {
      "constant": true,
      "inputs": [],
      "name": "fertilizerCount",
      "outputs": [
        {
          "name": "",
          "type": "uint256"
        }
      ],
      "payable": false,
      "stateMutability": "view",
      "type": "function",
      "signature": "0x96e68ce7"
    },
    {
      "constant": true,
      "inputs": [],
      "name": "saleCount",
      "outputs": [
        {
          "name": "",
          "type": "uint256"
        }
      ],
      "payable": false,
      "stateMutability": "view",
      "type": "function",
      "signature": "0xa1e89aec"
    },
    {
      "constant": true,
      "inputs": [
        {
          "name": "",
          "type": "uint256"
        }
      ],
      "name": "mlland",
      "outputs": [
        {
          "name": "landID",
          "type": "uint256"
        },
        {
          "name": "landAddress",
          "type": "string"
        },
        {
          "name": "soilType",
          "type": "string"
        },
        {
          "name": "area",
          "type": "uint256"
        },
        {
          "name": "cost",
          "type": "uint256"
        },
        {
          "name": "duration",
          "type": "uint256"
        },
        {
          "name": "isBought",
          "type": "bool"
        },
        {
          "name": "isLease",
          "type": "bool"
        },
        {
          "name": "laddr",
          "type": "address"
        },
        {
          "name": "faddr",
          "type": "address"
        }
      ],
      "payable": false,
      "stateMutability": "view",
      "type": "function",
      "signature": "0xb039da0f"
    },
    {
      "constant": true,
      "inputs": [],
      "name": "leaseCount",
      "outputs": [
        {
          "name": "",
          "type": "uint256"
        }
      ],
      "payable": false,
      "stateMutability": "view",
      "type": "function",
      "signature": "0xb4c0498b"
    },
    {
      "constant": true,
      "inputs": [
        {
          "name": "",
          "type": "uint256"
        }
      ],
      "name": "cropArr",
      "outputs": [
        {
          "name": "",
          "type": "uint256"
        }
      ],
      "payable": false,
      "stateMutability": "view",
      "type": "function",
      "signature": "0xb5eaf481"
    },
    {
      "constant": true,
      "inputs": [
        {
          "name": "",
          "type": "uint256"
        }
      ],
      "name": "distAdd",
      "outputs": [
        {
          "name": "",
          "type": "address"
        }
      ],
      "payable": false,
      "stateMutability": "view",
      "type": "function",
      "signature": "0xb5f4f481"
    },
    {
      "constant": true,
      "inputs": [],
      "name": "retailCount",
      "outputs": [
        {
          "name": "",
          "type": "uint256"
        }
      ],
      "payable": false,
      "stateMutability": "view",
      "type": "function",
      "signature": "0xb9dd8286"
    },
    {
      "constant": true,
      "inputs": [],
      "name": "farmerCount",
      "outputs": [
        {
          "name": "",
          "type": "uint256"
        }
      ],
      "payable": false,
      "stateMutability": "view",
      "type": "function",
      "signature": "0xbd45b397"
    },
    {
      "constant": true,
      "inputs": [],
      "name": "consumerCount",
      "outputs": [
        {
          "name": "",
          "type": "uint256"
        }
      ],
      "payable": false,
      "stateMutability": "view",
      "type": "function",
      "signature": "0xc078c1b5"
    },
    {
      "constant": true,
      "inputs": [
        {
          "name": "",
          "type": "uint256"
        }
      ],
      "name": "distCropArr",
      "outputs": [
        {
          "name": "",
          "type": "uint256"
        }
      ],
      "payable": false,
      "stateMutability": "view",
      "type": "function",
      "signature": "0xd21fe1cc"
    },
    {
      "constant": true,
      "inputs": [
        {
          "name": "",
          "type": "uint256"
        }
      ],
      "name": "conscrop",
      "outputs": [
        {
          "name": "cropID",
          "type": "uint256"
        },
        {
          "name": "cropName",
          "type": "string"
        },
        {
          "name": "quantity",
          "type": "uint256"
        },
        {
          "name": "cropPrice",
          "type": "uint256"
        },
        {
          "name": "faddr",
          "type": "address"
        },
        {
          "name": "daddr",
          "type": "address"
        },
        {
          "name": "raddr",
          "type": "address"
        },
        {
          "name": "caddr",
          "type": "address"
        },
        {
          "name": "isBought",
          "type": "bool"
        },
        {
          "name": "isBoughtByRetailer",
          "type": "bool"
        },
        {
          "name": "isBoughtByConsumer",
          "type": "bool"
        }
      ],
      "payable": false,
      "stateMutability": "view",
      "type": "function",
      "signature": "0xd2afca12"
    },
    {
      "constant": true,
      "inputs": [
        {
          "name": "",
          "type": "uint256"
        }
      ],
      "name": "mseed",
      "outputs": [
        {
          "name": "seedID",
          "type": "uint256"
        },
        {
          "name": "seedName",
          "type": "string"
        },
        {
          "name": "seedQuantity",
          "type": "uint256"
        },
        {
          "name": "isBought",
          "type": "bool"
        },
        {
          "name": "isSale",
          "type": "bool"
        },
        {
          "name": "seedcost",
          "type": "uint256"
        },
        {
          "name": "saddr",
          "type": "address"
        },
        {
          "name": "faddr",
          "type": "address"
        }
      ],
      "payable": false,
      "stateMutability": "view",
      "type": "function",
      "signature": "0xd544a90c"
    },
    {
      "constant": true,
      "inputs": [],
      "name": "cropCount",
      "outputs": [
        {
          "name": "",
          "type": "uint256"
        }
      ],
      "payable": false,
      "stateMutability": "view",
      "type": "function",
      "signature": "0xdfd55a2c"
    },
    {
      "constant": true,
      "inputs": [
        {
          "name": "",
          "type": "address"
        }
      ],
      "name": "mdealer",
      "outputs": [
        {
          "name": "dealerID",
          "type": "uint256"
        },
        {
          "name": "dealerName",
          "type": "string"
        },
        {
          "name": "dealerAddress",
          "type": "string"
        },
        {
          "name": "dealerContact",
          "type": "uint256"
        },
        {
          "name": "saddr",
          "type": "address"
        },
        {
          "name": "isValue",
          "type": "bool"
        }
      ],
      "payable": false,
      "stateMutability": "view",
      "type": "function",
      "signature": "0xe96ba7f2"
    },
    {
      "constant": true,
      "inputs": [],
      "name": "dealerCount",
      "outputs": [
        {
          "name": "",
          "type": "uint256"
        }
      ],
      "payable": false,
      "stateMutability": "view",
      "type": "function",
      "signature": "0xea97ab4b"
    },
    {
      "constant": true,
      "inputs": [
        {
          "name": "",
          "type": "address"
        }
      ],
      "name": "mretail",
      "outputs": [
        {
          "name": "retailID",
          "type": "uint256"
        },
        {
          "name": "retailName",
          "type": "string"
        },
        {
          "name": "retailContact",
          "type": "uint256"
        },
        {
          "name": "retailAddress",
          "type": "string"
        },
        {
          "name": "raddr",
          "type": "address"
        },
        {
          "name": "isValue",
          "type": "bool"
        }
      ],
      "payable": false,
      "stateMutability": "view",
      "type": "function",
      "signature": "0xfa810865"
    },
    {
      "constant": true,
      "inputs": [
        {
          "name": "",
          "type": "uint256"
        }
      ],
      "name": "consumerCropArr",
      "outputs": [
        {
          "name": "",
          "type": "uint256"
        }
      ],
      "payable": false,
      "stateMutability": "view",
      "type": "function",
      "signature": "0xfc279e64"
    },
    {
      "anonymous": false,
      "inputs": [
        {
          "indexed": false,
          "name": "landlordID",
          "type": "uint256"
        },
        {
          "indexed": false,
          "name": "landlordName",
          "type": "string"
        },
        {
          "indexed": false,
          "name": "landlordContact",
          "type": "uint256"
        },
        {
          "indexed": false,
          "name": "landlordAddress",
          "type": "string"
        }
      ],
      "name": "landlordCreated",
      "type": "event",
      "signature": "0x08668c3163d612d8a94f23903ed5e73898d30921f3f8141c5d33a9495487754c"
    },
    {
      "anonymous": false,
      "inputs": [
        {
          "indexed": false,
          "name": "landID",
          "type": "uint256"
        },
        {
          "indexed": false,
          "name": "landAddress",
          "type": "string"
        },
        {
          "indexed": false,
          "name": "soilType",
          "type": "string"
        },
        {
          "indexed": false,
          "name": "area",
          "type": "uint256"
        },
        {
          "indexed": false,
          "name": "cost",
          "type": "uint256"
        }
      ],
      "name": "landForSale",
      "type": "event",
      "signature": "0x1165557beb26b62f0b993d64631cef5a6da178727e9e0403f41c77c28bc8d73d"
    },
    {
      "anonymous": false,
      "inputs": [
        {
          "indexed": false,
          "name": "landID",
          "type": "uint256"
        },
        {
          "indexed": false,
          "name": "landAddress",
          "type": "string"
        },
        {
          "indexed": false,
          "name": "soilType",
          "type": "string"
        },
        {
          "indexed": false,
          "name": "area",
          "type": "uint256"
        },
        {
          "indexed": false,
          "name": "cost",
          "type": "uint256"
        },
        {
          "indexed": false,
          "name": "duration",
          "type": "uint256"
        }
      ],
      "name": "landForLease",
      "type": "event",
      "signature": "0x439f63ff3358d031c0d7ea0b2dad09bb38c25aa5873ee25526f60b2434ddf69a"
    },
    {
      "anonymous": false,
      "inputs": [
        {
          "indexed": false,
          "name": "dealerID",
          "type": "uint256"
        },
        {
          "indexed": false,
          "name": "dealerName",
          "type": "string"
        },
        {
          "indexed": false,
          "name": "dealerContact",
          "type": "uint256"
        },
        {
          "indexed": false,
          "name": "dealerAddress",
          "type": "string"
        }
      ],
      "name": "seedDealerCreated",
      "type": "event",
      "signature": "0xd6872be6e41398807aa745d3fa75664e9c98bab6bc08f2ede66cf950f1a86e4f"
    },
    {
      "anonymous": false,
      "inputs": [
        {
          "indexed": false,
          "name": "seedID",
          "type": "uint256"
        },
        {
          "indexed": false,
          "name": "seedName",
          "type": "string"
        },
        {
          "indexed": false,
          "name": "seedcost",
          "type": "uint256"
        },
        {
          "indexed": false,
          "name": "seedQuantity",
          "type": "uint256"
        }
      ],
      "name": "seedCreated",
      "type": "event",
      "signature": "0xa55da230e9462e2c52b347397a2cb6953432cf8bed20f679a034e459ef95e34b"
    },
    {
      "anonymous": false,
      "inputs": [
        {
          "indexed": false,
          "name": "fertilizerID",
          "type": "uint256"
        },
        {
          "indexed": false,
          "name": "fertilizerName",
          "type": "string"
        },
        {
          "indexed": false,
          "name": "fertilizerCost",
          "type": "uint256"
        },
        {
          "indexed": false,
          "name": "fertilizerQuantity",
          "type": "uint256"
        }
      ],
      "name": "fertilizerCreated",
      "type": "event",
      "signature": "0x7dd1ac0f3045c721af138f4c0f5c1d81f03d3ce527d8984fb057c73a2229973e"
    },
    {
      "anonymous": false,
      "inputs": [
        {
          "indexed": false,
          "name": "farmerID",
          "type": "uint256"
        },
        {
          "indexed": false,
          "name": "farmerName",
          "type": "string"
        },
        {
          "indexed": false,
          "name": "farmerContact",
          "type": "uint256"
        },
        {
          "indexed": false,
          "name": "farmerAddress",
          "type": "string"
        }
      ],
      "name": "farmerCreated",
      "type": "event",
      "signature": "0xb36cc4119d00d499f56607c93b70202fbd20ed3ddec3c66d8f91c3890dc4ff2e"
    },
    {
      "anonymous": false,
      "inputs": [
        {
          "indexed": false,
          "name": "cropID",
          "type": "uint256"
        },
        {
          "indexed": false,
          "name": "cropName",
          "type": "string"
        },
        {
          "indexed": false,
          "name": "quantity",
          "type": "uint256"
        },
        {
          "indexed": false,
          "name": "cropPrice",
          "type": "uint256"
        },
        {
          "indexed": false,
          "name": "faddr",
          "type": "address"
        }
      ],
      "name": "cropCreated",
      "type": "event",
      "signature": "0x378c5f03b632c0811ba440398934fb1eafc2713c8186a0bc988db1302b2f9e0f"
    },
    {
      "anonymous": false,
      "inputs": [
        {
          "indexed": false,
          "name": "landID",
          "type": "uint256"
        }
      ],
      "name": "landPurchaseLease",
      "type": "event",
      "signature": "0xb113ddee1f19c663134cf17fedc292ab8569c4313980b37a98ad6f576fe205d0"
    },
    {
      "anonymous": false,
      "inputs": [
        {
          "indexed": false,
          "name": "landID",
          "type": "uint256"
        }
      ],
      "name": "landPurchaseSale",
      "type": "event",
      "signature": "0x4d76f888e2d45ed5342180cd02cd937a6df60e70f9267b6fe3d23fef91073dbe"
    },
    {
      "anonymous": false,
      "inputs": [
        {
          "indexed": false,
          "name": "seedID",
          "type": "uint256"
        }
      ],
      "name": "seedPurchase",
      "type": "event",
      "signature": "0x4884f639bffe6ebc2bd20dcf3acba03bbb77a1c29ce119ee0468add1e526bf2e"
    },
    {
      "anonymous": false,
      "inputs": [
        {
          "indexed": false,
          "name": "fertilizerID",
          "type": "uint256"
        }
      ],
      "name": "fertilizerPurchase",
      "type": "event",
      "signature": "0xa214b590499078bd7c3ac19858552eb9d47ef202d017c8c1af3a1f2559710b2b"
    },
    {
      "anonymous": false,
      "inputs": [
        {
          "indexed": false,
          "name": "distID",
          "type": "uint256"
        },
        {
          "indexed": false,
          "name": "distName",
          "type": "string"
        },
        {
          "indexed": false,
          "name": "distContact",
          "type": "uint256"
        },
        {
          "indexed": false,
          "name": "distAddress",
          "type": "string"
        }
      ],
      "name": "distCreated",
      "type": "event",
      "signature": "0x85ce94a09259d11fea28ef2cdae95f1a94d42451c0741fdd7e267f746c524b6a"
    },
    {
      "anonymous": false,
      "inputs": [
        {
          "indexed": false,
          "name": "cropID",
          "type": "uint256"
        }
      ],
      "name": "distCrop",
      "type": "event",
      "signature": "0xadae2f6d15893072faac01469d9c4ab03345012f63f977eabb99ca98c67fc3de"
    },
    {
      "anonymous": false,
      "inputs": [
        {
          "indexed": false,
          "name": "retailID",
          "type": "uint256"
        },
        {
          "indexed": false,
          "name": "retailName",
          "type": "string"
        },
        {
          "indexed": false,
          "name": "retailContact",
          "type": "uint256"
        },
        {
          "indexed": false,
          "name": "retailAddress",
          "type": "string"
        }
      ],
      "name": "retailCreated",
      "type": "event",
      "signature": "0xb0e45e8125bcae396aa2f4df5baf1c1fe6cc08db71c22a9fc54e8e2529b5934a"
    },
    {
      "anonymous": false,
      "inputs": [
        {
          "indexed": false,
          "name": "cropID",
          "type": "uint256"
        }
      ],
      "name": "retailCrop",
      "type": "event",
      "signature": "0x0cbf06922eb83154b3fe6f9e5c3288291460b497fd91bab7aaecaf6f828a39ea"
    },
    {
      "anonymous": false,
      "inputs": [
        {
          "indexed": false,
          "name": "consumerID",
          "type": "uint256"
        },
        {
          "indexed": false,
          "name": "consumerName",
          "type": "string"
        },
        {
          "indexed": false,
          "name": "consumerContact",
          "type": "uint256"
        },
        {
          "indexed": false,
          "name": "consumerAddress",
          "type": "string"
        }
      ],
      "name": "consumerCreated",
      "type": "event",
      "signature": "0x1a13455a6f21ea22183743d3a2e4337878ecb3600567972479049c8beeb90298"
    },
    {
      "anonymous": false,
      "inputs": [
        {
          "indexed": false,
          "name": "cropID",
          "type": "uint256"
        }
      ],
      "name": "consumerCrop",
      "type": "event",
      "signature": "0x719795a1d0f96d96000a0253c72c0cabd1e32bceca96fc716babca1abb0ec40e"
    },
    {
      "constant": false,
      "inputs": [
        {
          "name": "_landlordID",
          "type": "uint256"
        },
        {
          "name": "_landlordName",
          "type": "string"
        },
        {
          "name": "_landlordContact",
          "type": "uint256"
        },
        {
          "name": "_landlordAddress",
          "type": "string"
        }
      ],
      "name": "newLandlord",
      "outputs": [],
      "payable": false,
      "stateMutability": "nonpayable",
      "type": "function",
      "signature": "0x42280493"
    },
    {
      "constant": false,
      "inputs": [
        {
          "name": "_landID",
          "type": "uint256"
        },
        {
          "name": "_landAddress",
          "type": "string"
        },
        {
          "name": "_soilType",
          "type": "string"
        },
        {
          "name": "_area",
          "type": "uint256"
        },
        {
          "name": "_cost",
          "type": "uint256"
        }
      ],
      "name": "addLandSale",
      "outputs": [],
      "payable": false,
      "stateMutability": "nonpayable",
      "type": "function",
      "signature": "0xbcd94def"
    },
    {
      "constant": false,
      "inputs": [
        {
          "name": "_landID",
          "type": "uint256"
        },
        {
          "name": "_landAddress",
          "type": "string"
        },
        {
          "name": "_soilType",
          "type": "string"
        },
        {
          "name": "_area",
          "type": "uint256"
        },
        {
          "name": "_cost",
          "type": "uint256"
        },
        {
          "name": "_duration",
          "type": "uint256"
        }
      ],
      "name": "addLandLease",
      "outputs": [],
      "payable": false,
      "stateMutability": "nonpayable",
      "type": "function",
      "signature": "0x3c2267ff"
    },
    {
      "constant": false,
      "inputs": [
        {
          "name": "_dealerID",
          "type": "uint256"
        },
        {
          "name": "_dealerName",
          "type": "string"
        },
        {
          "name": "_dealerContact",
          "type": "uint256"
        },
        {
          "name": "_dealerAddress",
          "type": "string"
        }
      ],
      "name": "newSeedDealer",
      "outputs": [],
      "payable": false,
      "stateMutability": "nonpayable",
      "type": "function",
      "signature": "0x49045f57"
    },
    {
      "constant": false,
      "inputs": [
        {
          "name": "_seedID",
          "type": "uint256"
        },
        {
          "name": "_seedName",
          "type": "string"
        },
        {
          "name": "_seedcost",
          "type": "uint256"
        },
        {
          "name": "_seedQuantity",
          "type": "uint256"
        }
      ],
      "name": "newSeed",
      "outputs": [],
      "payable": false,
      "stateMutability": "nonpayable",
      "type": "function",
      "signature": "0xfa1d9d2e"
    },
    {
      "constant": false,
      "inputs": [
        {
          "name": "_fertilizerID",
          "type": "uint256"
        },
        {
          "name": "_fertilizerName",
          "type": "string"
        },
        {
          "name": "_fertilizerCost",
          "type": "uint256"
        },
        {
          "name": "_fertilizerQuantity",
          "type": "uint256"
        }
      ],
      "name": "newFertilizer",
      "outputs": [],
      "payable": false,
      "stateMutability": "nonpayable",
      "type": "function",
      "signature": "0xbd850f0c"
    },
    {
      "constant": false,
      "inputs": [
        {
          "name": "_farmerID",
          "type": "uint256"
        },
        {
          "name": "_farmerName",
          "type": "string"
        },
        {
          "name": "_farmerContact",
          "type": "uint256"
        },
        {
          "name": "_farmerAddress",
          "type": "string"
        }
      ],
      "name": "newFarmer",
      "outputs": [],
      "payable": false,
      "stateMutability": "nonpayable",
      "type": "function",
      "signature": "0x4f3afe83"
    },
    {
      "constant": false,
      "inputs": [
        {
          "name": "_cropID",
          "type": "uint256"
        },
        {
          "name": "_cropName",
          "type": "string"
        },
        {
          "name": "_quantity",
          "type": "uint256"
        },
        {
          "name": "_cropPrice",
          "type": "uint256"
        }
      ],
      "name": "addCrop",
      "outputs": [],
      "payable": false,
      "stateMutability": "nonpayable",
      "type": "function",
      "signature": "0x30abaf00"
    },
    {
      "constant": false,
      "inputs": [
        {
          "name": "_landID",
          "type": "uint256"
        }
      ],
      "name": "purchaseLandLease",
      "outputs": [],
      "payable": false,
      "stateMutability": "nonpayable",
      "type": "function",
      "signature": "0x675f3191"
    },
    {
      "constant": false,
      "inputs": [
        {
          "name": "_landID",
          "type": "uint256"
        }
      ],
      "name": "purchaseLandSale",
      "outputs": [],
      "payable": false,
      "stateMutability": "nonpayable",
      "type": "function",
      "signature": "0xcd9428c6"
    },
    {
      "constant": false,
      "inputs": [
        {
          "name": "_seedID",
          "type": "uint256"
        }
      ],
      "name": "purchaseSeed",
      "outputs": [],
      "payable": false,
      "stateMutability": "nonpayable",
      "type": "function",
      "signature": "0xd4cca0c5"
    },
    {
      "constant": false,
      "inputs": [
        {
          "name": "_fertilizerID",
          "type": "uint256"
        }
      ],
      "name": "purchaseFertilizer",
      "outputs": [],
      "payable": false,
      "stateMutability": "nonpayable",
      "type": "function",
      "signature": "0xef096e2b"
    },
    {
      "constant": false,
      "inputs": [
        {
          "name": "_distID",
          "type": "uint256"
        },
        {
          "name": "_distName",
          "type": "string"
        },
        {
          "name": "_distContact",
          "type": "uint256"
        },
        {
          "name": "_distAddress",
          "type": "string"
        }
      ],
      "name": "addDist",
      "outputs": [],
      "payable": false,
      "stateMutability": "nonpayable",
      "type": "function",
      "signature": "0xf0349832"
    },
    {
      "constant": false,
      "inputs": [
        {
          "name": "_cropID",
          "type": "uint256"
        }
      ],
      "name": "distAddCrop",
      "outputs": [],
      "payable": false,
      "stateMutability": "nonpayable",
      "type": "function",
      "signature": "0xea8f39f6"
    },
    {
      "constant": false,
      "inputs": [
        {
          "name": "_retailID",
          "type": "uint256"
        },
        {
          "name": "_retailName",
          "type": "string"
        },
        {
          "name": "_retailContact",
          "type": "uint256"
        },
        {
          "name": "_retailAddress",
          "type": "string"
        }
      ],
      "name": "addRetail",
      "outputs": [],
      "payable": false,
      "stateMutability": "nonpayable",
      "type": "function",
      "signature": "0xfdd545e3"
    },
    {
      "constant": false,
      "inputs": [
        {
          "name": "_cropID",
          "type": "uint256"
        }
      ],
      "name": "retailAddCrop",
      "outputs": [],
      "payable": false,
      "stateMutability": "nonpayable",
      "type": "function",
      "signature": "0x1ff8f740"
    },
    {
      "constant": false,
      "inputs": [
        {
          "name": "_consumerID",
          "type": "uint256"
        },
        {
          "name": "_consumerName",
          "type": "string"
        },
        {
          "name": "_consumerContact",
          "type": "uint256"
        },
        {
          "name": "_consumerAddress",
          "type": "string"
        }
      ],
      "name": "addconsumer",
      "outputs": [],
      "payable": false,
      "stateMutability": "nonpayable",
      "type": "function",
      "signature": "0x4f256d61"
    },
    {
      "constant": false,
      "inputs": [
        {
          "name": "_cropID",
          "type": "uint256"
        },
        {
          "name": "quantity",
          "type": "uint256"
        }
      ],
      "name": "consumerAddCrop",
      "outputs": [],
      "payable": false,
      "stateMutability": "nonpayable",
      "type": "function",
      "signature": "0x12daeb16"
    }
  ],
  "bytecode": "0x608060405234801561001057600080fd5b5061617d80620000216000396000f3fe608060405260043610610272576000357c0100000000000000000000000000000000000000000000000000000000900463ffffffff168063065520911461027757806312daeb16146102a25780631c4860f4146102e75780631ff8f7401461046957806325c99da1146104a457806330abaf00146104f35780633c2267ff146105d95780633d15a00e146107605780633f67865c146109115780634228049314610a935780634342279a14610c0657806343f197ba14610c8157806346f96d9a14610e3757806349045f5714610eb25780634d3fdae9146110255780634f256d61146110505780634f3afe83146111c357806350a517801461133657806362ec2cd8146113b1578063675f319114611533578063808d03561461156e57806381f28d80146115bd578063832a31c6146117025780638bed5bd2146118845780638d8a5b7d146118af57806396e53c4f146118fe57806396e68ce71461194d578063a1e89aec14611978578063b039da0f146119a3578063b4c0498b14611b5b578063b5eaf48114611b86578063b5f4f48114611bd5578063b9dd828614611c50578063bcd94def14611c7b578063bd45b39714611df8578063bd850f0c14611e23578063c078c1b514611f09578063cd9428c614611f34578063d21fe1cc14611f6f578063d2afca1214611fbe578063d4cca0c514612174578063d544a90c146121af578063dfd55a2c146122f4578063e96ba7f21461231f578063ea8f39f6146124a1578063ea97ab4b146124dc578063ef096e2b14612507578063f034983214612542578063fa1d9d2e146126b5578063fa8108651461279b578063fc279e641461291d578063fdd545e31461296c575b600080fd5b34801561028357600080fd5b5061028c612adf565b6040518082815260200191505060405180910390f35b3480156102ae57600080fd5b506102e5600480360360408110156102c557600080fd5b810190808035906020019092919080359060200190929190505050612ae5565b005b3480156102f357600080fd5b506103366004803603602081101561030a57600080fd5b81019080803573ffffffffffffffffffffffffffffffffffffffff169060200190929190505050612c32565b6040518087815260200180602001868152602001806020018573ffffffffffffffffffffffffffffffffffffffff1673ffffffffffffffffffffffffffffffffffffffff16815260200184151515158152602001838103835288818151815260200191508051906020019080838360005b838110156103c25780820151818401526020810190506103a7565b50505050905090810190601f1680156103ef5780820380516001836020036101000a031916815260200191505b50838103825286818151815260200191508051906020019080838360005b8381101561042857808201518184015260208101905061040d565b50505050905090810190601f1680156104555780820380516001836020036101000a031916815260200191505b509850505050505050505060405180910390f35b34801561047557600080fd5b506104a26004803603602081101561048c57600080fd5b8101908080359060200190929190505050612dcb565b005b3480156104b057600080fd5b506104dd600480360360208110156104c757600080fd5b8101908080359060200190929190505050612ef9565b6040518082815260200191505060405180910390f35b3480156104ff57600080fd5b506105d76004803603608081101561051657600080fd5b81019080803590602001909291908035906020019064010000000081111561053d57600080fd5b82018360208201111561054f57600080fd5b8035906020019184600183028401116401000000008311171561057157600080fd5b91908080601f016020809104026020016040519081016040528093929190818152602001838380828437600081840152601f19601f8201169050808301925050505050505091929192908035906020019092919080359060200190929190505050612f1c565b005b3480156105e557600080fd5b5061075e600480360360c08110156105fc57600080fd5b81019080803590602001909291908035906020019064010000000081111561062357600080fd5b82018360208201111561063557600080fd5b8035906020019184600183028401116401000000008311171561065757600080fd5b91908080601f016020809104026020016040519081016040528093929190818152602001838380828437600081840152601f19601f820116905080830192505050505050509192919290803590602001906401000000008111156106ba57600080fd5b8201836020820111156106cc57600080fd5b803590602001918460018302840111640100000000831117156106ee57600080fd5b91908080601f016020809104026020016040519081016040528093929190818152602001838380828437600081840152601f19601f82011690508083019250505050505050919291929080359060200190929190803590602001909291908035906020019092919050505061318f565b005b34801561076c57600080fd5b506107996004803603602081101561078357600080fd5b81019080803590602001909291905050506133b3565b604051808a8152602001806020018060200189815260200188815260200187151515158152602001861515151581526020018573ffffffffffffffffffffffffffffffffffffffff1673ffffffffffffffffffffffffffffffffffffffff1681526020018473ffffffffffffffffffffffffffffffffffffffff1673ffffffffffffffffffffffffffffffffffffffff16815260200183810383528b818151815260200191508051906020019080838360005b8381101561086757808201518184015260208101905061084c565b50505050905090810190601f1680156108945780820380516001836020036101000a031916815260200191505b5083810382528a818151815260200191508051906020019080838360005b838110156108cd5780820151818401526020810190506108b2565b50505050905090810190601f1680156108fa5780820380516001836020036101000a031916815260200191505b509b50505050505050505050505060405180910390f35b34801561091d57600080fd5b506109606004803603602081101561093457600080fd5b81019080803573ffffffffffffffffffffffffffffffffffffffff16906020019092919050505061358b565b6040518087815260200180602001868152602001806020018573ffffffffffffffffffffffffffffffffffffffff1673ffffffffffffffffffffffffffffffffffffffff16815260200184151515158152602001838103835288818151815260200191508051906020019080838360005b838110156109ec5780820151818401526020810190506109d1565b50505050905090810190601f168015610a195780820380516001836020036101000a031916815260200191505b50838103825286818151815260200191508051906020019080838360005b83811015610a52578082015181840152602081019050610a37565b50505050905090810190601f168015610a7f5780820380516001836020036101000a031916815260200191505b509850505050505050505060405180910390f35b348015610a9f57600080fd5b50610c0460048036036080811015610ab657600080fd5b810190808035906020019092919080359060200190640100000000811115610add57600080fd5b820183602082011115610aef57600080fd5b80359060200191846001830284011164010000000083111715610b1157600080fd5b91908080601f016020809104026020016040519081016040528093929190818152602001838380828437600081840152601f19601f8201169050808301925050505050505091929192908035906020019092919080359060200190640100000000811115610b7e57600080fd5b820183602082011115610b9057600080fd5b80359060200191846001830284011164010000000083111715610bb257600080fd5b91908080601f016020809104026020016040519081016040528093929190818152602001838380828437600081840152601f19601f820116905080830192505050505050509192919290505050613724565b005b348015610c1257600080fd5b50610c3f60048036036020811015610c2957600080fd5b810190808035906020019092919050505061399b565b604051808273ffffffffffffffffffffffffffffffffffffffff1673ffffffffffffffffffffffffffffffffffffffff16815260200191505060405180910390f35b348015610c8d57600080fd5b50610cba60048036036020811015610ca457600080fd5b81019080803590602001909291905050506139d9565b604051808c8152602001806020018b81526020018a81526020018973ffffffffffffffffffffffffffffffffffffffff1673ffffffffffffffffffffffffffffffffffffffff1681526020018873ffffffffffffffffffffffffffffffffffffffff1673ffffffffffffffffffffffffffffffffffffffff1681526020018773ffffffffffffffffffffffffffffffffffffffff1673ffffffffffffffffffffffffffffffffffffffff1681526020018673ffffffffffffffffffffffffffffffffffffffff1673ffffffffffffffffffffffffffffffffffffffff16815260200185151515158152602001841515151581526020018315151515815260200182810382528c818151815260200191508051906020019080838360005b83811015610df2578082015181840152602081019050610dd7565b50505050905090810190601f168015610e1f5780820380516001836020036101000a031916815260200191505b509c5050505050505050505050505060405180910390f35b348015610e4357600080fd5b50610e7060048036036020811015610e5a57600080fd5b8101908080359060200190929190505050613b72565b604051808273ffffffffffffffffffffffffffffffffffffffff1673ffffffffffffffffffffffffffffffffffffffff16815260200191505060405180910390f35b348015610ebe57600080fd5b5061102360048036036080811015610ed557600080fd5b810190808035906020019092919080359060200190640100000000811115610efc57600080fd5b820183602082011115610f0e57600080fd5b80359060200191846001830284011164010000000083111715610f3057600080fd5b91908080601f016020809104026020016040519081016040528093929190818152602001838380828437600081840152601f19601f8201169050808301925050505050505091929192908035906020019092919080359060200190640100000000811115610f9d57600080fd5b820183602082011115610faf57600080fd5b80359060200191846001830284011164010000000083111715610fd157600080fd5b91908080601f016020809104026020016040519081016040528093929190818152602001838380828437600081840152601f19601f820116905080830192505050505050509192919290505050613bb0565b005b34801561103157600080fd5b5061103a613e29565b6040518082815260200191505060405180910390f35b34801561105c57600080fd5b506111c16004803603608081101561107357600080fd5b81019080803590602001909291908035906020019064010000000081111561109a57600080fd5b8201836020820111156110ac57600080fd5b803590602001918460018302840111640100000000831117156110ce57600080fd5b91908080601f016020809104026020016040519081016040528093929190818152602001838380828437600081840152601f19601f820116905080830192505050505050509192919290803590602001909291908035906020019064010000000081111561113b57600080fd5b82018360208201111561114d57600080fd5b8035906020019184600183028401116401000000008311171561116f57600080fd5b91908080601f016020809104026020016040519081016040528093929190818152602001838380828437600081840152601f19601f820116905080830192505050505050509192919290505050613e2f565b005b3480156111cf57600080fd5b50611334600480360360808110156111e657600080fd5b81019080803590602001909291908035906020019064010000000081111561120d57600080fd5b82018360208201111561121f57600080fd5b8035906020019184600183028401116401000000008311171561124157600080fd5b91908080601f016020809104026020016040519081016040528093929190818152602001838380828437600081840152601f19601f82011690508083019250505050505050919291929080359060200190929190803590602001906401000000008111156112ae57600080fd5b8201836020820111156112c057600080fd5b803590602001918460018302840111640100000000831117156112e257600080fd5b91908080601f016020809104026020016040519081016040528093929190818152602001838380828437600081840152601f19601f82011690508083019250505050505050919291929050505061410e565b005b34801561134257600080fd5b5061136f6004803603602081101561135957600080fd5b81019080803590602001909291905050506143ed565b604051808273ffffffffffffffffffffffffffffffffffffffff1673ffffffffffffffffffffffffffffffffffffffff16815260200191505060405180910390f35b3480156113bd57600080fd5b50611400600480360360208110156113d457600080fd5b81019080803573ffffffffffffffffffffffffffffffffffffffff16906020019092919050505061442b565b6040518087815260200180602001868152602001806020018573ffffffffffffffffffffffffffffffffffffffff1673ffffffffffffffffffffffffffffffffffffffff16815260200184151515158152602001838103835288818151815260200191508051906020019080838360005b8381101561148c578082015181840152602081019050611471565b50505050905090810190601f1680156114b95780820380516001836020036101000a031916815260200191505b50838103825286818151815260200191508051906020019080838360005b838110156114f25780820151818401526020810190506114d7565b50505050905090810190601f16801561151f5780820380516001836020036101000a031916815260200191505b509850505050505050505060405180910390f35b34801561153f57600080fd5b5061156c6004803603602081101561155657600080fd5b81019080803590602001909291905050506145c4565b005b34801561157a57600080fd5b506115a76004803603602081101561159157600080fd5b810190808035906020019092919050505061467a565b6040518082815260200191505060405180910390f35b3480156115c957600080fd5b506115f6600480360360208110156115e057600080fd5b810190808035906020019092919050505061469d565b604051808981526020018060200188815260200187151515158152602001861515151581526020018581526020018473ffffffffffffffffffffffffffffffffffffffff1673ffffffffffffffffffffffffffffffffffffffff1681526020018373ffffffffffffffffffffffffffffffffffffffff1673ffffffffffffffffffffffffffffffffffffffff168152602001828103825289818151815260200191508051906020019080838360005b838110156116c05780820151818401526020810190506116a5565b50505050905090810190601f1680156116ed5780820380516001836020036101000a031916815260200191505b50995050505050505050505060405180910390f35b34801561170e57600080fd5b506117516004803603602081101561172557600080fd5b81019080803573ffffffffffffffffffffffffffffffffffffffff1690602001909291905050506147d7565b6040518087815260200180602001868152602001806020018573ffffffffffffffffffffffffffffffffffffffff1673ffffffffffffffffffffffffffffffffffffffff16815260200184151515158152602001838103835288818151815260200191508051906020019080838360005b838110156117dd5780820151818401526020810190506117c2565b50505050905090810190601f16801561180a5780820380516001836020036101000a031916815260200191505b50838103825286818151815260200191508051906020019080838360005b83811015611843578082015181840152602081019050611828565b50505050905090810190601f1680156118705780820380516001836020036101000a031916815260200191505b509850505050505050505060405180910390f35b34801561189057600080fd5b50611899614970565b6040518082815260200191505060405180910390f35b3480156118bb57600080fd5b506118e8600480360360208110156118d257600080fd5b8101908080359060200190929190505050614976565b6040518082815260200191505060405180910390f35b34801561190a57600080fd5b506119376004803603602081101561192157600080fd5b8101908080359060200190929190505050614999565b6040518082815260200191505060405180910390f35b34801561195957600080fd5b506119626149bc565b6040518082815260200191505060405180910390f35b34801561198457600080fd5b5061198d6149c2565b6040518082815260200191505060405180910390f35b3480156119af57600080fd5b506119dc600480360360208110156119c657600080fd5b81019080803590602001909291905050506149c8565b604051808b815260200180602001806020018a815260200189815260200188815260200187151515158152602001861515151581526020018573ffffffffffffffffffffffffffffffffffffffff1673ffffffffffffffffffffffffffffffffffffffff1681526020018473ffffffffffffffffffffffffffffffffffffffff1673ffffffffffffffffffffffffffffffffffffffff16815260200183810383528c818151815260200191508051906020019080838360005b83811015611ab0578082015181840152602081019050611a95565b50505050905090810190601f168015611add5780820380516001836020036101000a031916815260200191505b5083810382528b818151815260200191508051906020019080838360005b83811015611b16578082015181840152602081019050611afb565b50505050905090810190601f168015611b435780820380516001836020036101000a031916815260200191505b509c5050505050505050505050505060405180910390f35b348015611b6757600080fd5b50611b70614ba6565b6040518082815260200191505060405180910390f35b348015611b9257600080fd5b50611bbf60048036036020811015611ba957600080fd5b8101908080359060200190929190505050614bac565b6040518082815260200191505060405180910390f35b348015611be157600080fd5b50611c0e60048036036020811015611bf857600080fd5b8101908080359060200190929190505050614bcf565b604051808273ffffffffffffffffffffffffffffffffffffffff1673ffffffffffffffffffffffffffffffffffffffff16815260200191505060405180910390f35b348015611c5c57600080fd5b50611c65614c0d565b6040518082815260200191505060405180910390f35b348015611c8757600080fd5b50611df6600480360360a0811015611c9e57600080fd5b810190808035906020019092919080359060200190640100000000811115611cc557600080fd5b820183602082011115611cd757600080fd5b80359060200191846001830284011164010000000083111715611cf957600080fd5b91908080601f016020809104026020016040519081016040528093929190818152602001838380828437600081840152601f19601f82011690508083019250505050505050919291929080359060200190640100000000811115611d5c57600080fd5b820183602082011115611d6e57600080fd5b80359060200191846001830284011164010000000083111715611d9057600080fd5b91908080601f016020809104026020016040519081016040528093929190818152602001838380828437600081840152601f19601f8201169050808301925050505050505091929192908035906020019092919080359060200190929190505050614c13565b005b348015611e0457600080fd5b50611e0d614e25565b6040518082815260200191505060405180910390f35b348015611e2f57600080fd5b50611f0760048036036080811015611e4657600080fd5b810190808035906020019092919080359060200190640100000000811115611e6d57600080fd5b820183602082011115611e7f57600080fd5b80359060200191846001830284011164010000000083111715611ea157600080fd5b91908080601f016020809104026020016040519081016040528093929190818152602001838380828437600081840152601f19601f8201169050808301925050505050505091929192908035906020019092919080359060200190929190505050614e2b565b005b348015611f1557600080fd5b50611f1e614fb6565b6040518082815260200191505060405180910390f35b348015611f4057600080fd5b50611f6d60048036036020811015611f5757600080fd5b8101908080359060200190929190505050614fbc565b005b348015611f7b57600080fd5b50611fa860048036036020811015611f9257600080fd5b8101908080359060200190929190505050615072565b6040518082815260200191505060405180910390f35b348015611fca57600080fd5b50611ff760048036036020811015611fe157600080fd5b8101908080359060200190929190505050615095565b604051808c8152602001806020018b81526020018a81526020018973ffffffffffffffffffffffffffffffffffffffff1673ffffffffffffffffffffffffffffffffffffffff1681526020018873ffffffffffffffffffffffffffffffffffffffff1673ffffffffffffffffffffffffffffffffffffffff1681526020018773ffffffffffffffffffffffffffffffffffffffff1673ffffffffffffffffffffffffffffffffffffffff1681526020018673ffffffffffffffffffffffffffffffffffffffff1673ffffffffffffffffffffffffffffffffffffffff16815260200185151515158152602001841515151581526020018315151515815260200182810382528c818151815260200191508051906020019080838360005b8381101561212f578082015181840152602081019050612114565b50505050905090810190601f16801561215c5780820380516001836020036101000a031916815260200191505b509c5050505050505050505050505060405180910390f35b34801561218057600080fd5b506121ad6004803603602081101561219757600080fd5b810190808035906020019092919050505061522e565b005b3480156121bb57600080fd5b506121e8600480360360208110156121d257600080fd5b81019080803590602001909291905050506152e4565b604051808981526020018060200188815260200187151515158152602001861515151581526020018581526020018473ffffffffffffffffffffffffffffffffffffffff1673ffffffffffffffffffffffffffffffffffffffff1681526020018373ffffffffffffffffffffffffffffffffffffffff1673ffffffffffffffffffffffffffffffffffffffff168152602001828103825289818151815260200191508051906020019080838360005b838110156122b2578082015181840152602081019050612297565b50505050905090810190601f1680156122df5780820380516001836020036101000a031916815260200191505b50995050505050505050505060405180910390f35b34801561230057600080fd5b5061230961541e565b6040518082815260200191505060405180910390f35b34801561232b57600080fd5b5061236e6004803603602081101561234257600080fd5b81019080803573ffffffffffffffffffffffffffffffffffffffff169060200190929190505050615424565b6040518087815260200180602001806020018681526020018573ffffffffffffffffffffffffffffffffffffffff1673ffffffffffffffffffffffffffffffffffffffff16815260200184151515158152602001838103835288818151815260200191508051906020019080838360005b838110156123fa5780820151818401526020810190506123df565b50505050905090810190601f1680156124275780820380516001836020036101000a031916815260200191505b50838103825287818151815260200191508051906020019080838360005b83811015612460578082015181840152602081019050612445565b50505050905090810190601f16801561248d5780820380516001836020036101000a031916815260200191505b509850505050505050505060405180910390f35b3480156124ad57600080fd5b506124da600480360360208110156124c457600080fd5b81019080803590602001909291905050506155bd565b005b3480156124e857600080fd5b506124f16156eb565b6040518082815260200191505060405180910390f35b34801561251357600080fd5b506125406004803603602081101561252a57600080fd5b81019080803590602001909291905050506156f1565b005b34801561254e57600080fd5b506126b36004803603608081101561256557600080fd5b81019080803590602001909291908035906020019064010000000081111561258c57600080fd5b82018360208201111561259e57600080fd5b803590602001918460018302840111640100000000831117156125c057600080fd5b91908080601f016020809104026020016040519081016040528093929190818152602001838380828437600081840152601f19601f820116905080830192505050505050509192919290803590602001909291908035906020019064010000000081111561262d57600080fd5b82018360208201111561263f57600080fd5b8035906020019184600183028401116401000000008311171561266157600080fd5b91908080601f016020809104026020016040519081016040528093929190818152602001838380828437600081840152601f19601f8201169050808301925050505050505091929192905050506157a7565b005b3480156126c157600080fd5b50612799600480360360808110156126d857600080fd5b8101908080359060200190929190803590602001906401000000008111156126ff57600080fd5b82018360208201111561271157600080fd5b8035906020019184600183028401116401000000008311171561273357600080fd5b91908080601f016020809104026020016040519081016040528093929190818152602001838380828437600081840152601f19601f8201169050808301925050505050505091929192908035906020019092919080359060200190929190505050615a86565b005b3480156127a757600080fd5b506127ea600480360360208110156127be57600080fd5b81019080803573ffffffffffffffffffffffffffffffffffffffff169060200190929190505050615c11565b6040518087815260200180602001868152602001806020018573ffffffffffffffffffffffffffffffffffffffff1673ffffffffffffffffffffffffffffffffffffffff16815260200184151515158152602001838103835288818151815260200191508051906020019080838360005b8381101561287657808201518184015260208101905061285b565b50505050905090810190601f1680156128a35780820380516001836020036101000a031916815260200191505b50838103825286818151815260200191508051906020019080838360005b838110156128dc5780820151818401526020810190506128c1565b50505050905090810190601f1680156129095780820380516001836020036101000a031916815260200191505b509850505050505050505060405180910390f35b34801561292957600080fd5b506129566004803603602081101561294057600080fd5b8101908080359060200190929190505050615daa565b6040518082815260200191505060405180910390f35b34801561297857600080fd5b50612add6004803603608081101561298f57600080fd5b8101908080359060200190929190803590602001906401000000008111156129b657600080fd5b8201836020820111156129c857600080fd5b803590602001918460018302840111640100000000831117156129ea57600080fd5b91908080601f016020809104026020016040519081016040528093929190818152602001838380828437600081840152601f19601f8201169050808301925050505050505091929192908035906020019092919080359060200190640100000000811115612a5757600080fd5b820183602082011115612a6957600080fd5b80359060200191846001830284011164010000000083111715612a8b57600080fd5b91908080601f016020809104026020016040519081016040528093929190818152602001838380828437600081840152601f19601f820116905080830192505050505050509192919290505050615dcd565b005b60175481565b60006007600084815260200190815260200160002090506000600860008581526020019081526020016000209050338260070160006101000a81548173ffffffffffffffffffffffffffffffffffffffff021916908373ffffffffffffffffffffffffffffffffffffffff16021790555060018260070160166101000a81548160ff021916908315150217905550828260020154038260020181905550338160070160006101000a81548173ffffffffffffffffffffffffffffffffffffffff021916908373ffffffffffffffffffffffffffffffffffffffff16021790555060018160070160166101000a81548160ff0219169083151502179055508281600201540181600201819055507f719795a1d0f96d96000a0253c72c0cabd1e32bceca96fc716babca1abb0ec40e82600001546040518082815260200191505060405180910390a150505050565b6004602052806000526040600020600091509050806000015490806001018054600181600116156101000203166002900480601f016020809104026020016040519081016040528092919081815260200182805460018160011615610100020316600290048015612ce45780601f10612cb957610100808354040283529160200191612ce4565b820191906000526020600020905b815481529060010190602001808311612cc757829003601f168201915b505050505090806002015490806003018054600181600116156101000203166002900480601f016020809104026020016040519081016040528092919081815260200182805460018160011615610100020316600290048015612d885780601f10612d5d57610100808354040283529160200191612d88565b820191906000526020600020905b815481529060010190602001808311612d6b57829003601f168201915b5050505050908060040160009054906101000a900473ffffffffffffffffffffffffffffffffffffffff16908060040160149054906101000a900460ff16905086565b60006007600083815260200190815260200160002090506000600860008481526020019081526020016000209050338260060160006101000a81548173ffffffffffffffffffffffffffffffffffffffff021916908373ffffffffffffffffffffffffffffffffffffffff16021790555060018260070160156101000a81548160ff021916908315150217905550338160060160006101000a81548173ffffffffffffffffffffffffffffffffffffffff021916908373ffffffffffffffffffffffffffffffffffffffff16021790555060018160070160156101000a81548160ff0219169083151502179055507f0cbf06922eb83154b3fe6f9e5c3288291460b497fd91bab7aaecaf6f828a39ea82600001546040518082815260200191505060405180910390a1505050565b600d81815481101515612f0857fe5b906000526020600020016000915090505481565b60006007600086815260200190815260200160002090506000600860008781526020019081526020016000209050338260040160006101000a81548173ffffffffffffffffffffffffffffffffffffffff021916908373ffffffffffffffffffffffffffffffffffffffff16021790555085826000018190555084826001019080519060200190612fae9291906160ac565b50838260020181905550828260030181905550338160040160006101000a81548173ffffffffffffffffffffffffffffffffffffffff021916908373ffffffffffffffffffffffffffffffffffffffff160217905550858160000181905550848160010190805190602001906130259291906160ac565b5060008160020181905550828160030181905550601e6000815480929190600101919050555060108690806001815401808255809150509060018203906000526020600020016000909192909190915055507f378c5f03b632c0811ba440398934fb1eafc2713c8186a0bc988db1302b2f9e0f82600001548686868660040160009054906101000a900473ffffffffffffffffffffffffffffffffffffffff1660405180868152602001806020018581526020018481526020018373ffffffffffffffffffffffffffffffffffffffff1673ffffffffffffffffffffffffffffffffffffffff168152602001828103825286818151815260200191508051906020019080838360005b8381101561314957808201518184015260208101905061312e565b50505050905090810190601f1680156131765780820380516001836020036101000a031916815260200191505b50965050505050505060405180910390a1505050505050565b6000600260008881526020019081526020016000209050338160060160026101000a81548173ffffffffffffffffffffffffffffffffffffffff021916908373ffffffffffffffffffffffffffffffffffffffff1602179055508681600001819055508581600101908051906020019061320a9291906160ac565b50848160020190805190602001906132239291906160ac565b50838160030181905550828160040181905550818160050181905550601960008154809291906001019190505550600c8790806001815401808255809150509060018203906000526020600020016000909192909190915055507f439f63ff3358d031c0d7ea0b2dad09bb38c25aa5873ee25526f60b2434ddf69a81600001548787878787604051808781526020018060200180602001868152602001858152602001848152602001838103835288818151815260200191508051906020019080838360005b838110156133045780820151818401526020810190506132e9565b50505050905090810190601f1680156133315780820380516001836020036101000a031916815260200191505b50838103825287818151815260200191508051906020019080838360005b8381101561336a57808201518184015260208101905061334f565b50505050905090810190601f1680156133975780820380516001836020036101000a031916815260200191505b509850505050505050505060405180910390a150505050505050565b6003602052806000526040600020600091509050806000015490806001018054600181600116156101000203166002900480601f0160208091040260200160405190810160405280929190818152602001828054600181600116156101000203166002900480156134655780601f1061343a57610100808354040283529160200191613465565b820191906000526020600020905b81548152906001019060200180831161344857829003601f168201915b505050505090806002018054600181600116156101000203166002900480601f0160208091040260200160405190810160405280929190818152602001828054600181600116156101000203166002900480156135035780601f106134d857610100808354040283529160200191613503565b820191906000526020600020905b8154815290600101906020018083116134e657829003601f168201915b5050505050908060030154908060040154908060050160009054906101000a900460ff16908060050160019054906101000a900460ff16908060050160029054906101000a900473ffffffffffffffffffffffffffffffffffffffff16908060060160009054906101000a900473ffffffffffffffffffffffffffffffffffffffff16905089565b6000602052806000526040600020600091509050806000015490806001018054600181600116156101000203166002900480601f01602080910402602001604051908101604052809291908181526020018280546001816001161561010002031660029004801561363d5780601f106136125761010080835404028352916020019161363d565b820191906000526020600020905b81548152906001019060200180831161362057829003601f168201915b505050505090806002015490806003018054600181600116156101000203166002900480601f0160208091040260200160405190810160405280929190818152602001828054600181600116156101000203166002900480156136e15780601f106136b6576101008083540402835291602001916136e1565b820191906000526020600020905b8154815290600101906020018083116136c457829003601f168201915b5050505050908060040160009054906101000a900473ffffffffffffffffffffffffffffffffffffffff16908060040160149054906101000a900460ff16905086565b60008060003373ffffffffffffffffffffffffffffffffffffffff1673ffffffffffffffffffffffffffffffffffffffff16815260200190815260200160002090506000803373ffffffffffffffffffffffffffffffffffffffff1673ffffffffffffffffffffffffffffffffffffffff16815260200190815260200160002060040160149054906101000a900460ff161515156137c157600080fd5b338160040160006101000a81548173ffffffffffffffffffffffffffffffffffffffff021916908373ffffffffffffffffffffffffffffffffffffffff160217905550848160000181905550838160010190805190602001906138259291906160ac565b508181600301908051906020019061383e9291906160ac565b5082816002018190555060018160040160146101000a81548160ff0219169083151502179055506017600081548092919060010191905055507f08668c3163d612d8a94f23903ed5e73898d30921f3f8141c5d33a9495487754c8160000154858585604051808581526020018060200184815260200180602001838103835286818151815260200191508051906020019080838360005b838110156138f05780820151818401526020810190506138d5565b50505050905090810190601f16801561391d5780820380516001836020036101000a031916815260200191505b50838103825284818151815260200191508051906020019080838360005b8381101561395657808201518184015260208101905061393b565b50505050905090810190601f1680156139835780820380516001836020036101000a031916815260200191505b50965050505050505060405180910390a15050505050565b6016818154811015156139aa57fe5b906000526020600020016000915054906101000a900473ffffffffffffffffffffffffffffffffffffffff1681565b6007602052806000526040600020600091509050806000015490806001018054600181600116156101000203166002900480601f016020809104026020016040519081016040528092919081815260200182805460018160011615610100020316600290048015613a8b5780601f10613a6057610100808354040283529160200191613a8b565b820191906000526020600020905b815481529060010190602001808311613a6e57829003601f168201915b5050505050908060020154908060030154908060040160009054906101000a900473ffffffffffffffffffffffffffffffffffffffff16908060050160009054906101000a900473ffffffffffffffffffffffffffffffffffffffff16908060060160009054906101000a900473ffffffffffffffffffffffffffffffffffffffff16908060070160009054906101000a900473ffffffffffffffffffffffffffffffffffffffff16908060070160149054906101000a900460ff16908060070160159054906101000a900460ff16908060070160169054906101000a900460ff1690508b565b601381815481101515613b8157fe5b906000526020600020016000915054906101000a900473ffffffffffffffffffffffffffffffffffffffff1681565b6000600160003373ffffffffffffffffffffffffffffffffffffffff1673ffffffffffffffffffffffffffffffffffffffff1681526020019081526020016000209050600160003373ffffffffffffffffffffffffffffffffffffffff1673ffffffffffffffffffffffffffffffffffffffff16815260200190815260200160002060040160149054906101000a900460ff16151515613c4f57600080fd5b338160040160006101000a81548173ffffffffffffffffffffffffffffffffffffffff021916908373ffffffffffffffffffffffffffffffffffffffff16021790555084816000018190555083816001019080519060200190613cb39291906160ac565b5081816002019080519060200190613ccc9291906160ac565b5082816003018190555060018160040160146101000a81548160ff0219169083151502179055506018600081548092919060010191905055507fd6872be6e41398807aa745d3fa75664e9c98bab6bc08f2ede66cf950f1a86e4f8160000154858585604051808581526020018060200184815260200180602001838103835286818151815260200191508051906020019080838360005b83811015613d7e578082015181840152602081019050613d63565b50505050905090810190601f168015613dab5780820380516001836020036101000a031916815260200191505b50838103825284818151815260200191508051906020019080838360005b83811015613de4578082015181840152602081019050613dc9565b50505050905090810190601f168015613e115780820380516001836020036101000a031916815260200191505b50965050505050505060405180910390a15050505050565b601f5481565b6000600b60003373ffffffffffffffffffffffffffffffffffffffff1673ffffffffffffffffffffffffffffffffffffffff1681526020019081526020016000209050600b60003373ffffffffffffffffffffffffffffffffffffffff1673ffffffffffffffffffffffffffffffffffffffff16815260200190815260200160002060040160149054906101000a900460ff16151515613ece57600080fd5b338160040160006101000a81548173ffffffffffffffffffffffffffffffffffffffff021916908373ffffffffffffffffffffffffffffffffffffffff16021790555084816000018190555083816001019080519060200190613f329291906160ac565b5082816002018190555081816003019080519060200190613f549291906160ac565b5060018160040160146101000a81548160ff02191690831515021790555060163390806001815401808255809150509060018203906000526020600020016000909192909190916101000a81548173ffffffffffffffffffffffffffffffffffffffff021916908373ffffffffffffffffffffffffffffffffffffffff160217905550506021600081548092919060010191905055507f1a13455a6f21ea22183743d3a2e4337878ecb3600567972479049c8beeb902988160000154858585604051808581526020018060200184815260200180602001838103835286818151815260200191508051906020019080838360005b83811015614063578082015181840152602081019050614048565b50505050905090810190601f1680156140905780820380516001836020036101000a031916815260200191505b50838103825284818151815260200191508051906020019080838360005b838110156140c95780820151818401526020810190506140ae565b50505050905090810190601f1680156140f65780820380516001836020036101000a031916815260200191505b50965050505050505060405180910390a15050505050565b6000600460003373ffffffffffffffffffffffffffffffffffffffff1673ffffffffffffffffffffffffffffffffffffffff1681526020019081526020016000209050600460003373ffffffffffffffffffffffffffffffffffffffff1673ffffffffffffffffffffffffffffffffffffffff16815260200190815260200160002060040160149054906101000a900460ff161515156141ad57600080fd5b338160040160006101000a81548173ffffffffffffffffffffffffffffffffffffffff021916908373ffffffffffffffffffffffffffffffffffffffff160217905550848160000181905550838160010190805190602001906142119291906160ac565b508181600301908051906020019061422a9291906160ac565b5082816002018190555060018160040160146101000a81548160ff02191690831515021790555060133390806001815401808255809150509060018203906000526020600020016000909192909190916101000a81548173ffffffffffffffffffffffffffffffffffffffff021916908373ffffffffffffffffffffffffffffffffffffffff16021790555050601d600081548092919060010191905055507fb36cc4119d00d499f56607c93b70202fbd20ed3ddec3c66d8f91c3890dc4ff2e8160000154858585604051808581526020018060200184815260200180602001838103835286818151815260200191508051906020019080838360005b83811015614342578082015181840152602081019050614327565b50505050905090810190601f16801561436f5780820380516001836020036101000a031916815260200191505b50838103825284818151815260200191508051906020019080838360005b838110156143a857808201518184015260208101905061438d565b50505050905090810190601f1680156143d55780820380516001836020036101000a031916815260200191505b50965050505050505060405180910390a15050505050565b6015818154811015156143fc57fe5b906000526020600020016000915054906101000a900473ffffffffffffffffffffffffffffffffffffffff1681565b600b602052806000526040600020600091509050806000015490806001018054600181600116156101000203166002900480601f0160208091040260200160405190810160405280929190818152602001828054600181600116156101000203166002900480156144dd5780601f106144b2576101008083540402835291602001916144dd565b820191906000526020600020905b8154815290600101906020018083116144c057829003601f168201915b505050505090806002015490806003018054600181600116156101000203166002900480601f0160208091040260200160405190810160405280929190818152602001828054600181600116156101000203166002900480156145815780601f1061455657610100808354040283529160200191614581565b820191906000526020600020905b81548152906001019060200180831161456457829003601f168201915b5050505050908060040160009054906101000a900473ffffffffffffffffffffffffffffffffffffffff16908060040160149054906101000a900460ff16905086565b600060026000838152602001908152602001600020905060018160060160006101000a81548160ff021916908315150217905550338160070160006101000a81548173ffffffffffffffffffffffffffffffffffffffff021916908373ffffffffffffffffffffffffffffffffffffffff1602179055507fb113ddee1f19c663134cf17fedc292ab8569c4313980b37a98ad6f576fe205d081600001546040518082815260200191505060405180910390a15050565b600e8181548110151561468957fe5b906000526020600020016000915090505481565b6006602052806000526040600020600091509050806000015490806001018054600181600116156101000203166002900480601f01602080910402602001604051908101604052809291908181526020018280546001816001161561010002031660029004801561474f5780601f106147245761010080835404028352916020019161474f565b820191906000526020600020905b81548152906001019060200180831161473257829003601f168201915b5050505050908060020154908060030160009054906101000a900460ff16908060030160019054906101000a900460ff16908060040154908060050160009054906101000a900473ffffffffffffffffffffffffffffffffffffffff16908060060160009054906101000a900473ffffffffffffffffffffffffffffffffffffffff16905088565b6009602052806000526040600020600091509050806000015490806001018054600181600116156101000203166002900480601f0160208091040260200160405190810160405280929190818152602001828054600181600116156101000203166002900480156148895780601f1061485e57610100808354040283529160200191614889565b820191906000526020600020905b81548152906001019060200180831161486c57829003601f168201915b505050505090806002015490806003018054600181600116156101000203166002900480601f01602080910402602001604051908101604052809291908181526020018280546001816001161561010002031660029004801561492d5780601f106149025761010080835404028352916020019161492d565b820191906000526020600020905b81548152906001019060200180831161491057829003601f168201915b5050505050908060040160009054906101000a900473ffffffffffffffffffffffffffffffffffffffff16908060040160149054906101000a900460ff16905086565b601a5481565b600f8181548110151561498557fe5b906000526020600020016000915090505481565b600c818154811015156149a857fe5b906000526020600020016000915090505481565b601b5481565b601c5481565b6002602052806000526040600020600091509050806000015490806001018054600181600116156101000203166002900480601f016020809104026020016040519081016040528092919081815260200182805460018160011615610100020316600290048015614a7a5780601f10614a4f57610100808354040283529160200191614a7a565b820191906000526020600020905b815481529060010190602001808311614a5d57829003601f168201915b505050505090806002018054600181600116156101000203166002900480601f016020809104026020016040519081016040528092919081815260200182805460018160011615610100020316600290048015614b185780601f10614aed57610100808354040283529160200191614b18565b820191906000526020600020905b815481529060010190602001808311614afb57829003601f168201915b5050505050908060030154908060040154908060050154908060060160009054906101000a900460ff16908060060160019054906101000a900460ff16908060060160029054906101000a900473ffffffffffffffffffffffffffffffffffffffff16908060070160009054906101000a900473ffffffffffffffffffffffffffffffffffffffff1690508a565b60195481565b601081815481101515614bbb57fe5b906000526020600020016000915090505481565b601481815481101515614bde57fe5b906000526020600020016000915054906101000a900473ffffffffffffffffffffffffffffffffffffffff1681565b60205481565b6000600360008781526020019081526020016000209050338160050160026101000a81548173ffffffffffffffffffffffffffffffffffffffff021916908373ffffffffffffffffffffffffffffffffffffffff16021790555085816000018190555084816001019080519060200190614c8e9291906160ac565b5083816002019080519060200190614ca79291906160ac565b50828160030181905550818160040181905550601c60008154809291906001019190505550600d8690806001815401808255809150509060018203906000526020600020016000909192909190915055507f1165557beb26b62f0b993d64631cef5a6da178727e9e0403f41c77c28bc8d73d816000015486868686604051808681526020018060200180602001858152602001848152602001838103835287818151815260200191508051906020019080838360005b83811015614d78578082015181840152602081019050614d5d565b50505050905090810190601f168015614da55780820380516001836020036101000a031916815260200191505b50838103825286818151815260200191508051906020019080838360005b83811015614dde578082015181840152602081019050614dc3565b50505050905090810190601f168015614e0b5780820380516001836020036101000a031916815260200191505b5097505050505050505060405180910390a1505050505050565b601d5481565b6000600660008681526020019081526020016000209050338160050160006101000a81548173ffffffffffffffffffffffffffffffffffffffff021916908373ffffffffffffffffffffffffffffffffffffffff16021790555084816000018190555083816001019080519060200190614ea69291906160ac565b50828160040181905550818160020181905550600f859080600181540180825580915050906001820390600052602060002001600090919290919091505550601b600081548092919060010191905055507f7dd1ac0f3045c721af138f4c0f5c1d81f03d3ce527d8984fb057c73a2229973e81600001548585856040518085815260200180602001848152602001838152602001828103825285818151815260200191508051906020019080838360005b83811015614f72578082015181840152602081019050614f57565b50505050905090810190601f168015614f9f5780820380516001836020036101000a031916815260200191505b509550505050505060405180910390a15050505050565b60215481565b600060036000838152602001908152602001600020905060018160050160006101000a81548160ff021916908315150217905550338160060160006101000a81548173ffffffffffffffffffffffffffffffffffffffff021916908373ffffffffffffffffffffffffffffffffffffffff1602179055507f4d76f888e2d45ed5342180cd02cd937a6df60e70f9267b6fe3d23fef91073dbe81600001546040518082815260200191505060405180910390a15050565b60118181548110151561508157fe5b906000526020600020016000915090505481565b6008602052806000526040600020600091509050806000015490806001018054600181600116156101000203166002900480601f0160208091040260200160405190810160405280929190818152602001828054600181600116156101000203166002900480156151475780601f1061511c57610100808354040283529160200191615147565b820191906000526020600020905b81548152906001019060200180831161512a57829003601f168201915b5050505050908060020154908060030154908060040160009054906101000a900473ffffffffffffffffffffffffffffffffffffffff16908060050160009054906101000a900473ffffffffffffffffffffffffffffffffffffffff16908060060160009054906101000a900473ffffffffffffffffffffffffffffffffffffffff16908060070160009054906101000a900473ffffffffffffffffffffffffffffffffffffffff16908060070160149054906101000a900460ff16908060070160159054906101000a900460ff16908060070160169054906101000a900460ff1690508b565b6000600560008381526020019081526020016000209050338160060160006101000a81548173ffffffffffffffffffffffffffffffffffffffff021916908373ffffffffffffffffffffffffffffffffffffffff16021790555060018160030160006101000a81548160ff0219169083151502179055507f4884f639bffe6ebc2bd20dcf3acba03bbb77a1c29ce119ee0468add1e526bf2e81600001546040518082815260200191505060405180910390a15050565b6005602052806000526040600020600091509050806000015490806001018054600181600116156101000203166002900480601f0160208091040260200160405190810160405280929190818152602001828054600181600116156101000203166002900480156153965780601f1061536b57610100808354040283529160200191615396565b820191906000526020600020905b81548152906001019060200180831161537957829003601f168201915b5050505050908060020154908060030160009054906101000a900460ff16908060030160019054906101000a900460ff16908060040154908060050160009054906101000a900473ffffffffffffffffffffffffffffffffffffffff16908060060160009054906101000a900473ffffffffffffffffffffffffffffffffffffffff16905088565b601e5481565b6001602052806000526040600020600091509050806000015490806001018054600181600116156101000203166002900480601f0160208091040260200160405190810160405280929190818152602001828054600181600116156101000203166002900480156154d65780601f106154ab576101008083540402835291602001916154d6565b820191906000526020600020905b8154815290600101906020018083116154b957829003601f168201915b505050505090806002018054600181600116156101000203166002900480601f0160208091040260200160405190810160405280929190818152602001828054600181600116156101000203166002900480156155745780601f1061554957610100808354040283529160200191615574565b820191906000526020600020905b81548152906001019060200180831161555757829003601f168201915b5050505050908060030154908060040160009054906101000a900473ffffffffffffffffffffffffffffffffffffffff16908060040160149054906101000a900460ff16905086565b60006007600083815260200190815260200160002090506000600860008481526020019081526020016000209050338260050160006101000a81548173ffffffffffffffffffffffffffffffffffffffff021916908373ffffffffffffffffffffffffffffffffffffffff16021790555060018260070160146101000a81548160ff021916908315150217905550338160050160006101000a81548173ffffffffffffffffffffffffffffffffffffffff021916908373ffffffffffffffffffffffffffffffffffffffff16021790555060018160070160146101000a81548160ff0219169083151502179055507fadae2f6d15893072faac01469d9c4ab03345012f63f977eabb99ca98c67fc3de82600001546040518082815260200191505060405180910390a1505050565b60185481565b600060066000838152602001908152602001600020905060018160030160006101000a81548160ff021916908315150217905550338160060160006101000a81548173ffffffffffffffffffffffffffffffffffffffff021916908373ffffffffffffffffffffffffffffffffffffffff1602179055507fa214b590499078bd7c3ac19858552eb9d47ef202d017c8c1af3a1f2559710b2b81600001546040518082815260200191505060405180910390a15050565b6000600960003373ffffffffffffffffffffffffffffffffffffffff1673ffffffffffffffffffffffffffffffffffffffff1681526020019081526020016000209050600960003373ffffffffffffffffffffffffffffffffffffffff1673ffffffffffffffffffffffffffffffffffffffff16815260200190815260200160002060040160149054906101000a900460ff1615151561584657600080fd5b338160040160006101000a81548173ffffffffffffffffffffffffffffffffffffffff021916908373ffffffffffffffffffffffffffffffffffffffff160217905550848160000181905550838160010190805190602001906158aa9291906160ac565b50828160020181905550818160030190805190602001906158cc9291906160ac565b5060018160040160146101000a81548160ff02191690831515021790555060143390806001815401808255809150509060018203906000526020600020016000909192909190916101000a81548173ffffffffffffffffffffffffffffffffffffffff021916908373ffffffffffffffffffffffffffffffffffffffff16021790555050601f600081548092919060010191905055507f85ce94a09259d11fea28ef2cdae95f1a94d42451c0741fdd7e267f746c524b6a8160000154858585604051808581526020018060200184815260200180602001838103835286818151815260200191508051906020019080838360005b838110156159db5780820151818401526020810190506159c0565b50505050905090810190601f168015615a085780820380516001836020036101000a031916815260200191505b50838103825284818151815260200191508051906020019080838360005b83811015615a41578082015181840152602081019050615a26565b50505050905090810190601f168015615a6e5780820380516001836020036101000a031916815260200191505b50965050505050505060405180910390a15050505050565b6000600560008681526020019081526020016000209050338160050160006101000a81548173ffffffffffffffffffffffffffffffffffffffff021916908373ffffffffffffffffffffffffffffffffffffffff16021790555084816000018190555083816001019080519060200190615b019291906160ac565b50828160040181905550818160020181905550600e859080600181540180825580915050906001820390600052602060002001600090919290919091505550601a600081548092919060010191905055507fa55da230e9462e2c52b347397a2cb6953432cf8bed20f679a034e459ef95e34b81600001548585856040518085815260200180602001848152602001838152602001828103825285818151815260200191508051906020019080838360005b83811015615bcd578082015181840152602081019050615bb2565b50505050905090810190601f168015615bfa5780820380516001836020036101000a031916815260200191505b509550505050505060405180910390a15050505050565b600a602052806000526040600020600091509050806000015490806001018054600181600116156101000203166002900480601f016020809104026020016040519081016040528092919081815260200182805460018160011615610100020316600290048015615cc35780601f10615c9857610100808354040283529160200191615cc3565b820191906000526020600020905b815481529060010190602001808311615ca657829003601f168201915b505050505090806002015490806003018054600181600116156101000203166002900480601f016020809104026020016040519081016040528092919081815260200182805460018160011615610100020316600290048015615d675780601f10615d3c57610100808354040283529160200191615d67565b820191906000526020600020905b815481529060010190602001808311615d4a57829003601f168201915b5050505050908060040160009054906101000a900473ffffffffffffffffffffffffffffffffffffffff16908060040160149054906101000a900460ff16905086565b601281815481101515615db957fe5b906000526020600020016000915090505481565b6000600a60003373ffffffffffffffffffffffffffffffffffffffff1673ffffffffffffffffffffffffffffffffffffffff1681526020019081526020016000209050600a60003373ffffffffffffffffffffffffffffffffffffffff1673ffffffffffffffffffffffffffffffffffffffff16815260200190815260200160002060040160149054906101000a900460ff16151515615e6c57600080fd5b338160040160006101000a81548173ffffffffffffffffffffffffffffffffffffffff021916908373ffffffffffffffffffffffffffffffffffffffff16021790555084816000018190555083816001019080519060200190615ed09291906160ac565b5082816002018190555081816003019080519060200190615ef29291906160ac565b5060018160040160146101000a81548160ff02191690831515021790555060153390806001815401808255809150509060018203906000526020600020016000909192909190916101000a81548173ffffffffffffffffffffffffffffffffffffffff021916908373ffffffffffffffffffffffffffffffffffffffff160217905550506020600081548092919060010191905055507fb0e45e8125bcae396aa2f4df5baf1c1fe6cc08db71c22a9fc54e8e2529b5934a8160000154858585604051808581526020018060200184815260200180602001838103835286818151815260200191508051906020019080838360005b83811015616001578082015181840152602081019050615fe6565b50505050905090810190601f16801561602e5780820380516001836020036101000a031916815260200191505b50838103825284818151815260200191508051906020019080838360005b8381101561606757808201518184015260208101905061604c565b50505050905090810190601f1680156160945780820380516001836020036101000a031916815260200191505b50965050505050505060405180910390a15050505050565b828054600181600116156101000203166002900490600052602060002090601f016020900481019282601f106160ed57805160ff191683800117855561611b565b8280016001018555821561611b579182015b8281111561611a5782518255916020019190600101906160ff565b5b509050616128919061612c565b5090565b61614e91905b8082111561614a576000816000905550600101616132565b5090565b9056fea165627a7a723058209d3a9e1ddbfdb72dcbf88dfa0dc4659eb2e4d4f67ee9b7b69a0a2ada173362c60029",
  "source": "pragma solidity >=0.4.24;\n\ncontract SupplyChain{\n\n    //model a landlord\n    struct Landlord{\n        uint landlordID;\n        string landlordName;\n        uint landlordContact;\n        string landlordAddress;\n        address laddr;\n        bool isValue;\n    }\n\n    //model a seed dealer\n    struct SeedDealer{\n        uint dealerID;\n        string dealerName;\n        string dealerAddress;\n        uint dealerContact;\n        address saddr;\n        bool isValue;\n    }\n\n    //model a seed\n    struct Seed{\n        uint seedID;\n        string seedName;\n        uint seedQuantity;\n        bool isBought;\n        bool isSale;\n        uint seedcost;\n        address saddr;\n        address faddr;\n    }\n\n\n    //model a fertilizer\n    struct Fertilizer{\n        uint fertilizerID;\n        string fertilizerName;\n        uint fertilizerQuantity;\n        bool isBought;\n        bool isSale;\n        uint fertilizerCost;\n        address saddr;\n        address faddr;\n    }\n    //model a land\n    struct Landsale{\n        uint landID;\n        string landAddress;\n        string soilType;\n        //uint temperature;\n        //uint humidity;\n        //string cropType;\n        uint area;\n        uint cost;\n        bool isBought;\n        bool isSale;\n        address laddr;\n        address faddr;\n    }\n\n    //model a landlease\n    struct Landlease{\n        uint landID;\n        string landAddress;\n        string soilType;\n        //uint temperature;\n        //uint humidity;\n        //string cropType;\n        uint area;\n        uint cost;\n        uint duration;\n        bool isBought;\n        bool isLease;\n        address laddr;\n        address faddr;\n\n    }\n\n    //model a farmer\n   struct Farmer {\n       uint farmerID;\n       string farmerName;\n       uint farmerContact;\n      string farmerAddress;\n       address faddr;\n       bool isValue;\n   }\n\n   //model crop\n    struct Crop{\n       uint cropID;\n       string cropName;\n       uint quantity;\n       uint cropPrice;\n        address faddr;\n        address daddr;\n        address raddr;\n        address caddr;\n        bool isBought; \n        bool isBoughtByRetailer;     \n        bool isBoughtByConsumer;    \n } \n\n   //model a distributor\n   struct Distributor{\n       uint distID;\n       string distName;\n       uint distContact;\n       string distAddress;\n       address daddr;\n       bool isValue;\n   }\n   \n   //model a retailer\n   struct Retailer{\n       uint retailID;\n       string retailName;\n       uint retailContact;\n       string  retailAddress;\n       address raddr;\n       bool isValue;\n   }\n   \n   //model a consumer\n   struct Consumer{\n       uint consumerID;\n       string consumerName;\n       uint consumerContact;\n       string consumerAddress;\n       address caddr;\n       bool isValue;\n   }\n\n   mapping(address => Landlord) public mlandlord;\n   mapping(address => SeedDealer) public mdealer;\n   mapping(uint => Landlease) public mlland;\n   mapping(uint => Landsale) public msland;\n   mapping(address => Farmer) public mfarmer;\n   mapping(uint => Seed) public mseed;\n   mapping(uint => Fertilizer) public mfertilizer;\n   mapping(uint => Crop) public mcrop;\n   mapping(uint => Crop) public conscrop;\n   mapping(address => Distributor) public mdist;\n   mapping(address => Retailer) public mretail;\n   mapping(address => Consumer) public mconsumer;\n   \n\n   //count of crop\n   uint[] public leaseArr;\n   uint[] public saleArr;\n   uint[] public seedArr;\n   uint[] public fertilizerArr;\n   uint[] public cropArr;\n   uint[] public distCropArr;\n   uint[] public consumerCropArr;\n   address[] public farmerAdd;\n   address[] public distAdd;\n   address[] public retailAdd;\n   address[] public consAdd;\n   uint public landlordCount;\n   uint public dealerCount;\n   uint public leaseCount;\n   uint public seedCount;\n   uint public fertilizerCount;\n   uint public saleCount;\n   uint public farmerCount;\n   uint public cropCount;\n   uint public distCount;\n   uint public retailCount;\n   uint public consumerCount;\n   \n\n\n   //event for landlord\n   event landlordCreated(\n       uint landlordID,\n       string landlordName,\n       uint landlordContact,\n       string landlordAddress\n   );\n   \n   //event for land sale\n   event landForSale (\n       uint landID,\n       string landAddress,\n       string soilType,\n       //uint temperature,\n       //uint humidity,\n       //string cropType,\n       uint area,\n       uint cost\n   );\n\n   //event for lease\n   event landForLease(\n       uint landID,\n       string landAddress,\n       string soilType,\n       //uint temperature,\n       //uint humidity,\n       //string cropType,\n       uint area,\n       uint cost,\n       uint duration\n   );\n\n \n   //event for seedDealer\n   event seedDealerCreated(\n        uint dealerID,\n        string dealerName,\n        uint dealerContact,\n        string dealerAddress\n   );\n\n   //event for seedCreated\n   event seedCreated(\n        uint seedID,\n        string seedName,\n        uint seedcost,\n        uint seedQuantity\n   );\n\n   //event for fertilizerCreated\n   event fertilizerCreated(\n        uint fertilizerID,\n        string fertilizerName,\n        uint fertilizerCost,\n        uint fertilizerQuantity\n   );\n\n   // event for farmer\n   event farmerCreated (\n       uint farmerID,\n       string farmerName,\n       uint farmerContact,\n       string farmerAddress\n   );\n\n   // event for crop\n   event cropCreated (\n       uint cropID,\n       string cropName,\n       uint quantity,\n       uint cropPrice,\n       address faddr\n   );\n\n   //event for farmer land purchase \n   event landPurchaseLease (\n       uint landID\n   );\n    event landPurchaseSale (\n       uint landID\n   );\n   //evbent for seed purchase\n   event seedPurchase(\n       uint seedID\n   );\n   //event for fertilizer purchase\n   event fertilizerPurchase(\n       uint fertilizerID\n   );\n\n   //event for distributor \n   event distCreated (\n       uint distID,\n       string distName,\n       uint distContact,\n       string distAddress\n   );\n\n   //event for distributor crop\n   event distCrop (\n       uint cropID\n   );\n   \n   //event for retailer\n   event retailCreated (\n       uint retailID,\n       string retailName,\n       uint retailContact,\n       string retailAddress\n   );\n\n   //event for retail adding crop\n   event retailCrop (\n       uint cropID\n   );\n\n   //event for consumer\n   event consumerCreated(\n       uint consumerID,\n       string consumerName,\n       uint consumerContact,\n       string consumerAddress\n   );\n\n  // event for consumer adding crop\n  event consumerCrop(\n      uint cropID\n  );\n\n    //add new Landlord\n    function newLandlord(\n        uint _landlordID,\n        string memory _landlordName,\n        uint _landlordContact,\n        string memory _landlordAddress\n    ) public {\n        Landlord storage _newlandlord = mlandlord[msg.sender];\n\n        // Only allows new records to be created\n         require(!mlandlord[msg.sender].isValue);\n        _newlandlord.laddr = msg.sender;\n        _newlandlord.landlordID = _landlordID;\n        _newlandlord.landlordName = _landlordName;\n        _newlandlord.landlordAddress = _landlordAddress;\n        _newlandlord.landlordContact = _landlordContact;\n        _newlandlord.isValue = true;\n        landlordCount++;\n        emit landlordCreated(_newlandlord.landlordID, _landlordName, _landlordContact,_landlordAddress);\n    }\n\n    //landlord adds new land for sale\n    function addLandSale (\n        uint _landID,\n        string memory _landAddress,\n        string memory _soilType,\n        //uint _temperature,\n        //uint _humidity,\n        //string memory _cropType,\n        uint _area,\n        uint _cost \n    ) public {\n        Landsale storage _newland = msland[_landID];\n        _newland.laddr = msg.sender;\n        _newland.landID = _landID;\n        _newland.landAddress = _landAddress;\n        _newland.soilType = _soilType;\n        //_newland.temperature=_temperature;\n        //_newland.humidity=_humidity;\n        //_newland.cropType=_cropType;\n        _newland.area=_area;\n        _newland.cost=_cost;\n        saleCount++;\n        saleArr.push(_landID);\n        emit landForSale(_newland.landID, _landAddress, _soilType,_area,_cost);\n    }\n\n    // //lease function\n     function addLandLease (\n        uint _landID,\n      //  string memory _landName,\n        string memory _landAddress,\n        string memory _soilType,\n        //uint _temperature,\n        //uint _humidity,\n        //string memory _cropType,\n        uint _area,\n        uint _cost,\n        uint _duration\n    ) public {\n        Landlease storage _newland = mlland[_landID];\n        _newland.laddr = msg.sender;\n        _newland.landID = _landID;\n       // _newland.landName = _landName;\n        _newland.landAddress = _landAddress;\n        _newland.soilType = _soilType;\n        //_newland.temperature=_temperature;\n        //_newland.humidity=_humidity;\n        //_newland.cropType=_cropType;\n        _newland.area=_area;\n        _newland.cost=_cost;\n        _newland.duration=_duration;\n        leaseCount++;\n        leaseArr.push(_landID);\n        emit landForLease(_newland.landID, _landAddress, _soilType,_area,_cost,_duration);\n    }\n    \n    //add new seedDealer\n    function newSeedDealer (\n        uint _dealerID,\n        string memory _dealerName,\n        uint _dealerContact,\n        string memory _dealerAddress\n    ) public {\n        SeedDealer storage _newdealer = mdealer[msg.sender];\n\n        // Only allows new records to be created\n        require(!mdealer[msg.sender].isValue);\n        _newdealer.saddr = msg.sender;\n        _newdealer.dealerID = _dealerID;\n        _newdealer.dealerName = _dealerName;\n        _newdealer.dealerAddress = _dealerAddress;\n        _newdealer.dealerContact = _dealerContact;\n        _newdealer.isValue = true;\n        dealerCount++;\n        emit seedDealerCreated(_newdealer.dealerID, _dealerName, _dealerContact,_dealerAddress);\n    }\n\n    //add new seed\n    function newSeed (\n        uint _seedID,\n        string memory _seedName,\n        uint _seedcost,\n        uint _seedQuantity\n    ) public {\n        Seed storage _newseed = mseed[_seedID];\n\n        // Only allows new records to be created\n        //require(!mseed[msg.sender].isValue);\n        _newseed.saddr = msg.sender;\n        _newseed.seedID = _seedID;\n        _newseed.seedName = _seedName;\n        _newseed.seedcost = _seedcost;\n        _newseed.seedQuantity = _seedQuantity;\n        //_newseed.isValue = true;\n        seedArr.push(_seedID);\n        seedCount++;\n        emit seedCreated(_newseed.seedID, _seedName, _seedcost, _seedQuantity);\n    }\n\n    //add new fertilizer\n    function newFertilizer (\n        uint _fertilizerID,\n        string memory _fertilizerName,\n        uint _fertilizerCost,\n        uint _fertilizerQuantity\n    ) public {\n        Fertilizer storage _newfertilizer = mfertilizer[_fertilizerID];\n\n        // Only allows new records to be created\n        //require(!mfertilizer[msg.sender].isValue);\n        _newfertilizer.saddr = msg.sender;\n        _newfertilizer.fertilizerID = _fertilizerID;\n        _newfertilizer.fertilizerName = _fertilizerName;\n        _newfertilizer.fertilizerCost = _fertilizerCost;\n        _newfertilizer.fertilizerQuantity = _fertilizerQuantity;\n       // _newfertilizer.isValue = true;\n        fertilizerArr.push(_fertilizerID);\n        fertilizerCount++;\n        emit fertilizerCreated(_newfertilizer.fertilizerID, _fertilizerName, _fertilizerCost, _fertilizerQuantity);\n    }\n\n    //add new farmer\n    function newFarmer (\n        uint _farmerID,\n        string memory _farmerName,\n        uint _farmerContact,\n        string memory _farmerAddress\n    ) public {\n        Farmer storage _newfarmer = mfarmer[msg.sender];\n\n        // Only allows new records to be created\n        require(!mfarmer[msg.sender].isValue);\n        _newfarmer.faddr = msg.sender;\n        _newfarmer.farmerID = _farmerID;\n        _newfarmer.farmerName = _farmerName;\n        _newfarmer.farmerAddress = _farmerAddress;\n        _newfarmer.farmerContact = _farmerContact;\n        _newfarmer.isValue = true;\n        farmerAdd.push(msg.sender);\n        farmerCount++;\n        emit farmerCreated(_newfarmer.farmerID, _farmerName, _farmerContact,_farmerAddress);\n    }\n\n    //add crop by old farmer\n     function addCrop(\n        uint _cropID,\n        string memory _cropName,\n        uint _quantity,\n        uint _cropPrice\n    ) public {\n        Crop storage _newcrop = mcrop[_cropID];\n        Crop storage _newconscrop = conscrop[_cropID];\n        \n        //Farmer storage _newfarmer = mfarmer[_farmerID];\n       \n        _newcrop.faddr = msg.sender;\n        _newcrop.cropID = _cropID;\n        _newcrop.cropName = _cropName;\n        _newcrop.quantity = _quantity;\n        _newcrop.cropPrice = _cropPrice;\n\n\n        _newconscrop.faddr = msg.sender;\n        _newconscrop.cropID = _cropID;\n        _newconscrop.cropName = _cropName;\n        _newconscrop.quantity = 0;\n        _newconscrop.cropPrice = _cropPrice;\n        cropCount++;\n        cropArr.push(_cropID);\n        emit cropCreated(_newcrop.cropID, _cropName, _quantity, _cropPrice, _newcrop.faddr);\n    }\n\n    //farmer purchase land lease\n     function purchaseLandLease (\n        uint _landID\n     ) public { \n        Landlease storage _newland = mlland[_landID];\n        _newland.isBought = true;\n        _newland.faddr=msg.sender;\n        emit landPurchaseLease(_newland.landID);\n    }\n  \n    //farmer purchase sale\n     function purchaseLandSale (\n        uint _landID\n     ) public { \n        Landsale storage _newland = msland[_landID];\n        _newland.isBought = true;\n        _newland.faddr=msg.sender;\n        emit landPurchaseSale(_newland.landID);\n    }\n\n    //farmer purchase seed\n    function purchaseSeed (\n        uint _seedID\n    ) public {\n        Seed storage _newseed = mseed[_seedID];\n        _newseed.faddr=msg.sender;\n        _newseed.isBought=true;\n        emit seedPurchase(_newseed.seedID);\n    }\n\n    //farmer purchase fertilizer\n    function purchaseFertilizer (\n        uint _fertilizerID\n    ) public {\n        Fertilizer storage _newfertilizer = mfertilizer[_fertilizerID];\n        _newfertilizer.isBought=true;\n        _newfertilizer.faddr=msg.sender;\n        emit fertilizerPurchase(_newfertilizer.fertilizerID);\n    }\n\n    //add new distributor\n    function addDist(\n        uint _distID,\n        string memory _distName,\n        uint _distContact,\n        string memory _distAddress\n    ) public {\n        Distributor storage _newdist = mdist[msg.sender];\n\n        require(!mdist[msg.sender].isValue);\n        _newdist.daddr = msg.sender;\n        _newdist.distID = _distID;\n        _newdist.distName = _distName;\n        _newdist.distContact = _distContact;\n        _newdist.distAddress = _distAddress;\n        _newdist.isValue = true;\n        distAdd.push(msg.sender);\n        distCount++;\n        emit distCreated(_newdist.distID, _distName, _distContact, _distAddress);\n    }\n\n    //crop purchased by distributor\n    function distAddCrop(\n        uint _cropID\n     ) public { \n        Crop storage _newcrop = mcrop[_cropID];\n        Crop storage _newconscrop = conscrop[_cropID];\n        _newcrop.daddr = msg.sender;\n        _newcrop.isBought = true;\n        _newconscrop.daddr = msg.sender;\n        _newconscrop.isBought = true;\n        emit distCrop(_newcrop.cropID);\n    }\n\n    \n    \n    //add new retailer\n    function addRetail(\n        uint _retailID,\n        string memory _retailName,\n        uint _retailContact,\n        string memory _retailAddress\n    ) public {\n        Retailer storage _newretail = mretail[msg.sender];\n        require(!mretail[msg.sender].isValue);\n        _newretail.raddr = msg.sender;\n        _newretail.retailID = _retailID;\n        _newretail.retailName = _retailName;\n        _newretail.retailContact = _retailContact;\n        _newretail.retailAddress = _retailAddress;\n        _newretail.isValue = true;\n        retailAdd.push(msg.sender);\n        retailCount++;\n        emit retailCreated(_newretail.retailID, _retailName, _retailContact, _retailAddress);\n    }\n\n    //purchase crop by retailer\n    function retailAddCrop(\n        uint _cropID\n     ) public { \n        Crop storage _newcrop = mcrop[_cropID];\n        Crop storage _newconscrop = conscrop[_cropID];\n        \n        _newcrop.raddr = msg.sender;\n        _newcrop.isBoughtByRetailer = true;\n        \n        _newconscrop.raddr = msg.sender;\n        _newconscrop.isBoughtByRetailer = true;\n        \n        emit retailCrop(_newcrop.cropID);\n    }\n\n     //add new consumer\n    function addconsumer(\n        uint _consumerID,\n        string memory _consumerName,\n        uint _consumerContact,\n        string memory _consumerAddress\n    ) public {\n        Consumer storage _newconsumer = mconsumer[msg.sender];\n        require(!mconsumer[msg.sender].isValue);\n        _newconsumer.caddr = msg.sender;\n        _newconsumer.consumerID = _consumerID;\n        _newconsumer.consumerName = _consumerName;\n        _newconsumer.consumerContact = _consumerContact;\n        _newconsumer.consumerAddress = _consumerAddress;\n        _newconsumer.isValue = true;\n        consAdd.push(msg.sender);\n        consumerCount++;\n        emit consumerCreated(_newconsumer.consumerID, _consumerName, _consumerContact, _consumerAddress);\n    }\n\n    //purchase crop by consumer\n    function consumerAddCrop(\n        uint _cropID,\n        uint quantity\n     ) public { \n        Crop storage _newcrop = mcrop[_cropID];\n        Crop storage _newconscrop = conscrop[_cropID];\n        _newcrop.caddr = msg.sender;\n        _newcrop.isBoughtByConsumer = true;\n        _newcrop.quantity = _newcrop.quantity - quantity;\n\n        _newconscrop.caddr = msg.sender;\n        _newconscrop.isBoughtByConsumer = true;\n        _newconscrop.quantity = _newconscrop.quantity + quantity;\n        emit consumerCrop(_newcrop.cropID);\n    }\n\n}",
  "sourcePath": "C:/Users/Tamilselvi/OneDrive/Desktop/supplychain/contracts/SupplyChain.sol",
  "compiler": {
    "name": "solc",
    "version": "0.5.0+commit.1d4f565a.Emscripten.clang"
  },
  "schemaVersion": "3.0.2",
  "updatedAt": "2021-03-22T16:09:20.212Z",
  "devdoc": {
    "methods": {}
  },
  "userdoc": {
    "methods": {}
  }
}