{
  "contractName": "SupplyChain",
  "abi": [
    {
      "anonymous": false,
      "inputs": [
        {
          "indexed": false,
          "internalType": "uint256",
          "name": "consumerID",
          "type": "uint256"
        },
        {
          "indexed": false,
          "internalType": "string",
          "name": "consumerName",
          "type": "string"
        },
        {
          "indexed": false,
          "internalType": "uint256",
          "name": "consumerContact",
          "type": "uint256"
        },
        {
          "indexed": false,
          "internalType": "string",
          "name": "consumerAddress",
          "type": "string"
        }
      ],
      "name": "consumerCreated",
      "type": "event"
    },
    {
      "anonymous": false,
      "inputs": [
        {
          "indexed": false,
          "internalType": "uint256",
          "name": "cropID",
          "type": "uint256"
        }
      ],
      "name": "consumerCrop",
      "type": "event"
    },
    {
      "anonymous": false,
      "inputs": [
        {
          "indexed": false,
          "internalType": "uint256",
          "name": "cropID",
          "type": "uint256"
        },
        {
          "indexed": false,
          "internalType": "string",
          "name": "cropName",
          "type": "string"
        },
        {
          "indexed": false,
          "internalType": "uint256",
          "name": "quantity",
          "type": "uint256"
        },
        {
          "indexed": false,
          "internalType": "uint256",
          "name": "cropPrice",
          "type": "uint256"
        },
        {
          "indexed": false,
          "internalType": "address",
          "name": "faddr",
          "type": "address"
        }
      ],
      "name": "cropCreated",
      "type": "event"
    },
    {
      "anonymous": false,
      "inputs": [
        {
          "indexed": false,
          "internalType": "uint256",
          "name": "distID",
          "type": "uint256"
        },
        {
          "indexed": false,
          "internalType": "string",
          "name": "distName",
          "type": "string"
        },
        {
          "indexed": false,
          "internalType": "uint256",
          "name": "distContact",
          "type": "uint256"
        },
        {
          "indexed": false,
          "internalType": "string",
          "name": "distAddress",
          "type": "string"
        }
      ],
      "name": "distCreated",
      "type": "event"
    },
    {
      "anonymous": false,
      "inputs": [
        {
          "indexed": false,
          "internalType": "uint256",
          "name": "cropID",
          "type": "uint256"
        }
      ],
      "name": "distCrop",
      "type": "event"
    },
    {
      "anonymous": false,
      "inputs": [
        {
          "indexed": false,
          "internalType": "uint256",
          "name": "farmerID",
          "type": "uint256"
        },
        {
          "indexed": false,
          "internalType": "string",
          "name": "farmerName",
          "type": "string"
        },
        {
          "indexed": false,
          "internalType": "uint256",
          "name": "farmerContact",
          "type": "uint256"
        },
        {
          "indexed": false,
          "internalType": "string",
          "name": "farmerAddress",
          "type": "string"
        }
      ],
      "name": "farmerCreated",
      "type": "event"
    },
    {
      "anonymous": false,
      "inputs": [
        {
          "indexed": false,
          "internalType": "uint256",
          "name": "fertilizerID",
          "type": "uint256"
        },
        {
          "indexed": false,
          "internalType": "string",
          "name": "fertilizerName",
          "type": "string"
        },
        {
          "indexed": false,
          "internalType": "uint256",
          "name": "fertilizerCost",
          "type": "uint256"
        },
        {
          "indexed": false,
          "internalType": "uint256",
          "name": "fertilizerQuantity",
          "type": "uint256"
        }
      ],
      "name": "fertilizerCreated",
      "type": "event"
    },
    {
      "anonymous": false,
      "inputs": [
        {
          "indexed": false,
          "internalType": "uint256",
          "name": "fertilizerID",
          "type": "uint256"
        }
      ],
      "name": "fertilizerPurchase",
      "type": "event"
    },
    {
      "anonymous": false,
      "inputs": [
        {
          "indexed": false,
          "internalType": "uint256",
          "name": "landID",
          "type": "uint256"
        },
        {
          "indexed": false,
          "internalType": "string",
          "name": "landAddress",
          "type": "string"
        },
        {
          "indexed": false,
          "internalType": "string",
          "name": "soilType",
          "type": "string"
        },
        {
          "indexed": false,
          "internalType": "uint256",
          "name": "area",
          "type": "uint256"
        },
        {
          "indexed": false,
          "internalType": "uint256",
          "name": "cost",
          "type": "uint256"
        },
        {
          "indexed": false,
          "internalType": "uint256",
          "name": "duration",
          "type": "uint256"
        }
      ],
      "name": "landForLease",
      "type": "event"
    },
    {
      "anonymous": false,
      "inputs": [
        {
          "indexed": false,
          "internalType": "uint256",
          "name": "landID",
          "type": "uint256"
        },
        {
          "indexed": false,
          "internalType": "string",
          "name": "landAddress",
          "type": "string"
        },
        {
          "indexed": false,
          "internalType": "string",
          "name": "soilType",
          "type": "string"
        },
        {
          "indexed": false,
          "internalType": "uint256",
          "name": "area",
          "type": "uint256"
        },
        {
          "indexed": false,
          "internalType": "uint256",
          "name": "cost",
          "type": "uint256"
        }
      ],
      "name": "landForSale",
      "type": "event"
    },
    {
      "anonymous": false,
      "inputs": [
        {
          "indexed": false,
          "internalType": "uint256",
          "name": "landID",
          "type": "uint256"
        }
      ],
      "name": "landPurchaseLease",
      "type": "event"
    },
    {
      "anonymous": false,
      "inputs": [
        {
          "indexed": false,
          "internalType": "uint256",
          "name": "landID",
          "type": "uint256"
        }
      ],
      "name": "landPurchaseSale",
      "type": "event"
    },
    {
      "anonymous": false,
      "inputs": [
        {
          "indexed": false,
          "internalType": "uint256",
          "name": "landlordID",
          "type": "uint256"
        },
        {
          "indexed": false,
          "internalType": "string",
          "name": "landlordName",
          "type": "string"
        },
        {
          "indexed": false,
          "internalType": "uint256",
          "name": "landlordContact",
          "type": "uint256"
        },
        {
          "indexed": false,
          "internalType": "string",
          "name": "landlordAddress",
          "type": "string"
        }
      ],
      "name": "landlordCreated",
      "type": "event"
    },
    {
      "anonymous": false,
      "inputs": [
        {
          "indexed": false,
          "internalType": "uint256",
          "name": "retailID",
          "type": "uint256"
        },
        {
          "indexed": false,
          "internalType": "string",
          "name": "retailName",
          "type": "string"
        },
        {
          "indexed": false,
          "internalType": "uint256",
          "name": "retailContact",
          "type": "uint256"
        },
        {
          "indexed": false,
          "internalType": "string",
          "name": "retailAddress",
          "type": "string"
        }
      ],
      "name": "retailCreated",
      "type": "event"
    },
    {
      "anonymous": false,
      "inputs": [
        {
          "indexed": false,
          "internalType": "uint256",
          "name": "cropID",
          "type": "uint256"
        }
      ],
      "name": "retailCrop",
      "type": "event"
    },
    {
      "anonymous": false,
      "inputs": [
        {
          "indexed": false,
          "internalType": "uint256",
          "name": "seedID",
          "type": "uint256"
        },
        {
          "indexed": false,
          "internalType": "string",
          "name": "seedName",
          "type": "string"
        },
        {
          "indexed": false,
          "internalType": "uint256",
          "name": "seedcost",
          "type": "uint256"
        },
        {
          "indexed": false,
          "internalType": "uint256",
          "name": "seedQuantity",
          "type": "uint256"
        }
      ],
      "name": "seedCreated",
      "type": "event"
    },
    {
      "anonymous": false,
      "inputs": [
        {
          "indexed": false,
          "internalType": "uint256",
          "name": "dealerID",
          "type": "uint256"
        },
        {
          "indexed": false,
          "internalType": "string",
          "name": "dealerName",
          "type": "string"
        },
        {
          "indexed": false,
          "internalType": "uint256",
          "name": "dealerContact",
          "type": "uint256"
        },
        {
          "indexed": false,
          "internalType": "string",
          "name": "dealerAddress",
          "type": "string"
        }
      ],
      "name": "seedDealerCreated",
      "type": "event"
    },
    {
      "anonymous": false,
      "inputs": [
        {
          "indexed": false,
          "internalType": "uint256",
          "name": "seedID",
          "type": "uint256"
        }
      ],
      "name": "seedPurchase",
      "type": "event"
    },
    {
      "constant": true,
      "inputs": [
        {
          "internalType": "uint256",
          "name": "",
          "type": "uint256"
        }
      ],
      "name": "consAdd",
      "outputs": [
        {
          "internalType": "address",
          "name": "",
          "type": "address"
        }
      ],
      "payable": false,
      "stateMutability": "view",
      "type": "function"
    },
    {
      "constant": true,
      "inputs": [
        {
          "internalType": "uint256",
          "name": "",
          "type": "uint256"
        }
      ],
      "name": "conscrop",
      "outputs": [
        {
          "internalType": "uint256",
          "name": "cropID",
          "type": "uint256"
        },
        {
          "internalType": "string",
          "name": "cropName",
          "type": "string"
        },
        {
          "internalType": "uint256",
          "name": "quantity",
          "type": "uint256"
        },
        {
          "internalType": "uint256",
          "name": "cropPrice",
          "type": "uint256"
        },
        {
          "internalType": "address",
          "name": "faddr",
          "type": "address"
        },
        {
          "internalType": "address",
          "name": "daddr",
          "type": "address"
        },
        {
          "internalType": "address",
          "name": "raddr",
          "type": "address"
        },
        {
          "internalType": "address",
          "name": "caddr",
          "type": "address"
        },
        {
          "internalType": "bool",
          "name": "isBought",
          "type": "bool"
        },
        {
          "internalType": "bool",
          "name": "isBoughtByRetailer",
          "type": "bool"
        },
        {
          "internalType": "bool",
          "name": "isBoughtByConsumer",
          "type": "bool"
        }
      ],
      "payable": false,
      "stateMutability": "view",
      "type": "function"
    },
    {
      "constant": true,
      "inputs": [],
      "name": "consumerCount",
      "outputs": [
        {
          "internalType": "uint256",
          "name": "",
          "type": "uint256"
        }
      ],
      "payable": false,
      "stateMutability": "view",
      "type": "function"
    },
    {
      "constant": true,
      "inputs": [
        {
          "internalType": "uint256",
          "name": "",
          "type": "uint256"
        }
      ],
      "name": "consumerCropArr",
      "outputs": [
        {
          "internalType": "uint256",
          "name": "",
          "type": "uint256"
        }
      ],
      "payable": false,
      "stateMutability": "view",
      "type": "function"
    },
    {
      "constant": true,
      "inputs": [],
      "name": "consumerCropCount",
      "outputs": [
        {
          "internalType": "uint256",
          "name": "",
          "type": "uint256"
        }
      ],
      "payable": false,
      "stateMutability": "view",
      "type": "function"
    },
    {
      "constant": true,
      "inputs": [
        {
          "internalType": "uint256",
          "name": "",
          "type": "uint256"
        }
      ],
      "name": "cropArr",
      "outputs": [
        {
          "internalType": "uint256",
          "name": "",
          "type": "uint256"
        }
      ],
      "payable": false,
      "stateMutability": "view",
      "type": "function"
    },
    {
      "constant": true,
      "inputs": [],
      "name": "cropCount",
      "outputs": [
        {
          "internalType": "uint256",
          "name": "",
          "type": "uint256"
        }
      ],
      "payable": false,
      "stateMutability": "view",
      "type": "function"
    },
    {
      "constant": true,
      "inputs": [],
      "name": "dealerCount",
      "outputs": [
        {
          "internalType": "uint256",
          "name": "",
          "type": "uint256"
        }
      ],
      "payable": false,
      "stateMutability": "view",
      "type": "function"
    },
    {
      "constant": true,
      "inputs": [
        {
          "internalType": "uint256",
          "name": "",
          "type": "uint256"
        }
      ],
      "name": "distAdd",
      "outputs": [
        {
          "internalType": "address",
          "name": "",
          "type": "address"
        }
      ],
      "payable": false,
      "stateMutability": "view",
      "type": "function"
    },
    {
      "constant": true,
      "inputs": [],
      "name": "distCount",
      "outputs": [
        {
          "internalType": "uint256",
          "name": "",
          "type": "uint256"
        }
      ],
      "payable": false,
      "stateMutability": "view",
      "type": "function"
    },
    {
      "constant": true,
      "inputs": [
        {
          "internalType": "uint256",
          "name": "",
          "type": "uint256"
        }
      ],
      "name": "distCropArr",
      "outputs": [
        {
          "internalType": "uint256",
          "name": "",
          "type": "uint256"
        }
      ],
      "payable": false,
      "stateMutability": "view",
      "type": "function"
    },
    {
      "constant": true,
      "inputs": [],
      "name": "distCropCount",
      "outputs": [
        {
          "internalType": "uint256",
          "name": "",
          "type": "uint256"
        }
      ],
      "payable": false,
      "stateMutability": "view",
      "type": "function"
    },
    {
      "constant": true,
      "inputs": [
        {
          "internalType": "uint256",
          "name": "",
          "type": "uint256"
        }
      ],
      "name": "farmerAdd",
      "outputs": [
        {
          "internalType": "address",
          "name": "",
          "type": "address"
        }
      ],
      "payable": false,
      "stateMutability": "view",
      "type": "function"
    },
    {
      "constant": true,
      "inputs": [],
      "name": "farmerCount",
      "outputs": [
        {
          "internalType": "uint256",
          "name": "",
          "type": "uint256"
        }
      ],
      "payable": false,
      "stateMutability": "view",
      "type": "function"
    },
    {
      "constant": true,
      "inputs": [
        {
          "internalType": "uint256",
          "name": "",
          "type": "uint256"
        }
      ],
      "name": "fertilizerArr",
      "outputs": [
        {
          "internalType": "uint256",
          "name": "",
          "type": "uint256"
        }
      ],
      "payable": false,
      "stateMutability": "view",
      "type": "function"
    },
    {
      "constant": true,
      "inputs": [],
      "name": "fertilizerCount",
      "outputs": [
        {
          "internalType": "uint256",
          "name": "",
          "type": "uint256"
        }
      ],
      "payable": false,
      "stateMutability": "view",
      "type": "function"
    },
    {
      "constant": true,
      "inputs": [],
      "name": "landlordCount",
      "outputs": [
        {
          "internalType": "uint256",
          "name": "",
          "type": "uint256"
        }
      ],
      "payable": false,
      "stateMutability": "view",
      "type": "function"
    },
    {
      "constant": true,
      "inputs": [
        {
          "internalType": "uint256",
          "name": "",
          "type": "uint256"
        }
      ],
      "name": "leaseArr",
      "outputs": [
        {
          "internalType": "uint256",
          "name": "",
          "type": "uint256"
        }
      ],
      "payable": false,
      "stateMutability": "view",
      "type": "function"
    },
    {
      "constant": true,
      "inputs": [],
      "name": "leaseCount",
      "outputs": [
        {
          "internalType": "uint256",
          "name": "",
          "type": "uint256"
        }
      ],
      "payable": false,
      "stateMutability": "view",
      "type": "function"
    },
    {
      "constant": true,
      "inputs": [
        {
          "internalType": "address",
          "name": "",
          "type": "address"
        }
      ],
      "name": "mconsumer",
      "outputs": [
        {
          "internalType": "uint256",
          "name": "consumerID",
          "type": "uint256"
        },
        {
          "internalType": "string",
          "name": "consumerName",
          "type": "string"
        },
        {
          "internalType": "uint256",
          "name": "consumerContact",
          "type": "uint256"
        },
        {
          "internalType": "string",
          "name": "consumerAddress",
          "type": "string"
        },
        {
          "internalType": "address",
          "name": "caddr",
          "type": "address"
        },
        {
          "internalType": "bool",
          "name": "isValue",
          "type": "bool"
        }
      ],
      "payable": false,
      "stateMutability": "view",
      "type": "function"
    },
    {
      "constant": true,
      "inputs": [
        {
          "internalType": "uint256",
          "name": "",
          "type": "uint256"
        }
      ],
      "name": "mcrop",
      "outputs": [
        {
          "internalType": "uint256",
          "name": "cropID",
          "type": "uint256"
        },
        {
          "internalType": "string",
          "name": "cropName",
          "type": "string"
        },
        {
          "internalType": "uint256",
          "name": "quantity",
          "type": "uint256"
        },
        {
          "internalType": "uint256",
          "name": "cropPrice",
          "type": "uint256"
        },
        {
          "internalType": "address",
          "name": "faddr",
          "type": "address"
        },
        {
          "internalType": "address",
          "name": "daddr",
          "type": "address"
        },
        {
          "internalType": "address",
          "name": "raddr",
          "type": "address"
        },
        {
          "internalType": "address",
          "name": "caddr",
          "type": "address"
        },
        {
          "internalType": "bool",
          "name": "isBought",
          "type": "bool"
        },
        {
          "internalType": "bool",
          "name": "isBoughtByRetailer",
          "type": "bool"
        },
        {
          "internalType": "bool",
          "name": "isBoughtByConsumer",
          "type": "bool"
        }
      ],
      "payable": false,
      "stateMutability": "view",
      "type": "function"
    },
    {
      "constant": true,
      "inputs": [
        {
          "internalType": "address",
          "name": "",
          "type": "address"
        }
      ],
      "name": "mdealer",
      "outputs": [
        {
          "internalType": "uint256",
          "name": "dealerID",
          "type": "uint256"
        },
        {
          "internalType": "string",
          "name": "dealerName",
          "type": "string"
        },
        {
          "internalType": "string",
          "name": "dealerAddress",
          "type": "string"
        },
        {
          "internalType": "uint256",
          "name": "dealerContact",
          "type": "uint256"
        },
        {
          "internalType": "address",
          "name": "saddr",
          "type": "address"
        },
        {
          "internalType": "bool",
          "name": "isValue",
          "type": "bool"
        }
      ],
      "payable": false,
      "stateMutability": "view",
      "type": "function"
    },
    {
      "constant": true,
      "inputs": [
        {
          "internalType": "address",
          "name": "",
          "type": "address"
        }
      ],
      "name": "mdist",
      "outputs": [
        {
          "internalType": "uint256",
          "name": "distID",
          "type": "uint256"
        },
        {
          "internalType": "string",
          "name": "distName",
          "type": "string"
        },
        {
          "internalType": "uint256",
          "name": "distContact",
          "type": "uint256"
        },
        {
          "internalType": "string",
          "name": "distAddress",
          "type": "string"
        },
        {
          "internalType": "address",
          "name": "daddr",
          "type": "address"
        },
        {
          "internalType": "bool",
          "name": "isValue",
          "type": "bool"
        }
      ],
      "payable": false,
      "stateMutability": "view",
      "type": "function"
    },
    {
      "constant": true,
      "inputs": [
        {
          "internalType": "address",
          "name": "",
          "type": "address"
        }
      ],
      "name": "mfarmer",
      "outputs": [
        {
          "internalType": "uint256",
          "name": "farmerID",
          "type": "uint256"
        },
        {
          "internalType": "string",
          "name": "farmerName",
          "type": "string"
        },
        {
          "internalType": "uint256",
          "name": "farmerContact",
          "type": "uint256"
        },
        {
          "internalType": "string",
          "name": "farmerAddress",
          "type": "string"
        },
        {
          "internalType": "address",
          "name": "faddr",
          "type": "address"
        },
        {
          "internalType": "bool",
          "name": "isValue",
          "type": "bool"
        }
      ],
      "payable": false,
      "stateMutability": "view",
      "type": "function"
    },
    {
      "constant": true,
      "inputs": [
        {
          "internalType": "uint256",
          "name": "",
          "type": "uint256"
        }
      ],
      "name": "mfertilizer",
      "outputs": [
        {
          "internalType": "uint256",
          "name": "fertilizerID",
          "type": "uint256"
        },
        {
          "internalType": "string",
          "name": "fertilizerName",
          "type": "string"
        },
        {
          "internalType": "uint256",
          "name": "fertilizerQuantity",
          "type": "uint256"
        },
        {
          "internalType": "bool",
          "name": "isBought",
          "type": "bool"
        },
        {
          "internalType": "bool",
          "name": "isSale",
          "type": "bool"
        },
        {
          "internalType": "uint256",
          "name": "fertilizerCost",
          "type": "uint256"
        },
        {
          "internalType": "address",
          "name": "saddr",
          "type": "address"
        },
        {
          "internalType": "address",
          "name": "faddr",
          "type": "address"
        }
      ],
      "payable": false,
      "stateMutability": "view",
      "type": "function"
    },
    {
      "constant": true,
      "inputs": [
        {
          "internalType": "address",
          "name": "",
          "type": "address"
        }
      ],
      "name": "mlandlord",
      "outputs": [
        {
          "internalType": "uint256",
          "name": "landlordID",
          "type": "uint256"
        },
        {
          "internalType": "string",
          "name": "landlordName",
          "type": "string"
        },
        {
          "internalType": "uint256",
          "name": "landlordContact",
          "type": "uint256"
        },
        {
          "internalType": "string",
          "name": "landlordAddress",
          "type": "string"
        },
        {
          "internalType": "address",
          "name": "laddr",
          "type": "address"
        },
        {
          "internalType": "bool",
          "name": "isValue",
          "type": "bool"
        }
      ],
      "payable": false,
      "stateMutability": "view",
      "type": "function"
    },
    {
      "constant": true,
      "inputs": [
        {
          "internalType": "uint256",
          "name": "",
          "type": "uint256"
        }
      ],
      "name": "mlland",
      "outputs": [
        {
          "internalType": "uint256",
          "name": "landID",
          "type": "uint256"
        },
        {
          "internalType": "string",
          "name": "landAddress",
          "type": "string"
        },
        {
          "internalType": "string",
          "name": "soilType",
          "type": "string"
        },
        {
          "internalType": "uint256",
          "name": "area",
          "type": "uint256"
        },
        {
          "internalType": "uint256",
          "name": "cost",
          "type": "uint256"
        },
        {
          "internalType": "uint256",
          "name": "duration",
          "type": "uint256"
        },
        {
          "internalType": "bool",
          "name": "isBought",
          "type": "bool"
        },
        {
          "internalType": "bool",
          "name": "isLease",
          "type": "bool"
        },
        {
          "internalType": "address",
          "name": "laddr",
          "type": "address"
        },
        {
          "internalType": "address",
          "name": "faddr",
          "type": "address"
        }
      ],
      "payable": false,
      "stateMutability": "view",
      "type": "function"
    },
    {
      "constant": true,
      "inputs": [
        {
          "internalType": "address",
          "name": "",
          "type": "address"
        }
      ],
      "name": "mretail",
      "outputs": [
        {
          "internalType": "uint256",
          "name": "retailID",
          "type": "uint256"
        },
        {
          "internalType": "string",
          "name": "retailName",
          "type": "string"
        },
        {
          "internalType": "uint256",
          "name": "retailContact",
          "type": "uint256"
        },
        {
          "internalType": "string",
          "name": "retailAddress",
          "type": "string"
        },
        {
          "internalType": "address",
          "name": "raddr",
          "type": "address"
        },
        {
          "internalType": "bool",
          "name": "isValue",
          "type": "bool"
        }
      ],
      "payable": false,
      "stateMutability": "view",
      "type": "function"
    },
    {
      "constant": true,
      "inputs": [
        {
          "internalType": "uint256",
          "name": "",
          "type": "uint256"
        }
      ],
      "name": "mseed",
      "outputs": [
        {
          "internalType": "uint256",
          "name": "seedID",
          "type": "uint256"
        },
        {
          "internalType": "string",
          "name": "seedName",
          "type": "string"
        },
        {
          "internalType": "uint256",
          "name": "seedQuantity",
          "type": "uint256"
        },
        {
          "internalType": "bool",
          "name": "isBought",
          "type": "bool"
        },
        {
          "internalType": "bool",
          "name": "isSale",
          "type": "bool"
        },
        {
          "internalType": "uint256",
          "name": "seedcost",
          "type": "uint256"
        },
        {
          "internalType": "address",
          "name": "saddr",
          "type": "address"
        },
        {
          "internalType": "address",
          "name": "faddr",
          "type": "address"
        }
      ],
      "payable": false,
      "stateMutability": "view",
      "type": "function"
    },
    {
      "constant": true,
      "inputs": [
        {
          "internalType": "uint256",
          "name": "",
          "type": "uint256"
        }
      ],
      "name": "msland",
      "outputs": [
        {
          "internalType": "uint256",
          "name": "landID",
          "type": "uint256"
        },
        {
          "internalType": "string",
          "name": "landAddress",
          "type": "string"
        },
        {
          "internalType": "string",
          "name": "soilType",
          "type": "string"
        },
        {
          "internalType": "uint256",
          "name": "area",
          "type": "uint256"
        },
        {
          "internalType": "uint256",
          "name": "cost",
          "type": "uint256"
        },
        {
          "internalType": "bool",
          "name": "isBought",
          "type": "bool"
        },
        {
          "internalType": "bool",
          "name": "isSale",
          "type": "bool"
        },
        {
          "internalType": "address",
          "name": "laddr",
          "type": "address"
        },
        {
          "internalType": "address",
          "name": "faddr",
          "type": "address"
        }
      ],
      "payable": false,
      "stateMutability": "view",
      "type": "function"
    },
    {
      "constant": true,
      "inputs": [
        {
          "internalType": "uint256",
          "name": "",
          "type": "uint256"
        }
      ],
      "name": "retailAdd",
      "outputs": [
        {
          "internalType": "address",
          "name": "",
          "type": "address"
        }
      ],
      "payable": false,
      "stateMutability": "view",
      "type": "function"
    },
    {
      "constant": true,
      "inputs": [],
      "name": "retailCount",
      "outputs": [
        {
          "internalType": "uint256",
          "name": "",
          "type": "uint256"
        }
      ],
      "payable": false,
      "stateMutability": "view",
      "type": "function"
    },
    {
      "constant": true,
      "inputs": [],
      "name": "retailCropCount",
      "outputs": [
        {
          "internalType": "uint256",
          "name": "",
          "type": "uint256"
        }
      ],
      "payable": false,
      "stateMutability": "view",
      "type": "function"
    },
    {
      "constant": true,
      "inputs": [
        {
          "internalType": "uint256",
          "name": "",
          "type": "uint256"
        }
      ],
      "name": "saleArr",
      "outputs": [
        {
          "internalType": "uint256",
          "name": "",
          "type": "uint256"
        }
      ],
      "payable": false,
      "stateMutability": "view",
      "type": "function"
    },
    {
      "constant": true,
      "inputs": [],
      "name": "saleCount",
      "outputs": [
        {
          "internalType": "uint256",
          "name": "",
          "type": "uint256"
        }
      ],
      "payable": false,
      "stateMutability": "view",
      "type": "function"
    },
    {
      "constant": true,
      "inputs": [
        {
          "internalType": "uint256",
          "name": "",
          "type": "uint256"
        }
      ],
      "name": "seedArr",
      "outputs": [
        {
          "internalType": "uint256",
          "name": "",
          "type": "uint256"
        }
      ],
      "payable": false,
      "stateMutability": "view",
      "type": "function"
    },
    {
      "constant": true,
      "inputs": [],
      "name": "seedCount",
      "outputs": [
        {
          "internalType": "uint256",
          "name": "",
          "type": "uint256"
        }
      ],
      "payable": false,
      "stateMutability": "view",
      "type": "function"
    },
    {
      "constant": true,
      "inputs": [
        {
          "internalType": "uint256",
          "name": "",
          "type": "uint256"
        }
      ],
      "name": "temp",
      "outputs": [
        {
          "internalType": "uint256",
          "name": "",
          "type": "uint256"
        }
      ],
      "payable": false,
      "stateMutability": "view",
      "type": "function"
    },
    {
      "constant": false,
      "inputs": [
        {
          "internalType": "uint256",
          "name": "_landlordID",
          "type": "uint256"
        },
        {
          "internalType": "string",
          "name": "_landlordName",
          "type": "string"
        },
        {
          "internalType": "uint256",
          "name": "_landlordContact",
          "type": "uint256"
        },
        {
          "internalType": "string",
          "name": "_landlordAddress",
          "type": "string"
        }
      ],
      "name": "newLandlord",
      "outputs": [],
      "payable": false,
      "stateMutability": "nonpayable",
      "type": "function"
    },
    {
      "constant": false,
      "inputs": [
        {
          "internalType": "uint256",
          "name": "_landID",
          "type": "uint256"
        },
        {
          "internalType": "string",
          "name": "_landAddress",
          "type": "string"
        },
        {
          "internalType": "string",
          "name": "_soilType",
          "type": "string"
        },
        {
          "internalType": "uint256",
          "name": "_area",
          "type": "uint256"
        },
        {
          "internalType": "uint256",
          "name": "_cost",
          "type": "uint256"
        }
      ],
      "name": "addLandSale",
      "outputs": [],
      "payable": false,
      "stateMutability": "nonpayable",
      "type": "function"
    },
    {
      "constant": false,
      "inputs": [
        {
          "internalType": "uint256",
          "name": "_landID",
          "type": "uint256"
        },
        {
          "internalType": "string",
          "name": "_landAddress",
          "type": "string"
        },
        {
          "internalType": "string",
          "name": "_soilType",
          "type": "string"
        },
        {
          "internalType": "uint256",
          "name": "_area",
          "type": "uint256"
        },
        {
          "internalType": "uint256",
          "name": "_cost",
          "type": "uint256"
        },
        {
          "internalType": "uint256",
          "name": "_duration",
          "type": "uint256"
        }
      ],
      "name": "addLandLease",
      "outputs": [],
      "payable": false,
      "stateMutability": "nonpayable",
      "type": "function"
    },
    {
      "constant": false,
      "inputs": [
        {
          "internalType": "uint256",
          "name": "_dealerID",
          "type": "uint256"
        },
        {
          "internalType": "string",
          "name": "_dealerName",
          "type": "string"
        },
        {
          "internalType": "uint256",
          "name": "_dealerContact",
          "type": "uint256"
        },
        {
          "internalType": "string",
          "name": "_dealerAddress",
          "type": "string"
        }
      ],
      "name": "newSeedDealer",
      "outputs": [],
      "payable": false,
      "stateMutability": "nonpayable",
      "type": "function"
    },
    {
      "constant": false,
      "inputs": [
        {
          "internalType": "uint256",
          "name": "_seedID",
          "type": "uint256"
        },
        {
          "internalType": "string",
          "name": "_seedName",
          "type": "string"
        },
        {
          "internalType": "uint256",
          "name": "_seedcost",
          "type": "uint256"
        },
        {
          "internalType": "uint256",
          "name": "_seedQuantity",
          "type": "uint256"
        }
      ],
      "name": "newSeed",
      "outputs": [],
      "payable": false,
      "stateMutability": "nonpayable",
      "type": "function"
    },
    {
      "constant": false,
      "inputs": [
        {
          "internalType": "uint256",
          "name": "_fertilizerID",
          "type": "uint256"
        },
        {
          "internalType": "string",
          "name": "_fertilizerName",
          "type": "string"
        },
        {
          "internalType": "uint256",
          "name": "_fertilizerCost",
          "type": "uint256"
        },
        {
          "internalType": "uint256",
          "name": "_fertilizerQuantity",
          "type": "uint256"
        }
      ],
      "name": "newFertilizer",
      "outputs": [],
      "payable": false,
      "stateMutability": "nonpayable",
      "type": "function"
    },
    {
      "constant": false,
      "inputs": [
        {
          "internalType": "uint256",
          "name": "_farmerID",
          "type": "uint256"
        },
        {
          "internalType": "string",
          "name": "_farmerName",
          "type": "string"
        },
        {
          "internalType": "uint256",
          "name": "_farmerContact",
          "type": "uint256"
        },
        {
          "internalType": "string",
          "name": "_farmerAddress",
          "type": "string"
        }
      ],
      "name": "newFarmer",
      "outputs": [],
      "payable": false,
      "stateMutability": "nonpayable",
      "type": "function"
    },
    {
      "constant": false,
      "inputs": [
        {
          "internalType": "uint256",
          "name": "_cropID",
          "type": "uint256"
        },
        {
          "internalType": "string",
          "name": "_cropName",
          "type": "string"
        },
        {
          "internalType": "uint256",
          "name": "_quantity",
          "type": "uint256"
        },
        {
          "internalType": "uint256",
          "name": "_cropPrice",
          "type": "uint256"
        }
      ],
      "name": "addCrop",
      "outputs": [],
      "payable": false,
      "stateMutability": "nonpayable",
      "type": "function"
    },
    {
      "constant": false,
      "inputs": [
        {
          "internalType": "uint256",
          "name": "_landID",
          "type": "uint256"
        }
      ],
      "name": "purchaseLandLease",
      "outputs": [],
      "payable": false,
      "stateMutability": "nonpayable",
      "type": "function"
    },
    {
      "constant": false,
      "inputs": [
        {
          "internalType": "uint256",
          "name": "_landID",
          "type": "uint256"
        }
      ],
      "name": "purchaseLandSale",
      "outputs": [],
      "payable": false,
      "stateMutability": "nonpayable",
      "type": "function"
    },
    {
      "constant": false,
      "inputs": [
        {
          "internalType": "uint256",
          "name": "_seedID",
          "type": "uint256"
        }
      ],
      "name": "purchaseSeed",
      "outputs": [],
      "payable": false,
      "stateMutability": "nonpayable",
      "type": "function"
    },
    {
      "constant": false,
      "inputs": [
        {
          "internalType": "uint256",
          "name": "_fertilizerID",
          "type": "uint256"
        }
      ],
      "name": "purchaseFertilizer",
      "outputs": [],
      "payable": false,
      "stateMutability": "nonpayable",
      "type": "function"
    },
    {
      "constant": false,
      "inputs": [
        {
          "internalType": "uint256",
          "name": "_distID",
          "type": "uint256"
        },
        {
          "internalType": "string",
          "name": "_distName",
          "type": "string"
        },
        {
          "internalType": "uint256",
          "name": "_distContact",
          "type": "uint256"
        },
        {
          "internalType": "string",
          "name": "_distAddress",
          "type": "string"
        }
      ],
      "name": "addDist",
      "outputs": [],
      "payable": false,
      "stateMutability": "nonpayable",
      "type": "function"
    },
    {
      "constant": false,
      "inputs": [
        {
          "internalType": "uint256",
          "name": "_cropID",
          "type": "uint256"
        }
      ],
      "name": "distAddCrop",
      "outputs": [],
      "payable": false,
      "stateMutability": "nonpayable",
      "type": "function"
    },
    {
      "constant": false,
      "inputs": [
        {
          "internalType": "uint256",
          "name": "_retailID",
          "type": "uint256"
        },
        {
          "internalType": "string",
          "name": "_retailName",
          "type": "string"
        },
        {
          "internalType": "uint256",
          "name": "_retailContact",
          "type": "uint256"
        },
        {
          "internalType": "string",
          "name": "_retailAddress",
          "type": "string"
        }
      ],
      "name": "addRetail",
      "outputs": [],
      "payable": false,
      "stateMutability": "nonpayable",
      "type": "function"
    },
    {
      "constant": false,
      "inputs": [
        {
          "internalType": "uint256",
          "name": "_cropID",
          "type": "uint256"
        }
      ],
      "name": "retailAddCrop",
      "outputs": [],
      "payable": false,
      "stateMutability": "nonpayable",
      "type": "function"
    },
    {
      "constant": false,
      "inputs": [
        {
          "internalType": "uint256",
          "name": "_consumerID",
          "type": "uint256"
        },
        {
          "internalType": "string",
          "name": "_consumerName",
          "type": "string"
        },
        {
          "internalType": "uint256",
          "name": "_consumerContact",
          "type": "uint256"
        },
        {
          "internalType": "string",
          "name": "_consumerAddress",
          "type": "string"
        }
      ],
      "name": "addconsumer",
      "outputs": [],
      "payable": false,
      "stateMutability": "nonpayable",
      "type": "function"
    },
    {
      "constant": false,
      "inputs": [
        {
          "internalType": "uint256",
          "name": "_cropID",
          "type": "uint256"
        },
        {
          "internalType": "uint256",
          "name": "quantity",
          "type": "uint256"
        }
      ],
      "name": "consumerAddCrop",
      "outputs": [],
      "payable": false,
      "stateMutability": "nonpayable",
      "type": "function"
    }
  ],
  "bytecode": "0x608060405234801561001057600080fd5b50615f8980620000216000396000f3fe608060405234801561001057600080fd5b50600436106103785760003560e01c806396e68ce7116101d3578063d2afca1211610104578063edfb2242116100a2578063fa1d9d2e1161007c578063fa1d9d2e146125e7578063fa810865146126c0578063fc279e6414612835578063fdd545e31461287757610378565b8063edfb224214612435578063ef096e2b14612453578063f03498321461248157610378565b8063dfd55a2c116100de578063dfd55a2c14612256578063e96ba7f214612274578063ea8f39f6146123e9578063ea97ab4b1461241757610378565b8063d2afca1214611f47578063d4cca0c5146120f0578063d544a90c1461211e57610378565b8063bcd94def11610171578063c078c1b51161014b578063c078c1b514611e9b578063c684c23114611eb9578063cd9428c614611ed7578063d21fe1cc14611f0557610378565b8063bcd94def14611c34578063bd45b39714611da4578063bd850f0c14611dc257610378565b8063b4c0498b116101ad578063b4c0498b14611b48578063b5eaf48114611b66578063b5f4f48114611ba8578063b9dd828614611c1657610378565b806396e68ce714611961578063a1e89aec1461197f578063b039da0f1461199d57610378565b80634d3fdae9116102ad578063762347bf1161024b578063832a31c611610225578063832a31c61461174a5780638bed5bd2146118bf5780638d8a5b7d146118dd57806396e53c4f1461191f57610378565b8063762347bf146115b2578063808d0356146115d057806381f28d801461161257610378565b806350a517801161028757806350a517801461135f57806362ec2cd8146113cd578063675f3191146115425780636c3755ad1461157057610378565b80634d3fdae9146110755780634f256d61146110935780634f3afe83146111f957610378565b80633d15a00e1161031a5780634342279a116102f45780634342279a14610c8a57806343f197ba14610cf857806346f96d9a14610ea157806349045f5714610f0f57610378565b80633d15a00e1461080b5780633f67865c146109af5780634228049314610b2457610378565b80631ff8f740116103565780631ff8f7401461054857806325c99da11461057657806330abaf00146105b85780633c2267ff1461069157610378565b8063065520911461037d57806312daeb161461039b5780631c4860f4146103d3575b600080fd5b6103856129dd565b6040518082815260200191505060405180910390f35b6103d1600480360360408110156103b157600080fd5b8101908080359060200190929190803590602001909291905050506129e3565b005b610415600480360360208110156103e957600080fd5b81019080803573ffffffffffffffffffffffffffffffffffffffff169060200190929190505050612b30565b6040518087815260200180602001868152602001806020018573ffffffffffffffffffffffffffffffffffffffff1673ffffffffffffffffffffffffffffffffffffffff16815260200184151515158152602001838103835288818151815260200191508051906020019080838360005b838110156104a1578082015181840152602081019050610486565b50505050905090810190601f1680156104ce5780820380516001836020036101000a031916815260200191505b50838103825286818151815260200191508051906020019080838360005b838110156105075780820151818401526020810190506104ec565b50505050905090810190601f1680156105345780820380516001836020036101000a031916815260200191505b509850505050505050505060405180910390f35b6105746004803603602081101561055e57600080fd5b8101908080359060200190929190505050612cc9565b005b6105a26004803603602081101561058c57600080fd5b8101908080359060200190929190505050612df7565b6040518082815260200191505060405180910390f35b61068f600480360360808110156105ce57600080fd5b8101908080359060200190929190803590602001906401000000008111156105f557600080fd5b82018360208201111561060757600080fd5b8035906020019184600183028401116401000000008311171561062957600080fd5b91908080601f016020809104026020016040519081016040528093929190818152602001838380828437600081840152601f19601f8201169050808301925050505050505091929192908035906020019092919080359060200190929190505050612e18565b005b610809600480360360c08110156106a757600080fd5b8101908080359060200190929190803590602001906401000000008111156106ce57600080fd5b8201836020820111156106e057600080fd5b8035906020019184600183028401116401000000008311171561070257600080fd5b91908080601f016020809104026020016040519081016040528093929190818152602001838380828437600081840152601f19601f8201169050808301925050505050505091929192908035906020019064010000000081111561076557600080fd5b82018360208201111561077757600080fd5b8035906020019184600183028401116401000000008311171561079957600080fd5b91908080601f016020809104026020016040519081016040528093929190818152602001838380828437600081840152601f19601f82011690508083019250505050505050919291929080359060200190929190803590602001909291908035906020019092919050505061308b565b005b6108376004803603602081101561082157600080fd5b81019080803590602001909291905050506132af565b604051808a8152602001806020018060200189815260200188815260200187151515158152602001861515151581526020018573ffffffffffffffffffffffffffffffffffffffff1673ffffffffffffffffffffffffffffffffffffffff1681526020018473ffffffffffffffffffffffffffffffffffffffff1673ffffffffffffffffffffffffffffffffffffffff16815260200183810383528b818151815260200191508051906020019080838360005b838110156109055780820151818401526020810190506108ea565b50505050905090810190601f1680156109325780820380516001836020036101000a031916815260200191505b5083810382528a818151815260200191508051906020019080838360005b8381101561096b578082015181840152602081019050610950565b50505050905090810190601f1680156109985780820380516001836020036101000a031916815260200191505b509b50505050505050505050505060405180910390f35b6109f1600480360360208110156109c557600080fd5b81019080803573ffffffffffffffffffffffffffffffffffffffff169060200190929190505050613487565b6040518087815260200180602001868152602001806020018573ffffffffffffffffffffffffffffffffffffffff1673ffffffffffffffffffffffffffffffffffffffff16815260200184151515158152602001838103835288818151815260200191508051906020019080838360005b83811015610a7d578082015181840152602081019050610a62565b50505050905090810190601f168015610aaa5780820380516001836020036101000a031916815260200191505b50838103825286818151815260200191508051906020019080838360005b83811015610ae3578082015181840152602081019050610ac8565b50505050905090810190601f168015610b105780820380516001836020036101000a031916815260200191505b509850505050505050505060405180910390f35b610c8860048036036080811015610b3a57600080fd5b810190808035906020019092919080359060200190640100000000811115610b6157600080fd5b820183602082011115610b7357600080fd5b80359060200191846001830284011164010000000083111715610b9557600080fd5b91908080601f016020809104026020016040519081016040528093929190818152602001838380828437600081840152601f19601f8201169050808301925050505050505091929192908035906020019092919080359060200190640100000000811115610c0257600080fd5b820183602082011115610c1457600080fd5b80359060200191846001830284011164010000000083111715610c3657600080fd5b91908080601f016020809104026020016040519081016040528093929190818152602001838380828437600081840152601f19601f820116905080830192505050505050509192919290505050613620565b005b610cb660048036036020811015610ca057600080fd5b8101908080359060200190929190505050613895565b604051808273ffffffffffffffffffffffffffffffffffffffff1673ffffffffffffffffffffffffffffffffffffffff16815260200191505060405180910390f35b610d2460048036036020811015610d0e57600080fd5b81019080803590602001909291905050506138d1565b604051808c8152602001806020018b81526020018a81526020018973ffffffffffffffffffffffffffffffffffffffff1673ffffffffffffffffffffffffffffffffffffffff1681526020018873ffffffffffffffffffffffffffffffffffffffff1673ffffffffffffffffffffffffffffffffffffffff1681526020018773ffffffffffffffffffffffffffffffffffffffff1673ffffffffffffffffffffffffffffffffffffffff1681526020018673ffffffffffffffffffffffffffffffffffffffff1673ffffffffffffffffffffffffffffffffffffffff16815260200185151515158152602001841515151581526020018315151515815260200182810382528c818151815260200191508051906020019080838360005b83811015610e5c578082015181840152602081019050610e41565b50505050905090810190601f168015610e895780820380516001836020036101000a031916815260200191505b509c5050505050505050505050505060405180910390f35b610ecd60048036036020811015610eb757600080fd5b8101908080359060200190929190505050613a6a565b604051808273ffffffffffffffffffffffffffffffffffffffff1673ffffffffffffffffffffffffffffffffffffffff16815260200191505060405180910390f35b61107360048036036080811015610f2557600080fd5b810190808035906020019092919080359060200190640100000000811115610f4c57600080fd5b820183602082011115610f5e57600080fd5b80359060200191846001830284011164010000000083111715610f8057600080fd5b91908080601f016020809104026020016040519081016040528093929190818152602001838380828437600081840152601f19601f8201169050808301925050505050505091929192908035906020019092919080359060200190640100000000811115610fed57600080fd5b820183602082011115610fff57600080fd5b8035906020019184600183028401116401000000008311171561102157600080fd5b91908080601f016020809104026020016040519081016040528093929190818152602001838380828437600081840152601f19601f820116905080830192505050505050509192919290505050613aa6565b005b61107d613d1d565b6040518082815260200191505060405180910390f35b6111f7600480360360808110156110a957600080fd5b8101908080359060200190929190803590602001906401000000008111156110d057600080fd5b8201836020820111156110e257600080fd5b8035906020019184600183028401116401000000008311171561110457600080fd5b91908080601f016020809104026020016040519081016040528093929190818152602001838380828437600081840152601f19601f820116905080830192505050505050509192919290803590602001909291908035906020019064010000000081111561117157600080fd5b82018360208201111561118357600080fd5b803590602001918460018302840111640100000000831117156111a557600080fd5b91908080601f016020809104026020016040519081016040528093929190818152602001838380828437600081840152601f19601f820116905080830192505050505050509192919290505050613d23565b005b61135d6004803603608081101561120f57600080fd5b81019080803590602001909291908035906020019064010000000081111561123657600080fd5b82018360208201111561124857600080fd5b8035906020019184600183028401116401000000008311171561126a57600080fd5b91908080601f016020809104026020016040519081016040528093929190818152602001838380828437600081840152601f19601f82011690508083019250505050505050919291929080359060200190929190803590602001906401000000008111156112d757600080fd5b8201836020820111156112e957600080fd5b8035906020019184600183028401116401000000008311171561130b57600080fd5b91908080601f016020809104026020016040519081016040528093929190818152602001838380828437600081840152601f19601f820116905080830192505050505050509192919290505050614000565b005b61138b6004803603602081101561137557600080fd5b81019080803590602001909291905050506142dd565b604051808273ffffffffffffffffffffffffffffffffffffffff1673ffffffffffffffffffffffffffffffffffffffff16815260200191505060405180910390f35b61140f600480360360208110156113e357600080fd5b81019080803573ffffffffffffffffffffffffffffffffffffffff169060200190929190505050614319565b6040518087815260200180602001868152602001806020018573ffffffffffffffffffffffffffffffffffffffff1673ffffffffffffffffffffffffffffffffffffffff16815260200184151515158152602001838103835288818151815260200191508051906020019080838360005b8381101561149b578082015181840152602081019050611480565b50505050905090810190601f1680156114c85780820380516001836020036101000a031916815260200191505b50838103825286818151815260200191508051906020019080838360005b838110156115015780820151818401526020810190506114e6565b50505050905090810190601f16801561152e5780820380516001836020036101000a031916815260200191505b509850505050505050505060405180910390f35b61156e6004803603602081101561155857600080fd5b81019080803590602001909291905050506144b2565b005b61159c6004803603602081101561158657600080fd5b8101908080359060200190929190505050614525565b6040518082815260200191505060405180910390f35b6115ba614546565b6040518082815260200191505060405180910390f35b6115fc600480360360208110156115e657600080fd5b810190808035906020019092919050505061454c565b6040518082815260200191505060405180910390f35b61163e6004803603602081101561162857600080fd5b810190808035906020019092919050505061456d565b604051808981526020018060200188815260200187151515158152602001861515151581526020018581526020018473ffffffffffffffffffffffffffffffffffffffff1673ffffffffffffffffffffffffffffffffffffffff1681526020018373ffffffffffffffffffffffffffffffffffffffff1673ffffffffffffffffffffffffffffffffffffffff168152602001828103825289818151815260200191508051906020019080838360005b838110156117085780820151818401526020810190506116ed565b50505050905090810190601f1680156117355780820380516001836020036101000a031916815260200191505b50995050505050505050505060405180910390f35b61178c6004803603602081101561176057600080fd5b81019080803573ffffffffffffffffffffffffffffffffffffffff1690602001909291905050506146a7565b6040518087815260200180602001868152602001806020018573ffffffffffffffffffffffffffffffffffffffff1673ffffffffffffffffffffffffffffffffffffffff16815260200184151515158152602001838103835288818151815260200191508051906020019080838360005b838110156118185780820151818401526020810190506117fd565b50505050905090810190601f1680156118455780820380516001836020036101000a031916815260200191505b50838103825286818151815260200191508051906020019080838360005b8381101561187e578082015181840152602081019050611863565b50505050905090810190601f1680156118ab5780820380516001836020036101000a031916815260200191505b509850505050505050505060405180910390f35b6118c7614840565b6040518082815260200191505060405180910390f35b611909600480360360208110156118f357600080fd5b8101908080359060200190929190505050614846565b6040518082815260200191505060405180910390f35b61194b6004803603602081101561193557600080fd5b8101908080359060200190929190505050614867565b6040518082815260200191505060405180910390f35b611969614888565b6040518082815260200191505060405180910390f35b61198761488e565b6040518082815260200191505060405180910390f35b6119c9600480360360208110156119b357600080fd5b8101908080359060200190929190505050614894565b604051808b815260200180602001806020018a815260200189815260200188815260200187151515158152602001861515151581526020018573ffffffffffffffffffffffffffffffffffffffff1673ffffffffffffffffffffffffffffffffffffffff1681526020018473ffffffffffffffffffffffffffffffffffffffff1673ffffffffffffffffffffffffffffffffffffffff16815260200183810383528c818151815260200191508051906020019080838360005b83811015611a9d578082015181840152602081019050611a82565b50505050905090810190601f168015611aca5780820380516001836020036101000a031916815260200191505b5083810382528b818151815260200191508051906020019080838360005b83811015611b03578082015181840152602081019050611ae8565b50505050905090810190601f168015611b305780820380516001836020036101000a031916815260200191505b509c5050505050505050505050505060405180910390f35b611b50614a72565b6040518082815260200191505060405180910390f35b611b9260048036036020811015611b7c57600080fd5b8101908080359060200190929190505050614a78565b6040518082815260200191505060405180910390f35b611bd460048036036020811015611bbe57600080fd5b8101908080359060200190929190505050614a99565b604051808273ffffffffffffffffffffffffffffffffffffffff1673ffffffffffffffffffffffffffffffffffffffff16815260200191505060405180910390f35b611c1e614ad5565b6040518082815260200191505060405180910390f35b611da2600480360360a0811015611c4a57600080fd5b810190808035906020019092919080359060200190640100000000811115611c7157600080fd5b820183602082011115611c8357600080fd5b80359060200191846001830284011164010000000083111715611ca557600080fd5b91908080601f016020809104026020016040519081016040528093929190818152602001838380828437600081840152601f19601f82011690508083019250505050505050919291929080359060200190640100000000811115611d0857600080fd5b820183602082011115611d1a57600080fd5b80359060200191846001830284011164010000000083111715611d3c57600080fd5b91908080601f016020809104026020016040519081016040528093929190818152602001838380828437600081840152601f19601f8201169050808301925050505050505091929192908035906020019092919080359060200190929190505050614adb565b005b611dac614ced565b6040518082815260200191505060405180910390f35b611e9960048036036080811015611dd857600080fd5b810190808035906020019092919080359060200190640100000000811115611dff57600080fd5b820183602082011115611e1157600080fd5b80359060200191846001830284011164010000000083111715611e3357600080fd5b91908080601f016020809104026020016040519081016040528093929190818152602001838380828437600081840152601f19601f8201169050808301925050505050505091929192908035906020019092919080359060200190929190505050614cf3565b005b611ea3614e7e565b6040518082815260200191505060405180910390f35b611ec1614e84565b6040518082815260200191505060405180910390f35b611f0360048036036020811015611eed57600080fd5b8101908080359060200190929190505050614e8a565b005b611f3160048036036020811015611f1b57600080fd5b8101908080359060200190929190505050614efd565b6040518082815260200191505060405180910390f35b611f7360048036036020811015611f5d57600080fd5b8101908080359060200190929190505050614f1e565b604051808c8152602001806020018b81526020018a81526020018973ffffffffffffffffffffffffffffffffffffffff1673ffffffffffffffffffffffffffffffffffffffff1681526020018873ffffffffffffffffffffffffffffffffffffffff1673ffffffffffffffffffffffffffffffffffffffff1681526020018773ffffffffffffffffffffffffffffffffffffffff1673ffffffffffffffffffffffffffffffffffffffff1681526020018673ffffffffffffffffffffffffffffffffffffffff1673ffffffffffffffffffffffffffffffffffffffff16815260200185151515158152602001841515151581526020018315151515815260200182810382528c818151815260200191508051906020019080838360005b838110156120ab578082015181840152602081019050612090565b50505050905090810190601f1680156120d85780820380516001836020036101000a031916815260200191505b509c5050505050505050505050505060405180910390f35b61211c6004803603602081101561210657600080fd5b81019080803590602001909291905050506150b7565b005b61214a6004803603602081101561213457600080fd5b810190808035906020019092919050505061512a565b604051808981526020018060200188815260200187151515158152602001861515151581526020018581526020018473ffffffffffffffffffffffffffffffffffffffff1673ffffffffffffffffffffffffffffffffffffffff1681526020018373ffffffffffffffffffffffffffffffffffffffff1673ffffffffffffffffffffffffffffffffffffffff168152602001828103825289818151815260200191508051906020019080838360005b838110156122145780820151818401526020810190506121f9565b50505050905090810190601f1680156122415780820380516001836020036101000a031916815260200191505b50995050505050505050505060405180910390f35b61225e615264565b6040518082815260200191505060405180910390f35b6122b66004803603602081101561228a57600080fd5b81019080803573ffffffffffffffffffffffffffffffffffffffff16906020019092919050505061526a565b6040518087815260200180602001806020018681526020018573ffffffffffffffffffffffffffffffffffffffff1673ffffffffffffffffffffffffffffffffffffffff16815260200184151515158152602001838103835288818151815260200191508051906020019080838360005b83811015612342578082015181840152602081019050612327565b50505050905090810190601f16801561236f5780820380516001836020036101000a031916815260200191505b50838103825287818151815260200191508051906020019080838360005b838110156123a857808201518184015260208101905061238d565b50505050905090810190601f1680156123d55780820380516001836020036101000a031916815260200191505b509850505050505050505060405180910390f35b612415600480360360208110156123ff57600080fd5b8101908080359060200190929190505050615403565b005b61241f615531565b6040518082815260200191505060405180910390f35b61243d615537565b6040518082815260200191505060405180910390f35b61247f6004803603602081101561246957600080fd5b810190808035906020019092919050505061553d565b005b6125e56004803603608081101561249757600080fd5b8101908080359060200190929190803590602001906401000000008111156124be57600080fd5b8201836020820111156124d057600080fd5b803590602001918460018302840111640100000000831117156124f257600080fd5b91908080601f016020809104026020016040519081016040528093929190818152602001838380828437600081840152601f19601f820116905080830192505050505050509192919290803590602001909291908035906020019064010000000081111561255f57600080fd5b82018360208201111561257157600080fd5b8035906020019184600183028401116401000000008311171561259357600080fd5b91908080601f016020809104026020016040519081016040528093929190818152602001838380828437600081840152601f19601f8201169050808301925050505050505091929192905050506155b0565b005b6126be600480360360808110156125fd57600080fd5b81019080803590602001909291908035906020019064010000000081111561262457600080fd5b82018360208201111561263657600080fd5b8035906020019184600183028401116401000000008311171561265857600080fd5b91908080601f016020809104026020016040519081016040528093929190818152602001838380828437600081840152601f19601f820116905080830192505050505050509192919290803590602001909291908035906020019092919050505061588d565b005b612702600480360360208110156126d657600080fd5b81019080803573ffffffffffffffffffffffffffffffffffffffff169060200190929190505050615a18565b6040518087815260200180602001868152602001806020018573ffffffffffffffffffffffffffffffffffffffff1673ffffffffffffffffffffffffffffffffffffffff16815260200184151515158152602001838103835288818151815260200191508051906020019080838360005b8381101561278e578082015181840152602081019050612773565b50505050905090810190601f1680156127bb5780820380516001836020036101000a031916815260200191505b50838103825286818151815260200191508051906020019080838360005b838110156127f45780820151818401526020810190506127d9565b50505050905090810190601f1680156128215780820380516001836020036101000a031916815260200191505b509850505050505050505060405180910390f35b6128616004803603602081101561284b57600080fd5b8101908080359060200190929190505050615bb1565b6040518082815260200191505060405180910390f35b6129db6004803603608081101561288d57600080fd5b8101908080359060200190929190803590602001906401000000008111156128b457600080fd5b8201836020820111156128c657600080fd5b803590602001918460018302840111640100000000831117156128e857600080fd5b91908080601f016020809104026020016040519081016040528093929190818152602001838380828437600081840152601f19601f820116905080830192505050505050509192919290803590602001909291908035906020019064010000000081111561295557600080fd5b82018360208201111561296757600080fd5b8035906020019184600183028401116401000000008311171561298957600080fd5b91908080601f016020809104026020016040519081016040528093929190818152602001838380828437600081840152601f19601f820116905080830192505050505050509192919290505050615bd2565b005b60185481565b60006007600084815260200190815260200160002090506000600860008581526020019081526020016000209050338260070160006101000a81548173ffffffffffffffffffffffffffffffffffffffff021916908373ffffffffffffffffffffffffffffffffffffffff16021790555060018260070160166101000a81548160ff021916908315150217905550828260020154038260020181905550338160070160006101000a81548173ffffffffffffffffffffffffffffffffffffffff021916908373ffffffffffffffffffffffffffffffffffffffff16021790555060018160070160166101000a81548160ff0219169083151502179055508281600201540181600201819055507f719795a1d0f96d96000a0253c72c0cabd1e32bceca96fc716babca1abb0ec40e82600001546040518082815260200191505060405180910390a150505050565b6004602052806000526040600020600091509050806000015490806001018054600181600116156101000203166002900480601f016020809104026020016040519081016040528092919081815260200182805460018160011615610100020316600290048015612be25780601f10612bb757610100808354040283529160200191612be2565b820191906000526020600020905b815481529060010190602001808311612bc557829003601f168201915b505050505090806002015490806003018054600181600116156101000203166002900480601f016020809104026020016040519081016040528092919081815260200182805460018160011615610100020316600290048015612c865780601f10612c5b57610100808354040283529160200191612c86565b820191906000526020600020905b815481529060010190602001808311612c6957829003601f168201915b5050505050908060040160009054906101000a900473ffffffffffffffffffffffffffffffffffffffff16908060040160149054906101000a900460ff16905086565b60006007600083815260200190815260200160002090506000600860008481526020019081526020016000209050338260060160006101000a81548173ffffffffffffffffffffffffffffffffffffffff021916908373ffffffffffffffffffffffffffffffffffffffff16021790555060018260070160156101000a81548160ff021916908315150217905550338160060160006101000a81548173ffffffffffffffffffffffffffffffffffffffff021916908373ffffffffffffffffffffffffffffffffffffffff16021790555060018160070160156101000a81548160ff0219169083151502179055507f0cbf06922eb83154b3fe6f9e5c3288291460b497fd91bab7aaecaf6f828a39ea82600001546040518082815260200191505060405180910390a1505050565b600d8181548110612e0457fe5b906000526020600020016000915090505481565b60006007600086815260200190815260200160002090506000600860008781526020019081526020016000209050338260040160006101000a81548173ffffffffffffffffffffffffffffffffffffffff021916908373ffffffffffffffffffffffffffffffffffffffff16021790555085826000018190555084826001019080519060200190612eaa929190615eaf565b50838260020181905550828260030181905550338160040160006101000a81548173ffffffffffffffffffffffffffffffffffffffff021916908373ffffffffffffffffffffffffffffffffffffffff16021790555085816000018190555084816001019080519060200190612f21929190615eaf565b5060008160020181905550828160030181905550601f6000815480929190600101919050555060108690806001815401808255809150509060018203906000526020600020016000909192909190915055507f378c5f03b632c0811ba440398934fb1eafc2713c8186a0bc988db1302b2f9e0f82600001548686868660040160009054906101000a900473ffffffffffffffffffffffffffffffffffffffff1660405180868152602001806020018581526020018481526020018373ffffffffffffffffffffffffffffffffffffffff1673ffffffffffffffffffffffffffffffffffffffff168152602001828103825286818151815260200191508051906020019080838360005b8381101561304557808201518184015260208101905061302a565b50505050905090810190601f1680156130725780820380516001836020036101000a031916815260200191505b50965050505050505060405180910390a1505050505050565b6000600260008881526020019081526020016000209050338160060160026101000a81548173ffffffffffffffffffffffffffffffffffffffff021916908373ffffffffffffffffffffffffffffffffffffffff16021790555086816000018190555085816001019080519060200190613106929190615eaf565b508481600201908051906020019061311f929190615eaf565b50838160030181905550828160040181905550818160050181905550601a60008154809291906001019190505550600c8790806001815401808255809150509060018203906000526020600020016000909192909190915055507f439f63ff3358d031c0d7ea0b2dad09bb38c25aa5873ee25526f60b2434ddf69a81600001548787878787604051808781526020018060200180602001868152602001858152602001848152602001838103835288818151815260200191508051906020019080838360005b838110156132005780820151818401526020810190506131e5565b50505050905090810190601f16801561322d5780820380516001836020036101000a031916815260200191505b50838103825287818151815260200191508051906020019080838360005b8381101561326657808201518184015260208101905061324b565b50505050905090810190601f1680156132935780820380516001836020036101000a031916815260200191505b509850505050505050505060405180910390a150505050505050565b6003602052806000526040600020600091509050806000015490806001018054600181600116156101000203166002900480601f0160208091040260200160405190810160405280929190818152602001828054600181600116156101000203166002900480156133615780601f1061333657610100808354040283529160200191613361565b820191906000526020600020905b81548152906001019060200180831161334457829003601f168201915b505050505090806002018054600181600116156101000203166002900480601f0160208091040260200160405190810160405280929190818152602001828054600181600116156101000203166002900480156133ff5780601f106133d4576101008083540402835291602001916133ff565b820191906000526020600020905b8154815290600101906020018083116133e257829003601f168201915b5050505050908060030154908060040154908060050160009054906101000a900460ff16908060050160019054906101000a900460ff16908060050160029054906101000a900473ffffffffffffffffffffffffffffffffffffffff16908060060160009054906101000a900473ffffffffffffffffffffffffffffffffffffffff16905089565b6000602052806000526040600020600091509050806000015490806001018054600181600116156101000203166002900480601f0160208091040260200160405190810160405280929190818152602001828054600181600116156101000203166002900480156135395780601f1061350e57610100808354040283529160200191613539565b820191906000526020600020905b81548152906001019060200180831161351c57829003601f168201915b505050505090806002015490806003018054600181600116156101000203166002900480601f0160208091040260200160405190810160405280929190818152602001828054600181600116156101000203166002900480156135dd5780601f106135b2576101008083540402835291602001916135dd565b820191906000526020600020905b8154815290600101906020018083116135c057829003601f168201915b5050505050908060040160009054906101000a900473ffffffffffffffffffffffffffffffffffffffff16908060040160149054906101000a900460ff16905086565b60008060003373ffffffffffffffffffffffffffffffffffffffff1673ffffffffffffffffffffffffffffffffffffffff16815260200190815260200160002090506000803373ffffffffffffffffffffffffffffffffffffffff1673ffffffffffffffffffffffffffffffffffffffff16815260200190815260200160002060040160149054906101000a900460ff16156136bb57600080fd5b338160040160006101000a81548173ffffffffffffffffffffffffffffffffffffffff021916908373ffffffffffffffffffffffffffffffffffffffff1602179055508481600001819055508381600101908051906020019061371f929190615eaf565b5081816003019080519060200190613738929190615eaf565b5082816002018190555060018160040160146101000a81548160ff0219169083151502179055506018600081548092919060010191905055507f08668c3163d612d8a94f23903ed5e73898d30921f3f8141c5d33a9495487754c8160000154858585604051808581526020018060200184815260200180602001838103835286818151815260200191508051906020019080838360005b838110156137ea5780820151818401526020810190506137cf565b50505050905090810190601f1680156138175780820380516001836020036101000a031916815260200191505b50838103825284818151815260200191508051906020019080838360005b83811015613850578082015181840152602081019050613835565b50505050905090810190601f16801561387d5780820380516001836020036101000a031916815260200191505b50965050505050505060405180910390a15050505050565b601781815481106138a257fe5b906000526020600020016000915054906101000a900473ffffffffffffffffffffffffffffffffffffffff1681565b6007602052806000526040600020600091509050806000015490806001018054600181600116156101000203166002900480601f0160208091040260200160405190810160405280929190818152602001828054600181600116156101000203166002900480156139835780601f1061395857610100808354040283529160200191613983565b820191906000526020600020905b81548152906001019060200180831161396657829003601f168201915b5050505050908060020154908060030154908060040160009054906101000a900473ffffffffffffffffffffffffffffffffffffffff16908060050160009054906101000a900473ffffffffffffffffffffffffffffffffffffffff16908060060160009054906101000a900473ffffffffffffffffffffffffffffffffffffffff16908060070160009054906101000a900473ffffffffffffffffffffffffffffffffffffffff16908060070160149054906101000a900460ff16908060070160159054906101000a900460ff16908060070160169054906101000a900460ff1690508b565b60148181548110613a7757fe5b906000526020600020016000915054906101000a900473ffffffffffffffffffffffffffffffffffffffff1681565b6000600160003373ffffffffffffffffffffffffffffffffffffffff1673ffffffffffffffffffffffffffffffffffffffff1681526020019081526020016000209050600160003373ffffffffffffffffffffffffffffffffffffffff1673ffffffffffffffffffffffffffffffffffffffff16815260200190815260200160002060040160149054906101000a900460ff1615613b4357600080fd5b338160040160006101000a81548173ffffffffffffffffffffffffffffffffffffffff021916908373ffffffffffffffffffffffffffffffffffffffff16021790555084816000018190555083816001019080519060200190613ba7929190615eaf565b5081816002019080519060200190613bc0929190615eaf565b5082816003018190555060018160040160146101000a81548160ff0219169083151502179055506019600081548092919060010191905055507fd6872be6e41398807aa745d3fa75664e9c98bab6bc08f2ede66cf950f1a86e4f8160000154858585604051808581526020018060200184815260200180602001838103835286818151815260200191508051906020019080838360005b83811015613c72578082015181840152602081019050613c57565b50505050905090810190601f168015613c9f5780820380516001836020036101000a031916815260200191505b50838103825284818151815260200191508051906020019080838360005b83811015613cd8578082015181840152602081019050613cbd565b50505050905090810190601f168015613d055780820380516001836020036101000a031916815260200191505b50965050505050505060405180910390a15050505050565b60205481565b6000600b60003373ffffffffffffffffffffffffffffffffffffffff1673ffffffffffffffffffffffffffffffffffffffff1681526020019081526020016000209050600b60003373ffffffffffffffffffffffffffffffffffffffff1673ffffffffffffffffffffffffffffffffffffffff16815260200190815260200160002060040160149054906101000a900460ff1615613dc057600080fd5b338160040160006101000a81548173ffffffffffffffffffffffffffffffffffffffff021916908373ffffffffffffffffffffffffffffffffffffffff16021790555084816000018190555083816001019080519060200190613e24929190615eaf565b5082816002018190555081816003019080519060200190613e46929190615eaf565b5060018160040160146101000a81548160ff02191690831515021790555060173390806001815401808255809150509060018203906000526020600020016000909192909190916101000a81548173ffffffffffffffffffffffffffffffffffffffff021916908373ffffffffffffffffffffffffffffffffffffffff160217905550506022600081548092919060010191905055507f1a13455a6f21ea22183743d3a2e4337878ecb3600567972479049c8beeb902988160000154858585604051808581526020018060200184815260200180602001838103835286818151815260200191508051906020019080838360005b83811015613f55578082015181840152602081019050613f3a565b50505050905090810190601f168015613f825780820380516001836020036101000a031916815260200191505b50838103825284818151815260200191508051906020019080838360005b83811015613fbb578082015181840152602081019050613fa0565b50505050905090810190601f168015613fe85780820380516001836020036101000a031916815260200191505b50965050505050505060405180910390a15050505050565b6000600460003373ffffffffffffffffffffffffffffffffffffffff1673ffffffffffffffffffffffffffffffffffffffff1681526020019081526020016000209050600460003373ffffffffffffffffffffffffffffffffffffffff1673ffffffffffffffffffffffffffffffffffffffff16815260200190815260200160002060040160149054906101000a900460ff161561409d57600080fd5b338160040160006101000a81548173ffffffffffffffffffffffffffffffffffffffff021916908373ffffffffffffffffffffffffffffffffffffffff16021790555084816000018190555083816001019080519060200190614101929190615eaf565b508181600301908051906020019061411a929190615eaf565b5082816002018190555060018160040160146101000a81548160ff02191690831515021790555060143390806001815401808255809150509060018203906000526020600020016000909192909190916101000a81548173ffffffffffffffffffffffffffffffffffffffff021916908373ffffffffffffffffffffffffffffffffffffffff16021790555050601e600081548092919060010191905055507fb36cc4119d00d499f56607c93b70202fbd20ed3ddec3c66d8f91c3890dc4ff2e8160000154858585604051808581526020018060200184815260200180602001838103835286818151815260200191508051906020019080838360005b83811015614232578082015181840152602081019050614217565b50505050905090810190601f16801561425f5780820380516001836020036101000a031916815260200191505b50838103825284818151815260200191508051906020019080838360005b8381101561429857808201518184015260208101905061427d565b50505050905090810190601f1680156142c55780820380516001836020036101000a031916815260200191505b50965050505050505060405180910390a15050505050565b601681815481106142ea57fe5b906000526020600020016000915054906101000a900473ffffffffffffffffffffffffffffffffffffffff1681565b600b602052806000526040600020600091509050806000015490806001018054600181600116156101000203166002900480601f0160208091040260200160405190810160405280929190818152602001828054600181600116156101000203166002900480156143cb5780601f106143a0576101008083540402835291602001916143cb565b820191906000526020600020905b8154815290600101906020018083116143ae57829003601f168201915b505050505090806002015490806003018054600181600116156101000203166002900480601f01602080910402602001604051908101604052809291908181526020018280546001816001161561010002031660029004801561446f5780601f106144445761010080835404028352916020019161446f565b820191906000526020600020905b81548152906001019060200180831161445257829003601f168201915b5050505050908060040160009054906101000a900473ffffffffffffffffffffffffffffffffffffffff16908060040160149054906101000a900460ff16905086565b600060026000838152602001908152602001600020905060018160060160006101000a81548160ff0219169083151502179055507fb113ddee1f19c663134cf17fedc292ab8569c4313980b37a98ad6f576fe205d081600001546040518082815260200191505060405180910390a15050565b6013818154811061453257fe5b906000526020600020016000915090505481565b60255481565b600e818154811061455957fe5b906000526020600020016000915090505481565b6006602052806000526040600020600091509050806000015490806001018054600181600116156101000203166002900480601f01602080910402602001604051908101604052809291908181526020018280546001816001161561010002031660029004801561461f5780601f106145f45761010080835404028352916020019161461f565b820191906000526020600020905b81548152906001019060200180831161460257829003601f168201915b5050505050908060020154908060030160009054906101000a900460ff16908060030160019054906101000a900460ff16908060040154908060050160009054906101000a900473ffffffffffffffffffffffffffffffffffffffff16908060060160009054906101000a900473ffffffffffffffffffffffffffffffffffffffff16905088565b6009602052806000526040600020600091509050806000015490806001018054600181600116156101000203166002900480601f0160208091040260200160405190810160405280929190818152602001828054600181600116156101000203166002900480156147595780601f1061472e57610100808354040283529160200191614759565b820191906000526020600020905b81548152906001019060200180831161473c57829003601f168201915b505050505090806002015490806003018054600181600116156101000203166002900480601f0160208091040260200160405190810160405280929190818152602001828054600181600116156101000203166002900480156147fd5780601f106147d2576101008083540402835291602001916147fd565b820191906000526020600020905b8154815290600101906020018083116147e057829003601f168201915b5050505050908060040160009054906101000a900473ffffffffffffffffffffffffffffffffffffffff16908060040160149054906101000a900460ff16905086565b601b5481565b600f818154811061485357fe5b906000526020600020016000915090505481565b600c818154811061487457fe5b906000526020600020016000915090505481565b601c5481565b601d5481565b6002602052806000526040600020600091509050806000015490806001018054600181600116156101000203166002900480601f0160208091040260200160405190810160405280929190818152602001828054600181600116156101000203166002900480156149465780601f1061491b57610100808354040283529160200191614946565b820191906000526020600020905b81548152906001019060200180831161492957829003601f168201915b505050505090806002018054600181600116156101000203166002900480601f0160208091040260200160405190810160405280929190818152602001828054600181600116156101000203166002900480156149e45780601f106149b9576101008083540402835291602001916149e4565b820191906000526020600020905b8154815290600101906020018083116149c757829003601f168201915b5050505050908060030154908060040154908060050154908060060160009054906101000a900460ff16908060060160019054906101000a900460ff16908060060160029054906101000a900473ffffffffffffffffffffffffffffffffffffffff16908060070160009054906101000a900473ffffffffffffffffffffffffffffffffffffffff1690508a565b601a5481565b60108181548110614a8557fe5b906000526020600020016000915090505481565b60158181548110614aa657fe5b906000526020600020016000915054906101000a900473ffffffffffffffffffffffffffffffffffffffff1681565b60215481565b6000600360008781526020019081526020016000209050338160050160026101000a81548173ffffffffffffffffffffffffffffffffffffffff021916908373ffffffffffffffffffffffffffffffffffffffff16021790555085816000018190555084816001019080519060200190614b56929190615eaf565b5083816002019080519060200190614b6f929190615eaf565b50828160030181905550818160040181905550601d60008154809291906001019190505550600d8690806001815401808255809150509060018203906000526020600020016000909192909190915055507f1165557beb26b62f0b993d64631cef5a6da178727e9e0403f41c77c28bc8d73d816000015486868686604051808681526020018060200180602001858152602001848152602001838103835287818151815260200191508051906020019080838360005b83811015614c40578082015181840152602081019050614c25565b50505050905090810190601f168015614c6d5780820380516001836020036101000a031916815260200191505b50838103825286818151815260200191508051906020019080838360005b83811015614ca6578082015181840152602081019050614c8b565b50505050905090810190601f168015614cd35780820380516001836020036101000a031916815260200191505b5097505050505050505060405180910390a1505050505050565b601e5481565b6000600660008681526020019081526020016000209050338160050160006101000a81548173ffffffffffffffffffffffffffffffffffffffff021916908373ffffffffffffffffffffffffffffffffffffffff16021790555084816000018190555083816001019080519060200190614d6e929190615eaf565b50828160040181905550818160020181905550600f859080600181540180825580915050906001820390600052602060002001600090919290919091505550601c600081548092919060010191905055507f7dd1ac0f3045c721af138f4c0f5c1d81f03d3ce527d8984fb057c73a2229973e81600001548585856040518085815260200180602001848152602001838152602001828103825285818151815260200191508051906020019080838360005b83811015614e3a578082015181840152602081019050614e1f565b50505050905090810190601f168015614e675780820380516001836020036101000a031916815260200191505b509550505050505060405180910390a15050505050565b60225481565b60245481565b600060036000838152602001908152602001600020905060018160050160006101000a81548160ff0219169083151502179055507f4d76f888e2d45ed5342180cd02cd937a6df60e70f9267b6fe3d23fef91073dbe81600001546040518082815260200191505060405180910390a15050565b60118181548110614f0a57fe5b906000526020600020016000915090505481565b6008602052806000526040600020600091509050806000015490806001018054600181600116156101000203166002900480601f016020809104026020016040519081016040528092919081815260200182805460018160011615610100020316600290048015614fd05780601f10614fa557610100808354040283529160200191614fd0565b820191906000526020600020905b815481529060010190602001808311614fb357829003601f168201915b5050505050908060020154908060030154908060040160009054906101000a900473ffffffffffffffffffffffffffffffffffffffff16908060050160009054906101000a900473ffffffffffffffffffffffffffffffffffffffff16908060060160009054906101000a900473ffffffffffffffffffffffffffffffffffffffff16908060070160009054906101000a900473ffffffffffffffffffffffffffffffffffffffff16908060070160149054906101000a900460ff16908060070160159054906101000a900460ff16908060070160169054906101000a900460ff1690508b565b600060056000838152602001908152602001600020905060018160030160006101000a81548160ff0219169083151502179055507f4884f639bffe6ebc2bd20dcf3acba03bbb77a1c29ce119ee0468add1e526bf2e81600001546040518082815260200191505060405180910390a15050565b6005602052806000526040600020600091509050806000015490806001018054600181600116156101000203166002900480601f0160208091040260200160405190810160405280929190818152602001828054600181600116156101000203166002900480156151dc5780601f106151b1576101008083540402835291602001916151dc565b820191906000526020600020905b8154815290600101906020018083116151bf57829003601f168201915b5050505050908060020154908060030160009054906101000a900460ff16908060030160019054906101000a900460ff16908060040154908060050160009054906101000a900473ffffffffffffffffffffffffffffffffffffffff16908060060160009054906101000a900473ffffffffffffffffffffffffffffffffffffffff16905088565b601f5481565b6001602052806000526040600020600091509050806000015490806001018054600181600116156101000203166002900480601f01602080910402602001604051908101604052809291908181526020018280546001816001161561010002031660029004801561531c5780601f106152f15761010080835404028352916020019161531c565b820191906000526020600020905b8154815290600101906020018083116152ff57829003601f168201915b505050505090806002018054600181600116156101000203166002900480601f0160208091040260200160405190810160405280929190818152602001828054600181600116156101000203166002900480156153ba5780601f1061538f576101008083540402835291602001916153ba565b820191906000526020600020905b81548152906001019060200180831161539d57829003601f168201915b5050505050908060030154908060040160009054906101000a900473ffffffffffffffffffffffffffffffffffffffff16908060040160149054906101000a900460ff16905086565b60006007600083815260200190815260200160002090506000600860008481526020019081526020016000209050338260050160006101000a81548173ffffffffffffffffffffffffffffffffffffffff021916908373ffffffffffffffffffffffffffffffffffffffff16021790555060018260070160146101000a81548160ff021916908315150217905550338160050160006101000a81548173ffffffffffffffffffffffffffffffffffffffff021916908373ffffffffffffffffffffffffffffffffffffffff16021790555060018160070160146101000a81548160ff0219169083151502179055507fadae2f6d15893072faac01469d9c4ab03345012f63f977eabb99ca98c67fc3de82600001546040518082815260200191505060405180910390a1505050565b60195481565b60235481565b600060066000838152602001908152602001600020905060018160030160006101000a81548160ff0219169083151502179055507fa214b590499078bd7c3ac19858552eb9d47ef202d017c8c1af3a1f2559710b2b81600001546040518082815260200191505060405180910390a15050565b6000600960003373ffffffffffffffffffffffffffffffffffffffff1673ffffffffffffffffffffffffffffffffffffffff1681526020019081526020016000209050600960003373ffffffffffffffffffffffffffffffffffffffff1673ffffffffffffffffffffffffffffffffffffffff16815260200190815260200160002060040160149054906101000a900460ff161561564d57600080fd5b338160040160006101000a81548173ffffffffffffffffffffffffffffffffffffffff021916908373ffffffffffffffffffffffffffffffffffffffff160217905550848160000181905550838160010190805190602001906156b1929190615eaf565b50828160020181905550818160030190805190602001906156d3929190615eaf565b5060018160040160146101000a81548160ff02191690831515021790555060153390806001815401808255809150509060018203906000526020600020016000909192909190916101000a81548173ffffffffffffffffffffffffffffffffffffffff021916908373ffffffffffffffffffffffffffffffffffffffff160217905550506020600081548092919060010191905055507f85ce94a09259d11fea28ef2cdae95f1a94d42451c0741fdd7e267f746c524b6a8160000154858585604051808581526020018060200184815260200180602001838103835286818151815260200191508051906020019080838360005b838110156157e25780820151818401526020810190506157c7565b50505050905090810190601f16801561580f5780820380516001836020036101000a031916815260200191505b50838103825284818151815260200191508051906020019080838360005b8381101561584857808201518184015260208101905061582d565b50505050905090810190601f1680156158755780820380516001836020036101000a031916815260200191505b50965050505050505060405180910390a15050505050565b6000600560008681526020019081526020016000209050338160050160006101000a81548173ffffffffffffffffffffffffffffffffffffffff021916908373ffffffffffffffffffffffffffffffffffffffff16021790555084816000018190555083816001019080519060200190615908929190615eaf565b50828160040181905550818160020181905550600e859080600181540180825580915050906001820390600052602060002001600090919290919091505550601b600081548092919060010191905055507fa55da230e9462e2c52b347397a2cb6953432cf8bed20f679a034e459ef95e34b81600001548585856040518085815260200180602001848152602001838152602001828103825285818151815260200191508051906020019080838360005b838110156159d45780820151818401526020810190506159b9565b50505050905090810190601f168015615a015780820380516001836020036101000a031916815260200191505b509550505050505060405180910390a15050505050565b600a602052806000526040600020600091509050806000015490806001018054600181600116156101000203166002900480601f016020809104026020016040519081016040528092919081815260200182805460018160011615610100020316600290048015615aca5780601f10615a9f57610100808354040283529160200191615aca565b820191906000526020600020905b815481529060010190602001808311615aad57829003601f168201915b505050505090806002015490806003018054600181600116156101000203166002900480601f016020809104026020016040519081016040528092919081815260200182805460018160011615610100020316600290048015615b6e5780601f10615b4357610100808354040283529160200191615b6e565b820191906000526020600020905b815481529060010190602001808311615b5157829003601f168201915b5050505050908060040160009054906101000a900473ffffffffffffffffffffffffffffffffffffffff16908060040160149054906101000a900460ff16905086565b60128181548110615bbe57fe5b906000526020600020016000915090505481565b6000600a60003373ffffffffffffffffffffffffffffffffffffffff1673ffffffffffffffffffffffffffffffffffffffff1681526020019081526020016000209050600a60003373ffffffffffffffffffffffffffffffffffffffff1673ffffffffffffffffffffffffffffffffffffffff16815260200190815260200160002060040160149054906101000a900460ff1615615c6f57600080fd5b338160040160006101000a81548173ffffffffffffffffffffffffffffffffffffffff021916908373ffffffffffffffffffffffffffffffffffffffff16021790555084816000018190555083816001019080519060200190615cd3929190615eaf565b5082816002018190555081816003019080519060200190615cf5929190615eaf565b5060018160040160146101000a81548160ff02191690831515021790555060163390806001815401808255809150509060018203906000526020600020016000909192909190916101000a81548173ffffffffffffffffffffffffffffffffffffffff021916908373ffffffffffffffffffffffffffffffffffffffff160217905550506021600081548092919060010191905055507fb0e45e8125bcae396aa2f4df5baf1c1fe6cc08db71c22a9fc54e8e2529b5934a8160000154858585604051808581526020018060200184815260200180602001838103835286818151815260200191508051906020019080838360005b83811015615e04578082015181840152602081019050615de9565b50505050905090810190601f168015615e315780820380516001836020036101000a031916815260200191505b50838103825284818151815260200191508051906020019080838360005b83811015615e6a578082015181840152602081019050615e4f565b50505050905090810190601f168015615e975780820380516001836020036101000a031916815260200191505b50965050505050505060405180910390a15050505050565b828054600181600116156101000203166002900490600052602060002090601f016020900481019282601f10615ef057805160ff1916838001178555615f1e565b82800160010185558215615f1e579182015b82811115615f1d578251825591602001919060010190615f02565b5b509050615f2b9190615f2f565b5090565b615f5191905b80821115615f4d576000816000905550600101615f35565b5090565b9056fea265627a7a72315820f6bf9f4a0e79a77a8b38f456c94eadf0e6ed7bb20ce20eff5599b4afc14685cc64736f6c63430005100032",
  "source": "pragma solidity ^0.5.16;\n\ncontract SupplyChain{\n\n    //model a landlord\n    struct Landlord{\n        uint landlordID;\n        string landlordName;\n        uint landlordContact;\n        string landlordAddress;\n        address laddr;\n        bool isValue;\n    }\n\n    //model a seed dealer\n    struct SeedDealer{\n        uint dealerID;\n        string dealerName;\n        string dealerAddress;\n        uint dealerContact;\n        address saddr;\n        bool isValue;\n    }\n\n    //model a seed\n    struct Seed{\n        uint seedID;\n        string seedName;\n        uint seedQuantity;\n        bool isBought;\n        bool isSale;\n        uint seedcost;\n        address saddr;\n        address faddr;\n    }\n\n\n    //model a fertilizer\n    struct Fertilizer{\n        uint fertilizerID;\n        string fertilizerName;\n        uint fertilizerQuantity;\n        bool isBought;\n        bool isSale;\n        uint fertilizerCost;\n        address saddr;\n        address faddr;\n    }\n    //model a land\n    struct Landsale{\n        uint landID;\n        string landAddress;\n        string soilType;\n        //uint temperature;\n        //uint humidity;\n        //string cropType;\n        uint area;\n        uint cost;\n        bool isBought;\n        bool isSale;\n        address laddr;\n        address faddr;\n    }\n\n    //model a landlease\n    struct Landlease{\n        uint landID;\n        string landAddress;\n        string soilType;\n        //uint temperature;\n        //uint humidity;\n        //string cropType;\n        uint area;\n        uint cost;\n        uint duration;\n        bool isBought;\n        bool isLease;\n        address laddr;\n        address faddr;\n\n    }\n\n    //model a farmer\n   struct Farmer {\n       uint farmerID;\n       string farmerName;\n       uint farmerContact;\n      string farmerAddress;\n       address faddr;\n       bool isValue;\n   }\n\n   //model crop\n    struct Crop{\n       uint cropID;\n       string cropName;\n       uint quantity;\n       uint cropPrice;\n        address faddr;\n        address daddr;\n        address raddr;\n        address caddr;\n        bool isBought; \n        bool isBoughtByRetailer;     \n        bool isBoughtByConsumer;    \n } \n\n   //model a distributor\n   struct Distributor{\n       uint distID;\n       string distName;\n       uint distContact;\n       string distAddress;\n       address daddr;\n       bool isValue;\n   }\n   \n   //model a retailer\n   struct Retailer{\n       uint retailID;\n       string retailName;\n       uint retailContact;\n       string  retailAddress;\n       address raddr;\n       bool isValue;\n   }\n   \n   //model a consumer\n   struct Consumer{\n       uint consumerID;\n       string consumerName;\n       uint consumerContact;\n       string consumerAddress;\n       address caddr;\n       bool isValue;\n   }\n\n   mapping(address => Landlord) public mlandlord;\n   mapping(address => SeedDealer) public mdealer;\n   mapping(uint => Landlease) public mlland;\n   mapping(uint => Landsale) public msland;\n   mapping(address => Farmer) public mfarmer;\n   mapping(uint => Seed) public mseed;\n   mapping(uint => Fertilizer) public mfertilizer;\n   mapping(uint => Crop) public mcrop;\n   mapping(uint => Crop) public conscrop;\n   mapping(address => Distributor) public mdist;\n   mapping(address => Retailer) public mretail;\n   mapping(address => Consumer) public mconsumer;\n   \n\n   //count of crop\n   uint[] public leaseArr;\n   uint[] public saleArr;\n   uint[] public seedArr;\n   uint[] public fertilizerArr;\n   uint[] public cropArr;\n   uint[] public distCropArr;\n   uint[] public consumerCropArr;\n   uint[] public temp;\n   address[] public farmerAdd;\n   address[] public distAdd;\n   address[] public retailAdd;\n   address[] public consAdd;\n   uint public landlordCount;\n   uint public dealerCount;\n   uint public leaseCount;\n   uint public seedCount;\n   uint public fertilizerCount;\n   uint public saleCount;\n   uint public farmerCount;\n   uint public cropCount;\n   uint public distCount;\n   uint public retailCount;\n   uint public consumerCount;\n   uint public distCropCount;\n   uint public retailCropCount;\n   uint public consumerCropCount;\n\n\n   //event for landlord\n   event landlordCreated(\n       uint landlordID,\n       string landlordName,\n       uint landlordContact,\n       string landlordAddress\n   );\n   \n   //event for land sale\n   event landForSale (\n       uint landID,\n       string landAddress,\n       string soilType,\n       //uint temperature,\n       //uint humidity,\n       //string cropType,\n       uint area,\n       uint cost\n   );\n\n   //event for lease\n   event landForLease(\n       uint landID,\n       string landAddress,\n       string soilType,\n       //uint temperature,\n       //uint humidity,\n       //string cropType,\n       uint area,\n       uint cost,\n       uint duration\n   );\n\n \n   //event for seedDealer\n   event seedDealerCreated(\n        uint dealerID,\n        string dealerName,\n        uint dealerContact,\n        string dealerAddress\n   );\n\n   //event for seedCreated\n   event seedCreated(\n        uint seedID,\n        string seedName,\n        uint seedcost,\n        uint seedQuantity\n   );\n\n   //event for fertilizerCreated\n   event fertilizerCreated(\n        uint fertilizerID,\n        string fertilizerName,\n        uint fertilizerCost,\n        uint fertilizerQuantity\n   );\n\n   // event for farmer\n   event farmerCreated (\n       uint farmerID,\n       string farmerName,\n       uint farmerContact,\n       string farmerAddress\n   );\n\n   // event for crop\n   event cropCreated (\n       uint cropID,\n       string cropName,\n       uint quantity,\n       uint cropPrice,\n       address faddr\n   );\n\n   //event for farmer land purchase \n   event landPurchaseLease (\n       uint landID\n   );\n    event landPurchaseSale (\n       uint landID\n   );\n   //evbent for seed purchase\n   event seedPurchase(\n       uint seedID\n   );\n   //event for fertilizer purchase\n   event fertilizerPurchase(\n       uint fertilizerID\n   );\n\n   //event for distributor \n   event distCreated (\n       uint distID,\n       string distName,\n       uint distContact,\n       string distAddress\n   );\n\n   //event for distributor crop\n   event distCrop (\n       uint cropID\n   );\n   \n   //event for retailer\n   event retailCreated (\n       uint retailID,\n       string retailName,\n       uint retailContact,\n       string retailAddress\n   );\n\n   //event for retail adding crop\n   event retailCrop (\n       uint cropID\n   );\n\n   //event for consumer\n   event consumerCreated(\n       uint consumerID,\n       string consumerName,\n       uint consumerContact,\n       string consumerAddress\n   );\n\n  // event for consumer adding crop\n  event consumerCrop(\n      uint cropID\n  );\n\n    //add new Landlord\n    function newLandlord(\n        uint _landlordID,\n        string memory _landlordName,\n        uint _landlordContact,\n        string memory _landlordAddress\n    ) public {\n        Landlord storage _newlandlord = mlandlord[msg.sender];\n\n        // Only allows new records to be created\n         require(!mlandlord[msg.sender].isValue);\n        _newlandlord.laddr = msg.sender;\n        _newlandlord.landlordID = _landlordID;\n        _newlandlord.landlordName = _landlordName;\n        _newlandlord.landlordAddress = _landlordAddress;\n        _newlandlord.landlordContact = _landlordContact;\n        _newlandlord.isValue = true;\n        landlordCount++;\n        emit landlordCreated(_newlandlord.landlordID, _landlordName, _landlordContact,_landlordAddress);\n    }\n\n    //landlord adds new land for sale\n    function addLandSale (\n        uint _landID,\n        string memory _landAddress,\n        string memory _soilType,\n        //uint _temperature,\n        //uint _humidity,\n        //string memory _cropType,\n        uint _area,\n        uint _cost \n    ) public {\n        Landsale storage _newland = msland[_landID];\n        _newland.laddr = msg.sender;\n        _newland.landID = _landID;\n        _newland.landAddress = _landAddress;\n        _newland.soilType = _soilType;\n        //_newland.temperature=_temperature;\n        //_newland.humidity=_humidity;\n        //_newland.cropType=_cropType;\n        _newland.area=_area;\n        _newland.cost=_cost;\n        saleCount++;\n        saleArr.push(_landID);\n        emit landForSale(_newland.landID, _landAddress, _soilType,_area,_cost);\n    }\n\n    // //lease function\n     function addLandLease (\n        uint _landID,\n      //  string memory _landName,\n        string memory _landAddress,\n        string memory _soilType,\n        //uint _temperature,\n        //uint _humidity,\n        //string memory _cropType,\n        uint _area,\n        uint _cost,\n        uint _duration\n    ) public {\n        Landlease storage _newland = mlland[_landID];\n        _newland.laddr = msg.sender;\n        _newland.landID = _landID;\n       // _newland.landName = _landName;\n        _newland.landAddress = _landAddress;\n        _newland.soilType = _soilType;\n        //_newland.temperature=_temperature;\n        //_newland.humidity=_humidity;\n        //_newland.cropType=_cropType;\n        _newland.area=_area;\n        _newland.cost=_cost;\n        _newland.duration=_duration;\n        leaseCount++;\n        leaseArr.push(_landID);\n        emit landForLease(_newland.landID, _landAddress, _soilType,_area,_cost,_duration);\n    }\n    \n    //add new seedDealer\n    function newSeedDealer (\n        uint _dealerID,\n        string memory _dealerName,\n        uint _dealerContact,\n        string memory _dealerAddress\n    ) public {\n        SeedDealer storage _newdealer = mdealer[msg.sender];\n\n        // Only allows new records to be created\n        require(!mdealer[msg.sender].isValue);\n        _newdealer.saddr = msg.sender;\n        _newdealer.dealerID = _dealerID;\n        _newdealer.dealerName = _dealerName;\n        _newdealer.dealerAddress = _dealerAddress;\n        _newdealer.dealerContact = _dealerContact;\n        _newdealer.isValue = true;\n        dealerCount++;\n        emit seedDealerCreated(_newdealer.dealerID, _dealerName, _dealerContact,_dealerAddress);\n    }\n\n    //add new seed\n    function newSeed (\n        uint _seedID,\n        string memory _seedName,\n        uint _seedcost,\n        uint _seedQuantity\n    ) public {\n        Seed storage _newseed = mseed[_seedID];\n\n        // Only allows new records to be created\n        //require(!mseed[msg.sender].isValue);\n        _newseed.saddr = msg.sender;\n        _newseed.seedID = _seedID;\n        _newseed.seedName = _seedName;\n        _newseed.seedcost = _seedcost;\n        _newseed.seedQuantity = _seedQuantity;\n        //_newseed.isValue = true;\n        seedArr.push(_seedID);\n        seedCount++;\n        emit seedCreated(_newseed.seedID, _seedName, _seedcost, _seedQuantity);\n    }\n\n    //add new fertilizer\n    function newFertilizer (\n        uint _fertilizerID,\n        string memory _fertilizerName,\n        uint _fertilizerCost,\n        uint _fertilizerQuantity\n    ) public {\n        Fertilizer storage _newfertilizer = mfertilizer[_fertilizerID];\n\n        // Only allows new records to be created\n        //require(!mfertilizer[msg.sender].isValue);\n        _newfertilizer.saddr = msg.sender;\n        _newfertilizer.fertilizerID = _fertilizerID;\n        _newfertilizer.fertilizerName = _fertilizerName;\n        _newfertilizer.fertilizerCost = _fertilizerCost;\n        _newfertilizer.fertilizerQuantity = _fertilizerQuantity;\n       // _newfertilizer.isValue = true;\n        fertilizerArr.push(_fertilizerID);\n        fertilizerCount++;\n        emit fertilizerCreated(_newfertilizer.fertilizerID, _fertilizerName, _fertilizerCost, _fertilizerQuantity);\n    }\n\n    //add new farmer\n    function newFarmer (\n        uint _farmerID,\n        string memory _farmerName,\n        uint _farmerContact,\n        string memory _farmerAddress\n    ) public {\n        Farmer storage _newfarmer = mfarmer[msg.sender];\n\n        // Only allows new records to be created\n        require(!mfarmer[msg.sender].isValue);\n        _newfarmer.faddr = msg.sender;\n        _newfarmer.farmerID = _farmerID;\n        _newfarmer.farmerName = _farmerName;\n        _newfarmer.farmerAddress = _farmerAddress;\n        _newfarmer.farmerContact = _farmerContact;\n        _newfarmer.isValue = true;\n        farmerAdd.push(msg.sender);\n        farmerCount++;\n        emit farmerCreated(_newfarmer.farmerID, _farmerName, _farmerContact,_farmerAddress);\n    }\n\n    //add crop by old farmer\n     function addCrop(\n        uint _cropID,\n        string memory _cropName,\n        uint _quantity,\n        uint _cropPrice\n    ) public {\n        Crop storage _newcrop = mcrop[_cropID];\n        Crop storage _newconscrop = conscrop[_cropID];\n        \n        //Farmer storage _newfarmer = mfarmer[_farmerID];\n       \n        _newcrop.faddr = msg.sender;\n        _newcrop.cropID = _cropID;\n        _newcrop.cropName = _cropName;\n        _newcrop.quantity = _quantity;\n        _newcrop.cropPrice = _cropPrice;\n\n\n        _newconscrop.faddr = msg.sender;\n        _newconscrop.cropID = _cropID;\n        _newconscrop.cropName = _cropName;\n        _newconscrop.quantity = 0;\n        _newconscrop.cropPrice = _cropPrice;\n        cropCount++;\n        cropArr.push(_cropID);\n        emit cropCreated(_newcrop.cropID, _cropName, _quantity, _cropPrice, _newcrop.faddr);\n    }\n\n    //farmer purchase land lease\n     function purchaseLandLease (\n        uint _landID\n     ) public { \n        Landlease storage _newland = mlland[_landID];\n        _newland.isBought = true;\n        emit landPurchaseLease(_newland.landID);\n    }\n  \n    //farmer purchase sale\n     function purchaseLandSale (\n        uint _landID\n     ) public { \n        Landsale storage _newland = msland[_landID];\n        _newland.isBought = true;\n        emit landPurchaseSale(_newland.landID);\n    }\n\n    //farmer purchase seed\n    function purchaseSeed (\n        uint _seedID\n    ) public {\n        Seed storage _newseed = mseed[_seedID];\n        _newseed.isBought=true;\n        emit seedPurchase(_newseed.seedID);\n    }\n\n    //farmer purchase fertilizer\n    function purchaseFertilizer (\n        uint _fertilizerID\n    ) public {\n        Fertilizer storage _newfertilizer = mfertilizer[_fertilizerID];\n        _newfertilizer.isBought=true;\n        emit fertilizerPurchase(_newfertilizer.fertilizerID);\n    }\n\n    //add new distributor\n    function addDist(\n        uint _distID,\n        string memory _distName,\n        uint _distContact,\n        string memory _distAddress\n    ) public {\n        Distributor storage _newdist = mdist[msg.sender];\n\n        require(!mdist[msg.sender].isValue);\n        _newdist.daddr = msg.sender;\n        _newdist.distID = _distID;\n        _newdist.distName = _distName;\n        _newdist.distContact = _distContact;\n        _newdist.distAddress = _distAddress;\n        _newdist.isValue = true;\n        distAdd.push(msg.sender);\n        distCount++;\n        emit distCreated(_newdist.distID, _distName, _distContact, _distAddress);\n    }\n\n    //crop purchased by distributor\n    function distAddCrop(\n        uint _cropID\n     ) public { \n        Crop storage _newcrop = mcrop[_cropID];\n        Crop storage _newconscrop = conscrop[_cropID];\n        _newcrop.daddr = msg.sender;\n        _newcrop.isBought = true;\n        _newconscrop.daddr = msg.sender;\n        _newconscrop.isBought = true;\n        emit distCrop(_newcrop.cropID);\n    }\n\n    \n    \n    //add new retailer\n    function addRetail(\n        uint _retailID,\n        string memory _retailName,\n        uint _retailContact,\n        string memory _retailAddress\n    ) public {\n        Retailer storage _newretail = mretail[msg.sender];\n        require(!mretail[msg.sender].isValue);\n        _newretail.raddr = msg.sender;\n        _newretail.retailID = _retailID;\n        _newretail.retailName = _retailName;\n        _newretail.retailContact = _retailContact;\n        _newretail.retailAddress = _retailAddress;\n        _newretail.isValue = true;\n        retailAdd.push(msg.sender);\n        retailCount++;\n        emit retailCreated(_newretail.retailID, _retailName, _retailContact, _retailAddress);\n    }\n\n    //purchase crop by retailer\n    function retailAddCrop(\n        uint _cropID\n     ) public { \n        Crop storage _newcrop = mcrop[_cropID];\n        Crop storage _newconscrop = conscrop[_cropID];\n        \n        _newcrop.raddr = msg.sender;\n        _newcrop.isBoughtByRetailer = true;\n        \n        _newconscrop.raddr = msg.sender;\n        _newconscrop.isBoughtByRetailer = true;\n        \n        emit retailCrop(_newcrop.cropID);\n    }\n\n     //add new consumer\n    function addconsumer(\n        uint _consumerID,\n        string memory _consumerName,\n        uint _consumerContact,\n        string memory _consumerAddress\n    ) public {\n        Consumer storage _newconsumer = mconsumer[msg.sender];\n        require(!mconsumer[msg.sender].isValue);\n        _newconsumer.caddr = msg.sender;\n        _newconsumer.consumerID = _consumerID;\n        _newconsumer.consumerName = _consumerName;\n        _newconsumer.consumerContact = _consumerContact;\n        _newconsumer.consumerAddress = _consumerAddress;\n        _newconsumer.isValue = true;\n        consAdd.push(msg.sender);\n        consumerCount++;\n        emit consumerCreated(_newconsumer.consumerID, _consumerName, _consumerContact, _consumerAddress);\n    }\n\n    //purchase crop by consumer\n    function consumerAddCrop(\n        uint _cropID,\n        uint quantity\n     ) public { \n        Crop storage _newcrop = mcrop[_cropID];\n        Crop storage _newconscrop = conscrop[_cropID];\n        _newcrop.caddr = msg.sender;\n        _newcrop.isBoughtByConsumer = true;\n        _newcrop.quantity = _newcrop.quantity - quantity;\n\n        _newconscrop.caddr = msg.sender;\n        _newconscrop.isBoughtByConsumer = true;\n        _newconscrop.quantity = _newconscrop.quantity + quantity;\n        emit consumerCrop(_newcrop.cropID);\n    }\n\n}",
  "sourcePath": "C:/Users/Tamilselvi/OneDrive/Desktop/supplychain/contracts/SupplyChain.sol",
  "compiler": {
    "name": "solc",
    "version": "0.5.16+commit.9c3226ce.Emscripten.clang"
  },
  "schemaVersion": "3.3.3",
  "updatedAt": "2021-03-13T09:18:04.310Z",
  "networkType": "ethereum",
  "devdoc": {
    "methods": {}
  },
  "userdoc": {
    "methods": {}
  }
}